{
  "_format": "hh-sol-artifact-1",
  "contractName": "BnbStaking",
  "sourceName": "contracts/BnbStaking.sol",
  "abi": [
    {
      "inputs": [
        {
          "internalType": "contract IBEP20",
          "name": "_lp",
          "type": "address"
        },
        {
          "internalType": "contract IBEP20",
          "name": "_rewardToken",
          "type": "address"
        },
        {
          "internalType": "uint256",
          "name": "_rewardPerBlock",
          "type": "uint256"
        },
        {
          "internalType": "uint256",
          "name": "_startBlock",
          "type": "uint256"
        },
        {
          "internalType": "uint256",
          "name": "_bonusEndBlock",
          "type": "uint256"
        },
        {
          "internalType": "address",
          "name": "_adminAddress",
          "type": "address"
        },
        {
          "internalType": "address",
          "name": "_wbnb",
          "type": "address"
        }
      ],
      "stateMutability": "nonpayable",
      "type": "constructor"
    },
    {
      "anonymous": false,
      "inputs": [
        {
          "indexed": true,
          "internalType": "address",
          "name": "user",
          "type": "address"
        },
        {
          "indexed": false,
          "internalType": "uint256",
          "name": "amount",
          "type": "uint256"
        }
      ],
      "name": "Deposit",
      "type": "event"
    },
    {
      "anonymous": false,
      "inputs": [
        {
          "indexed": true,
          "internalType": "address",
          "name": "user",
          "type": "address"
        },
        {
          "indexed": false,
          "internalType": "uint256",
          "name": "amount",
          "type": "uint256"
        }
      ],
      "name": "EmergencyWithdraw",
      "type": "event"
    },
    {
      "anonymous": false,
      "inputs": [
        {
          "indexed": true,
          "internalType": "address",
          "name": "previousOwner",
          "type": "address"
        },
        {
          "indexed": true,
          "internalType": "address",
          "name": "newOwner",
          "type": "address"
        }
      ],
      "name": "OwnershipTransferred",
      "type": "event"
    },
    {
      "anonymous": false,
      "inputs": [
        {
          "indexed": true,
          "internalType": "address",
          "name": "user",
          "type": "address"
        },
        {
          "indexed": false,
          "internalType": "uint256",
          "name": "amount",
          "type": "uint256"
        }
      ],
      "name": "Withdraw",
      "type": "event"
    },
    {
      "inputs": [],
      "name": "WBNB",
      "outputs": [
        {
          "internalType": "address",
          "name": "",
          "type": "address"
        }
      ],
      "stateMutability": "view",
      "type": "function"
    },
    {
      "inputs": [],
      "name": "adminAddress",
      "outputs": [
        {
          "internalType": "address",
          "name": "",
          "type": "address"
        }
      ],
      "stateMutability": "view",
      "type": "function"
    },
    {
      "inputs": [],
      "name": "bonusEndBlock",
      "outputs": [
        {
          "internalType": "uint256",
          "name": "",
          "type": "uint256"
        }
      ],
      "stateMutability": "view",
      "type": "function"
    },
    {
      "inputs": [],
      "name": "deposit",
      "outputs": [],
      "stateMutability": "payable",
      "type": "function"
    },
    {
      "inputs": [
        {
          "internalType": "uint256",
          "name": "_amount",
          "type": "uint256"
        }
      ],
      "name": "emergencyRewardWithdraw",
      "outputs": [],
      "stateMutability": "nonpayable",
      "type": "function"
    },
    {
      "inputs": [],
      "name": "emergencyWithdraw",
      "outputs": [],
      "stateMutability": "nonpayable",
      "type": "function"
    },
    {
      "inputs": [
        {
          "internalType": "uint256",
          "name": "_from",
          "type": "uint256"
        },
        {
          "internalType": "uint256",
          "name": "_to",
          "type": "uint256"
        }
      ],
      "name": "getMultiplier",
      "outputs": [
        {
          "internalType": "uint256",
          "name": "",
          "type": "uint256"
        }
      ],
      "stateMutability": "view",
      "type": "function"
    },
    {
      "inputs": [],
      "name": "limitAmount",
      "outputs": [
        {
          "internalType": "uint256",
          "name": "",
          "type": "uint256"
        }
      ],
      "stateMutability": "view",
      "type": "function"
    },
    {
      "inputs": [],
      "name": "massUpdatePools",
      "outputs": [],
      "stateMutability": "nonpayable",
      "type": "function"
    },
    {
      "inputs": [],
      "name": "owner",
      "outputs": [
        {
          "internalType": "address",
          "name": "",
          "type": "address"
        }
      ],
      "stateMutability": "view",
      "type": "function"
    },
    {
      "inputs": [
        {
          "internalType": "address",
          "name": "_user",
          "type": "address"
        }
      ],
      "name": "pendingReward",
      "outputs": [
        {
          "internalType": "uint256",
          "name": "",
          "type": "uint256"
        }
      ],
      "stateMutability": "view",
      "type": "function"
    },
    {
      "inputs": [
        {
          "internalType": "uint256",
          "name": "",
          "type": "uint256"
        }
      ],
      "name": "poolInfo",
      "outputs": [
        {
          "internalType": "contract IBEP20",
          "name": "lpToken",
          "type": "address"
        },
        {
          "internalType": "uint256",
          "name": "allocPoint",
          "type": "uint256"
        },
        {
          "internalType": "uint256",
          "name": "lastRewardBlock",
          "type": "uint256"
        },
        {
          "internalType": "uint256",
          "name": "accCakePerShare",
          "type": "uint256"
        }
      ],
      "stateMutability": "view",
      "type": "function"
    },
    {
      "inputs": [
        {
          "internalType": "address",
          "name": "_blacklistAddress",
          "type": "address"
        }
      ],
      "name": "removeBlackList",
      "outputs": [],
      "stateMutability": "nonpayable",
      "type": "function"
    },
    {
      "inputs": [],
      "name": "renounceOwnership",
      "outputs": [],
      "stateMutability": "nonpayable",
      "type": "function"
    },
    {
      "inputs": [],
      "name": "rewardPerBlock",
      "outputs": [
        {
          "internalType": "uint256",
          "name": "",
          "type": "uint256"
        }
      ],
      "stateMutability": "view",
      "type": "function"
    },
    {
      "inputs": [],
      "name": "rewardToken",
      "outputs": [
        {
          "internalType": "contract IBEP20",
          "name": "",
          "type": "address"
        }
      ],
      "stateMutability": "view",
      "type": "function"
    },
    {
      "inputs": [
        {
          "internalType": "address",
          "name": "_adminAddress",
          "type": "address"
        }
      ],
      "name": "setAdmin",
      "outputs": [],
      "stateMutability": "nonpayable",
      "type": "function"
    },
    {
      "inputs": [
        {
          "internalType": "address",
          "name": "_blacklistAddress",
          "type": "address"
        }
      ],
      "name": "setBlackList",
      "outputs": [],
      "stateMutability": "nonpayable",
      "type": "function"
    },
    {
      "inputs": [
        {
          "internalType": "uint256",
          "name": "_amount",
          "type": "uint256"
        }
      ],
      "name": "setLimitAmount",
      "outputs": [],
      "stateMutability": "nonpayable",
      "type": "function"
    },
    {
      "inputs": [],
      "name": "startBlock",
      "outputs": [
        {
          "internalType": "uint256",
          "name": "",
          "type": "uint256"
        }
      ],
      "stateMutability": "view",
      "type": "function"
    },
    {
      "inputs": [],
      "name": "totalAllocPoint",
      "outputs": [
        {
          "internalType": "uint256",
          "name": "",
          "type": "uint256"
        }
      ],
      "stateMutability": "view",
      "type": "function"
    },
    {
      "inputs": [
        {
          "internalType": "address",
          "name": "newOwner",
          "type": "address"
        }
      ],
      "name": "transferOwnership",
      "outputs": [],
      "stateMutability": "nonpayable",
      "type": "function"
    },
    {
      "inputs": [
        {
          "internalType": "uint256",
          "name": "_pid",
          "type": "uint256"
        }
      ],
      "name": "updatePool",
      "outputs": [],
      "stateMutability": "nonpayable",
      "type": "function"
    },
    {
      "inputs": [
        {
          "internalType": "address",
          "name": "",
          "type": "address"
        }
      ],
      "name": "userInfo",
      "outputs": [
        {
          "internalType": "uint256",
          "name": "amount",
          "type": "uint256"
        },
        {
          "internalType": "uint256",
          "name": "rewardDebt",
          "type": "uint256"
        },
        {
          "internalType": "bool",
          "name": "inBlackList",
          "type": "bool"
        }
      ],
      "stateMutability": "view",
      "type": "function"
    },
    {
      "inputs": [
        {
          "internalType": "uint256",
          "name": "_amount",
          "type": "uint256"
        }
      ],
      "name": "withdraw",
      "outputs": [],
      "stateMutability": "nonpayable",
      "type": "function"
    },
    {
      "stateMutability": "payable",
      "type": "receive"
    }
  ],
  "bytecode": "0x60a0604052678ac7230489e80000600655600060075534801561002157600080fd5b506040516121c23803806121c2833981810160405260e081101561004457600080fd5b508051602082015160408301516060840151608085015160a086015160c0909601519495939492939192909190600061007b610201565b600080546001600160a01b0319166001600160a01b0383169081178255604051929350917f8be0079c531659141344cd1fd0a4f28419497f9722a3daafe3b4186f6b6457e0908290a350600180546001600160a01b03199081166001600160a01b03988916178255600396909655600885905560099390935560028054861692871692909217909155606090811b6001600160601b031916608090815260408051918201815296861681526103e86020820181815297820194855260009282018381526004805495860181559384905291517f8a35acfbc15ff81a39ae7d344fd709f28e8600b4aa8c65c6b64bfe7fe36bd19b949093029384018054909616929096169190911790935593517f8a35acfbc15ff81a39ae7d344fd709f28e8600b4aa8c65c6b64bfe7fe36bd19c850155517f8a35acfbc15ff81a39ae7d344fd709f28e8600b4aa8c65c6b64bfe7fe36bd19d840155517f8a35acfbc15ff81a39ae7d344fd709f28e8600b4aa8c65c6b64bfe7fe36bd19e90920191909155600755610205565b3390565b60805160601c611f8c610236600039806101b752806108975280610fb6528061117052806112385250611f8c6000f3fe60806040526004361061019a5760003560e01c806372700241116100e1578063d0e30db01161008a578063f2fde38b11610064578063f2fde38b14610559578063f40f0f5214610599578063f7c618c1146105d9578063fc6f9468146105ee576101e0565b8063d0e30db0146104fc578063db2e21bc14610504578063e4997dc514610519576101e0565b80638da5cb5b116100bb5780638da5cb5b146104795780638dbb1e3a146104b75780638dd95002146104e7576101e0565b8063727002411461040f57806378abafaf1461044f5780638ae39cac14610464576101e0565b80633279beab11610143578063630b5ba11161011d578063630b5ba1146103a5578063704b6c02146103ba578063715018a6146103fa576101e0565b80633279beab1461033c57806348cd4cb11461036657806351eb05a61461037b576101e0565b80631aed6553116101745780631aed6553146102d35780631f107a45146102e85780632e1a7d4d14610312576101e0565b80631526fe27146101e557806317caf6f11461024c5780631959a00214610273576101e0565b366101e0573373ffffffffffffffffffffffffffffffffffffffff7f000000000000000000000000000000000000000000000000000000000000000016146101de57fe5b005b600080fd5b3480156101f157600080fd5b5061020f6004803603602081101561020857600080fd5b5035610603565b6040805173ffffffffffffffffffffffffffffffffffffffff90951685526020850193909352838301919091526060830152519081900360800190f35b34801561025857600080fd5b50610261610651565b60408051918252519081900360200190f35b34801561027f57600080fd5b506102b36004803603602081101561029657600080fd5b503573ffffffffffffffffffffffffffffffffffffffff16610657565b604080519384526020840192909252151582820152519081900360600190f35b3480156102df57600080fd5b5061026161067b565b3480156102f457600080fd5b506101de6004803603602081101561030b57600080fd5b5035610681565b34801561031e57600080fd5b506101de6004803603602081101561033557600080fd5b5035610717565b34801561034857600080fd5b506101de6004803603602081101561035f57600080fd5b503561095c565b34801561037257600080fd5b50610261610b1e565b34801561038757600080fd5b506101de6004803603602081101561039e57600080fd5b5035610b24565b3480156103b157600080fd5b506101de610c79565b3480156103c657600080fd5b506101de600480360360208110156103dd57600080fd5b503573ffffffffffffffffffffffffffffffffffffffff16610c9c565b34801561040657600080fd5b506101de610d74565b34801561041b57600080fd5b506101de6004803603602081101561043257600080fd5b503573ffffffffffffffffffffffffffffffffffffffff16610e74565b34801561045b57600080fd5b50610261610f4c565b34801561047057600080fd5b50610261610f52565b34801561048557600080fd5b5061048e610f58565b6040805173ffffffffffffffffffffffffffffffffffffffff9092168252519081900360200190f35b3480156104c357600080fd5b50610261600480360360408110156104da57600080fd5b5080359060200135610f74565b3480156104f357600080fd5b5061048e610fb4565b6101de610fd8565b34801561051057600080fd5b506101de61131c565b34801561052557600080fd5b506101de6004803603602081101561053c57600080fd5b503573ffffffffffffffffffffffffffffffffffffffff166113bc565b34801561056557600080fd5b506101de6004803603602081101561057c57600080fd5b503573ffffffffffffffffffffffffffffffffffffffff16611491565b3480156105a557600080fd5b50610261600480360360208110156105bc57600080fd5b503573ffffffffffffffffffffffffffffffffffffffff1661152b565b3480156105e557600080fd5b5061048e6116a9565b3480156105fa57600080fd5b5061048e6116c5565b6004818154811061061057fe5b6000918252602090912060049091020180546001820154600283015460039093015473ffffffffffffffffffffffffffffffffffffffff9092169350919084565b60075481565b60056020526000908152604090208054600182015460029092015490919060ff1683565b60095481565b6106896116e1565b60005473ffffffffffffffffffffffffffffffffffffffff90811691161461071257604080517f08c379a000000000000000000000000000000000000000000000000000000000815260206004820181905260248201527f4f776e61626c653a2063616c6c6572206973206e6f7420746865206f776e6572604482015290519081900360640190fd5b600655565b6000600460008154811061072757fe5b60009182526020808320338452600590915260409092208054600490920290920192508311156107b857604080517f08c379a000000000000000000000000000000000000000000000000000000000815260206004820152601260248201527f77697468647261773a206e6f7420676f6f640000000000000000000000000000604482015290519081900360640190fd5b6107c26000610b24565b60006107fc82600101546107f664e8d4a510006107f0876003015487600001546116e590919063ffffffff16565b9061175f565b906117a1565b90506000811180156108135750600282015460ff16155b1561083c5760015461083c9073ffffffffffffffffffffffffffffffffffffffff1633836117e3565b831561090057815461084e90856117a1565b8255604080517f2e1a7d4d00000000000000000000000000000000000000000000000000000000815260048101869052905173ffffffffffffffffffffffffffffffffffffffff7f00000000000000000000000000000000000000000000000000000000000000001691632e1a7d4d91602480830192600092919082900301818387803b1580156108de57600080fd5b505af11580156108f2573d6000803e3d6000fd5b505050506109003385611875565b6003830154825461091b9164e8d4a51000916107f0916116e5565b600183015560408051858152905133917f884edad9ce6fa2440d8a54cc123490eb96d2768479d49ff9c7366125a9424364919081900360200190a250505050565b6109646116e1565b60005473ffffffffffffffffffffffffffffffffffffffff9081169116146109ed57604080517f08c379a000000000000000000000000000000000000000000000000000000000815260206004820181905260248201527f4f776e61626c653a2063616c6c6572206973206e6f7420746865206f776e6572604482015290519081900360640190fd5b600154604080517f70a08231000000000000000000000000000000000000000000000000000000008152306004820152905173ffffffffffffffffffffffffffffffffffffffff909216916370a0823191602480820192602092909190829003018186803b158015610a5e57600080fd5b505afa158015610a72573d6000803e3d6000fd5b505050506040513d6020811015610a8857600080fd5b50518110610af757604080517f08c379a000000000000000000000000000000000000000000000000000000000815260206004820152601060248201527f6e6f7420656e6f75676820746f6b656e00000000000000000000000000000000604482015290519081900360640190fd5b600154610b1b9073ffffffffffffffffffffffffffffffffffffffff1633836117e3565b50565b60085481565b600060048281548110610b3357fe5b9060005260206000209060040201905080600201544311610b545750610b1b565b8054604080517f70a08231000000000000000000000000000000000000000000000000000000008152306004820152905160009273ffffffffffffffffffffffffffffffffffffffff16916370a08231916024808301926020929190829003018186803b158015610bc457600080fd5b505afa158015610bd8573d6000803e3d6000fd5b505050506040513d6020811015610bee57600080fd5b5051905080610c04575043600290910155610b1b565b6000610c14836002015443610f74565b90506000610c416007546107f08660010154610c3b600354876116e590919063ffffffff16565b906116e5565b9050610c64610c59846107f08464e8d4a510006116e5565b600386015490611931565b60038501555050436002909201919091555050565b60045460005b81811015610c9857610c9081610b24565b600101610c7f565b5050565b610ca46116e1565b60005473ffffffffffffffffffffffffffffffffffffffff908116911614610d2d57604080517f08c379a000000000000000000000000000000000000000000000000000000000815260206004820181905260248201527f4f776e61626c653a2063616c6c6572206973206e6f7420746865206f776e6572604482015290519081900360640190fd5b600280547fffffffffffffffffffffffff00000000000000000000000000000000000000001673ffffffffffffffffffffffffffffffffffffffff92909216919091179055565b610d7c6116e1565b60005473ffffffffffffffffffffffffffffffffffffffff908116911614610e0557604080517f08c379a000000000000000000000000000000000000000000000000000000000815260206004820181905260248201527f4f776e61626c653a2063616c6c6572206973206e6f7420746865206f776e6572604482015290519081900360640190fd5b6000805460405173ffffffffffffffffffffffffffffffffffffffff909116907f8be0079c531659141344cd1fd0a4f28419497f9722a3daafe3b4186f6b6457e0908390a3600080547fffffffffffffffffffffffff0000000000000000000000000000000000000000169055565b60025473ffffffffffffffffffffffffffffffffffffffff163314610efa57604080517f08c379a000000000000000000000000000000000000000000000000000000000815260206004820152600b60248201527f61646d696e3a207775743f000000000000000000000000000000000000000000604482015290519081900360640190fd5b73ffffffffffffffffffffffffffffffffffffffff16600090815260056020526040902060020180547fffffffffffffffffffffffffffffffffffffffffffffffffffffffffffffff00166001179055565b60065481565b60035481565b60005473ffffffffffffffffffffffffffffffffffffffff1690565b60006009548211610f9057610f8982846117a1565b9050610fae565b6009548310610fa157506000610fae565b600954610f8990846117a1565b92915050565b7f000000000000000000000000000000000000000000000000000000000000000081565b60006004600081548110610fe857fe5b6000918252602080832033845260059091526040909220600654815460049093029093019350919061101a9034611931565b111561108757604080517f08c379a000000000000000000000000000000000000000000000000000000000815260206004820152600e60248201527f6578636565642074686520746f70000000000000000000000000000000000000604482015290519081900360640190fd5b600281015460ff16156110fb57604080517f08c379a000000000000000000000000000000000000000000000000000000000815260206004820152600d60248201527f696e20626c61636b206c69737400000000000000000000000000000000000000604482015290519081900360640190fd5b6111056000610b24565b80541561116857600061113a82600101546107f664e8d4a510006107f0876003015487600001546116e590919063ffffffff16565b90508015611166576001546111669073ffffffffffffffffffffffffffffffffffffffff1633836117e3565b505b34156112c2577f000000000000000000000000000000000000000000000000000000000000000073ffffffffffffffffffffffffffffffffffffffff1663d0e30db0346040518263ffffffff1660e01b81526004016000604051808303818588803b1580156111d657600080fd5b505af11580156111ea573d6000803e3d6000fd5b5050604080517fa9059cbb000000000000000000000000000000000000000000000000000000008152306004820152346024820152905173ffffffffffffffffffffffffffffffffffffffff7f000000000000000000000000000000000000000000000000000000000000000016945063a9059cbb9350604480830193506020928290030181600087803b15801561128157600080fd5b505af1158015611295573d6000803e3d6000fd5b505050506040513d60208110156112ab57600080fd5b50516112b357fe5b80546112bf9034611931565b81555b600382015481546112dd9164e8d4a51000916107f0916116e5565b600182015560408051348152905133917fe1fffcc4923d04b559f4d29a8bfc6cda04eb5b0d3c460751c2402c5c5cc9109c919081900360200190a25050565b6000600460008154811061132c57fe5b6000918252602080832033808552600590925260409093208054600490930290930180549094506113779273ffffffffffffffffffffffffffffffffffffffff9190911691906117e3565b8054604080519182525133917f5fafa99d0643513820be26656b45130b01e1c03062e1266bf36f88cbd3bd9695919081900360200190a2600080825560019091015550565b60025473ffffffffffffffffffffffffffffffffffffffff16331461144257604080517f08c379a000000000000000000000000000000000000000000000000000000000815260206004820152600b60248201527f61646d696e3a207775743f000000000000000000000000000000000000000000604482015290519081900360640190fd5b73ffffffffffffffffffffffffffffffffffffffff16600090815260056020526040902060020180547fffffffffffffffffffffffffffffffffffffffffffffffffffffffffffffff00169055565b6114996116e1565b60005473ffffffffffffffffffffffffffffffffffffffff90811691161461152257604080517f08c379a000000000000000000000000000000000000000000000000000000000815260206004820181905260248201527f4f776e61626c653a2063616c6c6572206973206e6f7420746865206f776e6572604482015290519081900360640190fd5b610b1b816119a5565b600080600460008154811061153c57fe5b6000918252602080832073ffffffffffffffffffffffffffffffffffffffff878116855260058352604080862060049586029093016003810154815483517f70a082310000000000000000000000000000000000000000000000000000000081523098810198909852925191985093969395939491909216926370a082319260248083019392829003018186803b1580156115d657600080fd5b505afa1580156115ea573d6000803e3d6000fd5b505050506040513d602081101561160057600080fd5b505160028501549091504311801561161757508015155b1561167757600061162c856002015443610f74565b905060006116536007546107f08860010154610c3b600354876116e590919063ffffffff16565b905061167261166b846107f08464e8d4a510006116e5565b8590611931565b935050505b61169f83600101546107f664e8d4a510006107f08688600001546116e590919063ffffffff16565b9695505050505050565b60015473ffffffffffffffffffffffffffffffffffffffff1681565b60025473ffffffffffffffffffffffffffffffffffffffff1681565b3390565b6000826116f457506000610fae565b8282028284828161170157fe5b0414611758576040517f08c379a0000000000000000000000000000000000000000000000000000000008152600401808060200182810382526021815260200180611f136021913960400191505060405180910390fd5b9392505050565b600061175883836040518060400160405280601a81526020017f536166654d6174683a206469766973696f6e206279207a65726f000000000000815250611a9e565b600061175883836040518060400160405280601e81526020017f536166654d6174683a207375627472616374696f6e206f766572666c6f770000815250611b5a565b6040805173ffffffffffffffffffffffffffffffffffffffff8416602482015260448082018490528251808303909101815260649091019091526020810180517bffffffffffffffffffffffffffffffffffffffffffffffffffffffff167fa9059cbb00000000000000000000000000000000000000000000000000000000179052611870908490611bce565b505050565b60405160009073ffffffffffffffffffffffffffffffffffffffff8416906159d890849084818181858888f193505050503d80600081146118d2576040519150601f19603f3d011682016040523d82523d6000602084013e6118d7565b606091505b5050905080611870576040517f08c379a0000000000000000000000000000000000000000000000000000000008152600401808060200182810382526023815260200180611f346023913960400191505060405180910390fd5b60008282018381101561175857604080517f08c379a000000000000000000000000000000000000000000000000000000000815260206004820152601b60248201527f536166654d6174683a206164646974696f6e206f766572666c6f770000000000604482015290519081900360640190fd5b73ffffffffffffffffffffffffffffffffffffffff8116611a11576040517f08c379a0000000000000000000000000000000000000000000000000000000008152600401808060200182810382526026815260200180611eed6026913960400191505060405180910390fd5b6000805460405173ffffffffffffffffffffffffffffffffffffffff808516939216917f8be0079c531659141344cd1fd0a4f28419497f9722a3daafe3b4186f6b6457e091a3600080547fffffffffffffffffffffffff00000000000000000000000000000000000000001673ffffffffffffffffffffffffffffffffffffffff92909216919091179055565b60008183611b44576040517f08c379a00000000000000000000000000000000000000000000000000000000081526004018080602001828103825283818151815260200191508051906020019080838360005b83811015611b09578181015183820152602001611af1565b50505050905090810190601f168015611b365780820380516001836020036101000a031916815260200191505b509250505060405180910390fd5b506000838581611b5057fe5b0495945050505050565b60008184841115611bc6576040517f08c379a0000000000000000000000000000000000000000000000000000000008152602060048201818152835160248401528351909283926044909101919085019080838360008315611b09578181015183820152602001611af1565b505050900390565b6060611c30826040518060400160405280602081526020017f5361666542455032303a206c6f772d6c6576656c2063616c6c206661696c65648152508573ffffffffffffffffffffffffffffffffffffffff16611ca69092919063ffffffff16565b80519091501561187057808060200190516020811015611c4f57600080fd5b5051611870576040517f08c379a000000000000000000000000000000000000000000000000000000000815260040180806020018281038252602a815260200180611ec3602a913960400191505060405180910390fd5b6060611cb58484600085611cbd565b949350505050565b6060611cc885611e89565b611d3357604080517f08c379a000000000000000000000000000000000000000000000000000000000815260206004820152601d60248201527f416464726573733a2063616c6c20746f206e6f6e2d636f6e7472616374000000604482015290519081900360640190fd5b600060608673ffffffffffffffffffffffffffffffffffffffff1685876040518082805190602001908083835b60208310611d9d57805182527fffffffffffffffffffffffffffffffffffffffffffffffffffffffffffffffe09092019160209182019101611d60565b6001836020036101000a03801982511681845116808217855250505050505090500191505060006040518083038185875af1925050503d8060008114611dff576040519150601f19603f3d011682016040523d82523d6000602084013e611e04565b606091505b50915091508115611e18579150611cb59050565b805115611e285780518082602001fd5b6040517f08c379a0000000000000000000000000000000000000000000000000000000008152602060048201818152865160248401528651879391928392604401919085019080838360008315611b09578181015183820152602001611af1565b6000813f7fc5d2460186f7233c927e7db2dcc703c0e500b653ca82273b7bfad8045d85a470818114801590611cb557505015159291505056fe5361666542455032303a204245503230206f7065726174696f6e20646964206e6f7420737563636565644f776e61626c653a206e6577206f776e657220697320746865207a65726f2061646472657373536166654d6174683a206d756c7469706c69636174696f6e206f766572666c6f775472616e7366657248656c7065723a204554485f5452414e534645525f4641494c4544a2646970667358221220d0019ad878e533400d043b2e0dd12f57d3a4bf5a6d8c1da5920722e85be813f164736f6c634300060c0033",
  "linkReferences": {},
  "deployedLinkReferences": {}
}