{
  "_format": "hh-sol-artifact-1",
  "contractName": "GaugeVotingCalc",
  "sourceName": "contracts/GaugeVotingCalc.sol",
  "abi": [
    {
      "inputs": [],
      "name": "gaugeVotingAddress",
      "outputs": [
        {
          "internalType": "address",
          "name": "",
          "type": "address"
        }
      ],
      "stateMutability": "view",
      "type": "function"
    },
    {
      "inputs": [
        {
          "internalType": "address",
          "name": "_gaugeAddr",
          "type": "address"
        },
        {
          "internalType": "uint256",
          "name": "_chainId",
          "type": "uint256"
        },
        {
          "internalType": "bool",
          "name": "_inCap",
          "type": "bool"
        }
      ],
      "name": "getGaugeRelativeWeight",
      "outputs": [
        {
          "internalType": "uint256",
          "name": "",
          "type": "uint256"
        }
      ],
      "stateMutability": "view",
      "type": "function"
    },
    {
      "inputs": [
        {
          "internalType": "uint256",
          "name": "_gaugeId",
          "type": "uint256"
        },
        {
          "internalType": "bool",
          "name": "_inCap",
          "type": "bool"
        }
      ],
      "name": "getGaugeRelativeWeightById",
      "outputs": [
        {
          "internalType": "uint256",
          "name": "",
          "type": "uint256"
        }
      ],
      "stateMutability": "view",
      "type": "function"
    },
    {
      "inputs": [
        {
          "internalType": "address",
          "name": "_gaugeAddr",
          "type": "address"
        },
        {
          "internalType": "uint256",
          "name": "_chainId",
          "type": "uint256"
        },
        {
          "internalType": "bool",
          "name": "_inCap",
          "type": "bool"
        }
      ],
      "name": "getGaugeWeight",
      "outputs": [
        {
          "internalType": "uint256",
          "name": "",
          "type": "uint256"
        }
      ],
      "stateMutability": "view",
      "type": "function"
    },
    {
      "inputs": [
        {
          "internalType": "uint256",
          "name": "_gaugeId",
          "type": "uint256"
        }
      ],
      "name": "getGaugeWeightDetails",
      "outputs": [
        {
          "internalType": "uint256",
          "name": "gaugeWeight",
          "type": "uint256"
        },
        {
          "internalType": "uint256",
          "name": "gaugeTotalWeight",
          "type": "uint256"
        },
        {
          "internalType": "uint256",
          "name": "gaugeRawPercent",
          "type": "uint256"
        },
        {
          "internalType": "uint256",
          "name": "gaugeCappedPercent",
          "type": "uint256"
        },
        {
          "internalType": "uint256",
          "name": "gaugeInCapWeight",
          "type": "uint256"
        },
        {
          "internalType": "uint256",
          "name": "gaugeTotalFinalWeights",
          "type": "uint256"
        },
        {
          "internalType": "uint256",
          "name": "gaugeFinalPercent",
          "type": "uint256"
        }
      ],
      "stateMutability": "view",
      "type": "function"
    },
    {
      "inputs": [
        {
          "internalType": "address",
          "name": "_gaugeAddr",
          "type": "address"
        },
        {
          "internalType": "uint256",
          "name": "_chainId",
          "type": "uint256"
        },
        {
          "internalType": "bool",
          "name": "_inCap",
          "type": "bool"
        },
        {
          "internalType": "uint256",
          "name": "_gaugeTotalWeight",
          "type": "uint256"
        },
        {
          "internalType": "uint256",
          "name": "_gaugeTotalCappedPercent",
          "type": "uint256"
        },
        {
          "internalType": "uint256",
          "name": "_gaugeTotalFinalWeights",
          "type": "uint256"
        }
      ],
      "name": "getGaugeWeightMass",
      "outputs": [
        {
          "internalType": "uint256",
          "name": "",
          "type": "uint256"
        }
      ],
      "stateMutability": "view",
      "type": "function"
    },
    {
      "inputs": [
        {
          "internalType": "uint256",
          "name": "_gaugeId",
          "type": "uint256"
        },
        {
          "internalType": "bool",
          "name": "_inCap",
          "type": "bool"
        }
      ],
      "name": "getGaugeWeightbyId",
      "outputs": [
        {
          "internalType": "uint256",
          "name": "",
          "type": "uint256"
        }
      ],
      "stateMutability": "view",
      "type": "function"
    },
    {
      "inputs": [],
      "name": "getRawTotalGaugeWeight",
      "outputs": [
        {
          "internalType": "uint256",
          "name": "gaugeTotalWeight",
          "type": "uint256"
        }
      ],
      "stateMutability": "view",
      "type": "function"
    },
    {
      "inputs": [],
      "name": "getTotalCappedPercent",
      "outputs": [
        {
          "internalType": "uint256",
          "name": "gaugeTotalCappedPercent",
          "type": "uint256"
        }
      ],
      "stateMutability": "view",
      "type": "function"
    },
    {
      "inputs": [],
      "name": "getTotalFinalWeights",
      "outputs": [
        {
          "internalType": "uint256",
          "name": "gaugeTotalFinalWeights",
          "type": "uint256"
        }
      ],
      "stateMutability": "view",
      "type": "function"
    },
    {
      "inputs": [
        {
          "internalType": "bool",
          "name": "_inCap",
          "type": "bool"
        }
      ],
      "name": "getTotalWeight",
      "outputs": [
        {
          "internalType": "uint256",
          "name": "",
          "type": "uint256"
        }
      ],
      "stateMutability": "view",
      "type": "function"
    },
    {
      "inputs": [
        {
          "internalType": "bool",
          "name": "_inCap",
          "type": "bool"
        }
      ],
      "name": "massGetGaugeWeight",
      "outputs": [
        {
          "internalType": "uint256[]",
          "name": "result",
          "type": "uint256[]"
        }
      ],
      "stateMutability": "view",
      "type": "function"
    }
  ],
  "bytecode": "0x6080604052600080546001600160a01b03191673f81953dc234cdef1d6d0d3ef61b232c6bcbf9aef17905534801561003657600080fd5b506113af806100466000396000f3fe608060405234801561001057600080fd5b50600436106100b45760003560e01c80639734e68e116100715780639734e68e1461011d578063992681c814610148578063a82eed171461015b578063d983cd561461017b578063de52092c146101c3578063e9c1f214146101d657600080fd5b8063065e9f34146100b95780632a942fa3146100df5780632ce9b0d6146100f257806340b8447e146100fa57806376c130cf1461010257806396a55c091461010a575b600080fd5b6100cc6100c73660046110c6565b6101e9565b6040519081526020015b60405180910390f35b6100cc6100ed366004611104565b6102d0565b6100cc610308565b6100cc610319565b6100cc610326565b6100cc610118366004611104565b610330565b600054610130906001600160a01b031681565b6040516001600160a01b0390911681526020016100d6565b6100cc6101563660046110c6565b610359565b61016e610169366004611130565b61042e565b6040516100d6919061114b565b61018e61018936600461118f565b6106ff565b604080519788526020880196909652948601939093526060850191909152608084015260a083015260c082015260e0016100d6565b6100cc6101d13660046111a8565b61072f565b6100cc6101e4366004611130565b610876565b60008084846040516020016101ff929190611202565b60408051808303601f19018152908290528051602090910120600080546312f22b0160e21b845260048401839052919350916001916001600160a01b031690634bc8ac0490602401602060405180830381865afa158015610264573d6000803e3d6000fd5b505050506040513d601f19601f820116820180604052508101906102889190611224565b6102929190611253565b90506000806102a5836000806000610895565b965050505093505050856102be575092506102c9915050565b93506102c992505050565b9392505050565b60008060006102e3856000806000610895565b505094505050509150836102f957509050610302565b91506103029050565b92915050565b60006103146000610aae565b905090565b6000610314600080610ca9565b6000610314610f09565b6000806000610343856000806000610895565b965050505093505050836102f957509050610302565b600080848460405160200161036f929190611202565b60408051808303601f19018152908290528051602090910120600080546312f22b0160e21b845260048401839052919350916001916001600160a01b031690634bc8ac0490602401602060405180830381865afa1580156103d4573d6000803e3d6000fd5b505050506040513d601f19601f820116820180604052508101906103f89190611224565b6104029190611253565b9050600080610415836000806000610895565b505094505050509150856102be575092506102c9915050565b6000805460408051635322004160e11b81529051606093926001600160a01b03169163a64400829160048083019260209291908290030181865afa15801561047a573d6000803e3d6000fd5b505050506040513d601f19601f8201168201806040525081019061049e9190611224565b90508067ffffffffffffffff8111156104b9576104b9611266565b6040519080825280602002602001820160405280156104e2578160200160208202803683370190505b50915060006104ef610f09565b905060006104fc82610aae565b905060005b838110156106f6576000805460405163b053918760e01b815260048101849052829182916001600160a01b039091169063b05391879060240160c060405180830381865afa158015610557573d6000803e3d6000fd5b505050506040513d601f19601f8201168201806040525081019061057b919061127c565b60008054604051631324d03960e31b8152959a509398509096509450506001600160a01b0316915063992681c8906105bb908690889086906004016112db565b602060405180830381865afa1580156105d8573d6000803e3d6000fd5b505050506040513d601f19601f820116820180604052508101906105fc9190611224565b9050600087610610836402540be4006112fe565b61061a9190611315565b9050600061062b84620f42406112fe565b905081818111801561063c57508115155b156106445750805b60006402540be400610656838d6112fe565b6106609190611315565b9050828411801561067057508215155b15610692576402540be4006106858b836112fe565b61068f9190611315565b90505b8d6106bb57848d8a815181106106aa576106aa611337565b6020026020010181815250506106db565b808d8a815181106106ce576106ce611337565b6020026020010181815250505b505050505050505080806106ee9061134d565b915050610501565b50505050919050565b6000806000806000806000610718886000806000610895565b959e949d50929b5090995097509550909350915050565b6000808261073d85876112fe565b61074791906112fe565b1161078f5760405162461bcd60e51b81526020600482015260146024820152736d697373696e6720746f74616c20706172616d7360601b604482015260640160405180910390fd5b600087876040516020016107a4929190611202565b60408051808303601f19018152908290528051602090910120600080546312f22b0160e21b845260048401839052919350916001916001600160a01b031690634bc8ac0490602401602060405180830381865afa158015610809573d6000803e3d6000fd5b505050506040513d601f19601f8201168201806040525081019061082d9190611224565b6108379190611253565b905060008061084883898989610895565b505094505050509150886108615750925061086c915050565b935061086c92505050565b9695505050505050565b60008161088557610302610f09565b610302600080610ca9565b919050565b6000805460405163b053918760e01b8152600481018790528291829182918291829182918291829182916001600160a01b03169063b05391879060240160c060405180830381865afa1580156108ef573d6000803e3d6000fd5b505050506040513d601f19601f82011682018060405250810190610913919061127c565b60008054604051631324d03960e31b8152959a509398509096506001600160a01b03909216945063992681c89350610953928792899250906004016112db565b602060405180830381865afa158015610970573d6000803e3d6000fd5b505050506040513d601f19601f820116820180604052508101906109949190611224565b99508c6000036109ad576109a6610f09565b98506109b1565b8c98505b886109c18b6402540be4006112fe565b6109cb9190611315565b975060008c6000036109e8576109e16000610aae565b90506109eb565b508b5b8b600003610a04576109fd8a82610ca9565b9550610a08565b8b95505b6000610a1783620f42406112fe565b9050899850808a118015610a2a57508015155b15610a33578098505b6402540be400610a438a8d6112fe565b610a4d9190611315565b9750808a118015610a5d57508015155b15610a7f576402540be400610a72838a6112fe565b610a7c9190611315565b97505b86610a8f896402540be4006112fe565b610a999190611315565b95505050505050949950949992975094509450565b600081600003610ac357610ac0610f09565b91505b60005b60008054906101000a90046001600160a01b03166001600160a01b031663a64400826040518163ffffffff1660e01b8152600401602060405180830381865afa158015610b17573d6000803e3d6000fd5b505050506040513d601f19601f82011682018060405250810190610b3b9190611224565b811015610ca3576000805460405163b053918760e01b815260048101849052829182916001600160a01b039091169063b05391879060240160c060405180830381865afa158015610b90573d6000803e3d6000fd5b505050506040513d601f19601f82011682018060405250810190610bb4919061127c565b60008054604051631324d03960e31b8152959a509398509096509450506001600160a01b0316915063992681c890610bf4908690889086906004016112db565b602060405180830381865afa158015610c11573d6000803e3d6000fd5b505050506040513d601f19601f82011682018060405250810190610c359190611224565b9050600087610c49836402540be4006112fe565b610c539190611315565b90506000610c6484620f42406112fe565b9050818181118015610c7557508115155b15610c7d5750805b610c87818a611366565b9850505050505050508080610c9b9061134d565b915050610ac6565b50919050565b600082600003610cbe57610cbb610f09565b92505b81600003610cd357610cd06000610aae565b91505b60005b60008054906101000a90046001600160a01b03166001600160a01b031663a64400826040518163ffffffff1660e01b8152600401602060405180830381865afa158015610d27573d6000803e3d6000fd5b505050506040513d601f19601f82011682018060405250810190610d4b9190611224565b811015610f02576000805460405163b053918760e01b815260048101849052829182916001600160a01b039091169063b05391879060240160c060405180830381865afa158015610da0573d6000803e3d6000fd5b505050506040513d601f19601f82011682018060405250810190610dc4919061127c565b60008054604051631324d03960e31b8152959a509398509096509450506001600160a01b0316915063992681c890610e04908690889086906004016112db565b602060405180830381865afa158015610e21573d6000803e3d6000fd5b505050506040513d601f19601f82011682018060405250810190610e459190611224565b9050600088610e59836402540be4006112fe565b610e639190611315565b90506000610e7484620f42406112fe565b9050818181118015610e8557508115155b15610e8d5750805b60006402540be400610e9f838e6112fe565b610ea99190611315565b90508284118015610eb957508215155b15610edb576402540be400610ece8c836112fe565b610ed89190611315565b90505b610ee5818b611366565b995050505050505050508080610efa9061134d565b915050610cd6565b5092915050565b6000805b60008054906101000a90046001600160a01b03166001600160a01b031663a64400826040518163ffffffff1660e01b8152600401602060405180830381865afa158015610f5e573d6000803e3d6000fd5b505050506040513d601f19601f82011682018060405250810190610f829190611224565b81101561109a576000805460405163b053918760e01b81526004810184905282916001600160a01b03169063b05391879060240160c060405180830381865afa158015610fd3573d6000803e3d6000fd5b505050506040513d601f19601f82011682018060405250810190610ff7919061127c565b505060008054604051631324d03960e31b815293975091955093506001600160a01b0316915063992681c890611035908590879086906004016112db565b602060405180830381865afa158015611052573d6000803e3d6000fd5b505050506040513d601f19601f820116820180604052508101906110769190611224565b90506110828186611366565b945050505080806110929061134d565b915050610f0d565b5090565b6001600160a01b03811681146110b357600080fd5b50565b8035801515811461089057600080fd5b6000806000606084860312156110db57600080fd5b83356110e68161109e565b9250602084013591506110fb604085016110b6565b90509250925092565b6000806040838503121561111757600080fd5b82359150611127602084016110b6565b90509250929050565b60006020828403121561114257600080fd5b6102c9826110b6565b6020808252825182820181905260009190848201906040850190845b8181101561118357835183529284019291840191600101611167565b50909695505050505050565b6000602082840312156111a157600080fd5b5035919050565b60008060008060008060c087890312156111c157600080fd5b86356111cc8161109e565b9550602087013594506111e1604088016110b6565b9350606087013592506080870135915060a087013590509295509295509295565b60609290921b6bffffffffffffffffffffffff19168252601482015260340190565b60006020828403121561123657600080fd5b5051919050565b634e487b7160e01b600052601160045260246000fd5b818103818111156103025761030261123d565b634e487b7160e01b600052604160045260246000fd5b60008060008060008060c0878903121561129557600080fd5b8651955060208701516112a78161109e565b6040880151606089015191965094506112bf8161109e565b809350506080870151915060a087015190509295509295509295565b6001600160a01b0393909316835260208301919091521515604082015260600190565b80820281158282048414176103025761030261123d565b60008261133257634e487b7160e01b600052601260045260246000fd5b500490565b634e487b7160e01b600052603260045260246000fd5b60006001820161135f5761135f61123d565b5060010190565b808201808211156103025761030261123d56fea2646970667358221220b5bbf714cfc98c55b1cbecc81bbbd499ca8e8e2a4decf15e8ef255079c6ee94b64736f6c63430008110033",
  "linkReferences": {},
  "deployedLinkReferences": {}
}