{
  "_format": "hh-sol-artifact-1",
  "contractName": "CoinFactory",
  "sourceName": "contracts/libs/CoinFactory.sol",
  "abi": [
    {
      "inputs": [],
      "stateMutability": "nonpayable",
      "type": "constructor"
    },
    {
      "anonymous": false,
      "inputs": [
        {
          "indexed": true,
          "internalType": "address",
          "name": "coin",
          "type": "address"
        }
      ],
      "name": "NewCoinCreated",
      "type": "event"
    },
    {
      "anonymous": false,
      "inputs": [
        {
          "indexed": true,
          "internalType": "address",
          "name": "previousOwner",
          "type": "address"
        },
        {
          "indexed": true,
          "internalType": "address",
          "name": "newOwner",
          "type": "address"
        }
      ],
      "name": "OwnershipTransferred",
      "type": "event"
    },
    {
      "inputs": [
        {
          "internalType": "string",
          "name": "name",
          "type": "string"
        },
        {
          "internalType": "string",
          "name": "symbol",
          "type": "string"
        },
        {
          "internalType": "uint256",
          "name": "supply",
          "type": "uint256"
        },
        {
          "internalType": "uint8",
          "name": "decimals",
          "type": "uint8"
        }
      ],
      "name": "deployCoin",
      "outputs": [],
      "stateMutability": "nonpayable",
      "type": "function"
    },
    {
      "inputs": [],
      "name": "owner",
      "outputs": [
        {
          "internalType": "address",
          "name": "",
          "type": "address"
        }
      ],
      "stateMutability": "view",
      "type": "function"
    },
    {
      "inputs": [],
      "name": "renounceOwnership",
      "outputs": [],
      "stateMutability": "nonpayable",
      "type": "function"
    },
    {
      "inputs": [
        {
          "internalType": "address",
          "name": "newOwner",
          "type": "address"
        }
      ],
      "name": "transferOwnership",
      "outputs": [],
      "stateMutability": "nonpayable",
      "type": "function"
    }
  ],
  "bytecode": "0x608060405234801561001057600080fd5b50600061001b61006a565b600080546001600160a01b0319166001600160a01b0383169081178255604051929350917f8be0079c531659141344cd1fd0a4f28419497f9722a3daafe3b4186f6b6457e0908290a35061006e565b3390565b61179c8061007d6000396000f3fe608060405234801561001057600080fd5b506004361061004c5760003560e01c8063715018a6146100515780638da5cb5b1461005b578063c9c787ba1461008c578063f2fde38b146101c1575b600080fd5b6100596101f4565b005b61006361030b565b6040805173ffffffffffffffffffffffffffffffffffffffff9092168252519081900360200190f35b610059600480360360808110156100a257600080fd5b8101906020810181356401000000008111156100bd57600080fd5b8201836020820111156100cf57600080fd5b803590602001918460018302840111640100000000831117156100f157600080fd5b91908080601f016020809104026020016040519081016040528093929190818152602001838380828437600092019190915250929594936020810193503591505064010000000081111561014457600080fd5b82018360208201111561015657600080fd5b8035906020019184600183028401116401000000008311171561017857600080fd5b91908080601f016020809104026020016040519081016040528093929190818152602001838380828437600092019190915250929550508235935050506020013560ff16610327565b610059600480360360208110156101d757600080fd5b503573ffffffffffffffffffffffffffffffffffffffff16610548565b6101fc6106e9565b73ffffffffffffffffffffffffffffffffffffffff1661021a61030b565b73ffffffffffffffffffffffffffffffffffffffff161461029c57604080517f08c379a000000000000000000000000000000000000000000000000000000000815260206004820181905260248201527f4f776e61626c653a2063616c6c6572206973206e6f7420746865206f776e6572604482015290519081900360640190fd5b6000805460405173ffffffffffffffffffffffffffffffffffffffff909116907f8be0079c531659141344cd1fd0a4f28419497f9722a3daafe3b4186f6b6457e0908390a3600080547fffffffffffffffffffffffff0000000000000000000000000000000000000000169055565b60005473ffffffffffffffffffffffffffffffffffffffff1690565b61032f6106e9565b73ffffffffffffffffffffffffffffffffffffffff1661034d61030b565b73ffffffffffffffffffffffffffffffffffffffff16146103cf57604080517f08c379a000000000000000000000000000000000000000000000000000000000815260206004820181905260248201527f4f776e61626c653a2063616c6c6572206973206e6f7420746865206f776e6572604482015290519081900360640190fd5b600084848484336040516103e2906106ed565b6040810184905260ff8316606082015273ffffffffffffffffffffffffffffffffffffffff8216608082015260a08082528651908201528551819060208083019160c08401918a019080838360005b83811015610449578181015183820152602001610431565b50505050905090810190601f1680156104765780820380516001836020036101000a031916815260200191505b50838103825287518152875160209182019189019080838360005b838110156104a9578181015183820152602001610491565b50505050905090810190601f1680156104d65780820380516001836020036101000a031916815260200191505b50975050505050505050604051809103906000f0801580156104fc573d6000803e3d6000fd5b5060405190915073ffffffffffffffffffffffffffffffffffffffff8216907f9e2da3ed19009faef07a9fbc8cec7ca541f4a355fc914dd9505cc1f344f0adac90600090a25050505050565b6105506106e9565b73ffffffffffffffffffffffffffffffffffffffff1661056e61030b565b73ffffffffffffffffffffffffffffffffffffffff16146105f057604080517f08c379a000000000000000000000000000000000000000000000000000000000815260206004820181905260248201527f4f776e61626c653a2063616c6c6572206973206e6f7420746865206f776e6572604482015290519081900360640190fd5b73ffffffffffffffffffffffffffffffffffffffff811661065c576040517f08c379a00000000000000000000000000000000000000000000000000000000081526004018080602001828103825260268152602001806117416026913960400191505060405180910390fd5b6000805460405173ffffffffffffffffffffffffffffffffffffffff808516939216917f8be0079c531659141344cd1fd0a4f28419497f9722a3daafe3b4186f6b6457e091a3600080547fffffffffffffffffffffffff00000000000000000000000000000000000000001673ffffffffffffffffffffffffffffffffffffffff92909216919091179055565b3390565b611046806106fb8339019056fe60806040523480156200001157600080fd5b506040516200104638038062001046833981810160405260a08110156200003757600080fd5b81019080805160405193929190846401000000008211156200005857600080fd5b9083019060208201858111156200006e57600080fd5b82516401000000008111828201881017156200008957600080fd5b82525081516020918201929091019080838360005b83811015620000b85781810151838201526020016200009e565b50505050905090810190601f168015620000e65780820380516001836020036101000a031916815260200191505b50604052602001805160405193929190846401000000008211156200010a57600080fd5b9083019060208201858111156200012057600080fd5b82516401000000008111828201881017156200013b57600080fd5b82525081516020918201929091019080838360005b838110156200016a57818101518382015260200162000150565b50505050905090810190601f168015620001985780820380516001836020036101000a031916815260200191505b50604090815260208281015191830151606090930151875192955092935086918691620001cb916003918501906200039f565b508051620001e19060049060208401906200039f565b50506005805460ff1916601217905550620001fd818462000213565b620002088262000322565b50505050506200043b565b6001600160a01b0382166200026f576040805162461bcd60e51b815260206004820152601f60248201527f45524332303a206d696e7420746f20746865207a65726f206164647265737300604482015290519081900360640190fd5b6200027d6000838362000338565b62000299816002546200033d60201b620006781790919060201c565b6002556001600160a01b03821660009081526020818152604090912054620002cc918390620006786200033d821b17901c565b6001600160a01b0383166000818152602081815260408083209490945583518581529351929391927fddf252ad1be2c89b69c2b068fc378daa952ba7f163c4a11628f55a4df523b3ef9281900390910190a35050565b6005805460ff191660ff92909216919091179055565b505050565b60008282018381101562000398576040805162461bcd60e51b815260206004820152601b60248201527f536166654d6174683a206164646974696f6e206f766572666c6f770000000000604482015290519081900360640190fd5b9392505050565b828054600181600116156101000203166002900490600052602060002090601f016020900481019282601f10620003e257805160ff191683800117855562000412565b8280016001018555821562000412579182015b8281111562000412578251825591602001919060010190620003f5565b506200042092915062000424565b5090565b5b8082111562000420576000815560010162000425565b610bfb806200044b6000396000f3fe608060405234801561001057600080fd5b50600436106100c95760003560e01c80633950935111610081578063a457c2d71161005b578063a457c2d714610287578063a9059cbb146102c0578063dd62ed3e146102f9576100c9565b8063395093511461021357806370a082311461024c57806395d89b411461027f576100c9565b806318160ddd116100b257806318160ddd1461019857806323b872dd146101b2578063313ce567146101f5576100c9565b806306fdde03146100ce578063095ea7b31461014b575b600080fd5b6100d6610334565b6040805160208082528351818301528351919283929083019185019080838360005b838110156101105781810151838201526020016100f8565b50505050905090810190601f16801561013d5780820380516001836020036101000a031916815260200191505b509250505060405180910390f35b6101846004803603604081101561016157600080fd5b5073ffffffffffffffffffffffffffffffffffffffff81351690602001356103e8565b604080519115158252519081900360200190f35b6101a0610405565b60408051918252519081900360200190f35b610184600480360360608110156101c857600080fd5b5073ffffffffffffffffffffffffffffffffffffffff81358116916020810135909116906040013561040b565b6101fd6104ac565b6040805160ff9092168252519081900360200190f35b6101846004803603604081101561022957600080fd5b5073ffffffffffffffffffffffffffffffffffffffff81351690602001356104b5565b6101a06004803603602081101561026257600080fd5b503573ffffffffffffffffffffffffffffffffffffffff16610510565b6100d6610538565b6101846004803603604081101561029d57600080fd5b5073ffffffffffffffffffffffffffffffffffffffff81351690602001356105b7565b610184600480360360408110156102d657600080fd5b5073ffffffffffffffffffffffffffffffffffffffff813516906020013561062c565b6101a06004803603604081101561030f57600080fd5b5073ffffffffffffffffffffffffffffffffffffffff81358116916020013516610640565b60038054604080516020601f60027fffffffffffffffffffffffffffffffffffffffffffffffffffffffffffffffff6101006001881615020190951694909404938401819004810282018101909252828152606093909290918301828280156103de5780601f106103b3576101008083540402835291602001916103de565b820191906000526020600020905b8154815290600101906020018083116103c157829003601f168201915b5050505050905090565b60006103fc6103f56106f3565b84846106f7565b50600192915050565b60025490565b600061041884848461083e565b6104a2846104246106f3565b61049d85604051806060016040528060288152602001610b306028913973ffffffffffffffffffffffffffffffffffffffff8a1660009081526001602052604081209061046f6106f3565b73ffffffffffffffffffffffffffffffffffffffff1681526020810191909152604001600020549190610a0e565b6106f7565b5060019392505050565b60055460ff1690565b60006103fc6104c26106f3565b8461049d85600160006104d36106f3565b73ffffffffffffffffffffffffffffffffffffffff908116825260208083019390935260409182016000908120918c168152925290205490610678565b73ffffffffffffffffffffffffffffffffffffffff1660009081526020819052604090205490565b60048054604080516020601f60027fffffffffffffffffffffffffffffffffffffffffffffffffffffffffffffffff6101006001881615020190951694909404938401819004810282018101909252828152606093909290918301828280156103de5780601f106103b3576101008083540402835291602001916103de565b60006103fc6105c46106f3565b8461049d85604051806060016040528060258152602001610ba160259139600160006105ee6106f3565b73ffffffffffffffffffffffffffffffffffffffff908116825260208083019390935260409182016000908120918d16815292529020549190610a0e565b60006103fc6106396106f3565b848461083e565b73ffffffffffffffffffffffffffffffffffffffff918216600090815260016020908152604080832093909416825291909152205490565b6000828201838110156106ec57604080517f08c379a000000000000000000000000000000000000000000000000000000000815260206004820152601b60248201527f536166654d6174683a206164646974696f6e206f766572666c6f770000000000604482015290519081900360640190fd5b9392505050565b3390565b73ffffffffffffffffffffffffffffffffffffffff8316610763576040517f08c379a0000000000000000000000000000000000000000000000000000000008152600401808060200182810382526024815260200180610b7d6024913960400191505060405180910390fd5b73ffffffffffffffffffffffffffffffffffffffff82166107cf576040517f08c379a0000000000000000000000000000000000000000000000000000000008152600401808060200182810382526022815260200180610ae86022913960400191505060405180910390fd5b73ffffffffffffffffffffffffffffffffffffffff808416600081815260016020908152604080832094871680845294825291829020859055815185815291517f8c5be1e5ebec7d5bd14f71427d1e84f3dd0314c0f7b2291e5b200ac8c7c3b9259281900390910190a3505050565b73ffffffffffffffffffffffffffffffffffffffff83166108aa576040517f08c379a0000000000000000000000000000000000000000000000000000000008152600401808060200182810382526025815260200180610b586025913960400191505060405180910390fd5b73ffffffffffffffffffffffffffffffffffffffff8216610916576040517f08c379a0000000000000000000000000000000000000000000000000000000008152600401808060200182810382526023815260200180610ac56023913960400191505060405180910390fd5b610921838383610abf565b61096b81604051806060016040528060268152602001610b0a6026913973ffffffffffffffffffffffffffffffffffffffff86166000908152602081905260409020549190610a0e565b73ffffffffffffffffffffffffffffffffffffffff80851660009081526020819052604080822093909355908416815220546109a79082610678565b73ffffffffffffffffffffffffffffffffffffffff8084166000818152602081815260409182902094909455805185815290519193928716927fddf252ad1be2c89b69c2b068fc378daa952ba7f163c4a11628f55a4df523b3ef92918290030190a3505050565b60008184841115610ab7576040517f08c379a00000000000000000000000000000000000000000000000000000000081526004018080602001828103825283818151815260200191508051906020019080838360005b83811015610a7c578181015183820152602001610a64565b50505050905090810190601f168015610aa95780820380516001836020036101000a031916815260200191505b509250505060405180910390fd5b505050900390565b50505056fe45524332303a207472616e7366657220746f20746865207a65726f206164647265737345524332303a20617070726f766520746f20746865207a65726f206164647265737345524332303a207472616e7366657220616d6f756e7420657863656564732062616c616e636545524332303a207472616e7366657220616d6f756e74206578636565647320616c6c6f77616e636545524332303a207472616e736665722066726f6d20746865207a65726f206164647265737345524332303a20617070726f76652066726f6d20746865207a65726f206164647265737345524332303a2064656372656173656420616c6c6f77616e63652062656c6f77207a65726fa2646970667358221220f12ae68b31181db7b4a39d9d420201939a948261caac283fb86e94dfc026398d64736f6c634300060c00334f776e61626c653a206e6577206f776e657220697320746865207a65726f2061646472657373a26469706673582212203cf02064577015ca1fedada9c91d1715b609243431390bc0141f11acadde899b64736f6c634300060c0033",
  "linkReferences": {},
  "deployedLinkReferences": {}
}