{
  "_format": "hh-sol-artifact-1",
  "contractName": "PancakeStableSwapTwoPool",
  "sourceName": "contracts/PancakeStableSwapTwoPool.sol",
  "abi": [
    {
      "inputs": [],
      "stateMutability": "nonpayable",
      "type": "constructor"
    },
    {
      "anonymous": false,
      "inputs": [
        {
          "indexed": true,
          "internalType": "address",
          "name": "provider",
          "type": "address"
        },
        {
          "indexed": false,
          "internalType": "uint256[2]",
          "name": "token_amounts",
          "type": "uint256[2]"
        },
        {
          "indexed": false,
          "internalType": "uint256[2]",
          "name": "fees",
          "type": "uint256[2]"
        },
        {
          "indexed": false,
          "internalType": "uint256",
          "name": "invariant",
          "type": "uint256"
        },
        {
          "indexed": false,
          "internalType": "uint256",
          "name": "token_supply",
          "type": "uint256"
        }
      ],
      "name": "AddLiquidity",
      "type": "event"
    },
    {
      "anonymous": false,
      "inputs": [
        {
          "indexed": true,
          "internalType": "uint256",
          "name": "deadline",
          "type": "uint256"
        },
        {
          "indexed": false,
          "internalType": "uint256",
          "name": "fee",
          "type": "uint256"
        },
        {
          "indexed": false,
          "internalType": "uint256",
          "name": "admin_fee",
          "type": "uint256"
        }
      ],
      "name": "CommitNewFee",
      "type": "event"
    },
    {
      "anonymous": false,
      "inputs": [],
      "name": "DonateAdminFees",
      "type": "event"
    },
    {
      "anonymous": false,
      "inputs": [],
      "name": "Kill",
      "type": "event"
    },
    {
      "anonymous": false,
      "inputs": [
        {
          "indexed": false,
          "internalType": "uint256",
          "name": "fee",
          "type": "uint256"
        },
        {
          "indexed": false,
          "internalType": "uint256",
          "name": "admin_fee",
          "type": "uint256"
        }
      ],
      "name": "NewFee",
      "type": "event"
    },
    {
      "anonymous": false,
      "inputs": [
        {
          "indexed": true,
          "internalType": "address",
          "name": "previousOwner",
          "type": "address"
        },
        {
          "indexed": true,
          "internalType": "address",
          "name": "newOwner",
          "type": "address"
        }
      ],
      "name": "OwnershipTransferred",
      "type": "event"
    },
    {
      "anonymous": false,
      "inputs": [
        {
          "indexed": false,
          "internalType": "uint256",
          "name": "old_A",
          "type": "uint256"
        },
        {
          "indexed": false,
          "internalType": "uint256",
          "name": "new_A",
          "type": "uint256"
        },
        {
          "indexed": false,
          "internalType": "uint256",
          "name": "initial_time",
          "type": "uint256"
        },
        {
          "indexed": false,
          "internalType": "uint256",
          "name": "future_time",
          "type": "uint256"
        }
      ],
      "name": "RampA",
      "type": "event"
    },
    {
      "anonymous": false,
      "inputs": [
        {
          "indexed": true,
          "internalType": "address",
          "name": "provider",
          "type": "address"
        },
        {
          "indexed": false,
          "internalType": "uint256[2]",
          "name": "token_amounts",
          "type": "uint256[2]"
        },
        {
          "indexed": false,
          "internalType": "uint256[2]",
          "name": "fees",
          "type": "uint256[2]"
        },
        {
          "indexed": false,
          "internalType": "uint256",
          "name": "token_supply",
          "type": "uint256"
        }
      ],
      "name": "RemoveLiquidity",
      "type": "event"
    },
    {
      "anonymous": false,
      "inputs": [
        {
          "indexed": true,
          "internalType": "address",
          "name": "provider",
          "type": "address"
        },
        {
          "indexed": false,
          "internalType": "uint256[2]",
          "name": "token_amounts",
          "type": "uint256[2]"
        },
        {
          "indexed": false,
          "internalType": "uint256[2]",
          "name": "fees",
          "type": "uint256[2]"
        },
        {
          "indexed": false,
          "internalType": "uint256",
          "name": "invariant",
          "type": "uint256"
        },
        {
          "indexed": false,
          "internalType": "uint256",
          "name": "token_supply",
          "type": "uint256"
        }
      ],
      "name": "RemoveLiquidityImbalance",
      "type": "event"
    },
    {
      "anonymous": false,
      "inputs": [
        {
          "indexed": true,
          "internalType": "address",
          "name": "provider",
          "type": "address"
        },
        {
          "indexed": false,
          "internalType": "uint256",
          "name": "index",
          "type": "uint256"
        },
        {
          "indexed": false,
          "internalType": "uint256",
          "name": "token_amount",
          "type": "uint256"
        },
        {
          "indexed": false,
          "internalType": "uint256",
          "name": "coin_amount",
          "type": "uint256"
        }
      ],
      "name": "RemoveLiquidityOne",
      "type": "event"
    },
    {
      "anonymous": false,
      "inputs": [],
      "name": "RevertParameters",
      "type": "event"
    },
    {
      "anonymous": false,
      "inputs": [
        {
          "indexed": false,
          "internalType": "uint256",
          "name": "bnb_gas",
          "type": "uint256"
        }
      ],
      "name": "SetBNBGas",
      "type": "event"
    },
    {
      "anonymous": false,
      "inputs": [
        {
          "indexed": false,
          "internalType": "uint256",
          "name": "A",
          "type": "uint256"
        },
        {
          "indexed": false,
          "internalType": "uint256",
          "name": "t",
          "type": "uint256"
        }
      ],
      "name": "StopRampA",
      "type": "event"
    },
    {
      "anonymous": false,
      "inputs": [
        {
          "indexed": true,
          "internalType": "address",
          "name": "buyer",
          "type": "address"
        },
        {
          "indexed": false,
          "internalType": "uint256",
          "name": "sold_id",
          "type": "uint256"
        },
        {
          "indexed": false,
          "internalType": "uint256",
          "name": "tokens_sold",
          "type": "uint256"
        },
        {
          "indexed": false,
          "internalType": "uint256",
          "name": "bought_id",
          "type": "uint256"
        },
        {
          "indexed": false,
          "internalType": "uint256",
          "name": "tokens_bought",
          "type": "uint256"
        }
      ],
      "name": "TokenExchange",
      "type": "event"
    },
    {
      "anonymous": false,
      "inputs": [],
      "name": "Unkill",
      "type": "event"
    },
    {
      "inputs": [],
      "name": "A",
      "outputs": [
        {
          "internalType": "uint256",
          "name": "",
          "type": "uint256"
        }
      ],
      "stateMutability": "view",
      "type": "function"
    },
    {
      "inputs": [],
      "name": "ADMIN_ACTIONS_DELAY",
      "outputs": [
        {
          "internalType": "uint256",
          "name": "",
          "type": "uint256"
        }
      ],
      "stateMutability": "view",
      "type": "function"
    },
    {
      "inputs": [],
      "name": "FEE_DENOMINATOR",
      "outputs": [
        {
          "internalType": "uint256",
          "name": "",
          "type": "uint256"
        }
      ],
      "stateMutability": "view",
      "type": "function"
    },
    {
      "inputs": [],
      "name": "KILL_DEADLINE_DT",
      "outputs": [
        {
          "internalType": "uint256",
          "name": "",
          "type": "uint256"
        }
      ],
      "stateMutability": "view",
      "type": "function"
    },
    {
      "inputs": [],
      "name": "MAX_A",
      "outputs": [
        {
          "internalType": "uint256",
          "name": "",
          "type": "uint256"
        }
      ],
      "stateMutability": "view",
      "type": "function"
    },
    {
      "inputs": [],
      "name": "MAX_ADMIN_FEE",
      "outputs": [
        {
          "internalType": "uint256",
          "name": "",
          "type": "uint256"
        }
      ],
      "stateMutability": "view",
      "type": "function"
    },
    {
      "inputs": [],
      "name": "MAX_A_CHANGE",
      "outputs": [
        {
          "internalType": "uint256",
          "name": "",
          "type": "uint256"
        }
      ],
      "stateMutability": "view",
      "type": "function"
    },
    {
      "inputs": [],
      "name": "MAX_BNB_GAS",
      "outputs": [
        {
          "internalType": "uint256",
          "name": "",
          "type": "uint256"
        }
      ],
      "stateMutability": "view",
      "type": "function"
    },
    {
      "inputs": [],
      "name": "MAX_DECIMAL",
      "outputs": [
        {
          "internalType": "uint256",
          "name": "",
          "type": "uint256"
        }
      ],
      "stateMutability": "view",
      "type": "function"
    },
    {
      "inputs": [],
      "name": "MAX_FEE",
      "outputs": [
        {
          "internalType": "uint256",
          "name": "",
          "type": "uint256"
        }
      ],
      "stateMutability": "view",
      "type": "function"
    },
    {
      "inputs": [],
      "name": "MIN_BNB_GAS",
      "outputs": [
        {
          "internalType": "uint256",
          "name": "",
          "type": "uint256"
        }
      ],
      "stateMutability": "view",
      "type": "function"
    },
    {
      "inputs": [],
      "name": "MIN_RAMP_TIME",
      "outputs": [
        {
          "internalType": "uint256",
          "name": "",
          "type": "uint256"
        }
      ],
      "stateMutability": "view",
      "type": "function"
    },
    {
      "inputs": [],
      "name": "N_COINS",
      "outputs": [
        {
          "internalType": "uint256",
          "name": "",
          "type": "uint256"
        }
      ],
      "stateMutability": "view",
      "type": "function"
    },
    {
      "inputs": [],
      "name": "PRECISION",
      "outputs": [
        {
          "internalType": "uint256",
          "name": "",
          "type": "uint256"
        }
      ],
      "stateMutability": "view",
      "type": "function"
    },
    {
      "inputs": [
        {
          "internalType": "uint256",
          "name": "",
          "type": "uint256"
        }
      ],
      "name": "PRECISION_MUL",
      "outputs": [
        {
          "internalType": "uint256",
          "name": "",
          "type": "uint256"
        }
      ],
      "stateMutability": "view",
      "type": "function"
    },
    {
      "inputs": [
        {
          "internalType": "uint256",
          "name": "",
          "type": "uint256"
        }
      ],
      "name": "RATES",
      "outputs": [
        {
          "internalType": "uint256",
          "name": "",
          "type": "uint256"
        }
      ],
      "stateMutability": "view",
      "type": "function"
    },
    {
      "inputs": [],
      "name": "STABLESWAP_FACTORY",
      "outputs": [
        {
          "internalType": "address",
          "name": "",
          "type": "address"
        }
      ],
      "stateMutability": "view",
      "type": "function"
    },
    {
      "inputs": [
        {
          "internalType": "uint256[2]",
          "name": "amounts",
          "type": "uint256[2]"
        },
        {
          "internalType": "uint256",
          "name": "min_mint_amount",
          "type": "uint256"
        }
      ],
      "name": "add_liquidity",
      "outputs": [],
      "stateMutability": "payable",
      "type": "function"
    },
    {
      "inputs": [],
      "name": "admin_actions_deadline",
      "outputs": [
        {
          "internalType": "uint256",
          "name": "",
          "type": "uint256"
        }
      ],
      "stateMutability": "view",
      "type": "function"
    },
    {
      "inputs": [
        {
          "internalType": "uint256",
          "name": "i",
          "type": "uint256"
        }
      ],
      "name": "admin_balances",
      "outputs": [
        {
          "internalType": "uint256",
          "name": "",
          "type": "uint256"
        }
      ],
      "stateMutability": "view",
      "type": "function"
    },
    {
      "inputs": [],
      "name": "admin_fee",
      "outputs": [
        {
          "internalType": "uint256",
          "name": "",
          "type": "uint256"
        }
      ],
      "stateMutability": "view",
      "type": "function"
    },
    {
      "inputs": [],
      "name": "apply_new_fee",
      "outputs": [],
      "stateMutability": "nonpayable",
      "type": "function"
    },
    {
      "inputs": [
        {
          "internalType": "uint256",
          "name": "",
          "type": "uint256"
        }
      ],
      "name": "balances",
      "outputs": [
        {
          "internalType": "uint256",
          "name": "",
          "type": "uint256"
        }
      ],
      "stateMutability": "view",
      "type": "function"
    },
    {
      "inputs": [],
      "name": "bnb_gas",
      "outputs": [
        {
          "internalType": "uint256",
          "name": "",
          "type": "uint256"
        }
      ],
      "stateMutability": "view",
      "type": "function"
    },
    {
      "inputs": [
        {
          "internalType": "uint256[2]",
          "name": "amounts",
          "type": "uint256[2]"
        },
        {
          "internalType": "bool",
          "name": "deposit",
          "type": "bool"
        }
      ],
      "name": "calc_token_amount",
      "outputs": [
        {
          "internalType": "uint256",
          "name": "",
          "type": "uint256"
        }
      ],
      "stateMutability": "view",
      "type": "function"
    },
    {
      "inputs": [
        {
          "internalType": "uint256",
          "name": "_token_amount",
          "type": "uint256"
        },
        {
          "internalType": "uint256",
          "name": "i",
          "type": "uint256"
        }
      ],
      "name": "calc_withdraw_one_coin",
      "outputs": [
        {
          "internalType": "uint256",
          "name": "",
          "type": "uint256"
        }
      ],
      "stateMutability": "view",
      "type": "function"
    },
    {
      "inputs": [
        {
          "internalType": "uint256",
          "name": "",
          "type": "uint256"
        }
      ],
      "name": "coins",
      "outputs": [
        {
          "internalType": "address",
          "name": "",
          "type": "address"
        }
      ],
      "stateMutability": "view",
      "type": "function"
    },
    {
      "inputs": [
        {
          "internalType": "uint256",
          "name": "new_fee",
          "type": "uint256"
        },
        {
          "internalType": "uint256",
          "name": "new_admin_fee",
          "type": "uint256"
        }
      ],
      "name": "commit_new_fee",
      "outputs": [],
      "stateMutability": "nonpayable",
      "type": "function"
    },
    {
      "inputs": [],
      "name": "donate_admin_fees",
      "outputs": [],
      "stateMutability": "nonpayable",
      "type": "function"
    },
    {
      "inputs": [
        {
          "internalType": "uint256",
          "name": "i",
          "type": "uint256"
        },
        {
          "internalType": "uint256",
          "name": "j",
          "type": "uint256"
        },
        {
          "internalType": "uint256",
          "name": "dx",
          "type": "uint256"
        },
        {
          "internalType": "uint256",
          "name": "min_dy",
          "type": "uint256"
        }
      ],
      "name": "exchange",
      "outputs": [],
      "stateMutability": "payable",
      "type": "function"
    },
    {
      "inputs": [],
      "name": "fee",
      "outputs": [
        {
          "internalType": "uint256",
          "name": "",
          "type": "uint256"
        }
      ],
      "stateMutability": "view",
      "type": "function"
    },
    {
      "inputs": [],
      "name": "future_A",
      "outputs": [
        {
          "internalType": "uint256",
          "name": "",
          "type": "uint256"
        }
      ],
      "stateMutability": "view",
      "type": "function"
    },
    {
      "inputs": [],
      "name": "future_A_time",
      "outputs": [
        {
          "internalType": "uint256",
          "name": "",
          "type": "uint256"
        }
      ],
      "stateMutability": "view",
      "type": "function"
    },
    {
      "inputs": [],
      "name": "future_admin_fee",
      "outputs": [
        {
          "internalType": "uint256",
          "name": "",
          "type": "uint256"
        }
      ],
      "stateMutability": "view",
      "type": "function"
    },
    {
      "inputs": [],
      "name": "future_fee",
      "outputs": [
        {
          "internalType": "uint256",
          "name": "",
          "type": "uint256"
        }
      ],
      "stateMutability": "view",
      "type": "function"
    },
    {
      "inputs": [
        {
          "internalType": "uint256",
          "name": "i",
          "type": "uint256"
        },
        {
          "internalType": "uint256",
          "name": "j",
          "type": "uint256"
        },
        {
          "internalType": "uint256",
          "name": "dx",
          "type": "uint256"
        }
      ],
      "name": "get_dy",
      "outputs": [
        {
          "internalType": "uint256",
          "name": "",
          "type": "uint256"
        }
      ],
      "stateMutability": "view",
      "type": "function"
    },
    {
      "inputs": [
        {
          "internalType": "uint256",
          "name": "i",
          "type": "uint256"
        },
        {
          "internalType": "uint256",
          "name": "j",
          "type": "uint256"
        },
        {
          "internalType": "uint256",
          "name": "dx",
          "type": "uint256"
        }
      ],
      "name": "get_dy_underlying",
      "outputs": [
        {
          "internalType": "uint256",
          "name": "",
          "type": "uint256"
        }
      ],
      "stateMutability": "view",
      "type": "function"
    },
    {
      "inputs": [],
      "name": "get_virtual_price",
      "outputs": [
        {
          "internalType": "uint256",
          "name": "",
          "type": "uint256"
        }
      ],
      "stateMutability": "view",
      "type": "function"
    },
    {
      "inputs": [],
      "name": "initial_A",
      "outputs": [
        {
          "internalType": "uint256",
          "name": "",
          "type": "uint256"
        }
      ],
      "stateMutability": "view",
      "type": "function"
    },
    {
      "inputs": [],
      "name": "initial_A_time",
      "outputs": [
        {
          "internalType": "uint256",
          "name": "",
          "type": "uint256"
        }
      ],
      "stateMutability": "view",
      "type": "function"
    },
    {
      "inputs": [
        {
          "internalType": "address[2]",
          "name": "_coins",
          "type": "address[2]"
        },
        {
          "internalType": "uint256",
          "name": "_A",
          "type": "uint256"
        },
        {
          "internalType": "uint256",
          "name": "_fee",
          "type": "uint256"
        },
        {
          "internalType": "uint256",
          "name": "_admin_fee",
          "type": "uint256"
        },
        {
          "internalType": "address",
          "name": "_owner",
          "type": "address"
        },
        {
          "internalType": "address",
          "name": "_LP",
          "type": "address"
        }
      ],
      "name": "initialize",
      "outputs": [],
      "stateMutability": "nonpayable",
      "type": "function"
    },
    {
      "inputs": [],
      "name": "isInitialized",
      "outputs": [
        {
          "internalType": "bool",
          "name": "",
          "type": "bool"
        }
      ],
      "stateMutability": "view",
      "type": "function"
    },
    {
      "inputs": [],
      "name": "is_killed",
      "outputs": [
        {
          "internalType": "bool",
          "name": "",
          "type": "bool"
        }
      ],
      "stateMutability": "view",
      "type": "function"
    },
    {
      "inputs": [],
      "name": "kill_deadline",
      "outputs": [
        {
          "internalType": "uint256",
          "name": "",
          "type": "uint256"
        }
      ],
      "stateMutability": "view",
      "type": "function"
    },
    {
      "inputs": [],
      "name": "kill_me",
      "outputs": [],
      "stateMutability": "nonpayable",
      "type": "function"
    },
    {
      "inputs": [],
      "name": "owner",
      "outputs": [
        {
          "internalType": "address",
          "name": "",
          "type": "address"
        }
      ],
      "stateMutability": "view",
      "type": "function"
    },
    {
      "inputs": [
        {
          "internalType": "uint256",
          "name": "_future_A",
          "type": "uint256"
        },
        {
          "internalType": "uint256",
          "name": "_future_time",
          "type": "uint256"
        }
      ],
      "name": "ramp_A",
      "outputs": [],
      "stateMutability": "nonpayable",
      "type": "function"
    },
    {
      "inputs": [
        {
          "internalType": "uint256",
          "name": "_amount",
          "type": "uint256"
        },
        {
          "internalType": "uint256[2]",
          "name": "min_amounts",
          "type": "uint256[2]"
        }
      ],
      "name": "remove_liquidity",
      "outputs": [],
      "stateMutability": "nonpayable",
      "type": "function"
    },
    {
      "inputs": [
        {
          "internalType": "uint256[2]",
          "name": "amounts",
          "type": "uint256[2]"
        },
        {
          "internalType": "uint256",
          "name": "max_burn_amount",
          "type": "uint256"
        }
      ],
      "name": "remove_liquidity_imbalance",
      "outputs": [],
      "stateMutability": "nonpayable",
      "type": "function"
    },
    {
      "inputs": [
        {
          "internalType": "uint256",
          "name": "_token_amount",
          "type": "uint256"
        },
        {
          "internalType": "uint256",
          "name": "i",
          "type": "uint256"
        },
        {
          "internalType": "uint256",
          "name": "min_amount",
          "type": "uint256"
        }
      ],
      "name": "remove_liquidity_one_coin",
      "outputs": [],
      "stateMutability": "nonpayable",
      "type": "function"
    },
    {
      "inputs": [],
      "name": "renounceOwnership",
      "outputs": [],
      "stateMutability": "nonpayable",
      "type": "function"
    },
    {
      "inputs": [],
      "name": "revert_new_parameters",
      "outputs": [],
      "stateMutability": "nonpayable",
      "type": "function"
    },
    {
      "inputs": [
        {
          "internalType": "uint256",
          "name": "_bnb_gas",
          "type": "uint256"
        }
      ],
      "name": "set_bnb_gas",
      "outputs": [],
      "stateMutability": "nonpayable",
      "type": "function"
    },
    {
      "inputs": [],
      "name": "stop_rampget_A",
      "outputs": [],
      "stateMutability": "nonpayable",
      "type": "function"
    },
    {
      "inputs": [],
      "name": "token",
      "outputs": [
        {
          "internalType": "contract IPancakeStableSwapLP",
          "name": "",
          "type": "address"
        }
      ],
      "stateMutability": "view",
      "type": "function"
    },
    {
      "inputs": [
        {
          "internalType": "address",
          "name": "newOwner",
          "type": "address"
        }
      ],
      "name": "transferOwnership",
      "outputs": [],
      "stateMutability": "nonpayable",
      "type": "function"
    },
    {
      "inputs": [],
      "name": "unkill_me",
      "outputs": [],
      "stateMutability": "nonpayable",
      "type": "function"
    },
    {
      "inputs": [],
      "name": "withdraw_admin_fees",
      "outputs": [],
      "stateMutability": "nonpayable",
      "type": "function"
    }
  ],
  "bytecode": "0x60a0604052610fbd600c553480156200001757600080fd5b50620000233362000031565b600180553360805262000081565b600080546001600160a01b038381166001600160a01b0319831681178455604051919092169283917f8be0079c531659141344cd1fd0a4f28419497f9722a3daafe3b4186f6b6457e09190a35050565b60805161492c620000a4600039600081816106ba0152611400015261492c6000f3fe6080604052600436106103015760003560e01c80637dafa36411610191578063d73792a9116100e2578063ed8e84f311610090578063ed8e84f314610837578063edfb780114610857578063f1dc3cc91461086e578063f2fde38b1461088e578063f3de036214610786578063f446c1d0146108ae578063fc0c546a146108c3578063fee3f7f9146108e357600080fd5b8063d73792a914610786578063ddca3f431461079f578063e2e7d264146107b5578063e3103273146107d5578063e3698853146107f5578063e38244621461080a578063e5d9e9031461082057600080fd5b8063aaf5eb681161013f578063aaf5eb68146106dc578063ab5ac061146106f8578063b4b577ad1461070d578063bb7b8b8014610723578063bc063e1a14610738578063c661065714610751578063ca8ca1541461077157600080fd5b80637dafa364146105f657806385f11d1e146106165780638da5cb5b146106365780639a1d6ed3146106585780639c868ac01461066e578063a139c37014610688578063a6b0a718146106a857600080fd5b80634239b1c111610256578063556d6e9f11610204578063556d6e9f1461052357806358680d0b146105435780635b36389c146105595780635b41b908146105795780635b5a14671461058c57806362203d74146105ac5780636d4366b7146105cc578063715018a6146105e157600080fd5b80634239b1c11461046d5780634488ddf01461048d5780634903b0d1146104a35780634f12fe97146104c35780634fb08c5e146104d8578063524c3901146104f85780635409491a1461050d57600080fd5b80632a426896116102b35780632a426896146103b15780633046f972146103c757806330c54085146103dc578063392e53cd146103f157806339698415146104205780633c157e6414610437578063405e28f81461045757600080fd5b806306e9481c146103065780630b4c7e4d1461033057806314052288146103455780632081066c1461035b578063226840fb1461037157806325d2edf014610386578063293577501461039c575b600080fd5b34801561031257600080fd5b5061031d6201518081565b6040519081526020015b60405180910390f35b61034361033e3660046142b4565b6108f9565b005b34801561035157600080fd5b5061031d60115481565b34801561036757600080fd5b5061031d60105481565b34801561037d57600080fd5b50610343610f4b565b34801561039257600080fd5b5061031d6159d881565b3480156103a857600080fd5b5061031d600281565b3480156103bd57600080fd5b5061031d60155481565b3480156103d357600080fd5b50610343610faa565b3480156103e857600080fd5b5061034361100e565b3480156103fd57600080fd5b5060165461041090610100900460ff1681565b6040519015158152602001610327565b34801561042c57600080fd5b5061031d620f424081565b34801561044357600080fd5b506103436104523660046142df565b611192565b34801561046357600080fd5b5061031d60125481565b34801561047957600080fd5b50610343610488366004614318565b61139d565b34801561049957600080fd5b5061031d600c5481565b3480156104af57600080fd5b5061031d6104be3660046143b7565b6117d5565b3480156104cf57600080fd5b506103436117ec565b3480156104e457600080fd5b5061031d6104f33660046142df565b6118f1565b34801561050457600080fd5b50610343611909565b34801561051957600080fd5b5061031d600e5481565b34801561052f57600080fd5b5061031d61053e3660046143d0565b611a6f565b34801561054f57600080fd5b5061031d60135481565b34801561056557600080fd5b506103436105743660046143fc565b611bba565b610343610587366004614429565b611e3f565b34801561059857600080fd5b506103436105a73660046142df565b61220f565b3480156105b857600080fd5b5061031d6105c73660046143b7565b61238c565b3480156105d857600080fd5b5061031d601281565b3480156105ed57600080fd5b5061034361239c565b34801561060257600080fd5b5061031d6106113660046143b7565b6123d7565b34801561062257600080fd5b5061031d6106313660046143d0565b6123e7565b34801561064257600080fd5b5061064b6124c3565b604051610327919061445b565b34801561066457600080fd5b5061031d6108fc81565b34801561067a57600080fd5b506016546104109060ff1681565b34801561069457600080fd5b506103436106a33660046143b7565b6124d2565b3480156106b457600080fd5b5061064b7f000000000000000000000000000000000000000000000000000000000000000081565b3480156106e857600080fd5b5061031d670de0b6b3a764000081565b34801561070457600080fd5b5061031d600a81565b34801561071957600080fd5b5061031d600f5481565b34801561072f57600080fd5b5061031d61258b565b34801561074457600080fd5b5061031d64012a05f20081565b34801561075d57600080fd5b5061064b61076c3660046143b7565b612647565b34801561077d57600080fd5b50610343612667565b34801561079257600080fd5b5061031d6402540be40081565b3480156107ab57600080fd5b5061031d600a5481565b3480156107c157600080fd5b5061031d6107d03660046143b7565b6126ef565b3480156107e157600080fd5b506103436107f03660046142b4565b6127f0565b34801561080157600080fd5b50610343612dac565b34801561081657600080fd5b5061031d60145481565b34801561082c57600080fd5b5061031d6203f48081565b34801561084357600080fd5b5061031d61085236600461447d565b612e58565b34801561086357600080fd5b5061031d624f1a0081565b34801561087a57600080fd5b506103436108893660046143d0565b61301c565b34801561089a57600080fd5b506103436108a93660046144b5565b6131de565b3480156108ba57600080fd5b5061031d61327b565b3480156108cf57600080fd5b50600d5461064b906001600160a01b031681565b3480156108ef57600080fd5b5061031d600b5481565b600260015414156109255760405162461bcd60e51b815260040161091c906144d0565b60405180910390fd5b600260015560165460ff161561094d5760405162461bcd60e51b815260040161091c90614507565b600d54600160a01b900460ff1661097c57341561097c5760405162461bcd60e51b815260040161091c90614527565b610984614178565b60006109926001600261456c565b61099d906004614583565b6002600a546109ac9190614583565b6109b691906145a2565b600b5490915060006109c661328a565b90506000600d60009054906101000a90046001600160a01b03166001600160a01b03166318160ddd6040518163ffffffff1660e01b8152600401602060405180830381865afa158015610a1d573d6000803e3d6000fd5b505050506040513d601f19601f82011682018060405250810190610a4191906145c4565b6040805180820191829052919250600091829160089060029082845b815481526020019060010190808311610a5d57505050505090506000831115610a8d57610a8a818561332b565b91505b6000604051806040016040528083600060028110610aad57610aad6145dd565b6020020151815260200183600160028110610aca57610aca6145dd565b60200201519052905060005b6002811015610bb65784610b555760008b8260028110610af857610af86145dd565b602002015111610b555760405162461bcd60e51b815260206004820152602260248201527f496e697469616c206465706f73697420726571756972657320616c6c20636f696044820152616e7360f01b606482015260840161091c565b8a8160028110610b6757610b676145dd565b6020020151838260028110610b7e57610b7e6145dd565b6020020151610b8d91906145f3565b828260028110610b9f57610b9f6145dd565b602002015280610bae8161460b565b915050610ad6565b506000610bc3828761332b565b9050838111610c145760405162461bcd60e51b815260206004820152601a60248201527f4431206d7573742062652067726561746572207468616e204430000000000000604482015260640161091c565b808515610dc25760005b6002811015610db057600086868360028110610c3c57610c3c6145dd565b6020020151610c4b9086614583565b610c5591906145a2565b90506000858360028110610c6b57610c6b6145dd565b6020020151821115610c9f57858360028110610c8957610c896145dd565b6020020151610c98908361456c565b9050610cc4565b81868460028110610cb257610cb26145dd565b6020020151610cc1919061456c565b90505b6402540be400610cd4828e614583565b610cde91906145a2565b8d8460028110610cf057610cf06145dd565b60200201526402540be4008b8e8560028110610d0e57610d0e6145dd565b6020020151610d1d9190614583565b610d2791906145a2565b868460028110610d3957610d396145dd565b6020020151610d48919061456c565b60088460028110610d5b57610d5b6145dd565b01558c8360028110610d6f57610d6f6145dd565b6020020151868460028110610d8657610d866145dd565b60200201818151610d97919061456c565b905250829150610da890508161460b565b915050610c1e565b50610dbb838861332b565b9050610dd1565b610dcf6008846002614196565b505b600086610ddf575081610e01565b85610dea818461456c565b610df49089614583565b610dfe91906145a2565b90505b8b811015610e215760405162461bcd60e51b815260040161091c90614626565b60005b6002811015610e895760008e8260028110610e4157610e416145dd565b60200201519050600060068360028110610e5d57610e5d6145dd565b01546001600160a01b03169050610e74818361333f565b50508080610e819061460b565b915050610e24565b50600d546040516340c10f1960e01b81526001600160a01b03909116906340c10f1990610ebc9033908590600401614654565b600060405180830381600087803b158015610ed657600080fd5b505af1158015610eea573d6000803e3d6000fd5b503392507f26f55a85081d24974e85c6c00045d0f0453991e95873f52bff0d21af4079a76891508f90508d86610f20868d6145f3565b604051610f309493929190614690565b60405180910390a25050600180555050505050505050505050565b33610f546124c3565b6001600160a01b031614610f7a5760405162461bcd60e51b815260040161091c906146bd565b600060128190556040517f1b4883af197c705114490f8d84f9ce30bef6a6199f7b7b649e845577cf0769a19190a1565b33610fb36124c3565b6001600160a01b031614610fd95760405162461bcd60e51b815260040161091c906146bd565b6016805460ff191690556040517f061284ffa2814ace135f62907c78a7cff0f070efe7e6a0a42740ea1da2c8bdc890600090a1565b336110176124c3565b6001600160a01b03161461103d5760405162461bcd60e51b815260040161091c906146bd565b60005b600281101561118f57600073eeeeeeeeeeeeeeeeeeeeeeeeeeeeeeeeeeeeeeee60068360028110611073576110736145dd565b01546001600160a01b031614156110aa5760088260028110611097576110976145dd565b01546110a3904761456c565b905061114f565b600882600281106110bd576110bd6145dd565b0154600683600281106110d2576110d26145dd565b01546040516370a0823160e01b81526001600160a01b03909116906370a082319061110190309060040161445b565b602060405180830381865afa15801561111e573d6000803e3d6000fd5b505050506040513d601f19601f8201168201806040525081019061114291906145c4565b61114c919061456c565b90505b801561117c5761117c6006836002811061116b5761116b6145dd565b01546001600160a01b03168261339c565b50806111878161460b565b915050611040565b50565b3361119b6124c3565b6001600160a01b0316146111c15760405162461bcd60e51b815260040161091c906146bd565b620151806010546111d291906145f3565b4210156112135760405162461bcd60e51b815260206004820152600f60248201526e646576203a20746f6f206561726c7960881b604482015260640161091c565b61122062015180426145f3565b81101561123f5760405162461bcd60e51b815260040161091c906146f2565b600061124961328a565b905060008311801561125d5750620f424083105b6112b75760405162461bcd60e51b815260206004820152602560248201527f5f6675747572655f41206d757374206265206265747765656e203020616e64206044820152644d41585f4160d81b606482015260840161091c565b8083101580156112d157506112cd600a82614583565b8311155b806112f0575080831080156112f05750806112ed600a85614583565b10155b61133c5760405162461bcd60e51b815260206004820152601b60248201527f496c6c6567616c20706172616d65746572205f6675747572655f410000000000604482015260640161091c565b600e819055600f839055426010819055601183905560408051838152602081018690528082019290925260608201849052517fa2b71ec6df949300b59aab36b55e189697b750119dd349fcfa8c0f779e83c2549181900360800190a1505050565b601654610100900460ff16156113f55760405162461bcd60e51b815260206004820152601f60248201527f4f7065726174696f6e733a20416c726561647920696e697469616c697a656400604482015260640161091c565b336001600160a01b037f000000000000000000000000000000000000000000000000000000000000000016146114675760405162461bcd60e51b81526020600482015260176024820152764f7065726174696f6e733a204e6f7420666163746f727960481b604482015260640161091c565b620f42408511156114af5760405162461bcd60e51b81526020600482015260126024820152715f412065786365656473206d6178696d756d60701b604482015260640161091c565b64012a05f2008411156114fb5760405162461bcd60e51b81526020600482015260146024820152735f6665652065786365656473206d6178696d756d60601b604482015260640161091c565b6402540be4008311156115505760405162461bcd60e51b815260206004820152601a60248201527f5f61646d696e5f6665652065786365656473206d6178696d756d000000000000604482015260640161091c565b6016805461ff00191661010017905560005b600281101561177657600087826002811061157f5761157f6145dd565b60200201516001600160a01b031614156115ca5760405162461bcd60e51b815260206004820152600c60248201526b5a45524f204164647265737360a01b604482015260640161091c565b600073eeeeeeeeeeeeeeeeeeeeeeeeeeeeeeeeeeeeeeee8883600281106115f3576115f36145dd565b60200201516001600160a01b031614156116225750600d805460ff60a01b1916600160a01b17905560126116a0565b878260028110611634576116346145dd565b60200201516001600160a01b031663313ce5676040518163ffffffff1660e01b8152600401602060405180830381865afa158015611676573d6000803e3d6000fd5b505050506040513d601f19601f8201168201806040525081019061169a9190614722565b60ff1690505b60128111156116fd5760405162461bcd60e51b8152602060048201526024808201527f546865206d6178696d756d20646563696d616c2063616e6e6f742065786365656044820152630c84062760e31b606482015260840161091c565b61170881601261456c565b61171390600a614829565b60028360028110611726576117266145dd565b015560028281811061173a5761173a6145dd565b015461174e90670de0b6b3a7640000614583565b60048360028110611761576117616145dd565b0155508061176e8161460b565b915050611562565b5061178460068760026141d0565b50600e859055600f859055600a849055600b8390556117a6624f1a00426145f3565b601555600d80546001600160a01b0319166001600160a01b0383161790556117cd826131de565b505050505050565b600881600281106117e557600080fd5b0154905081565b336117f56124c3565b6001600160a01b03161461181b5760405162461bcd60e51b815260040161091c906146bd565b60125442101561183d5760405162461bcd60e51b815260040161091c906146f2565b60125461189b5760405162461bcd60e51b815260206004820152602660248201527f61646d696e5f616374696f6e735f646561646c696e652073686f756c64206e6f60448201526507420626520360d41b606482015260840161091c565b6000601255601354600a819055601454600b8190556040517fbe12859b636aed607d5230b2cc2711f68d70e51060e6cca1f575ef5d2fcc95d1926118e792908252602082015260400190565b60405180910390a1565b6000806118fe84846133df565b509150505b92915050565b336119126124c3565b6001600160a01b0316146119385760405162461bcd60e51b815260040161091c906146bd565b60005b6002811015611a435773eeeeeeeeeeeeeeeeeeeeeeeeeeeeeeeeeeeeeeee6006826002811061196c5761196c6145dd565b01546001600160a01b03161415611998574760088260028110611991576119916145dd565b0155611a31565b600681600281106119ab576119ab6145dd565b01546040516370a0823160e01b81526001600160a01b03909116906370a08231906119da90309060040161445b565b602060405180830381865afa1580156119f7573d6000803e3d6000fd5b505050506040513d601f19601f82011682018060405250810190611a1b91906145c4565b60088260028110611a2e57611a2e6145dd565b01555b80611a3b8161460b565b91505061193b565b506040517f2c7203581ca666b8c5094c11c03f0b19b3750234a9d281bcbc88a260bcb006de90600090a1565b604080518082019182905260009182919060049060029082845b815481526020019060010190808311611a8957505050505090506000611aad6136df565b90506000670de0b6b3a7640000838860028110611acc57611acc6145dd565b6020020151611adb9087614583565b611ae591906145a2565b828860028110611af757611af76145dd565b6020020151611b0691906145f3565b90506000611b1688888486613798565b90506000848860028110611b2c57611b2c6145dd565b6020020151670de0b6b3a7640000600184878c60028110611b4f57611b4f6145dd565b6020020151611b5e919061456c565b611b68919061456c565b611b729190614583565b611b7c91906145a2565b905060006402540be40082600a54611b949190614583565b611b9e91906145a2565b9050611baa818361456c565b96505050505050505b9392505050565b60026001541415611bdd5760405162461bcd60e51b815260040161091c906144d0565b6002600155600d54604080516318160ddd60e01b815290516000926001600160a01b0316916318160ddd9160048083019260209291908290030181865afa158015611c2c573d6000803e3d6000fd5b505050506040513d601f19601f82011682018060405250810190611c5091906145c4565b9050611c5a614178565b611c62614178565b60005b6002811015611d87576000848760088460028110611c8557611c856145dd565b0154611c919190614583565b611c9b91906145a2565b9050858260028110611caf57611caf6145dd565b6020020151811015611d1c5760405162461bcd60e51b815260206004820152603060248201527f5769746864726177616c20726573756c74656420696e20666577657220636f6960448201526f1b9cc81d1a185b88195e1c1958dd195960821b606482015260840161091c565b8060088360028110611d3057611d306145dd565b016000828254611d40919061456c565b90915550819050848360028110611d5957611d596145dd565b6020020152611d746006836002811061116b5761116b6145dd565b5080611d7f8161460b565b915050611c65565b50600d5460405163079cc67960e41b81526001600160a01b03909116906379cc679090611dba9033908990600401614654565b600060405180830381600087803b158015611dd457600080fd5b505af1158015611de8573d6000803e3d6000fd5b503392507f7c363854ccf79623411f8995b362bce5eddff18c927edc6f5dbbb5e05819a82c915084905083611e1d898861456c565b604051611e2c93929190614835565b60405180910390a2505060018055505050565b60026001541415611e625760405162461bcd60e51b815260040161091c906144d0565b600260015560165460ff1615611e8a5760405162461bcd60e51b815260040161091c90614507565b600d54600160a01b900460ff16611eb9573415611eb95760405162461bcd60e51b815260040161091c90614527565b604080518082019182905260009160089060029082845b815481526020019060010190808311611ed057505050505090506000611ef582613994565b90506000670de0b6b3a764000060048860028110611f1557611f156145dd565b0154611f219087614583565b611f2b91906145a2565b828860028110611f3d57611f3d6145dd565b6020020151611f4c91906145f3565b90506000611f5c88888486613798565b90506000600182858a60028110611f7557611f756145dd565b6020020151611f84919061456c565b611f8e919061456c565b905060006402540be400600a5483611fa69190614583565b611fb091906145a2565b905060048960028110611fc557611fc56145dd565b0154670de0b6b3a7640000611fda838561456c565b611fe49190614583565b611fee91906145a2565b9150868210156120575760405162461bcd60e51b815260206004820152602e60248201527f45786368616e676520726573756c74656420696e20666577657220636f696e7360448201526d081d1a185b88195e1c1958dd195960921b606482015260840161091c565b60006402540be400600b548361206d9190614583565b61207791906145a2565b905060048a6002811061208c5761208c6145dd565b01546120a0670de0b6b3a764000083614583565b6120aa91906145a2565b905088878c600281106120bf576120bf6145dd565b60200201516120ce91906145f3565b60088c600281106120e1576120e16145dd565b01558083888c600281106120f7576120f76145dd565b6020020151612106919061456c565b612110919061456c565b60088b60028110612123576121236145dd565b0155600060068c6002811061213a5761213a6145dd565b01546001600160a01b0316905073eeeeeeeeeeeeeeeeeeeeeeeeeeeeeeeeeeeeeeee81141561218757348a146121825760405162461bcd60e51b815260040161091c90614527565b61219c565b61219c6001600160a01b03821633308d613a51565b600060068c600281106121b1576121b16145dd565b01546001600160a01b031690506121c8818661339c565b604080518e8152602081018d90529081018d90526060810186905233907fb2e76ae99761dc136e598d4a629bb347eccb9532a5f8bbd72e18467c3c34cc9890608001610f30565b336122186124c3565b6001600160a01b03161461223e5760405162461bcd60e51b815260040161091c906146bd565b6012541561228e5760405162461bcd60e51b815260206004820181905260248201527f61646d696e5f616374696f6e735f646561646c696e65206d7573742062652030604482015260640161091c565b64012a05f2008211156122de5760405162461bcd60e51b81526020600482015260186024820152776465763a206665652065786365656473206d6178696d756d60401b604482015260640161091c565b6402540be4008111156123335760405162461bcd60e51b815260206004820152601e60248201527f6465763a2061646d696e206665652065786365656473206d6178696d756d0000604482015260640161091c565b6123406203f480426145f3565b60128190556013839055601482905560408051848152602081018490527f351fc5da2fbf480f2225debf3664a4bc90fa9923743aad58b4603f648e931fe0910160405180910390a25050565b600481600281106117e557600080fd5b336123a56124c3565b6001600160a01b0316146123cb5760405162461bcd60e51b815260040161091c906146bd565b6123d56000613ac2565b565b600281600281106117e557600080fd5b6000806123f26136df565b604080518082019182905291925060009190600290819081845b81548152602001906001019080831161240c5750505050509050600081876002811061243a5761243a6145dd565b60200201516124499086614583565b83886002811061245b5761245b6145dd565b602002015161246a91906145f3565b9050600061247a88888487613798565b90506000838860028110612490576124906145dd565b6020020151600183878b600281106124aa576124aa6145dd565b60200201516124b9919061456c565b611b72919061456c565b6000546001600160a01b031690565b336124db6124c3565b6001600160a01b0316146125015760405162461bcd60e51b815260040161091c906146bd565b6108fc811015801561251557506159d88111155b61254f5760405162461bcd60e51b815260206004820152600b60248201526a496c6c6567616c2067617360a81b604482015260640161091c565b600c8190556040518181527f320c5e7159406866d39a81979ca1c22276b644dfcfd52ee1f335ee467ad0ec67906020015b60405180910390a150565b6000806125a66125996136df565b6125a161328a565b613b12565b90506000600d60009054906101000a90046001600160a01b03166001600160a01b03166318160ddd6040518163ffffffff1660e01b8152600401602060405180830381865afa1580156125fd573d6000803e3d6000fd5b505050506040513d601f19601f8201168201806040525081019061262191906145c4565b905080612636670de0b6b3a764000084614583565b61264091906145a2565b9250505090565b6006816002811061265757600080fd5b01546001600160a01b0316905081565b336126706124c3565b6001600160a01b0316146126965760405162461bcd60e51b815260040161091c906146bd565b60006126a061328a565b600e819055600f81905542601081905560118190556040519192507f46e22fb3709ad289f62ce63d469248536dbc78d82b84a3d7e74ad606dc2019389161258091848252602082015260400190565b600073eeeeeeeeeeeeeeeeeeeeeeeeeeeeeeeeeeeeeeee60068360028110612719576127196145dd565b01546001600160a01b03161415612749576008826002811061273d5761273d6145dd565b0154611903904761456c565b6008826002811061275c5761275c6145dd565b015460068360028110612771576127716145dd565b01546040516370a0823160e01b81526001600160a01b03909116906370a08231906127a090309060040161445b565b602060405180830381865afa1580156127bd573d6000803e3d6000fd5b505050506040513d601f19601f820116820180604052508101906127e191906145c4565b611903919061456c565b919050565b600260015414156128135760405162461bcd60e51b815260040161091c906144d0565b600260015560165460ff161561283b5760405162461bcd60e51b815260040161091c90614507565b600d54604080516318160ddd60e01b815290516000926001600160a01b0316916318160ddd9160048083019260209291908290030181865afa158015612885573d6000803e3d6000fd5b505050506040513d601f19601f820116820180604052508101906128a991906145c4565b9050600081116128f45760405162461bcd60e51b81526020600482015260166024820152756465763a207a65726f20746f74616c20737570706c7960501b604482015260640161091c565b60006129026001600261456c565b61290d906004614583565b6002600a5461291c9190614583565b61292691906145a2565b600b54909150600061293661328a565b60408051808201918290529192506000919060089060029082845b8154815260200190600101908083116129515750505050509050600060405180604001604052808360006002811061298b5761298b6145dd565b60200201518152602001836001600281106129a8576129a86145dd565b60200201519052905060006129bd838561332b565b905060005b6002811015612a1a578981600281106129dd576129dd6145dd565b60200201518382600281106129f4576129f46145dd565b60200201818151612a05919061456c565b90525080612a128161460b565b9150506129c2565b506000612a27838661332b565b9050612a31614178565b60005b6002811015612bc657600084878360028110612a5257612a526145dd565b6020020151612a619086614583565b612a6b91906145a2565b90506000868360028110612a8157612a816145dd565b6020020151821115612ab557868360028110612a9f57612a9f6145dd565b6020020151612aae908361456c565b9050612ada565b81878460028110612ac857612ac86145dd565b6020020151612ad7919061456c565b90505b6402540be400612aea828d614583565b612af491906145a2565b848460028110612b0657612b066145dd565b60200201526402540be4008a858560028110612b2457612b246145dd565b6020020151612b339190614583565b612b3d91906145a2565b878460028110612b4f57612b4f6145dd565b6020020151612b5e919061456c565b60088460028110612b7157612b716145dd565b0155838360028110612b8557612b856145dd565b6020020151878460028110612b9c57612b9c6145dd565b60200201818151612bad919061456c565b905250829150612bbe90508161460b565b915050612a34565b506000612bd3858861332b565b90506000848b612be3848361456c565b612bed9190614583565b612bf791906145a2565b905060008111612c555760405162461bcd60e51b815260206004820152602360248201527f746f6b656e5f616d6f756e74206d75737420626520677265617465722074686160448201526206e20360ec1b606482015260840161091c565b612c606001826145f3565b90508b811115612c825760405162461bcd60e51b815260040161091c90614626565b600d5460405163079cc67960e41b81526001600160a01b03909116906379cc679090612cb49033908590600401614654565b600060405180830381600087803b158015612cce57600080fd5b505af1158015612ce2573d6000803e3d6000fd5b5050505060005b6002811015612d605760008e8260028110612d0657612d066145dd565b60200201511115612d4e57612d4e60068260028110612d2757612d276145dd565b01546001600160a01b03168f8360028110612d4457612d446145dd565b602002015161339c565b80612d588161460b565b915050612ce9565b50612d6b818c61456c565b9a50336001600160a01b03167f2b5508378d7e19e0d5fa338419034731416c4f5b219a10379956f764317fd47e8e85878f604051610f309493929190614690565b33612db56124c3565b6001600160a01b031614612ddb5760405162461bcd60e51b815260040161091c906146bd565b4260155411612e205760405162461bcd60e51b8152602060048201526011602482015270457863656564656420646561646c696e6560781b604482015260640161091c565b6016805460ff191660011790556040517fbe26733c2bf6ff3ea5ba8cfe744422bd49052ff9ed5685c9e81e6f9321dbaddd90600090a1565b604080518082019182905260009182919060089060029082845b815481526020019060010190808311612e7257505050505090506000612e9661328a565b90506000612ea4838361332b565b905060005b6002811015612f4a578515612efa57868160028110612eca57612eca6145dd565b6020020151848260028110612ee157612ee16145dd565b60200201818151612ef291906145f3565b905250612f38565b868160028110612f0c57612f0c6145dd565b6020020151848260028110612f2357612f236145dd565b60200201818151612f34919061456c565b9052505b80612f428161460b565b915050612ea9565b506000612f57848461332b565b90506000600d60009054906101000a90046001600160a01b03166001600160a01b03166318160ddd6040518163ffffffff1660e01b8152600401602060405180830381865afa158015612fae573d6000803e3d6000fd5b505050506040513d601f19601f82011682018060405250810190612fd291906145c4565b905060008715612fed57612fe6848461456c565b9050612ffa565b612ff7838561456c565b90505b836130058383614583565b61300f91906145a2565b9998505050505050505050565b6002600154141561303f5760405162461bcd60e51b815260040161091c906144d0565b600260015560165460ff16156130675760405162461bcd60e51b815260040161091c90614507565b60008061307485856133df565b91509150828210156130c35760405162461bcd60e51b8152602060048201526018602482015277139bdd08195b9bdd59da0818dbda5b9cc81c995b5bdd995960421b604482015260640161091c565b6402540be400600b54826130d79190614583565b6130e191906145a2565b6130eb90836145f3565b600885600281106130fe576130fe6145dd565b01600082825461310e919061456c565b9091555050600d5460405163079cc67960e41b81526001600160a01b03909116906379cc6790906131459033908990600401614654565b600060405180830381600087803b15801561315f57600080fd5b505af1158015613173573d6000803e3d6000fd5b5050505061319e6006856002811061318d5761318d6145dd565b01546001600160a01b03168361339c565b604080518581526020810187905290810183905233907f5ad056f2e28a8cec232015406b843668c1e36cda598127ec3b8c59b8c72773a090606001611e2c565b336131e76124c3565b6001600160a01b03161461320d5760405162461bcd60e51b815260040161091c906146bd565b6001600160a01b0381166132725760405162461bcd60e51b815260206004820152602660248201527f4f776e61626c653a206e6577206f776e657220697320746865207a65726f206160448201526564647265737360d01b606482015260840161091c565b61118f81613ac2565b600061328561328a565b905090565b601154600f54600091904282111561190357600e54601054818311156132ef576132b4818561456c565b6132be824261456c565b6132c8848661456c565b6132d29190614583565b6132dc91906145a2565b6132e690836145f3565b94505050505090565b6132f9818561456c565b613303824261456c565b61330d858561456c565b6133179190614583565b61332191906145a2565b6132e6908361456c565b6000611bb361333984613994565b83613b12565b6001600160a01b03821673eeeeeeeeeeeeeeeeeeeeeeeeeeeeeeeeeeeeeeee1415613387573481146133835760405162461bcd60e51b815260040161091c90614527565b5050565b6133836001600160a01b038316333084613a51565b6001600160a01b03821673eeeeeeeeeeeeeeeeeeeeeeeeeeeeeeeeeeeeeeee14156133cb576133833382613ca8565b6133836001600160a01b0383163383613d4b565b60008060006133ec61328a565b905060006133fc6001600261456c565b613407906004614583565b6002600a546134169190614583565b61342091906145a2565b604080518082019182905291925060009190600290819081845b81548152602001906001019080831161343a57505050505090506000600d60009054906101000a90046001600160a01b03166001600160a01b03166318160ddd6040518163ffffffff1660e01b8152600401602060405180830381865afa1580156134a9573d6000803e3d6000fd5b505050506040513d601f19601f820116820180604052508101906134cd91906145c4565b905060006134d96136df565b905060006134e78287613b12565b90506000836134f6838d614583565b61350091906145a2565b61350a908361456c565b905082600061351b898d8486613d6a565b90506000878d60028110613531576135316145dd565b602002015182878f60028110613549576135496145dd565b6020020151613558919061456c565b61356291906145a2565b905060005b600281101561365e5760008e8214156135b9578387878a856002811061358f5761358f6145dd565b602002015161359e9190614583565b6135a891906145a2565b6135b2919061456c565b905061360a565b86868984600281106135cd576135cd6145dd565b60200201516135dc9190614583565b6135e691906145a2565b8883600281106135f8576135f86145dd565b6020020151613607919061456c565b90505b6402540be40061361a828d614583565b61362491906145a2565b858360028110613636576136366145dd565b60200201818151613647919061456c565b9052508190506136568161460b565b915050613567565b50600061366d8b8f8688613d6a565b848f6002811061367f5761367f6145dd565b602002015161368e919061456c565b9050888e600281106136a2576136a26145dd565b60200201516136b260018361456c565b6136bc91906145a2565b9050806136c9818461456c565b9c509c5050505050505050505050509250929050565b6136e7614178565b60408051808201918290529060049060029082845b8154815260200190600101908083116136fc575050505050905060005b600281101561379457670de0b6b3a76400006008826002811061373e5761373e6145dd565b0154838360028110613752576137526145dd565b60200201516137619190614583565b61376b91906145a2565b82826002811061377d5761377d6145dd565b60200201528061378c8161460b565b915050613719565b5090565b60008385141580156137aa5750600285105b80156137b65750600284105b6137f65760405162461bcd60e51b815260206004820152601160248201527024b63632b3b0b6103830b930b6b2ba32b960791b604482015260640161091c565b600061380061328a565b9050600061380e8483613b12565b90508060008061381f600286614583565b90506000805b60028110156138a8578b81141561383e57899150613868565b8a811461386357888160028110613857576138576145dd565b60200201519150613868565b613896565b61387282856145f3565b935061387f600283614583565b6138898787614583565b61389391906145a2565b94505b806138a08161460b565b915050613825565b506138b4600283614583565b6138be8686614583565b6138c891906145a2565b935060006138d683876145a2565b6138e090856145f3565b9050600086815b60ff8110156139825781925088848360026139029190614583565b61390c91906145f3565b613916919061456c565b886139218480614583565b61392b91906145f3565b61393591906145a2565b91508282111561395a57600161394b848461456c565b1161395557613982565b613970565b6001613966838561456c565b1161397057613982565b8061397a8161460b565b9150506138e7565b509d9c50505050505050505050505050565b61399c614178565b60408051808201918290529060049060029082845b8154815260200190600101908083116139b1575050505050905060005b6002811015613a4b57670de0b6b3a76400008382600281106139f2576139f26145dd565b6020020151838360028110613a0957613a096145dd565b6020020151613a189190614583565b613a2291906145a2565b828260028110613a3457613a346145dd565b602002015280613a438161460b565b9150506139ce565b50919050565b6040516001600160a01b0380851660248301528316604482015260648101829052613abc9085906323b872dd60e01b906084015b60408051601f198184030181529190526020810180516001600160e01b03166001600160e01b031990931692909217909152613f25565b50505050565b600080546001600160a01b038381166001600160a01b0319831681178455604051919092169283917f8be0079c531659141344cd1fd0a4f28419497f9722a3daafe3b4186f6b6457e09190a35050565b60008060005b6002811015613b5657848160028110613b3357613b336145dd565b6020020151613b4290836145f3565b915080613b4e8161460b565b915050613b18565b5080613b66576000915050611903565b60008181613b75600287614583565b905060005b60ff811015613c9c578260005b6002811015613bdb5760028a8260028110613ba457613ba46145dd565b6020020151613bb39190614583565b613bbd8684614583565b613bc791906145a2565b915080613bd38161460b565b915050613b87565b508394508060026001613bee91906145f3565b613bf89190614583565b84613c0460018661456c565b613c0e9190614583565b613c1891906145f3565b84613c24600284614583565b613c2e8987614583565b613c3891906145f3565b613c429190614583565b613c4c91906145a2565b935084841115613c72576001613c62868661456c565b11613c6d5750613c9c565b613c89565b6001613c7e858761456c565b11613c895750613c9c565b5080613c948161460b565b915050613b7a565b50909695505050505050565b6000826001600160a01b0316600c5483604051600060405180830381858888f193505050503d8060008114613cf9576040519150601f19603f3d011682016040523d82523d6000602084013e613cfe565b606091505b5050905080613d465760405162461bcd60e51b815260206004820152601460248201527311d25315081d1c985b9cd9995c8819985a5b195960621b604482015260640161091c565b505050565b613d468363a9059cbb60e01b8484604051602401613a85929190614654565b600060028410613db35760405162461bcd60e51b81526020600482015260146024820152736465763a20692061626f7665204e5f434f494e5360601b604482015260640161091c565b81600080613dc2600289614583565b90506000805b6002811015613e3b57888114613df657878160028110613dea57613dea6145dd565b60200201519150613dfb565b613e29565b613e0582856145f3565b9350613e12600283614583565b613e1c8887614583565b613e2691906145a2565b94505b80613e338161460b565b915050613dc8565b50613e47600283614583565b613e518786614583565b613e5b91906145a2565b93506000613e6983886145a2565b613e7390856145f3565b9050600087815b60ff811015613f15578192508984836002613e959190614583565b613e9f91906145f3565b613ea9919061456c565b88613eb48480614583565b613ebe91906145f3565b613ec891906145a2565b915082821115613eed576001613ede848461456c565b11613ee857613f15565b613f03565b6001613ef9838561456c565b11613f0357613f15565b80613f0d8161460b565b915050613e7a565b509b9a5050505050505050505050565b6000613f7a826040518060400160405280602081526020017f5361666545524332303a206c6f772d6c6576656c2063616c6c206661696c6564815250856001600160a01b0316613ff79092919063ffffffff16565b805190915015613d465780806020019051810190613f98919061485e565b613d465760405162461bcd60e51b815260206004820152602a60248201527f5361666545524332303a204552433230206f7065726174696f6e20646964206e6044820152691bdd081cdd58d8d9595960b21b606482015260840161091c565b6060614006848460008561400e565b949350505050565b60608247101561406f5760405162461bcd60e51b815260206004820152602660248201527f416464726573733a20696e73756666696369656e742062616c616e636520666f6044820152651c8818d85b1b60d21b606482015260840161091c565b6001600160a01b0385163b6140c65760405162461bcd60e51b815260206004820152601d60248201527f416464726573733a2063616c6c20746f206e6f6e2d636f6e7472616374000000604482015260640161091c565b600080866001600160a01b031685876040516140e291906148a7565b60006040518083038185875af1925050503d806000811461411f576040519150601f19603f3d011682016040523d82523d6000602084013e614124565b606091505b509150915061413482828661413f565b979650505050505050565b6060831561414e575081611bb3565b82511561415e5782518084602001fd5b8160405162461bcd60e51b815260040161091c91906148c3565b60405180604001604052806002906020820280368337509192915050565b82600281019282156141c4579160200282015b828111156141c45782518255916020019190600101906141a9565b50613794929150614218565b82600281019282156141c4579160200282015b828111156141c457825182546001600160a01b0319166001600160a01b039091161782556020909201916001909101906141e3565b5b808211156137945760008155600101614219565b6040805190810167ffffffffffffffff8111828210171561425e57634e487b7160e01b600052604160045260246000fd5b60405290565b600082601f83011261427557600080fd5b61427d61422d565b80604084018581111561428f57600080fd5b845b818110156142a9578035845260209384019301614291565b509095945050505050565b600080606083850312156142c757600080fd5b6142d18484614264565b946040939093013593505050565b600080604083850312156142f257600080fd5b50508035926020909101359150565b80356001600160a01b03811681146127eb57600080fd5b60008060008060008060e0878903121561433157600080fd5b87601f88011261434057600080fd5b61434861422d565b80604089018a81111561435a57600080fd5b895b8181101561437b5761436d81614301565b84526020938401930161435c565b5090975035955050606087013593506080870135925061439d60a08801614301565b91506143ab60c08801614301565b90509295509295509295565b6000602082840312156143c957600080fd5b5035919050565b6000806000606084860312156143e557600080fd5b505081359360208301359350604090920135919050565b6000806060838503121561440f57600080fd5b823591506144208460208501614264565b90509250929050565b6000806000806080858703121561443f57600080fd5b5050823594602084013594506040840135936060013592509050565b6001600160a01b0391909116815260200190565b801515811461118f57600080fd5b6000806060838503121561449057600080fd5b61449a8484614264565b915060408301356144aa8161446f565b809150509250929050565b6000602082840312156144c757600080fd5b611bb382614301565b6020808252601f908201527f5265656e7472616e637947756172643a207265656e7472616e742063616c6c00604082015260600190565b60208082526006908201526512da5b1b195960d21b604082015260600190565b602080825260159082015274496e636f6e73697374656e74207175616e7469747960581b604082015260600190565b634e487b7160e01b600052601160045260246000fd5b60008282101561457e5761457e614556565b500390565b600081600019048311821515161561459d5761459d614556565b500290565b6000826145bf57634e487b7160e01b600052601260045260246000fd5b500490565b6000602082840312156145d657600080fd5b5051919050565b634e487b7160e01b600052603260045260246000fd5b6000821982111561460657614606614556565b500190565b600060001982141561461f5761461f614556565b5060010190565b602080825260149082015273536c697070616765207363726577656420796f7560601b604082015260600190565b6001600160a01b03929092168252602082015260400190565b8060005b6002811015613abc578151845260209384019390910190600101614671565b60c0810161469e828761466d565b6146ab604083018661466d565b608082019390935260a0015292915050565b6020808252818101527f4f776e61626c653a2063616c6c6572206973206e6f7420746865206f776e6572604082015260600190565b6020808252601690820152756465763a20696e73756666696369656e742074696d6560501b604082015260600190565b60006020828403121561473457600080fd5b815160ff81168114611bb357600080fd5b600181815b8085111561478057816000190482111561476657614766614556565b8085161561477357918102915b93841c939080029061474a565b509250929050565b60008261479757506001611903565b816147a457506000611903565b81600181146147ba57600281146147c4576147e0565b6001915050611903565b60ff8411156147d5576147d5614556565b50506001821b611903565b5060208310610133831016604e8410600b8410161715614803575081810a611903565b61480d8383614745565b806000190482111561482157614821614556565b029392505050565b6000611bb38383614788565b60a08101614843828661466d565b614850604083018561466d565b826080830152949350505050565b60006020828403121561487057600080fd5b8151611bb38161446f565b60005b8381101561489657818101518382015260200161487e565b83811115613abc5750506000910152565b600082516148b981846020870161487b565b9190910192915050565b60208152600082518060208401526148e281604085016020870161487b565b601f01601f1916919091016040019291505056fea2646970667358221220e1d52b7d4635dd644be8eff20fef212fd1455e7a384dc563dd65a60bb54595f064736f6c634300080a0033",
  "linkReferences": {},
  "deployedLinkReferences": {}
}