{
  "_format": "hh-sol-artifact-1",
  "contractName": "PancakeSwapLottery",
  "sourceName": "contracts/PancakeSwapLottery.sol",
  "abi": [
    {
      "inputs": [
        {
          "internalType": "address",
          "name": "_cakeTokenAddress",
          "type": "address"
        },
        {
          "internalType": "address",
          "name": "_randomGeneratorAddress",
          "type": "address"
        }
      ],
      "stateMutability": "nonpayable",
      "type": "constructor"
    },
    {
      "anonymous": false,
      "inputs": [
        {
          "indexed": false,
          "internalType": "address",
          "name": "token",
          "type": "address"
        },
        {
          "indexed": false,
          "internalType": "uint256",
          "name": "amount",
          "type": "uint256"
        }
      ],
      "name": "AdminTokenRecovery",
      "type": "event"
    },
    {
      "anonymous": false,
      "inputs": [
        {
          "indexed": true,
          "internalType": "uint256",
          "name": "lotteryId",
          "type": "uint256"
        },
        {
          "indexed": false,
          "internalType": "uint256",
          "name": "firstTicketIdNextLottery",
          "type": "uint256"
        }
      ],
      "name": "LotteryClose",
      "type": "event"
    },
    {
      "anonymous": false,
      "inputs": [
        {
          "indexed": true,
          "internalType": "uint256",
          "name": "lotteryId",
          "type": "uint256"
        },
        {
          "indexed": false,
          "internalType": "uint256",
          "name": "injectedAmount",
          "type": "uint256"
        }
      ],
      "name": "LotteryInjection",
      "type": "event"
    },
    {
      "anonymous": false,
      "inputs": [
        {
          "indexed": true,
          "internalType": "uint256",
          "name": "lotteryId",
          "type": "uint256"
        },
        {
          "indexed": false,
          "internalType": "uint256",
          "name": "finalNumber",
          "type": "uint256"
        },
        {
          "indexed": false,
          "internalType": "uint256",
          "name": "countWinningTickets",
          "type": "uint256"
        }
      ],
      "name": "LotteryNumberDrawn",
      "type": "event"
    },
    {
      "anonymous": false,
      "inputs": [
        {
          "indexed": true,
          "internalType": "uint256",
          "name": "lotteryId",
          "type": "uint256"
        },
        {
          "indexed": false,
          "internalType": "uint256",
          "name": "startTime",
          "type": "uint256"
        },
        {
          "indexed": false,
          "internalType": "uint256",
          "name": "endTime",
          "type": "uint256"
        },
        {
          "indexed": false,
          "internalType": "uint256",
          "name": "priceTicketInCake",
          "type": "uint256"
        },
        {
          "indexed": false,
          "internalType": "uint256",
          "name": "firstTicketId",
          "type": "uint256"
        },
        {
          "indexed": false,
          "internalType": "uint256",
          "name": "injectedAmount",
          "type": "uint256"
        }
      ],
      "name": "LotteryOpen",
      "type": "event"
    },
    {
      "anonymous": false,
      "inputs": [
        {
          "indexed": false,
          "internalType": "address",
          "name": "operator",
          "type": "address"
        },
        {
          "indexed": false,
          "internalType": "address",
          "name": "treasury",
          "type": "address"
        },
        {
          "indexed": false,
          "internalType": "address",
          "name": "injector",
          "type": "address"
        }
      ],
      "name": "NewOperatorAndTreasuryAndInjectorAddresses",
      "type": "event"
    },
    {
      "anonymous": false,
      "inputs": [
        {
          "indexed": true,
          "internalType": "address",
          "name": "randomGenerator",
          "type": "address"
        }
      ],
      "name": "NewRandomGenerator",
      "type": "event"
    },
    {
      "anonymous": false,
      "inputs": [
        {
          "indexed": true,
          "internalType": "address",
          "name": "previousOwner",
          "type": "address"
        },
        {
          "indexed": true,
          "internalType": "address",
          "name": "newOwner",
          "type": "address"
        }
      ],
      "name": "OwnershipTransferred",
      "type": "event"
    },
    {
      "anonymous": false,
      "inputs": [
        {
          "indexed": true,
          "internalType": "address",
          "name": "claimer",
          "type": "address"
        },
        {
          "indexed": false,
          "internalType": "uint256",
          "name": "amount",
          "type": "uint256"
        },
        {
          "indexed": true,
          "internalType": "uint256",
          "name": "lotteryId",
          "type": "uint256"
        },
        {
          "indexed": false,
          "internalType": "uint256",
          "name": "numberTickets",
          "type": "uint256"
        }
      ],
      "name": "TicketsClaim",
      "type": "event"
    },
    {
      "anonymous": false,
      "inputs": [
        {
          "indexed": true,
          "internalType": "address",
          "name": "buyer",
          "type": "address"
        },
        {
          "indexed": true,
          "internalType": "uint256",
          "name": "lotteryId",
          "type": "uint256"
        },
        {
          "indexed": false,
          "internalType": "uint256",
          "name": "numberTickets",
          "type": "uint256"
        }
      ],
      "name": "TicketsPurchase",
      "type": "event"
    },
    {
      "inputs": [],
      "name": "MAX_LENGTH_LOTTERY",
      "outputs": [
        {
          "internalType": "uint256",
          "name": "",
          "type": "uint256"
        }
      ],
      "stateMutability": "view",
      "type": "function"
    },
    {
      "inputs": [],
      "name": "MAX_TREASURY_FEE",
      "outputs": [
        {
          "internalType": "uint256",
          "name": "",
          "type": "uint256"
        }
      ],
      "stateMutability": "view",
      "type": "function"
    },
    {
      "inputs": [],
      "name": "MIN_DISCOUNT_DIVISOR",
      "outputs": [
        {
          "internalType": "uint256",
          "name": "",
          "type": "uint256"
        }
      ],
      "stateMutability": "view",
      "type": "function"
    },
    {
      "inputs": [],
      "name": "MIN_LENGTH_LOTTERY",
      "outputs": [
        {
          "internalType": "uint256",
          "name": "",
          "type": "uint256"
        }
      ],
      "stateMutability": "view",
      "type": "function"
    },
    {
      "inputs": [
        {
          "internalType": "uint256",
          "name": "_lotteryId",
          "type": "uint256"
        },
        {
          "internalType": "uint32[]",
          "name": "_ticketNumbers",
          "type": "uint32[]"
        }
      ],
      "name": "buyTickets",
      "outputs": [],
      "stateMutability": "nonpayable",
      "type": "function"
    },
    {
      "inputs": [],
      "name": "cakeToken",
      "outputs": [
        {
          "internalType": "contract IERC20",
          "name": "",
          "type": "address"
        }
      ],
      "stateMutability": "view",
      "type": "function"
    },
    {
      "inputs": [
        {
          "internalType": "uint256",
          "name": "_discountDivisor",
          "type": "uint256"
        },
        {
          "internalType": "uint256",
          "name": "_priceTicket",
          "type": "uint256"
        },
        {
          "internalType": "uint256",
          "name": "_numberTickets",
          "type": "uint256"
        }
      ],
      "name": "calculateTotalPriceForBulkTickets",
      "outputs": [
        {
          "internalType": "uint256",
          "name": "",
          "type": "uint256"
        }
      ],
      "stateMutability": "pure",
      "type": "function"
    },
    {
      "inputs": [
        {
          "internalType": "address",
          "name": "_randomGeneratorAddress",
          "type": "address"
        }
      ],
      "name": "changeRandomGenerator",
      "outputs": [],
      "stateMutability": "nonpayable",
      "type": "function"
    },
    {
      "inputs": [
        {
          "internalType": "uint256",
          "name": "_lotteryId",
          "type": "uint256"
        },
        {
          "internalType": "uint256[]",
          "name": "_ticketIds",
          "type": "uint256[]"
        },
        {
          "internalType": "uint32[]",
          "name": "_brackets",
          "type": "uint32[]"
        }
      ],
      "name": "claimTickets",
      "outputs": [],
      "stateMutability": "nonpayable",
      "type": "function"
    },
    {
      "inputs": [
        {
          "internalType": "uint256",
          "name": "_lotteryId",
          "type": "uint256"
        }
      ],
      "name": "closeLottery",
      "outputs": [],
      "stateMutability": "nonpayable",
      "type": "function"
    },
    {
      "inputs": [],
      "name": "currentLotteryId",
      "outputs": [
        {
          "internalType": "uint256",
          "name": "",
          "type": "uint256"
        }
      ],
      "stateMutability": "view",
      "type": "function"
    },
    {
      "inputs": [],
      "name": "currentTicketId",
      "outputs": [
        {
          "internalType": "uint256",
          "name": "",
          "type": "uint256"
        }
      ],
      "stateMutability": "view",
      "type": "function"
    },
    {
      "inputs": [
        {
          "internalType": "uint256",
          "name": "_lotteryId",
          "type": "uint256"
        },
        {
          "internalType": "bool",
          "name": "_autoInjection",
          "type": "bool"
        }
      ],
      "name": "drawFinalNumberAndMakeLotteryClaimable",
      "outputs": [],
      "stateMutability": "nonpayable",
      "type": "function"
    },
    {
      "inputs": [
        {
          "internalType": "uint256",
          "name": "_lotteryId",
          "type": "uint256"
        },
        {
          "internalType": "uint256",
          "name": "_amount",
          "type": "uint256"
        }
      ],
      "name": "injectFunds",
      "outputs": [],
      "stateMutability": "nonpayable",
      "type": "function"
    },
    {
      "inputs": [],
      "name": "injectorAddress",
      "outputs": [
        {
          "internalType": "address",
          "name": "",
          "type": "address"
        }
      ],
      "stateMutability": "view",
      "type": "function"
    },
    {
      "inputs": [],
      "name": "maxNumberTicketsPerBuyOrClaim",
      "outputs": [
        {
          "internalType": "uint256",
          "name": "",
          "type": "uint256"
        }
      ],
      "stateMutability": "view",
      "type": "function"
    },
    {
      "inputs": [],
      "name": "maxPriceTicketInCake",
      "outputs": [
        {
          "internalType": "uint256",
          "name": "",
          "type": "uint256"
        }
      ],
      "stateMutability": "view",
      "type": "function"
    },
    {
      "inputs": [],
      "name": "minPriceTicketInCake",
      "outputs": [
        {
          "internalType": "uint256",
          "name": "",
          "type": "uint256"
        }
      ],
      "stateMutability": "view",
      "type": "function"
    },
    {
      "inputs": [],
      "name": "operatorAddress",
      "outputs": [
        {
          "internalType": "address",
          "name": "",
          "type": "address"
        }
      ],
      "stateMutability": "view",
      "type": "function"
    },
    {
      "inputs": [],
      "name": "owner",
      "outputs": [
        {
          "internalType": "address",
          "name": "",
          "type": "address"
        }
      ],
      "stateMutability": "view",
      "type": "function"
    },
    {
      "inputs": [],
      "name": "pendingInjectionNextLottery",
      "outputs": [
        {
          "internalType": "uint256",
          "name": "",
          "type": "uint256"
        }
      ],
      "stateMutability": "view",
      "type": "function"
    },
    {
      "inputs": [],
      "name": "randomGenerator",
      "outputs": [
        {
          "internalType": "contract IRandomNumberGenerator",
          "name": "",
          "type": "address"
        }
      ],
      "stateMutability": "view",
      "type": "function"
    },
    {
      "inputs": [
        {
          "internalType": "address",
          "name": "_tokenAddress",
          "type": "address"
        },
        {
          "internalType": "uint256",
          "name": "_tokenAmount",
          "type": "uint256"
        }
      ],
      "name": "recoverWrongTokens",
      "outputs": [],
      "stateMutability": "nonpayable",
      "type": "function"
    },
    {
      "inputs": [],
      "name": "renounceOwnership",
      "outputs": [],
      "stateMutability": "nonpayable",
      "type": "function"
    },
    {
      "inputs": [
        {
          "internalType": "uint256",
          "name": "_maxNumberTicketsPerBuy",
          "type": "uint256"
        }
      ],
      "name": "setMaxNumberTicketsPerBuy",
      "outputs": [],
      "stateMutability": "nonpayable",
      "type": "function"
    },
    {
      "inputs": [
        {
          "internalType": "uint256",
          "name": "_minPriceTicketInCake",
          "type": "uint256"
        },
        {
          "internalType": "uint256",
          "name": "_maxPriceTicketInCake",
          "type": "uint256"
        }
      ],
      "name": "setMinAndMaxTicketPriceInCake",
      "outputs": [],
      "stateMutability": "nonpayable",
      "type": "function"
    },
    {
      "inputs": [
        {
          "internalType": "address",
          "name": "_operatorAddress",
          "type": "address"
        },
        {
          "internalType": "address",
          "name": "_treasuryAddress",
          "type": "address"
        },
        {
          "internalType": "address",
          "name": "_injectorAddress",
          "type": "address"
        }
      ],
      "name": "setOperatorAndTreasuryAndInjectorAddresses",
      "outputs": [],
      "stateMutability": "nonpayable",
      "type": "function"
    },
    {
      "inputs": [
        {
          "internalType": "uint256",
          "name": "_endTime",
          "type": "uint256"
        },
        {
          "internalType": "uint256",
          "name": "_priceTicketInCake",
          "type": "uint256"
        },
        {
          "internalType": "uint256",
          "name": "_discountDivisor",
          "type": "uint256"
        },
        {
          "internalType": "uint256[6]",
          "name": "_rewardsBreakdown",
          "type": "uint256[6]"
        },
        {
          "internalType": "uint256",
          "name": "_treasuryFee",
          "type": "uint256"
        }
      ],
      "name": "startLottery",
      "outputs": [],
      "stateMutability": "nonpayable",
      "type": "function"
    },
    {
      "inputs": [
        {
          "internalType": "address",
          "name": "newOwner",
          "type": "address"
        }
      ],
      "name": "transferOwnership",
      "outputs": [],
      "stateMutability": "nonpayable",
      "type": "function"
    },
    {
      "inputs": [],
      "name": "treasuryAddress",
      "outputs": [
        {
          "internalType": "address",
          "name": "",
          "type": "address"
        }
      ],
      "stateMutability": "view",
      "type": "function"
    },
    {
      "inputs": [],
      "name": "viewCurrentLotteryId",
      "outputs": [
        {
          "internalType": "uint256",
          "name": "",
          "type": "uint256"
        }
      ],
      "stateMutability": "view",
      "type": "function"
    },
    {
      "inputs": [
        {
          "internalType": "uint256",
          "name": "_lotteryId",
          "type": "uint256"
        }
      ],
      "name": "viewLottery",
      "outputs": [
        {
          "components": [
            {
              "internalType": "enum PancakeSwapLottery.Status",
              "name": "status",
              "type": "uint8"
            },
            {
              "internalType": "uint256",
              "name": "startTime",
              "type": "uint256"
            },
            {
              "internalType": "uint256",
              "name": "endTime",
              "type": "uint256"
            },
            {
              "internalType": "uint256",
              "name": "priceTicketInCake",
              "type": "uint256"
            },
            {
              "internalType": "uint256",
              "name": "discountDivisor",
              "type": "uint256"
            },
            {
              "internalType": "uint256[6]",
              "name": "rewardsBreakdown",
              "type": "uint256[6]"
            },
            {
              "internalType": "uint256",
              "name": "treasuryFee",
              "type": "uint256"
            },
            {
              "internalType": "uint256[6]",
              "name": "cakePerBracket",
              "type": "uint256[6]"
            },
            {
              "internalType": "uint256[6]",
              "name": "countWinnersPerBracket",
              "type": "uint256[6]"
            },
            {
              "internalType": "uint256",
              "name": "firstTicketId",
              "type": "uint256"
            },
            {
              "internalType": "uint256",
              "name": "firstTicketIdNextLottery",
              "type": "uint256"
            },
            {
              "internalType": "uint256",
              "name": "amountCollectedInCake",
              "type": "uint256"
            },
            {
              "internalType": "uint32",
              "name": "finalNumber",
              "type": "uint32"
            }
          ],
          "internalType": "struct PancakeSwapLottery.Lottery",
          "name": "",
          "type": "tuple"
        }
      ],
      "stateMutability": "view",
      "type": "function"
    },
    {
      "inputs": [
        {
          "internalType": "uint256[]",
          "name": "_ticketIds",
          "type": "uint256[]"
        }
      ],
      "name": "viewNumbersAndStatusesForTicketIds",
      "outputs": [
        {
          "internalType": "uint32[]",
          "name": "",
          "type": "uint32[]"
        },
        {
          "internalType": "bool[]",
          "name": "",
          "type": "bool[]"
        }
      ],
      "stateMutability": "view",
      "type": "function"
    },
    {
      "inputs": [
        {
          "internalType": "uint256",
          "name": "_lotteryId",
          "type": "uint256"
        },
        {
          "internalType": "uint256",
          "name": "_ticketId",
          "type": "uint256"
        },
        {
          "internalType": "uint32",
          "name": "_bracket",
          "type": "uint32"
        }
      ],
      "name": "viewRewardsForTicketId",
      "outputs": [
        {
          "internalType": "uint256",
          "name": "",
          "type": "uint256"
        }
      ],
      "stateMutability": "view",
      "type": "function"
    },
    {
      "inputs": [
        {
          "internalType": "address",
          "name": "_user",
          "type": "address"
        },
        {
          "internalType": "uint256",
          "name": "_lotteryId",
          "type": "uint256"
        },
        {
          "internalType": "uint256",
          "name": "_cursor",
          "type": "uint256"
        },
        {
          "internalType": "uint256",
          "name": "_size",
          "type": "uint256"
        }
      ],
      "name": "viewUserInfoForLotteryId",
      "outputs": [
        {
          "internalType": "uint256[]",
          "name": "",
          "type": "uint256[]"
        },
        {
          "internalType": "uint32[]",
          "name": "",
          "type": "uint32[]"
        },
        {
          "internalType": "bool[]",
          "name": "",
          "type": "bool[]"
        },
        {
          "internalType": "uint256",
          "name": "",
          "type": "uint256"
        }
      ],
      "stateMutability": "view",
      "type": "function"
    }
  ],
  "bytecode": "0x608060405260646007556802b5e3af16b18800006008556611c37937e080006009553480156200002e57600080fd5b506040516200510a3803806200510a833981016040819052620000519162000219565b60016000556200006133620001aa565b600b80546001600160a01b039384166001600160a01b0319918216178255600c805493909416921691909117909155600f6020527ff4803e074bd026baaf6ed2e288c9515f68c72fb7216eebdd7cae1718a53ec375805463ffffffff199081166001179091557f169f97de0d9a84d840042b17d3c6b9638b3d6fd9024c9eb0c7a306a17b49f88f805482169092179091557fa74ba3945261e09fde15ba3db55005b205e61eeb4ad811ac0faa2b315bffeead80548216606f1790557f45f76dafbbad695564362934e24d72eedc57f9fc1a65f39bca62176cc8296828805482166104571790557f367ccd2d0ac16bf7110a5dffe0801fdc9452a95a1adb7e1a12fe97dd3e9a4edd80548216612b6717905560056000527f6bda57492eba051cb4a12a1e19df47c9755d78165341d4009b1d09b3f361620480549091166201b20717905562000250565b600180546001600160a01b038381166001600160a01b0319831681179093556040519116919082907f8be0079c531659141344cd1fd0a4f28419497f9722a3daafe3b4186f6b6457e090600090a35050565b80516001600160a01b03811681146200021457600080fd5b919050565b600080604083850312156200022c578182fd5b6200023783620001fc565b91506200024760208401620001fc565b90509250929050565b614eaa80620002606000396000f3fe608060405234801561001057600080fd5b50600436106102415760003560e01c806388303dbd11610145578063c4937ab9116100bd578063da7429f81161008c578063dcbad90d11610071578063dcbad90d146104df578063f2b3c809146104ff578063f2fde38b1461050857600080fd5b8063da7429f8146104c2578063db19da0d146104d557600080fd5b8063c4937ab914610469578063c5f956af1461047c578063c914914f1461049c578063da4ca039146104af57600080fd5b806398359fa1116101145780639d8ca531116100f95780639d8ca53114610430578063b1829b8214610443578063c38de5391461045657600080fd5b806398359fa1146103fd5780639c3846531461041057600080fd5b806388303dbd1461038b5780638904bf2f1461039e5780638da5cb5b146103be5780638fc3539a146103dc57600080fd5b806331feb565116101d85780636b873788116101a7578063715018a61161018c578063715018a6146103725780637cb583bd1461037a57806380a061601461038357600080fd5b80636b873788146103565780636be4097c1461036957600080fd5b806331feb5651461031c5780633f138d4b14610325578063471aeab41461033a578063686465b81461034d57600080fd5b80631f73664b116102145780631f73664b146102d75780631fe86c6b146102e05780632423807a146102e95780632e530cae1461030957600080fd5b806305531eeb1461024657806307fb5a9c14610272578063127effb21461028957806312a9769d146102ce575b600080fd5b6102596102543660046145ed565b61051b565b6040516102699493929190614995565b60405180910390f35b61027b61371481565b604051908152602001610269565b6003546102a99073ffffffffffffffffffffffffffffffffffffffff1681565b60405173ffffffffffffffffffffffffffffffffffffffff9091168152602001610269565b61027b600a5481565b61027b60085481565b61027b60075481565b6102fc6102f7366004614681565b6109ce565b6040516102699190614a88565b61027b61031736600461483a565b610b7d565b61027b60095481565b6103386103333660046145c4565b610c2b565b005b6103386103483660046147a1565b610daa565b61027b60065481565b610338610364366004614681565b610f84565b61027b60055481565b610338611071565b61027b61012c81565b60055461027b565b610338610399366004614728565b6110fe565b600b546102a99073ffffffffffffffffffffffffffffffffffffffff1681565b60015473ffffffffffffffffffffffffffffffffffffffff166102a9565b6103ef6103ea366004614625565b61188b565b604051610269929190614a09565b61033861040b366004614568565b611b63565b6002546102a99073ffffffffffffffffffffffffffffffffffffffff1681565b61033861043e366004614681565b611e69565b6103386104513660046147ed565b6121e8565b610338610464366004614772565b612860565b61027b6104773660046147c2565b61307a565b6004546102a99073ffffffffffffffffffffffffffffffffffffffff1681565b6103386104aa3660046146b1565b61315a565b6103386104bd366004614582565b6139ce565b6103386104d03660046147a1565b613c6f565b61027b6205472c81565b600c546102a99073ffffffffffffffffffffffffffffffffffffffff1681565b61027b610bb881565b610338610516366004614568565b613d65565b73ffffffffffffffffffffffffffffffffffffffff84166000908152601160209081526040808320868452909152812054606091829182919085906105608882614d0e565b821115610574576105718882614d0e565b91505b60008267ffffffffffffffff8111156105b6577f4e487b7100000000000000000000000000000000000000000000000000000000600052604160045260246000fd5b6040519080825280602002602001820160405280156105df578160200160208202803683370190505b50905060008367ffffffffffffffff811115610624577f4e487b7100000000000000000000000000000000000000000000000000000000600052604160045260246000fd5b60405190808252806020026020018201604052801561064d578160200160208202803683370190505b50905060008467ffffffffffffffff811115610692577f4e487b7100000000000000000000000000000000000000000000000000000000600052604160045260246000fd5b6040519080825280602002602001820160405280156106bb578160200160208202803683370190505b50905060005b858110156109a857601160008f73ffffffffffffffffffffffffffffffffffffffff1673ffffffffffffffffffffffffffffffffffffffff16815260200190815260200160002060008e81526020019081526020016000208c826107259190614b4b565b8154811061075c577f4e487b7100000000000000000000000000000000000000000000000000000000600052603260045260246000fd5b90600052602060002001548482815181106107a0577f4e487b7100000000000000000000000000000000000000000000000000000000600052603260045260246000fd5b602002602001018181525050600e60008583815181106107e9577f4e487b7100000000000000000000000000000000000000000000000000000000600052603260045260246000fd5b6020026020010151815260200190815260200160002060000160009054906101000a900463ffffffff1683828151811061084c577f4e487b7100000000000000000000000000000000000000000000000000000000600052603260045260246000fd5b602002602001019063ffffffff16908163ffffffff1681525050600073ffffffffffffffffffffffffffffffffffffffff16600e60008684815181106108bb577f4e487b7100000000000000000000000000000000000000000000000000000000600052603260045260246000fd5b602090810291909101810151825281019190915260400160002054640100000000900473ffffffffffffffffffffffffffffffffffffffff16141561094a576001828281518110610935577f4e487b7100000000000000000000000000000000000000000000000000000000600052603260045260246000fd5b91151560209283029190910190910152610996565b6000828281518110610985577f4e487b7100000000000000000000000000000000000000000000000000000000600052603260045260246000fd5b911515602092830291909101909101525b806109a081614d76565b9150506106c1565b508282826109b6888f614b4b565b98509850985098505050505050945094509450949050565b6109d661440a565b6000828152600d60205260409081902081516101a081019092528054829060ff166003811115610a2f577f4e487b7100000000000000000000000000000000000000000000000000000000600052602160045260246000fd5b6003811115610a67577f4e487b7100000000000000000000000000000000000000000000000000000000600052602160045260246000fd5b81526001820154602082015260028201546040808301919091526003830154606083015260048301546080830152805160c081019182905260a09092019190600584019060069082845b815481526020019060010190808311610ab1575050509183525050600b82015460208201526040805160c081018252910190600c830160068282826020028201915b815481526020019060010190808311610af35750505091835250506040805160c081019182905260209092019190601284019060069082845b815481526020019060010190808311610b2c5750505091835250506018820154602082015260198201546040820152601a8201546060820152601b9091015463ffffffff1660809091015292915050565b600060036000858152600d602052604090205460ff166003811115610bcb577f4e487b7100000000000000000000000000000000000000000000000000000000600052602160045260246000fd5b14610bd857506000610c24565b6000848152600d602052604090206019015483118015610c0957506000848152600d60205260409020601801548311155b15610c1657506000610c24565b610c21848484613e95565b90505b9392505050565b60015473ffffffffffffffffffffffffffffffffffffffff163314610cb1576040517f08c379a000000000000000000000000000000000000000000000000000000000815260206004820181905260248201527f4f776e61626c653a2063616c6c6572206973206e6f7420746865206f776e657260448201526064015b60405180910390fd5b600b5473ffffffffffffffffffffffffffffffffffffffff83811691161415610d36576040517f08c379a000000000000000000000000000000000000000000000000000000000815260206004820152601460248201527f43616e6e6f742062652043414b4520746f6b656e0000000000000000000000006044820152606401610ca8565b610d5773ffffffffffffffffffffffffffffffffffffffff83163383613fc7565b6040805173ffffffffffffffffffffffffffffffffffffffff84168152602081018390527f74545154aac348a3eac92596bd1971957ca94795f4e954ec5f613b55fab78129910160405180910390a15050565b60015473ffffffffffffffffffffffffffffffffffffffff16331480610de7575060025473ffffffffffffffffffffffffffffffffffffffff1633145b610e4d576040517f08c379a000000000000000000000000000000000000000000000000000000000815260206004820152601560248201527f4e6f74206f776e6572206f7220696e6a6563746f7200000000000000000000006044820152606401610ca8565b60016000838152600d602052604090205460ff166003811115610e99577f4e487b7100000000000000000000000000000000000000000000000000000000600052602160045260246000fd5b14610f00576040517f08c379a000000000000000000000000000000000000000000000000000000000815260206004820152601060248201527f4c6f7474657279206e6f74206f70656e000000000000000000000000000000006044820152606401610ca8565b600b54610f259073ffffffffffffffffffffffffffffffffffffffff163330846140a0565b6000828152600d60205260408120601a018054839290610f46908490614b4b565b909155505060405181815282907f1bbd659dd628a25f7ff2eabb69c74a56939c539728282275c1c9c1a2d3e340499060200160405180910390a25050565b60015473ffffffffffffffffffffffffffffffffffffffff163314611005576040517f08c379a000000000000000000000000000000000000000000000000000000000815260206004820181905260248201527f4f776e61626c653a2063616c6c6572206973206e6f7420746865206f776e65726044820152606401610ca8565b8061106c576040517f08c379a000000000000000000000000000000000000000000000000000000000815260206004820152600b60248201527f4d757374206265203e20300000000000000000000000000000000000000000006044820152606401610ca8565b600755565b60015473ffffffffffffffffffffffffffffffffffffffff1633146110f2576040517f08c379a000000000000000000000000000000000000000000000000000000000815260206004820181905260248201527f4f776e61626c653a2063616c6c6572206973206e6f7420746865206f776e65726044820152606401610ca8565b6110fc6000614104565b565b333b15611167576040517f08c379a000000000000000000000000000000000000000000000000000000000815260206004820152601460248201527f436f6e7472616374206e6f7420616c6c6f7765640000000000000000000000006044820152606401610ca8565b3332146111d0576040517f08c379a000000000000000000000000000000000000000000000000000000000815260206004820152601a60248201527f50726f787920636f6e7472616374206e6f7420616c6c6f7765640000000000006044820152606401610ca8565b6002600054141561123d576040517f08c379a000000000000000000000000000000000000000000000000000000000815260206004820152601f60248201527f5265656e7472616e637947756172643a207265656e7472616e742063616c6c006044820152606401610ca8565b6002600055806112a9576040517f08c379a000000000000000000000000000000000000000000000000000000000815260206004820152601360248201527f4e6f207469636b657420737065636966696564000000000000000000000000006044820152606401610ca8565b600754811115611315576040517f08c379a000000000000000000000000000000000000000000000000000000000815260206004820152601060248201527f546f6f206d616e79207469636b657473000000000000000000000000000000006044820152606401610ca8565b60016000848152600d602052604090205460ff166003811115611361577f4e487b7100000000000000000000000000000000000000000000000000000000600052602160045260246000fd5b146113c8576040517f08c379a000000000000000000000000000000000000000000000000000000000815260206004820152601360248201527f4c6f7474657279206973206e6f74206f70656e000000000000000000000000006044820152606401610ca8565b6000838152600d60205260409020600201544210611442576040517f08c379a000000000000000000000000000000000000000000000000000000000815260206004820152600f60248201527f4c6f7474657279206973206f76657200000000000000000000000000000000006044820152606401610ca8565b6000838152600d60205260408120600481015460039091015461146691908461417b565b600b5490915061148e9073ffffffffffffffffffffffffffffffffffffffff163330846140a0565b6000848152600d60205260408120601a0180548392906114af908490614b4b565b90915550600090505b828110156118485760008484838181106114fb577f4e487b7100000000000000000000000000000000000000000000000000000000600052603260045260246000fd5b90506020020160208101906115109190614872565b9050620f42408163ffffffff16101580156115345750621e847f8163ffffffff1611155b61159a576040517f08c379a000000000000000000000000000000000000000000000000000000000815260206004820152600d60248201527f4f7574736964652072616e6765000000000000000000000000000000000000006044820152606401610ca8565b6000868152601060205260408120906115b4600a84614dd3565b6115bf906001614b63565b63ffffffff168152602081019190915260400160009081208054916115e383614d76565b9091555050600086815260106020526040812090611602606484614dd3565b61160d90600b614b63565b63ffffffff1681526020810191909152604001600090812080549161163183614d76565b90915550506000868152601060205260408120906116516103e884614dd3565b61165c90606f614b63565b63ffffffff1681526020810191909152604001600090812080549161168083614d76565b90915550506000868152601060205260408120906116a061271084614dd3565b6116ac90610457614b63565b63ffffffff168152602081019190915260400160009081208054916116d083614d76565b90915550506000868152601060205260408120906116f1620186a084614dd3565b6116fd90612b67614b63565b63ffffffff1681526020810191909152604001600090812080549161172183614d76565b9091555050600086815260106020526040812090611742620f424084614dd3565b61174f906201b207614b63565b63ffffffff1681526020810191909152604001600090812080549161177383614d76565b90915550503360008181526011602090815260408083208a84528252808320600680548254600181018455928652848620909201919091558151808301835263ffffffff808816825281850196875282548652600e90945291842091518254955173ffffffffffffffffffffffffffffffffffffffff16640100000000027fffffffffffffffff000000000000000000000000000000000000000000000000909616931692909217939093179092558154919061182f83614d76565b919050555050808061184090614d76565b9150506114b8565b50604051828152849033907fd7d247b583de1023852eef87b48f54354dbec771d01bc2cc49e96094efc322b99060200160405180910390a3505060016000555050565b6060808260008167ffffffffffffffff8111156118d1577f4e487b7100000000000000000000000000000000000000000000000000000000600052604160045260246000fd5b6040519080825280602002602001820160405280156118fa578160200160208202803683370190505b50905060008267ffffffffffffffff81111561193f577f4e487b7100000000000000000000000000000000000000000000000000000000600052604160045260246000fd5b604051908082528060200260200182016040528015611968578160200160208202803683370190505b50905060005b83811015611b5457600e60008989848181106119b3577f4e487b7100000000000000000000000000000000000000000000000000000000600052603260045260246000fd5b90506020020135815260200190815260200160002060000160009054906101000a900463ffffffff16838281518110611a15577f4e487b7100000000000000000000000000000000000000000000000000000000600052603260045260246000fd5b63ffffffff909216602092830291909101909101526000600e818a8a85818110611a68577f4e487b7100000000000000000000000000000000000000000000000000000000600052603260045260246000fd5b6020908102929092013583525081019190915260400160002054640100000000900473ffffffffffffffffffffffffffffffffffffffff161415611af6576001828281518110611ae1577f4e487b7100000000000000000000000000000000000000000000000000000000600052603260045260246000fd5b91151560209283029190910190910152611b42565b6000828281518110611b31577f4e487b7100000000000000000000000000000000000000000000000000000000600052603260045260246000fd5b911515602092830291909101909101525b80611b4c81614d76565b91505061196e565b509093509150505b9250929050565b60015473ffffffffffffffffffffffffffffffffffffffff163314611be4576040517f08c379a000000000000000000000000000000000000000000000000000000000815260206004820181905260248201527f4f776e61626c653a2063616c6c6572206973206e6f7420746865206f776e65726044820152606401610ca8565b6005541580611c3f575060036005546000908152600d602052604090205460ff166003811115611c3d577f4e487b7100000000000000000000000000000000000000000000000000000000600052602160045260246000fd5b145b611ca5576040517f08c379a000000000000000000000000000000000000000000000000000000000815260206004820152601860248201527f4c6f7474657279206e6f7420696e20636c61696d61626c6500000000000000006044820152606401610ca8565b8073ffffffffffffffffffffffffffffffffffffffff1663b37217a4600554600654604051602001611ce1929190918252602082015260400190565b604080518083037fffffffffffffffffffffffffffffffffffffffffffffffffffffffffffffffe001815290829052805160209091012060e083901b7fffffffff000000000000000000000000000000000000000000000000000000001682526004820152602401600060405180830381600087803b158015611d6357600080fd5b505af1158015611d77573d6000803e3d6000fd5b505050508073ffffffffffffffffffffffffffffffffffffffff1663a1c4f55a6040518163ffffffff1660e01b815260040160206040518083038186803b158015611dc157600080fd5b505afa158015611dd5573d6000803e3d6000fd5b505050506040513d601f19601f82011682018060405250810190611df9919061488e565b50600c80547fffffffffffffffffffffffff00000000000000000000000000000000000000001673ffffffffffffffffffffffffffffffffffffffff83169081179091556040517f383f8cb39dfa7c3fb901a460dd449ea924868f0a92ff03da64740fffa5f1de6290600090a250565b60035473ffffffffffffffffffffffffffffffffffffffff163314611eea576040517f08c379a000000000000000000000000000000000000000000000000000000000815260206004820152600c60248201527f4e6f74206f70657261746f7200000000000000000000000000000000000000006044820152606401610ca8565b60026000541415611f57576040517f08c379a000000000000000000000000000000000000000000000000000000000815260206004820152601f60248201527f5265656e7472616e637947756172643a207265656e7472616e742063616c6c006044820152606401610ca8565b600260005560016000828152600d602052604090205460ff166003811115611fa8577f4e487b7100000000000000000000000000000000000000000000000000000000600052602160045260246000fd5b1461200f576040517f08c379a000000000000000000000000000000000000000000000000000000000815260206004820152601060248201527f4c6f7474657279206e6f74206f70656e000000000000000000000000000000006044820152606401610ca8565b6000818152600d60205260409020600201544211612089576040517f08c379a000000000000000000000000000000000000000000000000000000000815260206004820152601060248201527f4c6f7474657279206e6f74206f766572000000000000000000000000000000006044820152606401610ca8565b6006546000828152600d6020908152604091829020601901839055600c5482519182018590529181019290925273ffffffffffffffffffffffffffffffffffffffff169063b37217a490606001604080518083037fffffffffffffffffffffffffffffffffffffffffffffffffffffffffffffffe001815290829052805160209091012060e083901b7fffffffff000000000000000000000000000000000000000000000000000000001682526004820152602401600060405180830381600087803b15801561215857600080fd5b505af115801561216c573d6000803e3d6000fd5b5050506000828152600d602090815260409182902080547fffffffffffffffffffffffffffffffffffffffffffffffffffffffffffffff0016600217905560065491519182528392507f3728e75294796694d59d2ffced9c394279baf7b9ebd2702db43f5f04bac67929910160405180910390a2506001600055565b60035473ffffffffffffffffffffffffffffffffffffffff163314612269576040517f08c379a000000000000000000000000000000000000000000000000000000000815260206004820152600c60248201527f4e6f74206f70657261746f7200000000000000000000000000000000000000006044820152606401610ca8565b60055415806122c4575060036005546000908152600d602052604090205460ff1660038111156122c2577f4e487b7100000000000000000000000000000000000000000000000000000000600052602160045260246000fd5b145b61232a576040517f08c379a000000000000000000000000000000000000000000000000000000000815260206004820152601960248201527f4e6f742074696d6520746f207374617274206c6f7474657279000000000000006044820152606401610ca8565b6137146123374287614d0e565b11801561234f57506205472c61234d4287614d0e565b105b6123b5576040517f08c379a000000000000000000000000000000000000000000000000000000000815260206004820152601f60248201527f4c6f7474657279206c656e677468206f757473696465206f662072616e6765006044820152606401610ca8565b60095484101580156123c957506008548411155b61242f576040517f08c379a000000000000000000000000000000000000000000000000000000000815260206004820152601160248201527f4f757473696465206f66206c696d6974730000000000000000000000000000006044820152606401610ca8565b61012c83101561249b576040517f08c379a000000000000000000000000000000000000000000000000000000000815260206004820152601860248201527f446973636f756e742064697669736f7220746f6f206c6f7700000000000000006044820152606401610ca8565b610bb8811115612507576040517f08c379a000000000000000000000000000000000000000000000000000000000815260206004820152601560248201527f54726561737572792066656520746f6f206869676800000000000000000000006044820152606401610ca8565b60a082013560808301356060840135604085013561252a60208701358735614b4b565b6125349190614b4b565b61253e9190614b4b565b6125489190614b4b565b6125529190614b4b565b612710146125bc576040517f08c379a000000000000000000000000000000000000000000000000000000000815260206004820152601860248201527f52657761726473206d75737420657175616c20313030303000000000000000006044820152606401610ca8565b600580549060006125cc83614d76565b9091555050604080516101a0810190915280600181526020014281526020018681526020018581526020018481526020018360068060200260405190810160405280929190826006602002808284376000920182905250928452505060208083018590526040805160c080820183528482528184018590528183018590526060808301869052608080840187905260a080850188905285890194909452845180840186528781528087018890528086018890528083018890528082018890528085018890529188019190915260065490870181905291860191909152600a549085015260e09093018290526005548252600d9052208151815482907fffffffffffffffffffffffffffffffffffffffffffffffffffffffffffffff00166001836003811115612724577f4e487b7100000000000000000000000000000000000000000000000000000000600052602160045260246000fd5b02179055506020820151600182015560408201516002820155606082015160038201556080820151600482015560a0820151612766906005830190600661448b565b5060c0820151600b82015560e082015161278690600c830190600661448b565b5061010082015161279d906012830190600661448b565b5061012082015160188201556101408201516019820155610160820151601a82015561018090910151601b90910180547fffffffffffffffffffffffffffffffffffffffffffffffffffffffff000000001663ffffffff909216919091179055600554600654600a5460408051428152602081018a9052908101889052606081019290925260808201527f367e70f8c0e0c0a6504d92172bda155c02022d532fc85b5d66a9c49e31c8bc779060a00160405180910390a250506000600a55505050565b60035473ffffffffffffffffffffffffffffffffffffffff1633146128e1576040517f08c379a000000000000000000000000000000000000000000000000000000000815260206004820152600c60248201527f4e6f74206f70657261746f7200000000000000000000000000000000000000006044820152606401610ca8565b6002600054141561294e576040517f08c379a000000000000000000000000000000000000000000000000000000000815260206004820152601f60248201527f5265656e7472616e637947756172643a207265656e7472616e742063616c6c006044820152606401610ca8565b60026000818155838152600d602052604090205460ff16600381111561299d577f4e487b7100000000000000000000000000000000000000000000000000000000600052602160045260246000fd5b14612a04576040517f08c379a000000000000000000000000000000000000000000000000000000000815260206004820152601160248201527f4c6f7474657279206e6f7420636c6f73650000000000000000000000000000006044820152606401610ca8565b600c60009054906101000a900473ffffffffffffffffffffffffffffffffffffffff1673ffffffffffffffffffffffffffffffffffffffff1663fbe5d9176040518163ffffffff1660e01b815260040160206040518083038186803b158015612a6c57600080fd5b505afa158015612a80573d6000803e3d6000fd5b505050506040513d601f19601f82011682018060405250810190612aa49190614699565b8214612b0c576040517f08c379a000000000000000000000000000000000000000000000000000000000815260206004820152601160248201527f4e756d62657273206e6f7420647261776e0000000000000000000000000000006044820152606401610ca8565b600c54604080517fa1c4f55a000000000000000000000000000000000000000000000000000000008152905160009273ffffffffffffffffffffffffffffffffffffffff169163a1c4f55a916004808301926020929190829003018186803b158015612b7757600080fd5b505afa158015612b8b573d6000803e3d6000fd5b505050506040513d601f19601f82011682018060405250810190612baf919061488e565b6000848152600d60205260408120600b015491925090819061271090612bd59082614d0e565b6000878152600d60205260409020601a0154612bf19190614cd1565b612bfb9190614b8b565b90506000805b60068163ffffffff161015612f5f576000612c1d826005614d25565b90506000612c2c826001614b63565b612c3790600a614be6565b612c419088614dd3565b63ffffffff8084166000908152600f6020526040902054612c63929116614b63565b60008a815260106020908152604080832063ffffffff85168452909152902054909150612c91908790614d0e565b60008a8152600d6020526040902060120163ffffffff841660068110612ce0577f4e487b7100000000000000000000000000000000000000000000000000000000600052603260045260246000fd5b0155600089815260106020908152604080832063ffffffff85168452909152902054612d0d908790614d0e565b15612e81576000898152600d6020526040902060050163ffffffff831660068110612d61577f4e487b7100000000000000000000000000000000000000000000000000000000600052603260045260246000fd5b015415612e7c57600089815260106020908152604080832063ffffffff8516845290915290205461271090612d97908890614d0e565b60008b8152600d60205260409020879060050163ffffffff861660068110612de8577f4e487b7100000000000000000000000000000000000000000000000000000000600052603260045260246000fd5b0154612df49190614cd1565b612dfe9190614b8b565b612e089190614b8b565b60008a8152600d60205260409020600c0163ffffffff841660068110612e57577f4e487b7100000000000000000000000000000000000000000000000000000000600052603260045260246000fd5b0155600089815260106020908152604080832063ffffffff8516845290915290205495505b612f4a565b6000898152600d60205260408120600c0163ffffffff841660068110612ed0577f4e487b7100000000000000000000000000000000000000000000000000000000600052603260045260246000fd5b01556000898152600d6020526040902061271090869060050163ffffffff851660068110612f27577f4e487b7100000000000000000000000000000000000000000000000000000000600052603260045260246000fd5b0154612f339190614cd1565b612f3d9190614b8b565b612f479085614b4b565b93505b50508080612f5790614daf565b915050612c01565b506000868152600d60205260409020601b8101805463ffffffff87167fffffffffffffffffffffffffffffffffffffffffffffffffffffffff0000000090911617905580547fffffffffffffffffffffffffffffffffffffffffffffffffffffffffffffff001660031790558415612fd757600a5560005b6000868152600d60205260409020601a0154612ff4908390614d0e565b612ffe9082614b4b565b600454600b5491925061302b9173ffffffffffffffffffffffffffffffffffffffff908116911683613fc7565b6005546040805163ffffffff87168152602081018690527f98e31a6607b8b15b4d5b91de54f4c09ffe4c4cf162aa532c70b5213754e2e703910160405180910390a25050600160005550505050565b600061012c8410156130e8576040517f08c379a000000000000000000000000000000000000000000000000000000000815260206004820152601f60248201527f4d757374206265203e3d204d494e5f444953434f554e545f44495649534f52006044820152606401610ca8565b8161314f576040517f08c379a000000000000000000000000000000000000000000000000000000000815260206004820152601d60248201527f4e756d626572206f66207469636b657473206d757374206265203e20300000006044820152606401610ca8565b610c2184848461417b565b333b156131c3576040517f08c379a000000000000000000000000000000000000000000000000000000000815260206004820152601460248201527f436f6e7472616374206e6f7420616c6c6f7765640000000000000000000000006044820152606401610ca8565b33321461322c576040517f08c379a000000000000000000000000000000000000000000000000000000000815260206004820152601a60248201527f50726f787920636f6e7472616374206e6f7420616c6c6f7765640000000000006044820152606401610ca8565b60026000541415613299576040517f08c379a000000000000000000000000000000000000000000000000000000000815260206004820152601f60248201527f5265656e7472616e637947756172643a207265656e7472616e742063616c6c006044820152606401610ca8565b6002600055828114613307576040517f08c379a000000000000000000000000000000000000000000000000000000000815260206004820152600f60248201527f4e6f742073616d65206c656e67746800000000000000000000000000000000006044820152606401610ca8565b8261336e576040517f08c379a000000000000000000000000000000000000000000000000000000000815260206004820152601160248201527f4c656e677468206d757374206265203e300000000000000000000000000000006044820152606401610ca8565b6007548311156133da576040517f08c379a000000000000000000000000000000000000000000000000000000000815260206004820152601060248201527f546f6f206d616e79207469636b657473000000000000000000000000000000006044820152606401610ca8565b60036000868152600d602052604090205460ff166003811115613426577f4e487b7100000000000000000000000000000000000000000000000000000000600052602160045260246000fd5b1461348d576040517f08c379a000000000000000000000000000000000000000000000000000000000815260206004820152601560248201527f4c6f7474657279206e6f7420636c61696d61626c6500000000000000000000006044820152606401610ca8565b6000805b8481101561395f5760068484838181106134d4577f4e487b7100000000000000000000000000000000000000000000000000000000600052603260045260246000fd5b90506020020160208101906134e99190614872565b63ffffffff1610613556576040517f08c379a000000000000000000000000000000000000000000000000000000000815260206004820152601460248201527f427261636b6574206f7574206f662072616e67650000000000000000000000006044820152606401610ca8565b6000868683818110613591577f4e487b7100000000000000000000000000000000000000000000000000000000600052603260045260246000fd5b90506020020135905080600d60008a81526020019081526020016000206019015411613619576040517f08c379a000000000000000000000000000000000000000000000000000000000815260206004820152601160248201527f5469636b6574496420746f6f20686967680000000000000000000000000000006044820152606401610ca8565b6000888152600d6020526040902060180154811015613694576040517f08c379a000000000000000000000000000000000000000000000000000000000815260206004820152601060248201527f5469636b6574496420746f6f206c6f77000000000000000000000000000000006044820152606401610ca8565b6000818152600e6020526040902054640100000000900473ffffffffffffffffffffffffffffffffffffffff163314613729576040517f08c379a000000000000000000000000000000000000000000000000000000000815260206004820152600d60248201527f4e6f7420746865206f776e6572000000000000000000000000000000000000006044820152606401610ca8565b6000818152600e6020526040812080547fffffffffffffffff0000000000000000000000000000000000000000ffffffff1690556137b5898388888781811061379b577f4e487b7100000000000000000000000000000000000000000000000000000000600052603260045260246000fd5b90506020020160208101906137b09190614872565b613e95565b90508061381e576040517f08c379a000000000000000000000000000000000000000000000000000000000815260206004820152601960248201527f4e6f207072697a6520666f72207468697320627261636b6574000000000000006044820152606401610ca8565b858584818110613857577f4e487b7100000000000000000000000000000000000000000000000000000000600052603260045260246000fd5b905060200201602081019061386c9190614872565b63ffffffff1660051461393e576138d789838888878181106138b7577f4e487b7100000000000000000000000000000000000000000000000000000000600052603260045260246000fd5b90506020020160208101906138cc9190614872565b6137b0906001614b63565b1561393e576040517f08c379a000000000000000000000000000000000000000000000000000000000815260206004820152601660248201527f427261636b6574206d75737420626520686967686572000000000000000000006044820152606401610ca8565b6139488185614b4b565b93505050808061395790614d76565b915050613491565b50600b546139849073ffffffffffffffffffffffffffffffffffffffff163383613fc7565b6040805182815260208101869052879133917f0f5fca62da8fb5d95525b49e5eaa7b20bc6bd9e2f6b64b493442d1c0bd6ef486910160405180910390a35050600160005550505050565b60015473ffffffffffffffffffffffffffffffffffffffff163314613a4f576040517f08c379a000000000000000000000000000000000000000000000000000000000815260206004820181905260248201527f4f776e61626c653a2063616c6c6572206973206e6f7420746865206f776e65726044820152606401610ca8565b73ffffffffffffffffffffffffffffffffffffffff8316613acc576040517f08c379a000000000000000000000000000000000000000000000000000000000815260206004820152601660248201527f43616e6e6f74206265207a65726f2061646472657373000000000000000000006044820152606401610ca8565b73ffffffffffffffffffffffffffffffffffffffff8216613b49576040517f08c379a000000000000000000000000000000000000000000000000000000000815260206004820152601660248201527f43616e6e6f74206265207a65726f2061646472657373000000000000000000006044820152606401610ca8565b73ffffffffffffffffffffffffffffffffffffffff8116613bc6576040517f08c379a000000000000000000000000000000000000000000000000000000000815260206004820152601660248201527f43616e6e6f74206265207a65726f2061646472657373000000000000000000006044820152606401610ca8565b6003805473ffffffffffffffffffffffffffffffffffffffff8581167fffffffffffffffffffffffff0000000000000000000000000000000000000000928316811790935560048054868316908416811790915560028054928616929093168217909255604080519384526020840192909252908201527f3e945b7660001d46cfd5e729545f7f0b6c65bdee54066a91c7acad703f1b731e9060600160405180910390a1505050565b60015473ffffffffffffffffffffffffffffffffffffffff163314613cf0576040517f08c379a000000000000000000000000000000000000000000000000000000000815260206004820181905260248201527f4f776e61626c653a2063616c6c6572206973206e6f7420746865206f776e65726044820152606401610ca8565b80821115613d5a576040517f08c379a000000000000000000000000000000000000000000000000000000000815260206004820152601b60248201527f6d696e5072696365206d757374206265203c206d6178507269636500000000006044820152606401610ca8565b600991909155600855565b60015473ffffffffffffffffffffffffffffffffffffffff163314613de6576040517f08c379a000000000000000000000000000000000000000000000000000000000815260206004820181905260248201527f4f776e61626c653a2063616c6c6572206973206e6f7420746865206f776e65726044820152606401610ca8565b73ffffffffffffffffffffffffffffffffffffffff8116613e89576040517f08c379a000000000000000000000000000000000000000000000000000000000815260206004820152602660248201527f4f776e61626c653a206e6577206f776e657220697320746865207a65726f206160448201527f64647265737300000000000000000000000000000000000000000000000000006064820152608401610ca8565b613e9281614104565b50565b6000838152600d60209081526040808320601b0154858452600e90925282205463ffffffff918216911682613ecb856001614b63565b613ed690600a614be6565b613ee09084614dd3565b63ffffffff8087166000908152600f6020526040902054613f02929116614b63565b90506000613f11866001614b63565b613f1c90600a614be6565b613f269084614dd3565b63ffffffff8088166000908152600f6020526040902054613f48929116614b63565b90508063ffffffff168263ffffffff161415613fba576000888152600d60205260409020600c0163ffffffff871660068110613fad577f4e487b7100000000000000000000000000000000000000000000000000000000600052603260045260246000fd5b0154945050505050610c24565b6000945050505050610c24565b60405173ffffffffffffffffffffffffffffffffffffffff831660248201526044810182905261409b9084907fa9059cbb00000000000000000000000000000000000000000000000000000000906064015b604080517fffffffffffffffffffffffffffffffffffffffffffffffffffffffffffffffe08184030181529190526020810180517bffffffffffffffffffffffffffffffffffffffffffffffffffffffff167fffffffff00000000000000000000000000000000000000000000000000000000909316929092179091526141b2565b505050565b60405173ffffffffffffffffffffffffffffffffffffffff808516602483015283166044820152606481018290526140fe9085907f23b872dd0000000000000000000000000000000000000000000000000000000090608401614019565b50505050565b6001805473ffffffffffffffffffffffffffffffffffffffff8381167fffffffffffffffffffffffff0000000000000000000000000000000000000000831681179093556040519116919082907f8be0079c531659141344cd1fd0a4f28419497f9722a3daafe3b4186f6b6457e090600090a35050565b6000838261418a826001614b4b565b6141949190614d0e565b61419e8486614cd1565b6141a89190614cd1565b610c219190614b8b565b6000614214826040518060400160405280602081526020017f5361666545524332303a206c6f772d6c6576656c2063616c6c206661696c65648152508573ffffffffffffffffffffffffffffffffffffffff166142be9092919063ffffffff16565b80519091501561409b57808060200190518101906142329190614665565b61409b576040517f08c379a000000000000000000000000000000000000000000000000000000000815260206004820152602a60248201527f5361666545524332303a204552433230206f7065726174696f6e20646964206e60448201527f6f742073756363656564000000000000000000000000000000000000000000006064820152608401610ca8565b6060610c21848460008585843b614331576040517f08c379a000000000000000000000000000000000000000000000000000000000815260206004820152601d60248201527f416464726573733a2063616c6c20746f206e6f6e2d636f6e74726163740000006044820152606401610ca8565b6000808673ffffffffffffffffffffffffffffffffffffffff16858760405161435a9190614979565b60006040518083038185875af1925050503d8060008114614397576040519150601f19603f3d011682016040523d82523d6000602084013e61439c565b606091505b50915091506143ac8282866143b7565b979650505050505050565b606083156143c6575081610c24565b8251156143d65782518084602001fd5b816040517f08c379a0000000000000000000000000000000000000000000000000000000008152600401610ca89190614a37565b604080516101a081019091528060008152602001600081526020016000815260200160008152602001600081526020016144426144c9565b8152602001600081526020016144566144c9565b81526020016144636144c9565b8152602001600081526020016000815260200160008152602001600063ffffffff1681525090565b82600681019282156144b9579160200282015b828111156144b957825182559160200191906001019061449e565b506144c59291506144e7565b5090565b6040518060c001604052806006906020820280368337509192915050565b5b808211156144c557600081556001016144e8565b803573ffffffffffffffffffffffffffffffffffffffff8116811461452057600080fd5b919050565b60008083601f840112614536578182fd5b50813567ffffffffffffffff81111561454d578182fd5b6020830191508360208260051b8501011115611b5c57600080fd5b600060208284031215614579578081fd5b610c24826144fc565b600080600060608486031215614596578182fd5b61459f846144fc565b92506145ad602085016144fc565b91506145bb604085016144fc565b90509250925092565b600080604083850312156145d6578182fd5b6145df836144fc565b946020939093013593505050565b60008060008060808587031215614602578081fd5b61460b856144fc565b966020860135965060408601359560600135945092505050565b60008060208385031215614637578182fd5b823567ffffffffffffffff81111561464d578283fd5b61465985828601614525565b90969095509350505050565b600060208284031215614676578081fd5b8151610c2481614e54565b600060208284031215614692578081fd5b5035919050565b6000602082840312156146aa578081fd5b5051919050565b6000806000806000606086880312156146c8578081fd5b85359450602086013567ffffffffffffffff808211156146e6578283fd5b6146f289838a01614525565b9096509450604088013591508082111561470a578283fd5b5061471788828901614525565b969995985093965092949392505050565b60008060006040848603121561473c578283fd5b83359250602084013567ffffffffffffffff811115614759578283fd5b61476586828701614525565b9497909650939450505050565b60008060408385031215614784578182fd5b82359150602083013561479681614e54565b809150509250929050565b600080604083850312156147b3578182fd5b50508035926020909101359150565b6000806000606084860312156147d6578283fd5b505081359360208301359350604090920135919050565b60008060008060006101408688031215614805578283fd5b853594506020860135935060408601359250610120860187811115614828578182fd5b94979396509194606001933592915050565b60008060006060848603121561484e578081fd5b8335925060208401359150604084013561486781614e62565b809150509250925092565b600060208284031215614883578081fd5b8135610c2481614e62565b60006020828403121561489f578081fd5b8151610c2481614e62565b6000815180845260208085019450808401835b838110156148db5781511515875295820195908201906001016148bd565b509495945050505050565b8060005b60068110156140fe5781518452602093840193909101906001016148ea565b6000815180845260208085019450808401835b838110156148db57815163ffffffff168752958201959082019060010161491c565b60048110614975577f4e487b7100000000000000000000000000000000000000000000000000000000600052602160045260246000fd5b9052565b6000825161498b818460208701614d4a565b9190910192915050565b6080808252855190820181905260009060209060a0840190828901845b828110156149ce578151845292840192908401906001016149b2565b505050838103828501526149e28188614909565b91505082810360408401526149f781866148aa565b91505082606083015295945050505050565b604081526000614a1c6040830185614909565b8281036020840152614a2e81856148aa565b95945050505050565b6020815260008251806020840152614a56816040850160208701614d4a565b601f017fffffffffffffffffffffffffffffffffffffffffffffffffffffffffffffffe0169190910160400192915050565b600061038082019050614a9c82845161493e565b6020830151602083015260408301516040830152606083015160608301526080830151608083015260a0830151614ad660a08401826148e6565b5060c0830151610160818185015260e08501519150610180614afa818601846148e6565b6101008601519250614b106102408601846148e6565b6101208601516103008601526101408601516103208601529085015161034085015284015163ffffffff811661036085015290505092915050565b60008219821115614b5e57614b5e614df6565b500190565b600063ffffffff808316818516808303821115614b8257614b82614df6565b01949350505050565b600082614b9a57614b9a614e25565b500490565b60018163ffffffff825b80861115614bdd57828204831115614bc357614bc3614df6565b80861615614bd057928202925b94851c9491800291614ba9565b50509250929050565b600063ffffffff614bfb818516828516614c03565b949350505050565b600082614c1257506001614ccb565b81614c1f57506000614ccb565b8160018114614c355760028114614c3f57614c70565b6001915050614ccb565b60ff841115614c5057614c50614df6565b6001841b915063ffffffff821115614c6a57614c6a614df6565b50614ccb565b5060208310610133831016604e8410600b8410161715614ca7575081810a63ffffffff811115614ca257614ca2614df6565b614ccb565b614cb18383614b9f565b8063ffffffff04821115614cc757614cc7614df6565b0290505b92915050565b6000817fffffffffffffffffffffffffffffffffffffffffffffffffffffffffffffffff0483118215151615614d0957614d09614df6565b500290565b600082821015614d2057614d20614df6565b500390565b600063ffffffff83811690831681811015614d4257614d42614df6565b039392505050565b60005b83811015614d65578181015183820152602001614d4d565b838111156140fe5750506000910152565b60007fffffffffffffffffffffffffffffffffffffffffffffffffffffffffffffffff821415614da857614da8614df6565b5060010190565b600063ffffffff80831681811415614dc957614dc9614df6565b6001019392505050565b600063ffffffff80841680614dea57614dea614e25565b92169190910692915050565b7f4e487b7100000000000000000000000000000000000000000000000000000000600052601160045260246000fd5b7f4e487b7100000000000000000000000000000000000000000000000000000000600052601260045260246000fd5b8015158114613e9257600080fd5b63ffffffff81168114613e9257600080fdfea2646970667358221220deb967a441f90f642c4e41fb5e69475cfc0d8f3b84e117bc3b31636ee307503264736f6c63430008040033",
  "linkReferences": {},
  "deployedLinkReferences": {}
}