{
  "_format": "hh-sol-artifact-1",
  "contractName": "PancakeStableSwapInfo",
  "sourceName": "contracts/utils/PancakeStableSwapInfo.sol",
  "abi": [
    {
      "inputs": [
        {
          "internalType": "contract IPancakeStableSwapInfo",
          "name": "_twoPoolInfo",
          "type": "address"
        },
        {
          "internalType": "contract IPancakeStableSwapInfo",
          "name": "_threePoolInfo",
          "type": "address"
        }
      ],
      "stateMutability": "nonpayable",
      "type": "constructor"
    },
    {
      "inputs": [
        {
          "internalType": "address",
          "name": "_swap",
          "type": "address"
        },
        {
          "internalType": "uint256",
          "name": "i",
          "type": "uint256"
        },
        {
          "internalType": "uint256",
          "name": "j",
          "type": "uint256"
        },
        {
          "internalType": "uint256",
          "name": "dy",
          "type": "uint256"
        },
        {
          "internalType": "uint256",
          "name": "max_dx",
          "type": "uint256"
        }
      ],
      "name": "get_dx",
      "outputs": [
        {
          "internalType": "uint256",
          "name": "dx",
          "type": "uint256"
        }
      ],
      "stateMutability": "view",
      "type": "function"
    },
    {
      "inputs": [],
      "name": "threePoolInfo",
      "outputs": [
        {
          "internalType": "contract IPancakeStableSwapInfo",
          "name": "",
          "type": "address"
        }
      ],
      "stateMutability": "view",
      "type": "function"
    },
    {
      "inputs": [],
      "name": "twoPoolInfo",
      "outputs": [
        {
          "internalType": "contract IPancakeStableSwapInfo",
          "name": "",
          "type": "address"
        }
      ],
      "stateMutability": "view",
      "type": "function"
    }
  ],
  "bytecode": "0x60c060405234801561001057600080fd5b5060405161041c38038061041c83398101604081905261002f91610062565b6001600160a01b039182166080521660a052610095565b80516001600160a01b038116811461005d57600080fd5b919050565b6000806040838503121561007557600080fd5b61007e83610046565b915061008c60208401610046565b90509250929050565b60805160a0516103566100c660003960008181608f01526101fe015260008181604b015261015901526103566000f3fe608060405234801561001057600080fd5b50600436106100415760003560e01c8063049315131461004657806367036ce51461008a578063ca4bc714146100b1575b600080fd5b61006d7f000000000000000000000000000000000000000000000000000000000000000081565b6040516001600160a01b0390911681526020015b60405180910390f35b61006d7f000000000000000000000000000000000000000000000000000000000000000081565b6100c46100bf366004610289565b6100d2565b604051908152602001610081565b600080866001600160a01b031663293577506040518163ffffffff1660e01b8152600401602060405180830381865afa158015610113573d6000803e3d6000fd5b505050506040513d601f19601f8201168201806040525081019061013791906102d9565b905080600214156101de57604051633292f1c560e21b81526001600160a01b037f0000000000000000000000000000000000000000000000000000000000000000169063ca4bc71490610196908a908a908a908a908a906004016102f2565b602060405180830381865afa1580156101b3573d6000803e3d6000fd5b505050506040513d601f19601f820116820180604052508101906101d791906102d9565b915061027f565b806003141561027f57604051633292f1c560e21b81526001600160a01b037f0000000000000000000000000000000000000000000000000000000000000000169063ca4bc7149061023b908a908a908a908a908a906004016102f2565b602060405180830381865afa158015610258573d6000803e3d6000fd5b505050506040513d601f19601f8201168201806040525081019061027c91906102d9565b91505b5095945050505050565b600080600080600060a086880312156102a157600080fd5b85356001600160a01b03811681146102b857600080fd5b97602087013597506040870135966060810135965060800135945092505050565b6000602082840312156102eb57600080fd5b5051919050565b6001600160a01b03959095168552602085019390935260408401919091526060830152608082015260a0019056fea2646970667358221220d70405c6c639fbc067c57d0fe8287974d1218794e4d0c549c042980cd1b596f164736f6c634300080a0033",
  "linkReferences": {},
  "deployedLinkReferences": {}
}