{
  "_format": "hh-sol-artifact-1",
  "contractName": "RevenueSharingPoolGateway",
  "sourceName": "contracts/RevenueSharingPoolGateway.sol",
  "abi": [
    {
      "inputs": [
        {
          "internalType": "address[]",
          "name": "_revenueSharingPools",
          "type": "address[]"
        },
        {
          "internalType": "address",
          "name": "_for",
          "type": "address"
        }
      ],
      "name": "claimMultiple",
      "outputs": [],
      "stateMutability": "nonpayable",
      "type": "function"
    },
    {
      "inputs": [
        {
          "internalType": "address[]",
          "name": "_revenueSharingPools",
          "type": "address[]"
        },
        {
          "internalType": "address",
          "name": "_for",
          "type": "address"
        }
      ],
      "name": "claimMultipleWithoutProxy",
      "outputs": [],
      "stateMutability": "nonpayable",
      "type": "function"
    }
  ],
  "bytecode": "0x608060405234801561001057600080fd5b506103c8806100206000396000f3fe608060405234801561001057600080fd5b50600436106100365760003560e01c8063391844761461003b578063c5bc4a7114610050575b600080fd5b61004e610049366004610244565b610063565b005b61004e61005e366004610244565b610142565b60005b8281101561013c57838382818110610080576100806102c8565b905060200201602081019061009591906102f7565b6040517f1e83409a00000000000000000000000000000000000000000000000000000000815273ffffffffffffffffffffffffffffffffffffffff84811660048301529190911690631e83409a906024016020604051808303816000875af1158015610105573d6000803e3d6000fd5b505050506040513d601f19601f820116820180604052508101906101299190610319565b508061013481610332565b915050610066565b50505050565b60005b8281101561013c5783838281811061015f5761015f6102c8565b905060200201602081019061017491906102f7565b6040517fa31254d100000000000000000000000000000000000000000000000000000000815273ffffffffffffffffffffffffffffffffffffffff8481166004830152919091169063a31254d1906024016020604051808303816000875af11580156101e4573d6000803e3d6000fd5b505050506040513d601f19601f820116820180604052508101906102089190610319565b508061021381610332565b915050610145565b803573ffffffffffffffffffffffffffffffffffffffff8116811461023f57600080fd5b919050565b60008060006040848603121561025957600080fd5b833567ffffffffffffffff8082111561027157600080fd5b818601915086601f83011261028557600080fd5b81358181111561029457600080fd5b8760208260051b85010111156102a957600080fd5b6020928301955093506102bf918601905061021b565b90509250925092565b7f4e487b7100000000000000000000000000000000000000000000000000000000600052603260045260246000fd5b60006020828403121561030957600080fd5b6103128261021b565b9392505050565b60006020828403121561032b57600080fd5b5051919050565b60007fffffffffffffffffffffffffffffffffffffffffffffffffffffffffffffffff82141561038b577f4e487b7100000000000000000000000000000000000000000000000000000000600052601160045260246000fd5b506001019056fea264697066735822122073b13735bdf2ea14377c4dec9ac7294852fa13d6d62e44e364a8dc51e9c9bfa864736f6c634300080a0033",
  "linkReferences": {},
  "deployedLinkReferences": {}
}