{
  "_format": "hh-sol-artifact-1",
  "contractName": "SmartChef",
  "sourceName": "contracts/SmartChef.sol",
  "abi": [
    {
      "inputs": [
        {
          "internalType": "contract IBEP20",
          "name": "_stakedToken",
          "type": "address"
        },
        {
          "internalType": "contract IBEP20",
          "name": "_rewardToken",
          "type": "address"
        },
        {
          "internalType": "uint256",
          "name": "_rewardPerBlock",
          "type": "uint256"
        },
        {
          "internalType": "uint256",
          "name": "_startBlock",
          "type": "uint256"
        },
        {
          "internalType": "uint256",
          "name": "_bonusEndBlock",
          "type": "uint256"
        },
        {
          "internalType": "uint256",
          "name": "_poolLimitPerUser",
          "type": "uint256"
        }
      ],
      "stateMutability": "nonpayable",
      "type": "constructor"
    },
    {
      "anonymous": false,
      "inputs": [
        {
          "indexed": false,
          "internalType": "address",
          "name": "tokenRecovered",
          "type": "address"
        },
        {
          "indexed": false,
          "internalType": "uint256",
          "name": "amount",
          "type": "uint256"
        }
      ],
      "name": "AdminTokenRecovery",
      "type": "event"
    },
    {
      "anonymous": false,
      "inputs": [
        {
          "indexed": true,
          "internalType": "address",
          "name": "user",
          "type": "address"
        },
        {
          "indexed": false,
          "internalType": "uint256",
          "name": "amount",
          "type": "uint256"
        }
      ],
      "name": "Deposit",
      "type": "event"
    },
    {
      "anonymous": false,
      "inputs": [
        {
          "indexed": true,
          "internalType": "address",
          "name": "user",
          "type": "address"
        },
        {
          "indexed": false,
          "internalType": "uint256",
          "name": "amount",
          "type": "uint256"
        }
      ],
      "name": "EmergencyWithdraw",
      "type": "event"
    },
    {
      "anonymous": false,
      "inputs": [
        {
          "indexed": false,
          "internalType": "uint256",
          "name": "poolLimitPerUser",
          "type": "uint256"
        }
      ],
      "name": "NewPoolLimit",
      "type": "event"
    },
    {
      "anonymous": false,
      "inputs": [
        {
          "indexed": false,
          "internalType": "uint256",
          "name": "rewardPerBlock",
          "type": "uint256"
        }
      ],
      "name": "NewRewardPerBlock",
      "type": "event"
    },
    {
      "anonymous": false,
      "inputs": [
        {
          "indexed": false,
          "internalType": "uint256",
          "name": "startBlock",
          "type": "uint256"
        },
        {
          "indexed": false,
          "internalType": "uint256",
          "name": "endBlock",
          "type": "uint256"
        }
      ],
      "name": "NewStartAndEndBlocks",
      "type": "event"
    },
    {
      "anonymous": false,
      "inputs": [
        {
          "indexed": true,
          "internalType": "address",
          "name": "previousOwner",
          "type": "address"
        },
        {
          "indexed": true,
          "internalType": "address",
          "name": "newOwner",
          "type": "address"
        }
      ],
      "name": "OwnershipTransferred",
      "type": "event"
    },
    {
      "anonymous": false,
      "inputs": [
        {
          "indexed": false,
          "internalType": "uint256",
          "name": "blockNumber",
          "type": "uint256"
        }
      ],
      "name": "RewardsStop",
      "type": "event"
    },
    {
      "anonymous": false,
      "inputs": [
        {
          "indexed": true,
          "internalType": "address",
          "name": "user",
          "type": "address"
        },
        {
          "indexed": false,
          "internalType": "uint256",
          "name": "amount",
          "type": "uint256"
        }
      ],
      "name": "Withdraw",
      "type": "event"
    },
    {
      "inputs": [],
      "name": "PRECISION_FACTOR",
      "outputs": [
        {
          "internalType": "uint256",
          "name": "",
          "type": "uint256"
        }
      ],
      "stateMutability": "view",
      "type": "function"
    },
    {
      "inputs": [],
      "name": "accTokenPerShare",
      "outputs": [
        {
          "internalType": "uint256",
          "name": "",
          "type": "uint256"
        }
      ],
      "stateMutability": "view",
      "type": "function"
    },
    {
      "inputs": [],
      "name": "bonusEndBlock",
      "outputs": [
        {
          "internalType": "uint256",
          "name": "",
          "type": "uint256"
        }
      ],
      "stateMutability": "view",
      "type": "function"
    },
    {
      "inputs": [
        {
          "internalType": "uint256",
          "name": "_amount",
          "type": "uint256"
        }
      ],
      "name": "deposit",
      "outputs": [],
      "stateMutability": "nonpayable",
      "type": "function"
    },
    {
      "inputs": [
        {
          "internalType": "uint256",
          "name": "_amount",
          "type": "uint256"
        }
      ],
      "name": "emergencyRewardWithdraw",
      "outputs": [],
      "stateMutability": "nonpayable",
      "type": "function"
    },
    {
      "inputs": [],
      "name": "emergencyWithdraw",
      "outputs": [],
      "stateMutability": "nonpayable",
      "type": "function"
    },
    {
      "inputs": [],
      "name": "hasUserLimit",
      "outputs": [
        {
          "internalType": "bool",
          "name": "",
          "type": "bool"
        }
      ],
      "stateMutability": "view",
      "type": "function"
    },
    {
      "inputs": [],
      "name": "lastRewardBlock",
      "outputs": [
        {
          "internalType": "uint256",
          "name": "",
          "type": "uint256"
        }
      ],
      "stateMutability": "view",
      "type": "function"
    },
    {
      "inputs": [],
      "name": "owner",
      "outputs": [
        {
          "internalType": "address",
          "name": "",
          "type": "address"
        }
      ],
      "stateMutability": "view",
      "type": "function"
    },
    {
      "inputs": [
        {
          "internalType": "address",
          "name": "_user",
          "type": "address"
        }
      ],
      "name": "pendingReward",
      "outputs": [
        {
          "internalType": "uint256",
          "name": "",
          "type": "uint256"
        }
      ],
      "stateMutability": "view",
      "type": "function"
    },
    {
      "inputs": [],
      "name": "poolLimitPerUser",
      "outputs": [
        {
          "internalType": "uint256",
          "name": "",
          "type": "uint256"
        }
      ],
      "stateMutability": "view",
      "type": "function"
    },
    {
      "inputs": [
        {
          "internalType": "address",
          "name": "_tokenAddress",
          "type": "address"
        },
        {
          "internalType": "uint256",
          "name": "_tokenAmount",
          "type": "uint256"
        }
      ],
      "name": "recoverWrongTokens",
      "outputs": [],
      "stateMutability": "nonpayable",
      "type": "function"
    },
    {
      "inputs": [],
      "name": "renounceOwnership",
      "outputs": [],
      "stateMutability": "nonpayable",
      "type": "function"
    },
    {
      "inputs": [],
      "name": "rewardPerBlock",
      "outputs": [
        {
          "internalType": "uint256",
          "name": "",
          "type": "uint256"
        }
      ],
      "stateMutability": "view",
      "type": "function"
    },
    {
      "inputs": [],
      "name": "rewardToken",
      "outputs": [
        {
          "internalType": "contract IBEP20",
          "name": "",
          "type": "address"
        }
      ],
      "stateMutability": "view",
      "type": "function"
    },
    {
      "inputs": [],
      "name": "stakedToken",
      "outputs": [
        {
          "internalType": "contract IBEP20",
          "name": "",
          "type": "address"
        }
      ],
      "stateMutability": "view",
      "type": "function"
    },
    {
      "inputs": [],
      "name": "startBlock",
      "outputs": [
        {
          "internalType": "uint256",
          "name": "",
          "type": "uint256"
        }
      ],
      "stateMutability": "view",
      "type": "function"
    },
    {
      "inputs": [],
      "name": "stopReward",
      "outputs": [],
      "stateMutability": "nonpayable",
      "type": "function"
    },
    {
      "inputs": [
        {
          "internalType": "address",
          "name": "newOwner",
          "type": "address"
        }
      ],
      "name": "transferOwnership",
      "outputs": [],
      "stateMutability": "nonpayable",
      "type": "function"
    },
    {
      "inputs": [
        {
          "internalType": "bool",
          "name": "_hasUserLimit",
          "type": "bool"
        },
        {
          "internalType": "uint256",
          "name": "_poolLimitPerUser",
          "type": "uint256"
        }
      ],
      "name": "updatePoolLimitPerUser",
      "outputs": [],
      "stateMutability": "nonpayable",
      "type": "function"
    },
    {
      "inputs": [
        {
          "internalType": "uint256",
          "name": "_rewardPerBlock",
          "type": "uint256"
        }
      ],
      "name": "updateRewardPerBlock",
      "outputs": [],
      "stateMutability": "nonpayable",
      "type": "function"
    },
    {
      "inputs": [
        {
          "internalType": "uint256",
          "name": "_startBlock",
          "type": "uint256"
        },
        {
          "internalType": "uint256",
          "name": "_bonusEndBlock",
          "type": "uint256"
        }
      ],
      "name": "updateStartAndEndBlocks",
      "outputs": [],
      "stateMutability": "nonpayable",
      "type": "function"
    },
    {
      "inputs": [
        {
          "internalType": "address",
          "name": "",
          "type": "address"
        }
      ],
      "name": "userInfo",
      "outputs": [
        {
          "internalType": "uint256",
          "name": "amount",
          "type": "uint256"
        },
        {
          "internalType": "uint256",
          "name": "rewardDebt",
          "type": "uint256"
        }
      ],
      "stateMutability": "view",
      "type": "function"
    },
    {
      "inputs": [
        {
          "internalType": "uint256",
          "name": "_amount",
          "type": "uint256"
        }
      ],
      "name": "withdraw",
      "outputs": [],
      "stateMutability": "nonpayable",
      "type": "function"
    }
  ],
  "bytecode": "0x60806040523480156200001157600080fd5b50604051620023bf380380620023bf833981810160405260c08110156200003757600080fd5b508051602082015160408301516060840151608085015160a09095015193949293919290916000620000686200036a565b600080546001600160a01b0319166001600160a01b0383169081178255604051929350917f8be0079c531659141344cd1fd0a4f28419497f9722a3daafe3b4186f6b6457e0908290a350600180819055506000866001600160a01b03166318160ddd6040518163ffffffff1660e01b815260040160206040518083038186803b158015620000f557600080fd5b505afa1580156200010a573d6000803e3d6000fd5b505050506040513d60208110156200012157600080fd5b505110156200012f57600080fd5b6000856001600160a01b03166318160ddd6040518163ffffffff1660e01b815260040160206040518083038186803b1580156200016b57600080fd5b505afa15801562000180573d6000803e3d6000fd5b505050506040513d60208110156200019757600080fd5b50511015620001a557600080fd5b846001600160a01b0316866001600160a01b031614156200020d576040805162461bcd60e51b815260206004820152601b60248201527f546f6b656e73206d75737420626520626520646966666572656e740000000000604482015290519081900360640190fd5b600b80546001600160a01b038089166001600160a01b031992831617909255600a805492881692909116919091179055600884905560058390556004829055801562000266576002805460ff1916600117905560078190555b600a546040805163313ce56760e01b815290516000926001600160a01b03169163313ce567916004808301926020929190829003018186803b158015620002ac57600080fd5b505afa158015620002c1573d6000803e3d6000fd5b505050506040513d6020811015620002d857600080fd5b505160ff169050601e811062000335576040805162461bcd60e51b815260206004820152601660248201527f4d75737420626520696e666572696f7220746f20333000000000000000000000604482015290519081900360640190fd5b6200035081601e6200036e60201b620015461790919060201c565b600a0a6009555050600554600655506200045a9350505050565b3390565b6000620003b883836040518060400160405280601e81526020017f536166654d6174683a207375627472616374696f6e206f766572666c6f770000815250620003bf60201b60201c565b9392505050565b60008184841115620004525760405162461bcd60e51b81526004018080602001828103825283818151815260200191508051906020019080838360005b8381101562000416578181015183820152602001620003fc565b50505050905090810190601f168015620004445780820380516001836020036101000a031916815260200191505b509250505060405180910390fd5b505050900390565b611f55806200046a6000396000f3fe608060405234801561001057600080fd5b50600436106101985760003560e01c80638f662915116100e3578063cc7a262e1161008c578063f2fde38b11610066578063f2fde38b14610397578063f40f0f52146103ca578063f7c618c1146103fd57610198565b8063cc7a262e1461037f578063ccd34cd514610387578063db2e21bc1461038f57610198565b8063a0b40905116100bd578063a0b4090514610335578063a9f8d1811461035a578063b6b55f251461036257610198565b80638f662915146102ee57806392e8990e146102f65780639513997f1461031257610198565b806348cd4cb11161014557806380dc06721161011f57806380dc0672146102ad5780638ae39cac146102b55780638da5cb5b146102bd57610198565b806348cd4cb11461029557806366fe9f8a1461029d578063715018a6146102a557610198565b80632e1a7d4d116101765780632e1a7d4d146102225780633279beab1461023f5780633f138d4b1461025c57610198565b806301f8a9761461019d5780631959a002146101bc5780631aed655314610208575b600080fd5b6101ba600480360360208110156101b357600080fd5b5035610405565b005b6101ef600480360360208110156101d257600080fd5b503573ffffffffffffffffffffffffffffffffffffffff16610541565b6040805192835260208301919091528051918290030190f35b61021061055a565b60408051918252519081900360200190f35b6101ba6004803603602081101561023857600080fd5b5035610560565b6101ba6004803603602081101561025557600080fd5b5035610752565b6101ba6004803603604081101561027257600080fd5b5073ffffffffffffffffffffffffffffffffffffffff813516906020013561080a565b610210610a25565b610210610a2b565b6101ba610a31565b6101ba610b31565b610210610bc8565b6102c5610bce565b6040805173ffffffffffffffffffffffffffffffffffffffff9092168252519081900360200190f35b610210610bea565b6102fe610bf0565b604080519115158252519081900360200190f35b6101ba6004803603604081101561032857600080fd5b5080359060200135610bf9565b6101ba6004803603604081101561034b57600080fd5b50803515159060200135610df8565b610210610fe5565b6101ba6004803603602081101561037857600080fd5b5035610feb565b6102c56111f3565b61021061120f565b6101ba611215565b6101ba600480360360208110156103ad57600080fd5b503573ffffffffffffffffffffffffffffffffffffffff16611313565b610210600480360360208110156103e057600080fd5b503573ffffffffffffffffffffffffffffffffffffffff166113ad565b6102c561152a565b61040d611591565b60005473ffffffffffffffffffffffffffffffffffffffff90811691161461049657604080517f08c379a000000000000000000000000000000000000000000000000000000000815260206004820181905260248201527f4f776e61626c653a2063616c6c6572206973206e6f7420746865206f776e6572604482015290519081900360640190fd5b600554431061050657604080517f08c379a000000000000000000000000000000000000000000000000000000000815260206004820152601060248201527f506f6f6c20686173207374617274656400000000000000000000000000000000604482015290519081900360640190fd5b60088190556040805182815290517f0c4d677eef92893ac7ec52faf8140fc6c851ab4736302b4f3a89dfb20696a0df9181900360200190a150565b600c602052600090815260409020805460019091015482565b60045481565b600260015414156105d257604080517f08c379a000000000000000000000000000000000000000000000000000000000815260206004820152601f60248201527f5265656e7472616e637947756172643a207265656e7472616e742063616c6c00604482015290519081900360640190fd5b6002600155336000908152600c60205260409020805482111561065657604080517f08c379a000000000000000000000000000000000000000000000000000000000815260206004820152601b60248201527f416d6f756e7420746f20776974686472617720746f6f20686967680000000000604482015290519081900360640190fd5b61065e611595565b6000610693826001015461068d60095461068760035487600001546116a390919063ffffffff16565b90611716565b90611546565b905082156106cd5781546106a79084611546565b8255600b546106cd9073ffffffffffffffffffffffffffffffffffffffff163385611758565b80156106f757600a546106f79073ffffffffffffffffffffffffffffffffffffffff163383611758565b600954600354835461070e929161068791906116a3565b600183015560408051848152905133917f884edad9ce6fa2440d8a54cc123490eb96d2768479d49ff9c7366125a9424364919081900360200190a250506001805550565b61075a611591565b60005473ffffffffffffffffffffffffffffffffffffffff9081169116146107e357604080517f08c379a000000000000000000000000000000000000000000000000000000000815260206004820181905260248201527f4f776e61626c653a2063616c6c6572206973206e6f7420746865206f776e6572604482015290519081900360640190fd5b600a546108079073ffffffffffffffffffffffffffffffffffffffff163383611758565b50565b610812611591565b60005473ffffffffffffffffffffffffffffffffffffffff90811691161461089b57604080517f08c379a000000000000000000000000000000000000000000000000000000000815260206004820181905260248201527f4f776e61626c653a2063616c6c6572206973206e6f7420746865206f776e6572604482015290519081900360640190fd5b600b5473ffffffffffffffffffffffffffffffffffffffff8381169116141561092557604080517f08c379a000000000000000000000000000000000000000000000000000000000815260206004820152601660248201527f43616e6e6f74206265207374616b656420746f6b656e00000000000000000000604482015290519081900360640190fd5b600a5473ffffffffffffffffffffffffffffffffffffffff838116911614156109af57604080517f08c379a000000000000000000000000000000000000000000000000000000000815260206004820152601660248201527f43616e6e6f742062652072657761726420746f6b656e00000000000000000000604482015290519081900360640190fd5b6109d073ffffffffffffffffffffffffffffffffffffffff83163383611758565b6040805173ffffffffffffffffffffffffffffffffffffffff841681526020810183905281517f74545154aac348a3eac92596bd1971957ca94795f4e954ec5f613b55fab78129929181900390910190a15050565b60055481565b60075481565b610a39611591565b60005473ffffffffffffffffffffffffffffffffffffffff908116911614610ac257604080517f08c379a000000000000000000000000000000000000000000000000000000000815260206004820181905260248201527f4f776e61626c653a2063616c6c6572206973206e6f7420746865206f776e6572604482015290519081900360640190fd5b6000805460405173ffffffffffffffffffffffffffffffffffffffff909116907f8be0079c531659141344cd1fd0a4f28419497f9722a3daafe3b4186f6b6457e0908390a3600080547fffffffffffffffffffffffff0000000000000000000000000000000000000000169055565b610b39611591565b60005473ffffffffffffffffffffffffffffffffffffffff908116911614610bc257604080517f08c379a000000000000000000000000000000000000000000000000000000000815260206004820181905260248201527f4f776e61626c653a2063616c6c6572206973206e6f7420746865206f776e6572604482015290519081900360640190fd5b43600455565b60085481565b60005473ffffffffffffffffffffffffffffffffffffffff1690565b60035481565b60025460ff1681565b610c01611591565b60005473ffffffffffffffffffffffffffffffffffffffff908116911614610c8a57604080517f08c379a000000000000000000000000000000000000000000000000000000000815260206004820181905260248201527f4f776e61626c653a2063616c6c6572206973206e6f7420746865206f776e6572604482015290519081900360640190fd5b6005544310610cfa57604080517f08c379a000000000000000000000000000000000000000000000000000000000815260206004820152601060248201527f506f6f6c20686173207374617274656400000000000000000000000000000000604482015290519081900360640190fd5b808210610d52576040517f08c379a000000000000000000000000000000000000000000000000000000000815260040180806020018281038252602e815260200180611ea1602e913960400191505060405180910390fd5b814310610daa576040517f08c379a0000000000000000000000000000000000000000000000000000000008152600401808060200182810382526030815260200180611ecf6030913960400191505060405180910390fd5b600582905560048190556006829055604080518381526020810183905281517f7cd0ab87d19036f3dfadadb232c78aa4879dda3f0c994a9d637532410ee2ce06929181900390910190a15050565b610e00611591565b60005473ffffffffffffffffffffffffffffffffffffffff908116911614610e8957604080517f08c379a000000000000000000000000000000000000000000000000000000000815260206004820181905260248201527f4f776e61626c653a2063616c6c6572206973206e6f7420746865206f776e6572604482015290519081900360640190fd5b60025460ff16610efa57604080517f08c379a000000000000000000000000000000000000000000000000000000000815260206004820152600b60248201527f4d75737420626520736574000000000000000000000000000000000000000000604482015290519081900360640190fd5b8115610f7a576007548111610f7057604080517f08c379a000000000000000000000000000000000000000000000000000000000815260206004820152601860248201527f4e6577206c696d6974206d757374206265206869676865720000000000000000604482015290519081900360640190fd5b6007819055610fac565b600280547fffffffffffffffffffffffffffffffffffffffffffffffffffffffffffffff001683151517905560006007555b60075460408051918252517f241f67ee5f41b7a5cabf911367329be7215900f602ebfc47f89dce2a6bcd847c9181900360200190a15050565b60065481565b6002600154141561105d57604080517f08c379a000000000000000000000000000000000000000000000000000000000815260206004820152601f60248201527f5265656e7472616e637947756172643a207265656e7472616e742063616c6c00604482015290519081900360640190fd5b60026001819055336000908152600c60205260409020905460ff16156110fa57600754815461108d9084906117ea565b11156110fa57604080517f08c379a000000000000000000000000000000000000000000000000000000000815260206004820152601760248201527f5573657220616d6f756e742061626f7665206c696d6974000000000000000000604482015290519081900360640190fd5b611102611595565b805415611160576000611132826001015461068d60095461068760035487600001546116a390919063ffffffff16565b9050801561115e57600a5461115e9073ffffffffffffffffffffffffffffffffffffffff163383611758565b505b811561119957805461117290836117ea565b8155600b546111999073ffffffffffffffffffffffffffffffffffffffff1633308561185e565b60095460035482546111b0929161068791906116a3565b600182015560408051838152905133917fe1fffcc4923d04b559f4d29a8bfc6cda04eb5b0d3c460751c2402c5c5cc9109c919081900360200190a2505060018055565b600b5473ffffffffffffffffffffffffffffffffffffffff1681565b60095481565b6002600154141561128757604080517f08c379a000000000000000000000000000000000000000000000000000000000815260206004820152601f60248201527f5265656e7472616e637947756172643a207265656e7472616e742063616c6c00604482015290519081900360640190fd5b60026001908155336000908152600c602052604081208054828255928101919091559080156112d457600b546112d49073ffffffffffffffffffffffffffffffffffffffff163383611758565b8154604080519182525133917f5fafa99d0643513820be26656b45130b01e1c03062e1266bf36f88cbd3bd9695919081900360200190a2505060018055565b61131b611591565b60005473ffffffffffffffffffffffffffffffffffffffff9081169116146113a457604080517f08c379a000000000000000000000000000000000000000000000000000000000815260206004820181905260248201527f4f776e61626c653a2063616c6c6572206973206e6f7420746865206f776e6572604482015290519081900360640190fd5b610807816118f9565b73ffffffffffffffffffffffffffffffffffffffff8082166000908152600c60209081526040808320600b5482517f70a08231000000000000000000000000000000000000000000000000000000008152306004820152925194959194869491909216926370a082319260248083019392829003018186803b15801561143257600080fd5b505afa158015611446573d6000803e3d6000fd5b505050506040513d602081101561145c57600080fd5b50516006549091504311801561147157508015155b156114f9576000611484600654436119f2565b9050600061149d600854836116a390919063ffffffff16565b905060006114c66114bd85610687600954866116a390919063ffffffff16565b600354906117ea565b90506114ed856001015461068d600954610687858a600001546116a390919063ffffffff16565b95505050505050611525565b611520826001015461068d60095461068760035487600001546116a390919063ffffffff16565b925050505b919050565b600a5473ffffffffffffffffffffffffffffffffffffffff1681565b600061158883836040518060400160405280601e81526020017f536166654d6174683a207375627472616374696f6e206f766572666c6f770000815250611a2c565b90505b92915050565b3390565b60065443116115a3576116a1565b600b54604080517f70a08231000000000000000000000000000000000000000000000000000000008152306004820152905160009273ffffffffffffffffffffffffffffffffffffffff16916370a08231916024808301926020929190829003018186803b15801561161457600080fd5b505afa158015611628573d6000803e3d6000fd5b505050506040513d602081101561163e57600080fd5b50519050806116515750436006556116a1565b600061165f600654436119f2565b90506000611678600854836116a390919063ffffffff16565b90506116966114bd84610687600954856116a390919063ffffffff16565b600355505043600655505b565b6000826116b25750600061158b565b828202828482816116bf57fe5b0414611588576040517f08c379a0000000000000000000000000000000000000000000000000000000008152600401808060200182810382526021815260200180611eff6021913960400191505060405180910390fd5b600061158883836040518060400160405280601a81526020017f536166654d6174683a206469766973696f6e206279207a65726f000000000000815250611add565b6040805173ffffffffffffffffffffffffffffffffffffffff8416602482015260448082018490528251808303909101815260649091019091526020810180517bffffffffffffffffffffffffffffffffffffffffffffffffffffffff167fa9059cbb000000000000000000000000000000000000000000000000000000001790526117e5908490611b5c565b505050565b60008282018381101561158857604080517f08c379a000000000000000000000000000000000000000000000000000000000815260206004820152601b60248201527f536166654d6174683a206164646974696f6e206f766572666c6f770000000000604482015290519081900360640190fd5b6040805173ffffffffffffffffffffffffffffffffffffffff80861660248301528416604482015260648082018490528251808303909101815260849091019091526020810180517bffffffffffffffffffffffffffffffffffffffffffffffffffffffff167f23b872dd000000000000000000000000000000000000000000000000000000001790526118f3908590611b5c565b50505050565b73ffffffffffffffffffffffffffffffffffffffff8116611965576040517f08c379a0000000000000000000000000000000000000000000000000000000008152600401808060200182810382526026815260200180611e7b6026913960400191505060405180910390fd5b6000805460405173ffffffffffffffffffffffffffffffffffffffff808516939216917f8be0079c531659141344cd1fd0a4f28419497f9722a3daafe3b4186f6b6457e091a3600080547fffffffffffffffffffffffff00000000000000000000000000000000000000001673ffffffffffffffffffffffffffffffffffffffff92909216919091179055565b60006004548211611a0e57611a078284611546565b905061158b565b6004548310611a1f5750600061158b565b600454611a079084611546565b60008184841115611ad5576040517f08c379a00000000000000000000000000000000000000000000000000000000081526004018080602001828103825283818151815260200191508051906020019080838360005b83811015611a9a578181015183820152602001611a82565b50505050905090810190601f168015611ac75780820380516001836020036101000a031916815260200191505b509250505060405180910390fd5b505050900390565b60008183611b46576040517f08c379a0000000000000000000000000000000000000000000000000000000008152602060048201818152835160248401528351909283926044909101919085019080838360008315611a9a578181015183820152602001611a82565b506000838581611b5257fe5b0495945050505050565b6060611bbe826040518060400160405280602081526020017f5361666542455032303a206c6f772d6c6576656c2063616c6c206661696c65648152508573ffffffffffffffffffffffffffffffffffffffff16611c349092919063ffffffff16565b8051909150156117e557808060200190516020811015611bdd57600080fd5b50516117e5576040517f08c379a000000000000000000000000000000000000000000000000000000000815260040180806020018281038252602a815260200180611e51602a913960400191505060405180910390fd5b6060611c438484600085611c4b565b949350505050565b6060611c5685611e17565b611cc157604080517f08c379a000000000000000000000000000000000000000000000000000000000815260206004820152601d60248201527f416464726573733a2063616c6c20746f206e6f6e2d636f6e7472616374000000604482015290519081900360640190fd5b600060608673ffffffffffffffffffffffffffffffffffffffff1685876040518082805190602001908083835b60208310611d2b57805182527fffffffffffffffffffffffffffffffffffffffffffffffffffffffffffffffe09092019160209182019101611cee565b6001836020036101000a03801982511681845116808217855250505050505090500191505060006040518083038185875af1925050503d8060008114611d8d576040519150601f19603f3d011682016040523d82523d6000602084013e611d92565b606091505b50915091508115611da6579150611c439050565b805115611db65780518082602001fd5b6040517f08c379a0000000000000000000000000000000000000000000000000000000008152602060048201818152865160248401528651879391928392604401919085019080838360008315611a9a578181015183820152602001611a82565b6000813f7fc5d2460186f7233c927e7db2dcc703c0e500b653ca82273b7bfad8045d85a47081811480159061152057505015159291505056fe5361666542455032303a204245503230206f7065726174696f6e20646964206e6f7420737563636565644f776e61626c653a206e6577206f776e657220697320746865207a65726f20616464726573734e6577207374617274426c6f636b206d757374206265206c6f776572207468616e206e657720656e64426c6f636b4e6577207374617274426c6f636b206d75737420626520686967686572207468616e2063757272656e7420626c6f636b536166654d6174683a206d756c7469706c69636174696f6e206f766572666c6f77a2646970667358221220e3894ced59d147f9a90e276fac616334c662b560ac05c09230063a480765a7b564736f6c634300060c0033",
  "linkReferences": {},
  "deployedLinkReferences": {}
}