{
  "_format": "hh-sol-artifact-1",
  "contractName": "MockRandomNumberGenerator",
  "sourceName": "contracts/utils/MockRandomNumberGenerator.sol",
  "abi": [
    {
      "inputs": [],
      "stateMutability": "nonpayable",
      "type": "constructor"
    },
    {
      "anonymous": false,
      "inputs": [
        {
          "indexed": true,
          "internalType": "address",
          "name": "previousOwner",
          "type": "address"
        },
        {
          "indexed": true,
          "internalType": "address",
          "name": "newOwner",
          "type": "address"
        }
      ],
      "name": "OwnershipTransferred",
      "type": "event"
    },
    {
      "inputs": [],
      "name": "changeLatestLotteryId",
      "outputs": [],
      "stateMutability": "nonpayable",
      "type": "function"
    },
    {
      "inputs": [
        {
          "internalType": "uint256",
          "name": "_seed",
          "type": "uint256"
        }
      ],
      "name": "getRandomNumber",
      "outputs": [],
      "stateMutability": "nonpayable",
      "type": "function"
    },
    {
      "inputs": [],
      "name": "latestLotteryId",
      "outputs": [
        {
          "internalType": "uint256",
          "name": "",
          "type": "uint256"
        }
      ],
      "stateMutability": "view",
      "type": "function"
    },
    {
      "inputs": [],
      "name": "nextRandomResult",
      "outputs": [
        {
          "internalType": "uint256",
          "name": "",
          "type": "uint256"
        }
      ],
      "stateMutability": "view",
      "type": "function"
    },
    {
      "inputs": [],
      "name": "owner",
      "outputs": [
        {
          "internalType": "address",
          "name": "",
          "type": "address"
        }
      ],
      "stateMutability": "view",
      "type": "function"
    },
    {
      "inputs": [],
      "name": "pancakeSwapLottery",
      "outputs": [
        {
          "internalType": "address",
          "name": "",
          "type": "address"
        }
      ],
      "stateMutability": "view",
      "type": "function"
    },
    {
      "inputs": [],
      "name": "randomResult",
      "outputs": [
        {
          "internalType": "uint32",
          "name": "",
          "type": "uint32"
        }
      ],
      "stateMutability": "view",
      "type": "function"
    },
    {
      "inputs": [],
      "name": "renounceOwnership",
      "outputs": [],
      "stateMutability": "nonpayable",
      "type": "function"
    },
    {
      "inputs": [
        {
          "internalType": "address",
          "name": "_pancakeSwapLottery",
          "type": "address"
        }
      ],
      "name": "setLotteryAddress",
      "outputs": [],
      "stateMutability": "nonpayable",
      "type": "function"
    },
    {
      "inputs": [
        {
          "internalType": "uint256",
          "name": "_nextRandomResult",
          "type": "uint256"
        }
      ],
      "name": "setNextRandomResult",
      "outputs": [],
      "stateMutability": "nonpayable",
      "type": "function"
    },
    {
      "inputs": [
        {
          "internalType": "address",
          "name": "newOwner",
          "type": "address"
        }
      ],
      "name": "transferOwnership",
      "outputs": [],
      "stateMutability": "nonpayable",
      "type": "function"
    },
    {
      "inputs": [],
      "name": "viewLatestLotteryId",
      "outputs": [
        {
          "internalType": "uint256",
          "name": "",
          "type": "uint256"
        }
      ],
      "stateMutability": "view",
      "type": "function"
    },
    {
      "inputs": [],
      "name": "viewRandomResult",
      "outputs": [
        {
          "internalType": "uint32",
          "name": "",
          "type": "uint32"
        }
      ],
      "stateMutability": "view",
      "type": "function"
    }
  ],
  "bytecode": "0x608060405234801561001057600080fd5b5061001a3361001f565b61006f565b600080546001600160a01b038381166001600160a01b0319831681178455604051919092169283917f8be0079c531659141344cd1fd0a4f28419497f9722a3daafe3b4186f6b6457e09190a35050565b6108418061007e6000396000f3fe608060405234801561001057600080fd5b50600436106100de5760003560e01c806380df99361161008c578063b37217a411610066578063b37217a4146101fd578063eed8e1ee14610210578063f2fde38b14610219578063fbe5d9171461022c57600080fd5b806380df9936146101a65780638da5cb5b146101b9578063a1c4f55a146101d757600080fd5b80634610852b116100bd5780634610852b146101515780634bf3057d14610159578063715018a61461019e57600080fd5b806204fd88146100e35780632a332b2a146100ff57806342619f6614610114575b600080fd5b6100ec60025481565b6040519081526020015b60405180910390f35b61011261010d36600461072a565b610234565b005b60015461013c9074010000000000000000000000000000000000000000900463ffffffff1681565b60405163ffffffff90911681526020016100f6565b610112610301565b6001546101799073ffffffffffffffffffffffffffffffffffffffff1681565b60405173ffffffffffffffffffffffffffffffffffffffff90911681526020016100f6565b6101126103a8565b6101126101b4366004610765565b610435565b60005473ffffffffffffffffffffffffffffffffffffffff16610179565b60015474010000000000000000000000000000000000000000900463ffffffff1661013c565b61011261020b366004610765565b6104bb565b6100ec60035481565b61011261022736600461072a565b61054e565b6003546100ec565b60005473ffffffffffffffffffffffffffffffffffffffff1633146102ba576040517f08c379a000000000000000000000000000000000000000000000000000000000815260206004820181905260248201527f4f776e61626c653a2063616c6c6572206973206e6f7420746865206f776e657260448201526064015b60405180910390fd5b600180547fffffffffffffffffffffffff00000000000000000000000000000000000000001673ffffffffffffffffffffffffffffffffffffffff92909216919091179055565b600160009054906101000a900473ffffffffffffffffffffffffffffffffffffffff1673ffffffffffffffffffffffffffffffffffffffff166380a061606040518163ffffffff1660e01b8152600401602060405180830381600087803b15801561036b57600080fd5b505af115801561037f573d6000803e3d6000fd5b505050506040513d601f19601f820116820180604052508101906103a3919061077d565b600355565b60005473ffffffffffffffffffffffffffffffffffffffff163314610429576040517f08c379a000000000000000000000000000000000000000000000000000000000815260206004820181905260248201527f4f776e61626c653a2063616c6c6572206973206e6f7420746865206f776e657260448201526064016102b1565b6104336000610677565b565b60005473ffffffffffffffffffffffffffffffffffffffff1633146104b6576040517f08c379a000000000000000000000000000000000000000000000000000000000815260206004820181905260248201527f4f776e61626c653a2063616c6c6572206973206e6f7420746865206f776e657260448201526064016102b1565b600255565b60015473ffffffffffffffffffffffffffffffffffffffff16331461053c576040517f08c379a000000000000000000000000000000000000000000000000000000000815260206004820152601760248201527f4f6e6c792050616e63616b65537761704c6f747465727900000000000000000060448201526064016102b1565b61054b6000801b6002546106ec565b50565b60005473ffffffffffffffffffffffffffffffffffffffff1633146105cf576040517f08c379a000000000000000000000000000000000000000000000000000000000815260206004820181905260248201527f4f776e61626c653a2063616c6c6572206973206e6f7420746865206f776e657260448201526064016102b1565b73ffffffffffffffffffffffffffffffffffffffff8116610672576040517f08c379a000000000000000000000000000000000000000000000000000000000815260206004820152602660248201527f4f776e61626c653a206e6577206f776e657220697320746865207a65726f206160448201527f646472657373000000000000000000000000000000000000000000000000000060648201526084016102b1565b61054b815b6000805473ffffffffffffffffffffffffffffffffffffffff8381167fffffffffffffffffffffffff0000000000000000000000000000000000000000831681178455604051919092169283917f8be0079c531659141344cd1fd0a4f28419497f9722a3daafe3b4186f6b6457e09190a35050565b6106f9620f4240826107d2565b61070690620f4240610795565b600160146101000a81548163ffffffff021916908363ffffffff1602179055505050565b60006020828403121561073b578081fd5b813573ffffffffffffffffffffffffffffffffffffffff8116811461075e578182fd5b9392505050565b600060208284031215610776578081fd5b5035919050565b60006020828403121561078e578081fd5b5051919050565b600082198211156107cd577f4e487b710000000000000000000000000000000000000000000000000000000081526011600452602481fd5b500190565b600082610806577f4e487b710000000000000000000000000000000000000000000000000000000081526012600452602481fd5b50069056fea264697066735822122092dbd66b77b7c0b0cf73362b7c878912aab7dc4303753a9cf5c4395fbe44135564736f6c63430008040033",
  "linkReferences": {},
  "deployedLinkReferences": {}
}