{
  "_format": "hh-sol-artifact-1",
  "contractName": "SyrupBar",
  "sourceName": "contracts/SyrupBar.sol",
  "abi": [
    {
      "inputs": [
        {
          "internalType": "contract CakeToken",
          "name": "_cake",
          "type": "address"
        }
      ],
      "stateMutability": "nonpayable",
      "type": "constructor"
    },
    {
      "anonymous": false,
      "inputs": [
        {
          "indexed": true,
          "internalType": "address",
          "name": "owner",
          "type": "address"
        },
        {
          "indexed": true,
          "internalType": "address",
          "name": "spender",
          "type": "address"
        },
        {
          "indexed": false,
          "internalType": "uint256",
          "name": "value",
          "type": "uint256"
        }
      ],
      "name": "Approval",
      "type": "event"
    },
    {
      "anonymous": false,
      "inputs": [
        {
          "indexed": true,
          "internalType": "address",
          "name": "delegator",
          "type": "address"
        },
        {
          "indexed": true,
          "internalType": "address",
          "name": "fromDelegate",
          "type": "address"
        },
        {
          "indexed": true,
          "internalType": "address",
          "name": "toDelegate",
          "type": "address"
        }
      ],
      "name": "DelegateChanged",
      "type": "event"
    },
    {
      "anonymous": false,
      "inputs": [
        {
          "indexed": true,
          "internalType": "address",
          "name": "delegate",
          "type": "address"
        },
        {
          "indexed": false,
          "internalType": "uint256",
          "name": "previousBalance",
          "type": "uint256"
        },
        {
          "indexed": false,
          "internalType": "uint256",
          "name": "newBalance",
          "type": "uint256"
        }
      ],
      "name": "DelegateVotesChanged",
      "type": "event"
    },
    {
      "anonymous": false,
      "inputs": [
        {
          "indexed": true,
          "internalType": "address",
          "name": "previousOwner",
          "type": "address"
        },
        {
          "indexed": true,
          "internalType": "address",
          "name": "newOwner",
          "type": "address"
        }
      ],
      "name": "OwnershipTransferred",
      "type": "event"
    },
    {
      "anonymous": false,
      "inputs": [
        {
          "indexed": true,
          "internalType": "address",
          "name": "from",
          "type": "address"
        },
        {
          "indexed": true,
          "internalType": "address",
          "name": "to",
          "type": "address"
        },
        {
          "indexed": false,
          "internalType": "uint256",
          "name": "value",
          "type": "uint256"
        }
      ],
      "name": "Transfer",
      "type": "event"
    },
    {
      "inputs": [],
      "name": "DELEGATION_TYPEHASH",
      "outputs": [
        {
          "internalType": "bytes32",
          "name": "",
          "type": "bytes32"
        }
      ],
      "stateMutability": "view",
      "type": "function"
    },
    {
      "inputs": [],
      "name": "DOMAIN_TYPEHASH",
      "outputs": [
        {
          "internalType": "bytes32",
          "name": "",
          "type": "bytes32"
        }
      ],
      "stateMutability": "view",
      "type": "function"
    },
    {
      "inputs": [
        {
          "internalType": "address",
          "name": "owner",
          "type": "address"
        },
        {
          "internalType": "address",
          "name": "spender",
          "type": "address"
        }
      ],
      "name": "allowance",
      "outputs": [
        {
          "internalType": "uint256",
          "name": "",
          "type": "uint256"
        }
      ],
      "stateMutability": "view",
      "type": "function"
    },
    {
      "inputs": [
        {
          "internalType": "address",
          "name": "spender",
          "type": "address"
        },
        {
          "internalType": "uint256",
          "name": "amount",
          "type": "uint256"
        }
      ],
      "name": "approve",
      "outputs": [
        {
          "internalType": "bool",
          "name": "",
          "type": "bool"
        }
      ],
      "stateMutability": "nonpayable",
      "type": "function"
    },
    {
      "inputs": [
        {
          "internalType": "address",
          "name": "account",
          "type": "address"
        }
      ],
      "name": "balanceOf",
      "outputs": [
        {
          "internalType": "uint256",
          "name": "",
          "type": "uint256"
        }
      ],
      "stateMutability": "view",
      "type": "function"
    },
    {
      "inputs": [
        {
          "internalType": "address",
          "name": "_from",
          "type": "address"
        },
        {
          "internalType": "uint256",
          "name": "_amount",
          "type": "uint256"
        }
      ],
      "name": "burn",
      "outputs": [],
      "stateMutability": "nonpayable",
      "type": "function"
    },
    {
      "inputs": [],
      "name": "cake",
      "outputs": [
        {
          "internalType": "contract CakeToken",
          "name": "",
          "type": "address"
        }
      ],
      "stateMutability": "view",
      "type": "function"
    },
    {
      "inputs": [
        {
          "internalType": "address",
          "name": "",
          "type": "address"
        },
        {
          "internalType": "uint32",
          "name": "",
          "type": "uint32"
        }
      ],
      "name": "checkpoints",
      "outputs": [
        {
          "internalType": "uint32",
          "name": "fromBlock",
          "type": "uint32"
        },
        {
          "internalType": "uint256",
          "name": "votes",
          "type": "uint256"
        }
      ],
      "stateMutability": "view",
      "type": "function"
    },
    {
      "inputs": [],
      "name": "decimals",
      "outputs": [
        {
          "internalType": "uint8",
          "name": "",
          "type": "uint8"
        }
      ],
      "stateMutability": "view",
      "type": "function"
    },
    {
      "inputs": [
        {
          "internalType": "address",
          "name": "spender",
          "type": "address"
        },
        {
          "internalType": "uint256",
          "name": "subtractedValue",
          "type": "uint256"
        }
      ],
      "name": "decreaseAllowance",
      "outputs": [
        {
          "internalType": "bool",
          "name": "",
          "type": "bool"
        }
      ],
      "stateMutability": "nonpayable",
      "type": "function"
    },
    {
      "inputs": [
        {
          "internalType": "address",
          "name": "delegatee",
          "type": "address"
        }
      ],
      "name": "delegate",
      "outputs": [],
      "stateMutability": "nonpayable",
      "type": "function"
    },
    {
      "inputs": [
        {
          "internalType": "address",
          "name": "delegatee",
          "type": "address"
        },
        {
          "internalType": "uint256",
          "name": "nonce",
          "type": "uint256"
        },
        {
          "internalType": "uint256",
          "name": "expiry",
          "type": "uint256"
        },
        {
          "internalType": "uint8",
          "name": "v",
          "type": "uint8"
        },
        {
          "internalType": "bytes32",
          "name": "r",
          "type": "bytes32"
        },
        {
          "internalType": "bytes32",
          "name": "s",
          "type": "bytes32"
        }
      ],
      "name": "delegateBySig",
      "outputs": [],
      "stateMutability": "nonpayable",
      "type": "function"
    },
    {
      "inputs": [
        {
          "internalType": "address",
          "name": "delegator",
          "type": "address"
        }
      ],
      "name": "delegates",
      "outputs": [
        {
          "internalType": "address",
          "name": "",
          "type": "address"
        }
      ],
      "stateMutability": "view",
      "type": "function"
    },
    {
      "inputs": [
        {
          "internalType": "address",
          "name": "account",
          "type": "address"
        }
      ],
      "name": "getCurrentVotes",
      "outputs": [
        {
          "internalType": "uint256",
          "name": "",
          "type": "uint256"
        }
      ],
      "stateMutability": "view",
      "type": "function"
    },
    {
      "inputs": [],
      "name": "getOwner",
      "outputs": [
        {
          "internalType": "address",
          "name": "",
          "type": "address"
        }
      ],
      "stateMutability": "view",
      "type": "function"
    },
    {
      "inputs": [
        {
          "internalType": "address",
          "name": "account",
          "type": "address"
        },
        {
          "internalType": "uint256",
          "name": "blockNumber",
          "type": "uint256"
        }
      ],
      "name": "getPriorVotes",
      "outputs": [
        {
          "internalType": "uint256",
          "name": "",
          "type": "uint256"
        }
      ],
      "stateMutability": "view",
      "type": "function"
    },
    {
      "inputs": [
        {
          "internalType": "address",
          "name": "spender",
          "type": "address"
        },
        {
          "internalType": "uint256",
          "name": "addedValue",
          "type": "uint256"
        }
      ],
      "name": "increaseAllowance",
      "outputs": [
        {
          "internalType": "bool",
          "name": "",
          "type": "bool"
        }
      ],
      "stateMutability": "nonpayable",
      "type": "function"
    },
    {
      "inputs": [
        {
          "internalType": "address",
          "name": "_to",
          "type": "address"
        },
        {
          "internalType": "uint256",
          "name": "_amount",
          "type": "uint256"
        }
      ],
      "name": "mint",
      "outputs": [],
      "stateMutability": "nonpayable",
      "type": "function"
    },
    {
      "inputs": [
        {
          "internalType": "uint256",
          "name": "amount",
          "type": "uint256"
        }
      ],
      "name": "mint",
      "outputs": [
        {
          "internalType": "bool",
          "name": "",
          "type": "bool"
        }
      ],
      "stateMutability": "nonpayable",
      "type": "function"
    },
    {
      "inputs": [],
      "name": "name",
      "outputs": [
        {
          "internalType": "string",
          "name": "",
          "type": "string"
        }
      ],
      "stateMutability": "view",
      "type": "function"
    },
    {
      "inputs": [
        {
          "internalType": "address",
          "name": "",
          "type": "address"
        }
      ],
      "name": "nonces",
      "outputs": [
        {
          "internalType": "uint256",
          "name": "",
          "type": "uint256"
        }
      ],
      "stateMutability": "view",
      "type": "function"
    },
    {
      "inputs": [
        {
          "internalType": "address",
          "name": "",
          "type": "address"
        }
      ],
      "name": "numCheckpoints",
      "outputs": [
        {
          "internalType": "uint32",
          "name": "",
          "type": "uint32"
        }
      ],
      "stateMutability": "view",
      "type": "function"
    },
    {
      "inputs": [],
      "name": "owner",
      "outputs": [
        {
          "internalType": "address",
          "name": "",
          "type": "address"
        }
      ],
      "stateMutability": "view",
      "type": "function"
    },
    {
      "inputs": [],
      "name": "renounceOwnership",
      "outputs": [],
      "stateMutability": "nonpayable",
      "type": "function"
    },
    {
      "inputs": [
        {
          "internalType": "address",
          "name": "_to",
          "type": "address"
        },
        {
          "internalType": "uint256",
          "name": "_amount",
          "type": "uint256"
        }
      ],
      "name": "safeCakeTransfer",
      "outputs": [],
      "stateMutability": "nonpayable",
      "type": "function"
    },
    {
      "inputs": [],
      "name": "symbol",
      "outputs": [
        {
          "internalType": "string",
          "name": "",
          "type": "string"
        }
      ],
      "stateMutability": "view",
      "type": "function"
    },
    {
      "inputs": [],
      "name": "totalSupply",
      "outputs": [
        {
          "internalType": "uint256",
          "name": "",
          "type": "uint256"
        }
      ],
      "stateMutability": "view",
      "type": "function"
    },
    {
      "inputs": [
        {
          "internalType": "address",
          "name": "recipient",
          "type": "address"
        },
        {
          "internalType": "uint256",
          "name": "amount",
          "type": "uint256"
        }
      ],
      "name": "transfer",
      "outputs": [
        {
          "internalType": "bool",
          "name": "",
          "type": "bool"
        }
      ],
      "stateMutability": "nonpayable",
      "type": "function"
    },
    {
      "inputs": [
        {
          "internalType": "address",
          "name": "sender",
          "type": "address"
        },
        {
          "internalType": "address",
          "name": "recipient",
          "type": "address"
        },
        {
          "internalType": "uint256",
          "name": "amount",
          "type": "uint256"
        }
      ],
      "name": "transferFrom",
      "outputs": [
        {
          "internalType": "bool",
          "name": "",
          "type": "bool"
        }
      ],
      "stateMutability": "nonpayable",
      "type": "function"
    },
    {
      "inputs": [
        {
          "internalType": "address",
          "name": "newOwner",
          "type": "address"
        }
      ],
      "name": "transferOwnership",
      "outputs": [],
      "stateMutability": "nonpayable",
      "type": "function"
    }
  ],
  "bytecode": "0x60806040523480156200001157600080fd5b5060405162002a8238038062002a82833981810160405260208110156200003757600080fd5b5051604080518082018252600a8152690a6e8c2d6cac840888ab60b31b602082810191909152825180840190935260048352630e6888ab60e31b908301529060006200008262000131565b600080546001600160a01b0319166001600160a01b0383169081178255604051929350917f8be0079c531659141344cd1fd0a4f28419497f9722a3daafe3b4186f6b6457e0908290a3508151620000e190600490602085019062000135565b508051620000f790600590602084019062000135565b5050600680546001600160a01b0390931661010002610100600160a81b031960ff19909416601217939093169290921790915550620001d1565b3390565b828054600181600116156101000203166002900490600052602060002090601f016020900481019282601f106200017857805160ff1916838001178555620001a8565b82800160010185558215620001a8579182015b82811115620001a85782518255916020019190600101906200018b565b50620001b6929150620001ba565b5090565b5b80821115620001b65760008155600101620001bb565b6128a180620001e16000396000f3fe608060405234801561001057600080fd5b50600436106101da5760003560e01c8063893d20e811610104578063a9059cbb116100a2578063dd62ed3e11610071578063dd62ed3e146106ca578063e7a324dc14610705578063f1127ed81461070d578063f2fde38b1461076c576101da565b8063a9059cbb14610602578063b4b5ea571461063b578063c3cda5201461066e578063dce17484146106c2576101da565b80639dc29fac116100de5780639dc29fac1461053a578063a0712d6814610573578063a2e6ddcc14610590578063a457c2d7146105c9576101da565b8063893d20e8146105225780638da5cb5b1461052a57806395d89b4114610532576101da565b806340c10f191161017c57806370a082311161014b57806370a082311461047b578063715018a6146104ae578063782d6fe1146104b65780637ecebe00146104ef576101da565b806340c10f1914610365578063587cde1e146103a05780635c19a95c146103fc5780636fcfff451461042f576101da565b806320606b70116101b857806320606b70146102c357806323b872dd146102cb578063313ce5671461030e578063395093511461032c576101da565b806306fdde03146101df578063095ea7b31461025c57806318160ddd146102a9575b600080fd5b6101e761079f565b6040805160208082528351818301528351919283929083019185019080838360005b83811015610221578181015183820152602001610209565b50505050905090810190601f16801561024e5780820380516001836020036101000a031916815260200191505b509250505060405180910390f35b6102956004803603604081101561027257600080fd5b5073ffffffffffffffffffffffffffffffffffffffff8135169060200135610853565b604080519115158252519081900360200190f35b6102b1610871565b60408051918252519081900360200190f35b6102b1610877565b610295600480360360608110156102e157600080fd5b5073ffffffffffffffffffffffffffffffffffffffff81358116916020810135909116906040013561089b565b61031661093c565b6040805160ff9092168252519081900360200190f35b6102956004803603604081101561034257600080fd5b5073ffffffffffffffffffffffffffffffffffffffff8135169060200135610945565b61039e6004803603604081101561037b57600080fd5b5073ffffffffffffffffffffffffffffffffffffffff81351690602001356109a0565b005b6103d3600480360360208110156103b657600080fd5b503573ffffffffffffffffffffffffffffffffffffffff16610a71565b6040805173ffffffffffffffffffffffffffffffffffffffff9092168252519081900360200190f35b61039e6004803603602081101561041257600080fd5b503573ffffffffffffffffffffffffffffffffffffffff16610a9c565b6104626004803603602081101561044557600080fd5b503573ffffffffffffffffffffffffffffffffffffffff16610aa9565b6040805163ffffffff9092168252519081900360200190f35b6102b16004803603602081101561049157600080fd5b503573ffffffffffffffffffffffffffffffffffffffff16610ac1565b61039e610ae9565b6102b1600480360360408110156104cc57600080fd5b5073ffffffffffffffffffffffffffffffffffffffff8135169060200135610be9565b6102b16004803603602081101561050557600080fd5b503573ffffffffffffffffffffffffffffffffffffffff16610eb3565b6103d3610ec5565b6103d3610ed4565b6101e7610ef0565b61039e6004803603604081101561055057600080fd5b5073ffffffffffffffffffffffffffffffffffffffff8135169060200135610f6f565b6102956004803603602081101561058957600080fd5b503561103d565b61039e600480360360408110156105a657600080fd5b5073ffffffffffffffffffffffffffffffffffffffff81351690602001356110e9565b610295600480360360408110156105df57600080fd5b5073ffffffffffffffffffffffffffffffffffffffff813516906020013561138e565b6102956004803603604081101561061857600080fd5b5073ffffffffffffffffffffffffffffffffffffffff8135169060200135611403565b6102b16004803603602081101561065157600080fd5b503573ffffffffffffffffffffffffffffffffffffffff16611417565b61039e600480360360c081101561068457600080fd5b5073ffffffffffffffffffffffffffffffffffffffff8135169060208101359060408101359060ff6060820135169060808101359060a001356114b3565b6103d36117f2565b6102b1600480360360408110156106e057600080fd5b5073ffffffffffffffffffffffffffffffffffffffff81358116916020013516611813565b6102b161184b565b61074c6004803603604081101561072357600080fd5b50803573ffffffffffffffffffffffffffffffffffffffff16906020013563ffffffff1661186f565b6040805163ffffffff909316835260208301919091528051918290030190f35b61039e6004803603602081101561078257600080fd5b503573ffffffffffffffffffffffffffffffffffffffff1661189c565b60048054604080516020601f60027fffffffffffffffffffffffffffffffffffffffffffffffffffffffffffffffff6101006001881615020190951694909404938401819004810282018101909252828152606093909290918301828280156108495780601f1061081e57610100808354040283529160200191610849565b820191906000526020600020905b81548152906001019060200180831161082c57829003601f168201915b5050505050905090565b6000610867610860611936565b848461193a565b5060015b92915050565b60035490565b7f8cad95687ba82c2ce50e74f7b754645e5117c3a5bec8151c0726d5857980a86681565b60006108a8848484611a81565b610932846108b4611936565b61092d856040518060600160405280602881526020016126ce6028913973ffffffffffffffffffffffffffffffffffffffff8a166000908152600260205260408120906108ff611936565b73ffffffffffffffffffffffffffffffffffffffff1681526020810191909152604001600020549190611c48565b61193a565b5060019392505050565b60065460ff1690565b6000610867610952611936565b8461092d8560026000610963611936565b73ffffffffffffffffffffffffffffffffffffffff908116825260208083019390935260409182016000908120918c168152925290205490611cf9565b6109a8611936565b60005473ffffffffffffffffffffffffffffffffffffffff908116911614610a3157604080517f08c379a000000000000000000000000000000000000000000000000000000000815260206004820181905260248201527f4f776e61626c653a2063616c6c6572206973206e6f7420746865206f776e6572604482015290519081900360640190fd5b610a3b8282611d6d565b73ffffffffffffffffffffffffffffffffffffffff808316600090815260076020526040812054610a6d921683611e94565b5050565b73ffffffffffffffffffffffffffffffffffffffff9081166000908152600760205260409020541690565b610aa63382612075565b50565b60096020526000908152604090205463ffffffff1681565b73ffffffffffffffffffffffffffffffffffffffff1660009081526001602052604090205490565b610af1611936565b60005473ffffffffffffffffffffffffffffffffffffffff908116911614610b7a57604080517f08c379a000000000000000000000000000000000000000000000000000000000815260206004820181905260248201527f4f776e61626c653a2063616c6c6572206973206e6f7420746865206f776e6572604482015290519081900360640190fd5b6000805460405173ffffffffffffffffffffffffffffffffffffffff909116907f8be0079c531659141344cd1fd0a4f28419497f9722a3daafe3b4186f6b6457e0908390a3600080547fffffffffffffffffffffffff0000000000000000000000000000000000000000169055565b6000438210610c43576040517f08c379a00000000000000000000000000000000000000000000000000000000081526004018080602001828103825260278152602001806127506027913960400191505060405180910390fd5b73ffffffffffffffffffffffffffffffffffffffff831660009081526009602052604090205463ffffffff1680610c7e57600091505061086b565b73ffffffffffffffffffffffffffffffffffffffff8416600090815260086020908152604080832063ffffffff7fffffffffffffffffffffffffffffffffffffffffffffffffffffffffffffffff860181168552925290912054168310610d435773ffffffffffffffffffffffffffffffffffffffff841660009081526008602090815260408083207fffffffffffffffffffffffffffffffffffffffffffffffffffffffffffffffff9490940163ffffffff1683529290522060010154905061086b565b73ffffffffffffffffffffffffffffffffffffffff8416600090815260086020908152604080832083805290915290205463ffffffff16831015610d8b57600091505061086b565b60007fffffffffffffffffffffffffffffffffffffffffffffffffffffffffffffffff82015b8163ffffffff168163ffffffff161115610e6f57600282820363ffffffff16048103610ddb612621565b5073ffffffffffffffffffffffffffffffffffffffff8716600090815260086020908152604080832063ffffffff808616855290835292819020815180830190925280549093168082526001909301549181019190915290871415610e4a5760200151945061086b9350505050565b805163ffffffff16871115610e6157819350610e68565b6001820392505b5050610db1565b5073ffffffffffffffffffffffffffffffffffffffff8516600090815260086020908152604080832063ffffffff9094168352929052206001015491505092915050565b600a6020526000908152604090205481565b6000610ecf610ed4565b905090565b60005473ffffffffffffffffffffffffffffffffffffffff1690565b60058054604080516020601f60027fffffffffffffffffffffffffffffffffffffffffffffffffffffffffffffffff6101006001881615020190951694909404938401819004810282018101909252828152606093909290918301828280156108495780601f1061081e57610100808354040283529160200191610849565b610f77611936565b60005473ffffffffffffffffffffffffffffffffffffffff90811691161461100057604080517f08c379a000000000000000000000000000000000000000000000000000000000815260206004820181905260248201527f4f776e61626c653a2063616c6c6572206973206e6f7420746865206f776e6572604482015290519081900360640190fd5b61100a828261213c565b73ffffffffffffffffffffffffffffffffffffffff808316600090815260076020526040812054610a6d92169083611e94565b6000611047611936565b60005473ffffffffffffffffffffffffffffffffffffffff9081169116146110d057604080517f08c379a000000000000000000000000000000000000000000000000000000000815260206004820181905260248201527f4f776e61626c653a2063616c6c6572206973206e6f7420746865206f776e6572604482015290519081900360640190fd5b6110e16110db611936565b83611d6d565b506001919050565b6110f1611936565b60005473ffffffffffffffffffffffffffffffffffffffff90811691161461117a57604080517f08c379a000000000000000000000000000000000000000000000000000000000815260206004820181905260248201527f4f776e61626c653a2063616c6c6572206973206e6f7420746865206f776e6572604482015290519081900360640190fd5b600654604080517f70a082310000000000000000000000000000000000000000000000000000000081523060048201529051600092610100900473ffffffffffffffffffffffffffffffffffffffff16916370a08231916024808301926020929190829003018186803b1580156111f057600080fd5b505afa158015611204573d6000803e3d6000fd5b505050506040513d602081101561121a57600080fd5b50519050808211156112da57600654604080517fa9059cbb00000000000000000000000000000000000000000000000000000000815273ffffffffffffffffffffffffffffffffffffffff86811660048301526024820185905291516101009093049091169163a9059cbb916044808201926020929091908290030181600087803b1580156112a857600080fd5b505af11580156112bc573d6000803e3d6000fd5b505050506040513d60208110156112d257600080fd5b506113899050565b600654604080517fa9059cbb00000000000000000000000000000000000000000000000000000000815273ffffffffffffffffffffffffffffffffffffffff86811660048301526024820186905291516101009093049091169163a9059cbb916044808201926020929091908290030181600087803b15801561135c57600080fd5b505af1158015611370573d6000803e3d6000fd5b505050506040513d602081101561138657600080fd5b50505b505050565b600061086761139b611936565b8461092d856040518060600160405280602581526020016127e260259139600260006113c5611936565b73ffffffffffffffffffffffffffffffffffffffff908116825260208083019390935260409182016000908120918d16815292529020549190611c48565b6000610867611410611936565b8484611a81565b73ffffffffffffffffffffffffffffffffffffffff811660009081526009602052604081205463ffffffff168061144f5760006114ac565b73ffffffffffffffffffffffffffffffffffffffff8316600090815260086020908152604080832063ffffffff7fffffffffffffffffffffffffffffffffffffffffffffffffffffffffffffffff86011684529091529020600101545b9392505050565b60007f8cad95687ba82c2ce50e74f7b754645e5117c3a5bec8151c0726d5857980a8666114de61079f565b805190602001206114ed61227a565b60408051602080820195909552808201939093526060830191909152306080808401919091528151808403909101815260a0830182528051908401207fe48329057bfd03d55e49b547132e39cffd9c1820ad7b9d4c5307691425d15adf60c084015273ffffffffffffffffffffffffffffffffffffffff8b1660e084015261010083018a90526101208084018a905282518085039091018152610140840183528051908501207f19010000000000000000000000000000000000000000000000000000000000006101608501526101628401829052610182808501829052835180860390910181526101a285018085528151918701919091206000918290526101c2860180865281905260ff8b166101e287015261020286018a905261022286018990529351929650909492939092600192610242808401937fffffffffffffffffffffffffffffffffffffffffffffffffffffffffffffffe08301929081900390910190855afa158015611666573d6000803e3d6000fd5b50506040517fffffffffffffffffffffffffffffffffffffffffffffffffffffffffffffffe0015191505073ffffffffffffffffffffffffffffffffffffffff81166116fd576040517f08c379a00000000000000000000000000000000000000000000000000000000081526004018080602001828103825260268152602001806126f66026913960400191505060405180910390fd5b73ffffffffffffffffffffffffffffffffffffffff81166000908152600a602052604090208054600181019091558914611782576040517f08c379a000000000000000000000000000000000000000000000000000000000815260040180806020018281038252602281526020018061279d6022913960400191505060405180910390fd5b874211156117db576040517f08c379a00000000000000000000000000000000000000000000000000000000081526004018080602001828103825260268152602001806126a86026913960400191505060405180910390fd5b6117e5818b612075565b505050505b505050505050565b600654610100900473ffffffffffffffffffffffffffffffffffffffff1681565b73ffffffffffffffffffffffffffffffffffffffff918216600090815260026020908152604080832093909416825291909152205490565b7fe48329057bfd03d55e49b547132e39cffd9c1820ad7b9d4c5307691425d15adf81565b60086020908152600092835260408084209091529082529020805460019091015463ffffffff9091169082565b6118a4611936565b60005473ffffffffffffffffffffffffffffffffffffffff90811691161461192d57604080517f08c379a000000000000000000000000000000000000000000000000000000000815260206004820181905260248201527f4f776e61626c653a2063616c6c6572206973206e6f7420746865206f776e6572604482015290519081900360640190fd5b610aa68161227e565b3390565b73ffffffffffffffffffffffffffffffffffffffff83166119a6576040517f08c379a000000000000000000000000000000000000000000000000000000000815260040180806020018281038252602481526020018061265e6024913960400191505060405180910390fd5b73ffffffffffffffffffffffffffffffffffffffff8216611a12576040517f08c379a000000000000000000000000000000000000000000000000000000000815260040180806020018281038252602281526020018061284a6022913960400191505060405180910390fd5b73ffffffffffffffffffffffffffffffffffffffff808416600081815260026020908152604080832094871680845294825291829020859055815185815291517f8c5be1e5ebec7d5bd14f71427d1e84f3dd0314c0f7b2291e5b200ac8c7c3b9259281900390910190a3505050565b73ffffffffffffffffffffffffffffffffffffffff8316611aed576040517f08c379a00000000000000000000000000000000000000000000000000000000081526004018080602001828103825260258152602001806126396025913960400191505060405180910390fd5b73ffffffffffffffffffffffffffffffffffffffff8216611b59576040517f08c379a00000000000000000000000000000000000000000000000000000000081526004018080602001828103825260238152602001806127bf6023913960400191505060405180910390fd5b611ba3816040518060600160405280602681526020016127776026913973ffffffffffffffffffffffffffffffffffffffff86166000908152600160205260409020549190611c48565b73ffffffffffffffffffffffffffffffffffffffff8085166000908152600160205260408082209390935590841681522054611bdf9082611cf9565b73ffffffffffffffffffffffffffffffffffffffff80841660008181526001602090815260409182902094909455805185815290519193928716927fddf252ad1be2c89b69c2b068fc378daa952ba7f163c4a11628f55a4df523b3ef92918290030190a3505050565b60008184841115611cf1576040517f08c379a00000000000000000000000000000000000000000000000000000000081526004018080602001828103825283818151815260200191508051906020019080838360005b83811015611cb6578181015183820152602001611c9e565b50505050905090810190601f168015611ce35780820380516001836020036101000a031916815260200191505b509250505060405180910390fd5b505050900390565b6000828201838110156114ac57604080517f08c379a000000000000000000000000000000000000000000000000000000000815260206004820152601b60248201527f536166654d6174683a206164646974696f6e206f766572666c6f770000000000604482015290519081900360640190fd5b73ffffffffffffffffffffffffffffffffffffffff8216611def57604080517f08c379a000000000000000000000000000000000000000000000000000000000815260206004820152601f60248201527f42455032303a206d696e7420746f20746865207a65726f206164647265737300604482015290519081900360640190fd5b600354611dfc9082611cf9565b60035573ffffffffffffffffffffffffffffffffffffffff8216600090815260016020526040902054611e2f9082611cf9565b73ffffffffffffffffffffffffffffffffffffffff831660008181526001602090815260408083209490945583518581529351929391927fddf252ad1be2c89b69c2b068fc378daa952ba7f163c4a11628f55a4df523b3ef9281900390910190a35050565b8173ffffffffffffffffffffffffffffffffffffffff168373ffffffffffffffffffffffffffffffffffffffff1614158015611ed05750600081115b156113895773ffffffffffffffffffffffffffffffffffffffff831615611fa75773ffffffffffffffffffffffffffffffffffffffff831660009081526009602052604081205463ffffffff169081611f2a576000611f87565b73ffffffffffffffffffffffffffffffffffffffff8516600090815260086020908152604080832063ffffffff7fffffffffffffffffffffffffffffffffffffffffffffffffffffffffffffffff87011684529091529020600101545b90506000611f958285612377565b9050611fa3868484846123b9565b5050505b73ffffffffffffffffffffffffffffffffffffffff8216156113895773ffffffffffffffffffffffffffffffffffffffff821660009081526009602052604081205463ffffffff169081611ffc576000612059565b73ffffffffffffffffffffffffffffffffffffffff8416600090815260086020908152604080832063ffffffff7fffffffffffffffffffffffffffffffffffffffffffffffffffffffffffffffff87011684529091529020600101545b905060006120678285611cf9565b90506117ea858484846123b9565b73ffffffffffffffffffffffffffffffffffffffff808316600090815260076020526040812054909116906120a984610ac1565b73ffffffffffffffffffffffffffffffffffffffff85811660008181526007602052604080822080547fffffffffffffffffffffffff000000000000000000000000000000000000000016898616908117909155905194955093928616927f3134e8a2e6d97e929a7e54011ea5485d7d196dd5f0ba4d4ef95803e8e3fc257f9190a4612136828483611e94565b50505050565b73ffffffffffffffffffffffffffffffffffffffff82166121a8576040517f08c379a00000000000000000000000000000000000000000000000000000000081526004018080602001828103825260218152602001806128076021913960400191505060405180910390fd5b6121f2816040518060600160405280602281526020016128286022913973ffffffffffffffffffffffffffffffffffffffff85166000908152600160205260409020549190611c48565b73ffffffffffffffffffffffffffffffffffffffff83166000908152600160205260409020556003546122259082612377565b60035560408051828152905160009173ffffffffffffffffffffffffffffffffffffffff8516917fddf252ad1be2c89b69c2b068fc378daa952ba7f163c4a11628f55a4df523b3ef9181900360200190a35050565b4690565b73ffffffffffffffffffffffffffffffffffffffff81166122ea576040517f08c379a00000000000000000000000000000000000000000000000000000000081526004018080602001828103825260268152602001806126826026913960400191505060405180910390fd5b6000805460405173ffffffffffffffffffffffffffffffffffffffff808516939216917f8be0079c531659141344cd1fd0a4f28419497f9722a3daafe3b4186f6b6457e091a3600080547fffffffffffffffffffffffff00000000000000000000000000000000000000001673ffffffffffffffffffffffffffffffffffffffff92909216919091179055565b60006114ac83836040518060400160405280601e81526020017f536166654d6174683a207375627472616374696f6e206f766572666c6f770000815250611c48565b60006123dd4360405180606001604052806034815260200161271c603491396125a9565b905060008463ffffffff16118015612451575073ffffffffffffffffffffffffffffffffffffffff8516600090815260086020908152604080832063ffffffff7fffffffffffffffffffffffffffffffffffffffffffffffffffffffffffffffff8901811685529252909120548282169116145b156124b95773ffffffffffffffffffffffffffffffffffffffff8516600090815260086020908152604080832063ffffffff7fffffffffffffffffffffffffffffffffffffffffffffffffffffffffffffffff89011684529091529020600101829055612552565b60408051808201825263ffffffff8084168252602080830186815273ffffffffffffffffffffffffffffffffffffffff8a166000818152600884528681208b861682528452868120955186549086167fffffffffffffffffffffffffffffffffffffffffffffffffffffffff00000000918216178755925160019687015590815260099092529390208054928801909116919092161790555b6040805184815260208101849052815173ffffffffffffffffffffffffffffffffffffffff8816927fdec2bacdd2f05b59de34da9b523dff8be42e5e38e818c82fdb0bae774387a724928290030190a25050505050565b6000816401000000008410612619576040517f08c379a0000000000000000000000000000000000000000000000000000000008152602060048201818152835160248401528351909283926044909101919085019080838360008315611cb6578181015183820152602001611c9e565b509192915050565b60408051808201909152600080825260208201529056fe42455032303a207472616e736665722066726f6d20746865207a65726f206164647265737342455032303a20617070726f76652066726f6d20746865207a65726f20616464726573734f776e61626c653a206e6577206f776e657220697320746865207a65726f206164647265737343414b453a3a64656c656761746542795369673a207369676e6174757265206578706972656442455032303a207472616e7366657220616d6f756e74206578636565647320616c6c6f77616e636543414b453a3a64656c656761746542795369673a20696e76616c6964207369676e617475726543414b453a3a5f7772697465436865636b706f696e743a20626c6f636b206e756d6265722065786365656473203332206269747343414b453a3a6765745072696f72566f7465733a206e6f74207965742064657465726d696e656442455032303a207472616e7366657220616d6f756e7420657863656564732062616c616e636543414b453a3a64656c656761746542795369673a20696e76616c6964206e6f6e636542455032303a207472616e7366657220746f20746865207a65726f206164647265737342455032303a2064656372656173656420616c6c6f77616e63652062656c6f77207a65726f42455032303a206275726e2066726f6d20746865207a65726f206164647265737342455032303a206275726e20616d6f756e7420657863656564732062616c616e636542455032303a20617070726f766520746f20746865207a65726f2061646472657373a2646970667358221220f140024af1bd0ddc247f1623bf5a170b3a3d9ed032820b5526f7db3c7202b14464736f6c634300060c0033",
  "linkReferences": {},
  "deployedLinkReferences": {}
}