{
  "_format": "hh-sol-artifact-1",
  "contractName": "PancakeStableSwapWBNBHelper",
  "sourceName": "contracts/utils/PancakeStableSwapWBNBHelper.sol",
  "abi": [
    {
      "inputs": [
        {
          "internalType": "contract IWBNB",
          "name": "_WBNB",
          "type": "address"
        }
      ],
      "stateMutability": "nonpayable",
      "type": "constructor"
    },
    {
      "inputs": [],
      "name": "InvalidNCOINS",
      "type": "error"
    },
    {
      "inputs": [],
      "name": "NotWBNBPair",
      "type": "error"
    },
    {
      "inputs": [],
      "name": "NotWhitelist",
      "type": "error"
    },
    {
      "anonymous": false,
      "inputs": [
        {
          "indexed": true,
          "internalType": "address",
          "name": "previousOwner",
          "type": "address"
        },
        {
          "indexed": true,
          "internalType": "address",
          "name": "newOwner",
          "type": "address"
        }
      ],
      "name": "OwnershipTransferred",
      "type": "event"
    },
    {
      "anonymous": false,
      "inputs": [
        {
          "indexed": false,
          "internalType": "address",
          "name": "swap",
          "type": "address"
        },
        {
          "indexed": false,
          "internalType": "bool",
          "name": "status",
          "type": "bool"
        }
      ],
      "name": "UpdateWhitelist",
      "type": "event"
    },
    {
      "inputs": [],
      "name": "N_COINS",
      "outputs": [
        {
          "internalType": "uint256",
          "name": "",
          "type": "uint256"
        }
      ],
      "stateMutability": "view",
      "type": "function"
    },
    {
      "inputs": [],
      "name": "WBNB",
      "outputs": [
        {
          "internalType": "contract IWBNB",
          "name": "",
          "type": "address"
        }
      ],
      "stateMutability": "view",
      "type": "function"
    },
    {
      "inputs": [
        {
          "internalType": "contract IPancakeStableSwap",
          "name": "swap",
          "type": "address"
        },
        {
          "internalType": "uint256[2]",
          "name": "amounts",
          "type": "uint256[2]"
        },
        {
          "internalType": "uint256",
          "name": "min_mint_amount",
          "type": "uint256"
        }
      ],
      "name": "add_liquidity",
      "outputs": [],
      "stateMutability": "payable",
      "type": "function"
    },
    {
      "inputs": [
        {
          "internalType": "address",
          "name": "",
          "type": "address"
        }
      ],
      "name": "isWhitelist",
      "outputs": [
        {
          "internalType": "bool",
          "name": "",
          "type": "bool"
        }
      ],
      "stateMutability": "view",
      "type": "function"
    },
    {
      "inputs": [],
      "name": "owner",
      "outputs": [
        {
          "internalType": "address",
          "name": "",
          "type": "address"
        }
      ],
      "stateMutability": "view",
      "type": "function"
    },
    {
      "inputs": [
        {
          "internalType": "contract IPancakeStableSwap",
          "name": "swap",
          "type": "address"
        },
        {
          "internalType": "uint256",
          "name": "_amount",
          "type": "uint256"
        },
        {
          "internalType": "uint256[2]",
          "name": "min_amounts",
          "type": "uint256[2]"
        }
      ],
      "name": "remove_liquidity",
      "outputs": [],
      "stateMutability": "nonpayable",
      "type": "function"
    },
    {
      "inputs": [],
      "name": "renounceOwnership",
      "outputs": [],
      "stateMutability": "nonpayable",
      "type": "function"
    },
    {
      "inputs": [
        {
          "internalType": "address",
          "name": "_swap",
          "type": "address"
        },
        {
          "internalType": "bool",
          "name": "_status",
          "type": "bool"
        }
      ],
      "name": "setWhiteList",
      "outputs": [],
      "stateMutability": "nonpayable",
      "type": "function"
    },
    {
      "inputs": [
        {
          "internalType": "address",
          "name": "newOwner",
          "type": "address"
        }
      ],
      "name": "transferOwnership",
      "outputs": [],
      "stateMutability": "nonpayable",
      "type": "function"
    },
    {
      "stateMutability": "payable",
      "type": "receive"
    }
  ],
  "bytecode": "0x60a060405234801561001057600080fd5b506040516118af3803806118af83398101604081905261002f91610099565b61003833610049565b6001600160a01b03166080526100c9565b600080546001600160a01b038381166001600160a01b0319831681178455604051919092169283917f8be0079c531659141344cd1fd0a4f28419497f9722a3daafe3b4186f6b6457e09190a35050565b6000602082840312156100ab57600080fd5b81516001600160a01b03811681146100c257600080fd5b9392505050565b60805161179461011b60003960008181608a015281816101540152818161049a015281816104dc0152818161059401528181610965015281816109a701528181610ad70152610b6701526117946000f3fe60806040526004361061007a5760003560e01c806329357750146100be578063715018a6146100e65780638d14e127146100fb5780638da5cb5b1461011b5780638dd9500214610142578063c683630d14610176578063d2fb954c146101b6578063d45e33e5146101c9578063f2fde38b146101e957600080fd5b366100b957336001600160a01b037f000000000000000000000000000000000000000000000000000000000000000016146100b7576100b7611454565b005b600080fd5b3480156100ca57600080fd5b506100d3600281565b6040519081526020015b60405180910390f35b3480156100f257600080fd5b506100b7610209565b34801561010757600080fd5b506100b761011636600461148d565b610248565b34801561012757600080fd5b506000546001600160a01b03165b6040516100dd91906114c6565b34801561014e57600080fd5b506101357f000000000000000000000000000000000000000000000000000000000000000081565b34801561018257600080fd5b506101a66101913660046114da565b60026020526000908152604090205460ff1681565b60405190151581526020016100dd565b6100b76101c4366004611575565b6102d5565b3480156101d557600080fd5b506100b76101e43660046115b4565b6107a0565b3480156101f557600080fd5b506100b76102043660046114da565b610cf7565b6000546001600160a01b0316331461023c5760405162461bcd60e51b8152600401610233906115f3565b60405180910390fd5b6102466000610d92565b565b6000546001600160a01b031633146102725760405162461bcd60e51b8152600401610233906115f3565b6001600160a01b038216600081815260026020908152604091829020805460ff19168515159081179091558251938452908301527f08b2c0469ecd1d7a21d7e1492f0fc75fc7e8e0fa4fdf4275949c90875f5ebdf5910160405180910390a15050565b6001600160a01b03831660009081526002602052604090205460ff1661030e57604051631db1756760e01b815260040160405180910390fd5b6002836001600160a01b031663293577506040518163ffffffff1660e01b8152600401602060405180830381865afa15801561034e573d6000803e3d6000fd5b505050506040513d601f19601f820116820180604052508101906103729190611628565b1461039057604051631e21814d60e21b815260040160405180910390fd5b6001600160a01b03831660009081526001602052604090205460ff166103b9576103b983610de2565b60405163c661065760e01b8152600060048201819052906001600160a01b0385169063c661065790602401602060405180830381865afa158015610401573d6000803e3d6000fd5b505050506040513d601f19601f820116820180604052508101906104259190611641565b60405163c661065760e01b8152600160048201529091506000906001600160a01b0386169063c661065790602401602060405180830381865afa158015610470573d6000803e3d6000fd5b505050506040513d601f19601f820116820180604052508101906104949190611641565b905060007f00000000000000000000000000000000000000000000000000000000000000006001600160a01b0316836001600160a01b031614156104da57506000610535565b7f00000000000000000000000000000000000000000000000000000000000000006001600160a01b0316826001600160a01b0316141561051c57506001610535565b60405163175e138160e11b815260040160405180910390fd5b8481600281106105475761054761165e565b602002015134146105925760405162461bcd60e51b8152602060048201526015602482015274496e636f6e73697374656e74207175616e7469747960581b6044820152606401610233565b7f00000000000000000000000000000000000000000000000000000000000000006001600160a01b031663d0e30db0346040518263ffffffff1660e01b81526004016000604051808303818588803b1580156105ed57600080fd5b505af1158015610601573d6000803e3d6000fd5b5050505050806000141561063157602085015161062c906001600160a01b0384169033903090610f91565b61064b565b845161064b906001600160a01b0385169033903090610f91565b604051630b4c7e4d60e01b81526001600160a01b03871690630b4c7e4d906106799088908890600401611697565b600060405180830381600087803b15801561069357600080fd5b505af11580156106a7573d6000803e3d6000fd5b505050506000866001600160a01b031663fc0c546a6040518163ffffffff1660e01b8152600401602060405180830381865afa1580156106eb573d6000803e3d6000fd5b505050506040513d601f19601f8201168201806040525081019061070f9190611641565b90506000816001600160a01b03166370a08231306040518263ffffffff1660e01b815260040161073f91906114c6565b602060405180830381865afa15801561075c573d6000803e3d6000fd5b505050506040513d601f19601f820116820180604052508101906107809190611628565b90506107966001600160a01b0383163383611002565b5050505050505050565b6001600160a01b03831660009081526002602052604090205460ff166107d957604051631db1756760e01b815260040160405180910390fd5b6002836001600160a01b031663293577506040518163ffffffff1660e01b8152600401602060405180830381865afa158015610819573d6000803e3d6000fd5b505050506040513d601f19601f8201168201806040525081019061083d9190611628565b1461085b57604051631e21814d60e21b815260040160405180910390fd5b6001600160a01b03831660009081526001602052604090205460ff166108845761088483610de2565b60405163c661065760e01b8152600060048201819052906001600160a01b0385169063c661065790602401602060405180830381865afa1580156108cc573d6000803e3d6000fd5b505050506040513d601f19601f820116820180604052508101906108f09190611641565b60405163c661065760e01b8152600160048201529091506000906001600160a01b0386169063c661065790602401602060405180830381865afa15801561093b573d6000803e3d6000fd5b505050506040513d601f19601f8201168201806040525081019061095f9190611641565b905060007f00000000000000000000000000000000000000000000000000000000000000006001600160a01b0316836001600160a01b031614156109a5575060006109e3565b7f00000000000000000000000000000000000000000000000000000000000000006001600160a01b0316826001600160a01b0316141561051c575060015b6000866001600160a01b031663fc0c546a6040518163ffffffff1660e01b8152600401602060405180830381865afa158015610a23573d6000803e3d6000fd5b505050506040513d601f19601f82011682018060405250810190610a479190611641565b9050610a5e6001600160a01b038216333089610f91565b6040516316cd8e2760e21b81526001600160a01b03881690635b36389c90610a8c90899089906004016116b2565b600060405180830381600087803b158015610aa657600080fd5b505af1158015610aba573d6000803e3d6000fd5b50506040516370a0823160e01b8152600092506001600160a01b037f00000000000000000000000000000000000000000000000000000000000000001691506370a0823190610b0d9030906004016114c6565b602060405180830381865afa158015610b2a573d6000803e3d6000fd5b505050506040513d601f19601f82011682018060405250810190610b4e9190611628565b604051632e1a7d4d60e01b8152600481018290529091507f00000000000000000000000000000000000000000000000000000000000000006001600160a01b031690632e1a7d4d90602401600060405180830381600087803b158015610bb357600080fd5b505af1158015610bc7573d6000803e3d6000fd5b50505050610bd53347611037565b82610c66576040516370a0823160e01b81526000906001600160a01b038616906370a0823190610c099030906004016114c6565b602060405180830381865afa158015610c26573d6000803e3d6000fd5b505050506040513d601f19601f82011682018060405250810190610c4a9190611628565b9050610c606001600160a01b0386163383611002565b50610796565b6040516370a0823160e01b81526000906001600160a01b038716906370a0823190610c959030906004016114c6565b602060405180830381865afa158015610cb2573d6000803e3d6000fd5b505050506040513d601f19601f82011682018060405250810190610cd69190611628565b9050610cec6001600160a01b0387163383611002565b505050505050505050565b6000546001600160a01b03163314610d215760405162461bcd60e51b8152600401610233906115f3565b6001600160a01b038116610d865760405162461bcd60e51b815260206004820152602660248201527f4f776e61626c653a206e6577206f776e657220697320746865207a65726f206160448201526564647265737360d01b6064820152608401610233565b610d8f81610d92565b50565b600080546001600160a01b038381166001600160a01b0319831681178455604051919092169283917f8be0079c531659141344cd1fd0a4f28419497f9722a3daafe3b4186f6b6457e09190a35050565b60405163c661065760e01b8152600060048201819052906001600160a01b0383169063c661065790602401602060405180830381865afa158015610e2a573d6000803e3d6000fd5b505050506040513d601f19601f82011682018060405250810190610e4e9190611641565b60405163c661065760e01b8152600160048201529091506000906001600160a01b0384169063c661065790602401602060405180830381865afa158015610e99573d6000803e3d6000fd5b505050506040513d601f19601f82011682018060405250810190610ebd9190611641565b90506000836001600160a01b031663fc0c546a6040518163ffffffff1660e01b8152600401602060405180830381865afa158015610eff573d6000803e3d6000fd5b505050506040513d601f19601f82011682018060405250810190610f239190611641565b9050610f3b6001600160a01b038416856000196110ea565b610f516001600160a01b038316856000196110ea565b610f676001600160a01b038216856000196110ea565b5050506001600160a01b03166000908152600160208190526040909120805460ff19169091179055565b6040516001600160a01b0380851660248301528316604482015260648101829052610ffc9085906323b872dd60e01b906084015b60408051601f198184030181529190526020810180516001600160e01b03166001600160e01b0319909316929092179091526111ff565b50505050565b6040516001600160a01b03831660248201526044810182905261103290849063a9059cbb60e01b90606401610fc5565b505050565b6000826001600160a01b03166108fc83604051600060405180830381858888f193505050503d8060008114611088576040519150601f19603f3d011682016040523d82523d6000602084013e61108d565b606091505b50509050806110325760405162461bcd60e51b815260206004820152602360248201527f5472616e7366657248656c7065723a20424e425f5452414e534645525f46414960448201526213115160ea1b6064820152608401610233565b8015806111645750604051636eb1769f60e11b81523060048201526001600160a01b03838116602483015284169063dd62ed3e90604401602060405180830381865afa15801561113e573d6000803e3d6000fd5b505050506040513d601f19601f820116820180604052508101906111629190611628565b155b6111cf5760405162461bcd60e51b815260206004820152603660248201527f5361666545524332303a20617070726f76652066726f6d206e6f6e2d7a65726f60448201527520746f206e6f6e2d7a65726f20616c6c6f77616e636560501b6064820152608401610233565b6040516001600160a01b03831660248201526044810182905261103290849063095ea7b360e01b90606401610fc5565b6000611254826040518060400160405280602081526020017f5361666545524332303a206c6f772d6c6576656c2063616c6c206661696c6564815250856001600160a01b03166112d19092919063ffffffff16565b805190915015611032578080602001905181019061127291906116c6565b6110325760405162461bcd60e51b815260206004820152602a60248201527f5361666545524332303a204552433230206f7065726174696f6e20646964206e6044820152691bdd081cdd58d8d9595960b21b6064820152608401610233565b60606112e084846000856112ea565b90505b9392505050565b60608247101561134b5760405162461bcd60e51b815260206004820152602660248201527f416464726573733a20696e73756666696369656e742062616c616e636520666f6044820152651c8818d85b1b60d21b6064820152608401610233565b6001600160a01b0385163b6113a25760405162461bcd60e51b815260206004820152601d60248201527f416464726573733a2063616c6c20746f206e6f6e2d636f6e74726163740000006044820152606401610233565b600080866001600160a01b031685876040516113be919061170f565b60006040518083038185875af1925050503d80600081146113fb576040519150601f19603f3d011682016040523d82523d6000602084013e611400565b606091505b509150915061141082828661141b565b979650505050505050565b6060831561142a5750816112e3565b82511561143a5782518084602001fd5b8160405162461bcd60e51b8152600401610233919061172b565b634e487b7160e01b600052600160045260246000fd5b6001600160a01b0381168114610d8f57600080fd5b8015158114610d8f57600080fd5b600080604083850312156114a057600080fd5b82356114ab8161146a565b915060208301356114bb8161147f565b809150509250929050565b6001600160a01b0391909116815260200190565b6000602082840312156114ec57600080fd5b81356112e38161146a565b600082601f83011261150857600080fd5b6040516040810181811067ffffffffffffffff8211171561153957634e487b7160e01b600052604160045260246000fd5b806040525080604084018581111561155057600080fd5b845b8181101561156a578035835260209283019201611552565b509195945050505050565b60008060006080848603121561158a57600080fd5b83356115958161146a565b92506115a485602086016114f7565b9150606084013590509250925092565b6000806000608084860312156115c957600080fd5b83356115d48161146a565b9250602084013591506115ea85604086016114f7565b90509250925092565b6020808252818101527f4f776e61626c653a2063616c6c6572206973206e6f7420746865206f776e6572604082015260600190565b60006020828403121561163a57600080fd5b5051919050565b60006020828403121561165357600080fd5b81516112e38161146a565b634e487b7160e01b600052603260045260246000fd5b8060005b6002811015610ffc578151845260209384019390910190600101611678565b606081016116a58285611674565b8260408301529392505050565b828152606081016112e36020830184611674565b6000602082840312156116d857600080fd5b81516112e38161147f565b60005b838110156116fe5781810151838201526020016116e6565b83811115610ffc5750506000910152565b600082516117218184602087016116e3565b9190910192915050565b602081526000825180602084015261174a8160408501602087016116e3565b601f01601f1916919091016040019291505056fea2646970667358221220dd6a49bf2473085e93aaf0ccc2688bb8da6e11cf0c9a6d25126817c88c78febd64736f6c634300080a0033",
  "linkReferences": {},
  "deployedLinkReferences": {}
}