{
  "_format": "hh-sol-artifact-1",
  "contractName": "PancakeStableSwapThreePool",
  "sourceName": "contracts/PancakeStableSwapThreePool.sol",
  "abi": [
    {
      "inputs": [],
      "stateMutability": "nonpayable",
      "type": "constructor"
    },
    {
      "anonymous": false,
      "inputs": [
        {
          "indexed": true,
          "internalType": "address",
          "name": "provider",
          "type": "address"
        },
        {
          "indexed": false,
          "internalType": "uint256[3]",
          "name": "token_amounts",
          "type": "uint256[3]"
        },
        {
          "indexed": false,
          "internalType": "uint256[3]",
          "name": "fees",
          "type": "uint256[3]"
        },
        {
          "indexed": false,
          "internalType": "uint256",
          "name": "invariant",
          "type": "uint256"
        },
        {
          "indexed": false,
          "internalType": "uint256",
          "name": "token_supply",
          "type": "uint256"
        }
      ],
      "name": "AddLiquidity",
      "type": "event"
    },
    {
      "anonymous": false,
      "inputs": [
        {
          "indexed": true,
          "internalType": "uint256",
          "name": "deadline",
          "type": "uint256"
        },
        {
          "indexed": false,
          "internalType": "uint256",
          "name": "fee",
          "type": "uint256"
        },
        {
          "indexed": false,
          "internalType": "uint256",
          "name": "admin_fee",
          "type": "uint256"
        }
      ],
      "name": "CommitNewFee",
      "type": "event"
    },
    {
      "anonymous": false,
      "inputs": [],
      "name": "DonateAdminFees",
      "type": "event"
    },
    {
      "anonymous": false,
      "inputs": [],
      "name": "Kill",
      "type": "event"
    },
    {
      "anonymous": false,
      "inputs": [
        {
          "indexed": false,
          "internalType": "uint256",
          "name": "fee",
          "type": "uint256"
        },
        {
          "indexed": false,
          "internalType": "uint256",
          "name": "admin_fee",
          "type": "uint256"
        }
      ],
      "name": "NewFee",
      "type": "event"
    },
    {
      "anonymous": false,
      "inputs": [
        {
          "indexed": true,
          "internalType": "address",
          "name": "previousOwner",
          "type": "address"
        },
        {
          "indexed": true,
          "internalType": "address",
          "name": "newOwner",
          "type": "address"
        }
      ],
      "name": "OwnershipTransferred",
      "type": "event"
    },
    {
      "anonymous": false,
      "inputs": [
        {
          "indexed": false,
          "internalType": "uint256",
          "name": "old_A",
          "type": "uint256"
        },
        {
          "indexed": false,
          "internalType": "uint256",
          "name": "new_A",
          "type": "uint256"
        },
        {
          "indexed": false,
          "internalType": "uint256",
          "name": "initial_time",
          "type": "uint256"
        },
        {
          "indexed": false,
          "internalType": "uint256",
          "name": "future_time",
          "type": "uint256"
        }
      ],
      "name": "RampA",
      "type": "event"
    },
    {
      "anonymous": false,
      "inputs": [
        {
          "indexed": true,
          "internalType": "address",
          "name": "provider",
          "type": "address"
        },
        {
          "indexed": false,
          "internalType": "uint256[3]",
          "name": "token_amounts",
          "type": "uint256[3]"
        },
        {
          "indexed": false,
          "internalType": "uint256[3]",
          "name": "fees",
          "type": "uint256[3]"
        },
        {
          "indexed": false,
          "internalType": "uint256",
          "name": "token_supply",
          "type": "uint256"
        }
      ],
      "name": "RemoveLiquidity",
      "type": "event"
    },
    {
      "anonymous": false,
      "inputs": [
        {
          "indexed": true,
          "internalType": "address",
          "name": "provider",
          "type": "address"
        },
        {
          "indexed": false,
          "internalType": "uint256[3]",
          "name": "token_amounts",
          "type": "uint256[3]"
        },
        {
          "indexed": false,
          "internalType": "uint256[3]",
          "name": "fees",
          "type": "uint256[3]"
        },
        {
          "indexed": false,
          "internalType": "uint256",
          "name": "invariant",
          "type": "uint256"
        },
        {
          "indexed": false,
          "internalType": "uint256",
          "name": "token_supply",
          "type": "uint256"
        }
      ],
      "name": "RemoveLiquidityImbalance",
      "type": "event"
    },
    {
      "anonymous": false,
      "inputs": [
        {
          "indexed": true,
          "internalType": "address",
          "name": "provider",
          "type": "address"
        },
        {
          "indexed": false,
          "internalType": "uint256",
          "name": "index",
          "type": "uint256"
        },
        {
          "indexed": false,
          "internalType": "uint256",
          "name": "token_amount",
          "type": "uint256"
        },
        {
          "indexed": false,
          "internalType": "uint256",
          "name": "coin_amount",
          "type": "uint256"
        }
      ],
      "name": "RemoveLiquidityOne",
      "type": "event"
    },
    {
      "anonymous": false,
      "inputs": [],
      "name": "RevertParameters",
      "type": "event"
    },
    {
      "anonymous": false,
      "inputs": [
        {
          "indexed": false,
          "internalType": "uint256",
          "name": "bnb_gas",
          "type": "uint256"
        }
      ],
      "name": "SetBNBGas",
      "type": "event"
    },
    {
      "anonymous": false,
      "inputs": [
        {
          "indexed": false,
          "internalType": "uint256",
          "name": "A",
          "type": "uint256"
        },
        {
          "indexed": false,
          "internalType": "uint256",
          "name": "t",
          "type": "uint256"
        }
      ],
      "name": "StopRampA",
      "type": "event"
    },
    {
      "anonymous": false,
      "inputs": [
        {
          "indexed": true,
          "internalType": "address",
          "name": "buyer",
          "type": "address"
        },
        {
          "indexed": false,
          "internalType": "uint256",
          "name": "sold_id",
          "type": "uint256"
        },
        {
          "indexed": false,
          "internalType": "uint256",
          "name": "tokens_sold",
          "type": "uint256"
        },
        {
          "indexed": false,
          "internalType": "uint256",
          "name": "bought_id",
          "type": "uint256"
        },
        {
          "indexed": false,
          "internalType": "uint256",
          "name": "tokens_bought",
          "type": "uint256"
        }
      ],
      "name": "TokenExchange",
      "type": "event"
    },
    {
      "anonymous": false,
      "inputs": [],
      "name": "Unkill",
      "type": "event"
    },
    {
      "inputs": [],
      "name": "A",
      "outputs": [
        {
          "internalType": "uint256",
          "name": "",
          "type": "uint256"
        }
      ],
      "stateMutability": "view",
      "type": "function"
    },
    {
      "inputs": [],
      "name": "ADMIN_ACTIONS_DELAY",
      "outputs": [
        {
          "internalType": "uint256",
          "name": "",
          "type": "uint256"
        }
      ],
      "stateMutability": "view",
      "type": "function"
    },
    {
      "inputs": [],
      "name": "FEE_DENOMINATOR",
      "outputs": [
        {
          "internalType": "uint256",
          "name": "",
          "type": "uint256"
        }
      ],
      "stateMutability": "view",
      "type": "function"
    },
    {
      "inputs": [],
      "name": "KILL_DEADLINE_DT",
      "outputs": [
        {
          "internalType": "uint256",
          "name": "",
          "type": "uint256"
        }
      ],
      "stateMutability": "view",
      "type": "function"
    },
    {
      "inputs": [],
      "name": "MAX_A",
      "outputs": [
        {
          "internalType": "uint256",
          "name": "",
          "type": "uint256"
        }
      ],
      "stateMutability": "view",
      "type": "function"
    },
    {
      "inputs": [],
      "name": "MAX_ADMIN_FEE",
      "outputs": [
        {
          "internalType": "uint256",
          "name": "",
          "type": "uint256"
        }
      ],
      "stateMutability": "view",
      "type": "function"
    },
    {
      "inputs": [],
      "name": "MAX_A_CHANGE",
      "outputs": [
        {
          "internalType": "uint256",
          "name": "",
          "type": "uint256"
        }
      ],
      "stateMutability": "view",
      "type": "function"
    },
    {
      "inputs": [],
      "name": "MAX_BNB_GAS",
      "outputs": [
        {
          "internalType": "uint256",
          "name": "",
          "type": "uint256"
        }
      ],
      "stateMutability": "view",
      "type": "function"
    },
    {
      "inputs": [],
      "name": "MAX_DECIMAL",
      "outputs": [
        {
          "internalType": "uint256",
          "name": "",
          "type": "uint256"
        }
      ],
      "stateMutability": "view",
      "type": "function"
    },
    {
      "inputs": [],
      "name": "MAX_FEE",
      "outputs": [
        {
          "internalType": "uint256",
          "name": "",
          "type": "uint256"
        }
      ],
      "stateMutability": "view",
      "type": "function"
    },
    {
      "inputs": [],
      "name": "MIN_BNB_GAS",
      "outputs": [
        {
          "internalType": "uint256",
          "name": "",
          "type": "uint256"
        }
      ],
      "stateMutability": "view",
      "type": "function"
    },
    {
      "inputs": [],
      "name": "MIN_RAMP_TIME",
      "outputs": [
        {
          "internalType": "uint256",
          "name": "",
          "type": "uint256"
        }
      ],
      "stateMutability": "view",
      "type": "function"
    },
    {
      "inputs": [],
      "name": "N_COINS",
      "outputs": [
        {
          "internalType": "uint256",
          "name": "",
          "type": "uint256"
        }
      ],
      "stateMutability": "view",
      "type": "function"
    },
    {
      "inputs": [],
      "name": "PRECISION",
      "outputs": [
        {
          "internalType": "uint256",
          "name": "",
          "type": "uint256"
        }
      ],
      "stateMutability": "view",
      "type": "function"
    },
    {
      "inputs": [
        {
          "internalType": "uint256",
          "name": "",
          "type": "uint256"
        }
      ],
      "name": "PRECISION_MUL",
      "outputs": [
        {
          "internalType": "uint256",
          "name": "",
          "type": "uint256"
        }
      ],
      "stateMutability": "view",
      "type": "function"
    },
    {
      "inputs": [
        {
          "internalType": "uint256",
          "name": "",
          "type": "uint256"
        }
      ],
      "name": "RATES",
      "outputs": [
        {
          "internalType": "uint256",
          "name": "",
          "type": "uint256"
        }
      ],
      "stateMutability": "view",
      "type": "function"
    },
    {
      "inputs": [],
      "name": "STABLESWAP_FACTORY",
      "outputs": [
        {
          "internalType": "address",
          "name": "",
          "type": "address"
        }
      ],
      "stateMutability": "view",
      "type": "function"
    },
    {
      "inputs": [
        {
          "internalType": "uint256[3]",
          "name": "amounts",
          "type": "uint256[3]"
        },
        {
          "internalType": "uint256",
          "name": "min_mint_amount",
          "type": "uint256"
        }
      ],
      "name": "add_liquidity",
      "outputs": [],
      "stateMutability": "payable",
      "type": "function"
    },
    {
      "inputs": [],
      "name": "admin_actions_deadline",
      "outputs": [
        {
          "internalType": "uint256",
          "name": "",
          "type": "uint256"
        }
      ],
      "stateMutability": "view",
      "type": "function"
    },
    {
      "inputs": [
        {
          "internalType": "uint256",
          "name": "i",
          "type": "uint256"
        }
      ],
      "name": "admin_balances",
      "outputs": [
        {
          "internalType": "uint256",
          "name": "",
          "type": "uint256"
        }
      ],
      "stateMutability": "view",
      "type": "function"
    },
    {
      "inputs": [],
      "name": "admin_fee",
      "outputs": [
        {
          "internalType": "uint256",
          "name": "",
          "type": "uint256"
        }
      ],
      "stateMutability": "view",
      "type": "function"
    },
    {
      "inputs": [],
      "name": "apply_new_fee",
      "outputs": [],
      "stateMutability": "nonpayable",
      "type": "function"
    },
    {
      "inputs": [
        {
          "internalType": "uint256",
          "name": "",
          "type": "uint256"
        }
      ],
      "name": "balances",
      "outputs": [
        {
          "internalType": "uint256",
          "name": "",
          "type": "uint256"
        }
      ],
      "stateMutability": "view",
      "type": "function"
    },
    {
      "inputs": [],
      "name": "bnb_gas",
      "outputs": [
        {
          "internalType": "uint256",
          "name": "",
          "type": "uint256"
        }
      ],
      "stateMutability": "view",
      "type": "function"
    },
    {
      "inputs": [
        {
          "internalType": "uint256[3]",
          "name": "amounts",
          "type": "uint256[3]"
        },
        {
          "internalType": "bool",
          "name": "deposit",
          "type": "bool"
        }
      ],
      "name": "calc_token_amount",
      "outputs": [
        {
          "internalType": "uint256",
          "name": "",
          "type": "uint256"
        }
      ],
      "stateMutability": "view",
      "type": "function"
    },
    {
      "inputs": [
        {
          "internalType": "uint256",
          "name": "_token_amount",
          "type": "uint256"
        },
        {
          "internalType": "uint256",
          "name": "i",
          "type": "uint256"
        }
      ],
      "name": "calc_withdraw_one_coin",
      "outputs": [
        {
          "internalType": "uint256",
          "name": "",
          "type": "uint256"
        }
      ],
      "stateMutability": "view",
      "type": "function"
    },
    {
      "inputs": [
        {
          "internalType": "uint256",
          "name": "",
          "type": "uint256"
        }
      ],
      "name": "coins",
      "outputs": [
        {
          "internalType": "address",
          "name": "",
          "type": "address"
        }
      ],
      "stateMutability": "view",
      "type": "function"
    },
    {
      "inputs": [
        {
          "internalType": "uint256",
          "name": "new_fee",
          "type": "uint256"
        },
        {
          "internalType": "uint256",
          "name": "new_admin_fee",
          "type": "uint256"
        }
      ],
      "name": "commit_new_fee",
      "outputs": [],
      "stateMutability": "nonpayable",
      "type": "function"
    },
    {
      "inputs": [],
      "name": "donate_admin_fees",
      "outputs": [],
      "stateMutability": "nonpayable",
      "type": "function"
    },
    {
      "inputs": [
        {
          "internalType": "uint256",
          "name": "i",
          "type": "uint256"
        },
        {
          "internalType": "uint256",
          "name": "j",
          "type": "uint256"
        },
        {
          "internalType": "uint256",
          "name": "dx",
          "type": "uint256"
        },
        {
          "internalType": "uint256",
          "name": "min_dy",
          "type": "uint256"
        }
      ],
      "name": "exchange",
      "outputs": [],
      "stateMutability": "payable",
      "type": "function"
    },
    {
      "inputs": [],
      "name": "fee",
      "outputs": [
        {
          "internalType": "uint256",
          "name": "",
          "type": "uint256"
        }
      ],
      "stateMutability": "view",
      "type": "function"
    },
    {
      "inputs": [],
      "name": "future_A",
      "outputs": [
        {
          "internalType": "uint256",
          "name": "",
          "type": "uint256"
        }
      ],
      "stateMutability": "view",
      "type": "function"
    },
    {
      "inputs": [],
      "name": "future_A_time",
      "outputs": [
        {
          "internalType": "uint256",
          "name": "",
          "type": "uint256"
        }
      ],
      "stateMutability": "view",
      "type": "function"
    },
    {
      "inputs": [],
      "name": "future_admin_fee",
      "outputs": [
        {
          "internalType": "uint256",
          "name": "",
          "type": "uint256"
        }
      ],
      "stateMutability": "view",
      "type": "function"
    },
    {
      "inputs": [],
      "name": "future_fee",
      "outputs": [
        {
          "internalType": "uint256",
          "name": "",
          "type": "uint256"
        }
      ],
      "stateMutability": "view",
      "type": "function"
    },
    {
      "inputs": [
        {
          "internalType": "uint256",
          "name": "i",
          "type": "uint256"
        },
        {
          "internalType": "uint256",
          "name": "j",
          "type": "uint256"
        },
        {
          "internalType": "uint256",
          "name": "dx",
          "type": "uint256"
        }
      ],
      "name": "get_dy",
      "outputs": [
        {
          "internalType": "uint256",
          "name": "",
          "type": "uint256"
        }
      ],
      "stateMutability": "view",
      "type": "function"
    },
    {
      "inputs": [
        {
          "internalType": "uint256",
          "name": "i",
          "type": "uint256"
        },
        {
          "internalType": "uint256",
          "name": "j",
          "type": "uint256"
        },
        {
          "internalType": "uint256",
          "name": "dx",
          "type": "uint256"
        }
      ],
      "name": "get_dy_underlying",
      "outputs": [
        {
          "internalType": "uint256",
          "name": "",
          "type": "uint256"
        }
      ],
      "stateMutability": "view",
      "type": "function"
    },
    {
      "inputs": [],
      "name": "get_virtual_price",
      "outputs": [
        {
          "internalType": "uint256",
          "name": "",
          "type": "uint256"
        }
      ],
      "stateMutability": "view",
      "type": "function"
    },
    {
      "inputs": [],
      "name": "initial_A",
      "outputs": [
        {
          "internalType": "uint256",
          "name": "",
          "type": "uint256"
        }
      ],
      "stateMutability": "view",
      "type": "function"
    },
    {
      "inputs": [],
      "name": "initial_A_time",
      "outputs": [
        {
          "internalType": "uint256",
          "name": "",
          "type": "uint256"
        }
      ],
      "stateMutability": "view",
      "type": "function"
    },
    {
      "inputs": [
        {
          "internalType": "address[3]",
          "name": "_coins",
          "type": "address[3]"
        },
        {
          "internalType": "uint256",
          "name": "_A",
          "type": "uint256"
        },
        {
          "internalType": "uint256",
          "name": "_fee",
          "type": "uint256"
        },
        {
          "internalType": "uint256",
          "name": "_admin_fee",
          "type": "uint256"
        },
        {
          "internalType": "address",
          "name": "_owner",
          "type": "address"
        },
        {
          "internalType": "address",
          "name": "_LP",
          "type": "address"
        }
      ],
      "name": "initialize",
      "outputs": [],
      "stateMutability": "nonpayable",
      "type": "function"
    },
    {
      "inputs": [],
      "name": "isInitialized",
      "outputs": [
        {
          "internalType": "bool",
          "name": "",
          "type": "bool"
        }
      ],
      "stateMutability": "view",
      "type": "function"
    },
    {
      "inputs": [],
      "name": "is_killed",
      "outputs": [
        {
          "internalType": "bool",
          "name": "",
          "type": "bool"
        }
      ],
      "stateMutability": "view",
      "type": "function"
    },
    {
      "inputs": [],
      "name": "kill_deadline",
      "outputs": [
        {
          "internalType": "uint256",
          "name": "",
          "type": "uint256"
        }
      ],
      "stateMutability": "view",
      "type": "function"
    },
    {
      "inputs": [],
      "name": "kill_me",
      "outputs": [],
      "stateMutability": "nonpayable",
      "type": "function"
    },
    {
      "inputs": [],
      "name": "owner",
      "outputs": [
        {
          "internalType": "address",
          "name": "",
          "type": "address"
        }
      ],
      "stateMutability": "view",
      "type": "function"
    },
    {
      "inputs": [
        {
          "internalType": "uint256",
          "name": "_future_A",
          "type": "uint256"
        },
        {
          "internalType": "uint256",
          "name": "_future_time",
          "type": "uint256"
        }
      ],
      "name": "ramp_A",
      "outputs": [],
      "stateMutability": "nonpayable",
      "type": "function"
    },
    {
      "inputs": [
        {
          "internalType": "uint256",
          "name": "_amount",
          "type": "uint256"
        },
        {
          "internalType": "uint256[3]",
          "name": "min_amounts",
          "type": "uint256[3]"
        }
      ],
      "name": "remove_liquidity",
      "outputs": [],
      "stateMutability": "nonpayable",
      "type": "function"
    },
    {
      "inputs": [
        {
          "internalType": "uint256[3]",
          "name": "amounts",
          "type": "uint256[3]"
        },
        {
          "internalType": "uint256",
          "name": "max_burn_amount",
          "type": "uint256"
        }
      ],
      "name": "remove_liquidity_imbalance",
      "outputs": [],
      "stateMutability": "nonpayable",
      "type": "function"
    },
    {
      "inputs": [
        {
          "internalType": "uint256",
          "name": "_token_amount",
          "type": "uint256"
        },
        {
          "internalType": "uint256",
          "name": "i",
          "type": "uint256"
        },
        {
          "internalType": "uint256",
          "name": "min_amount",
          "type": "uint256"
        }
      ],
      "name": "remove_liquidity_one_coin",
      "outputs": [],
      "stateMutability": "nonpayable",
      "type": "function"
    },
    {
      "inputs": [],
      "name": "renounceOwnership",
      "outputs": [],
      "stateMutability": "nonpayable",
      "type": "function"
    },
    {
      "inputs": [],
      "name": "revert_new_parameters",
      "outputs": [],
      "stateMutability": "nonpayable",
      "type": "function"
    },
    {
      "inputs": [
        {
          "internalType": "uint256",
          "name": "_bnb_gas",
          "type": "uint256"
        }
      ],
      "name": "set_bnb_gas",
      "outputs": [],
      "stateMutability": "nonpayable",
      "type": "function"
    },
    {
      "inputs": [],
      "name": "stop_rampget_A",
      "outputs": [],
      "stateMutability": "nonpayable",
      "type": "function"
    },
    {
      "inputs": [],
      "name": "token",
      "outputs": [
        {
          "internalType": "contract IPancakeStableSwapLP",
          "name": "",
          "type": "address"
        }
      ],
      "stateMutability": "view",
      "type": "function"
    },
    {
      "inputs": [
        {
          "internalType": "address",
          "name": "newOwner",
          "type": "address"
        }
      ],
      "name": "transferOwnership",
      "outputs": [],
      "stateMutability": "nonpayable",
      "type": "function"
    },
    {
      "inputs": [],
      "name": "unkill_me",
      "outputs": [],
      "stateMutability": "nonpayable",
      "type": "function"
    },
    {
      "inputs": [],
      "name": "withdraw_admin_fees",
      "outputs": [],
      "stateMutability": "nonpayable",
      "type": "function"
    }
  ],
  "bytecode": "0x60a0604052610fbd6010553480156200001757600080fd5b50620000233362000031565b600180553360805262000081565b600080546001600160a01b038381166001600160a01b0319831681178455604051919092169283917f8be0079c531659141344cd1fd0a4f28419497f9722a3daafe3b4186f6b6457e09190a35050565b608051614974620000a4600039600081816106da01526115fc01526149746000f3fe6080604052600436106103015760003560e01c80637dafa36411610191578063ca8ca154116100e2578063ecb586a511610090578063ecb586a514610837578063edfb780114610857578063f1dc3cc91461086e578063f2fde38b1461088e578063f3de0362146107a6578063f446c1d0146108ae578063fc0c546a146108c3578063fee3f7f9146108e357600080fd5b8063ca8ca15414610791578063d73792a9146107a6578063ddca3f43146107bf578063e2e7d264146107d5578063e3698853146107f5578063e38244621461080a578063e5d9e9031461082057600080fd5b8063a6b0a7181161013f578063a6b0a718146106c8578063aaf5eb68146106fc578063ab5ac06114610718578063b4b577ad1461072d578063bb7b8b8014610743578063bc063e1a14610758578063c66106571461077157600080fd5b80637dafa364146105f657806385f11d1e146106165780638da5cb5b146106365780639a1d6ed3146106585780639c868ac01461066e5780639fdaea0c14610688578063a139c370146106a857600080fd5b80634488ddf0116102565780635409491a116102045780635409491a1461052d578063556d6e9f1461054357806358680d0b146105635780635b41b908146105795780635b5a14671461058c57806362203d74146105ac5780636d4366b7146105cc578063715018a6146105e157600080fd5b80634488ddf01461047a5780634515cef3146104905780634903b0d1146104a35780634eac4835146104c35780634f12fe97146104e35780634fb08c5e146104f8578063524c39011461051857600080fd5b80633046f972116102b35780633046f972146103b457806330c54085146103c95780633883e119146103de578063392e53cd146103fe578063396984151461042d5780633c157e6414610444578063405e28f81461046457600080fd5b806306e9481c1461030657806314052288146103305780632081066c14610346578063226840fb1461035c57806325d2edf01461037357806329357750146103895780632a4268961461039e575b600080fd5b34801561031257600080fd5b5061031d6201518081565b6040519081526020015b60405180910390f35b34801561033c57600080fd5b5061031d60155481565b34801561035257600080fd5b5061031d60145481565b34801561036857600080fd5b506103716108f9565b005b34801561037f57600080fd5b5061031d6159d881565b34801561039557600080fd5b5061031d600381565b3480156103aa57600080fd5b5061031d60195481565b3480156103c057600080fd5b50610371610961565b3480156103d557600080fd5b506103716109c5565b3480156103ea57600080fd5b5061031d6103f9366004614308565b610b49565b34801561040a57600080fd5b50601a5461041d90610100900460ff1681565b6040519015158152602001610327565b34801561043957600080fd5b5061031d620f424081565b34801561045057600080fd5b5061037161045f366004614340565b610d10565b34801561047057600080fd5b5061031d60165481565b34801561048657600080fd5b5061031d60105481565b61037161049e366004614362565b610f1b565b3480156104af57600080fd5b5061031d6104be36600461438d565b611582565b3480156104cf57600080fd5b506103716104de3660046143bd565b611599565b3480156104ef57600080fd5b506103716119d2565b34801561050457600080fd5b5061031d610513366004614340565b611ad7565b34801561052457600080fd5b50610371611aed565b34801561053957600080fd5b5061031d60125481565b34801561054f57600080fd5b5061031d61055e36600461445d565b611c53565b34801561056f57600080fd5b5061031d60175481565b610371610587366004614489565b611d9f565b34801561059857600080fd5b506103716105a7366004614340565b612170565b3480156105b857600080fd5b5061031d6105c736600461438d565b6122ed565b3480156105d857600080fd5b5061031d601281565b3480156105ed57600080fd5b506103716122fd565b34801561060257600080fd5b5061031d61061136600461438d565b612338565b34801561062257600080fd5b5061031d61063136600461445d565b612348565b34801561064257600080fd5b5061064b612426565b60405161032791906144bb565b34801561066457600080fd5b5061031d6108fc81565b34801561067a57600080fd5b50601a5461041d9060ff1681565b34801561069457600080fd5b506103716106a3366004614362565b612435565b3480156106b457600080fd5b506103716106c336600461438d565b612a0f565b3480156106d457600080fd5b5061064b7f000000000000000000000000000000000000000000000000000000000000000081565b34801561070857600080fd5b5061031d670de0b6b3a764000081565b34801561072457600080fd5b5061031d600a81565b34801561073957600080fd5b5061031d60135481565b34801561074f57600080fd5b5061031d612ac8565b34801561076457600080fd5b5061031d64012a05f20081565b34801561077d57600080fd5b5061064b61078c36600461438d565b612b84565b34801561079d57600080fd5b50610371612ba4565b3480156107b257600080fd5b5061031d6402540be40081565b3480156107cb57600080fd5b5061031d600e5481565b3480156107e157600080fd5b5061031d6107f036600461438d565b612c2c565b34801561080157600080fd5b50610371612d2d565b34801561081657600080fd5b5061031d60185481565b34801561082c57600080fd5b5061031d6203f48081565b34801561084357600080fd5b506103716108523660046144cf565b612dd9565b34801561086357600080fd5b5061031d624f1a0081565b34801561087a57600080fd5b5061037161088936600461445d565b61305e565b34801561089a57600080fd5b506103716108a93660046144fc565b613220565b3480156108ba57600080fd5b5061031d6132bd565b3480156108cf57600080fd5b5060115461064b906001600160a01b031681565b3480156108ef57600080fd5b5061031d600f5481565b33610902612426565b6001600160a01b0316146109315760405162461bcd60e51b815260040161092890614517565b60405180910390fd5b600060168190556040517f1b4883af197c705114490f8d84f9ce30bef6a6199f7b7b649e845577cf0769a19190a1565b3361096a612426565b6001600160a01b0316146109905760405162461bcd60e51b815260040161092890614517565b601a805460ff191690556040517f061284ffa2814ace135f62907c78a7cff0f070efe7e6a0a42740ea1da2c8bdc890600090a1565b336109ce612426565b6001600160a01b0316146109f45760405162461bcd60e51b815260040161092890614517565b60005b6003811015610b4657600073eeeeeeeeeeeeeeeeeeeeeeeeeeeeeeeeeeeeeeee60088360038110610a2a57610a2a61454c565b01546001600160a01b03161415610a6157600b8260038110610a4e57610a4e61454c565b0154610a5a9047614578565b9050610b06565b600b8260038110610a7457610a7461454c565b015460088360038110610a8957610a8961454c565b01546040516370a0823160e01b81526001600160a01b03909116906370a0823190610ab89030906004016144bb565b602060405180830381865afa158015610ad5573d6000803e3d6000fd5b505050506040513d601f19601f82011682018060405250810190610af9919061458f565b610b039190614578565b90505b8015610b3357610b3360088360038110610b2257610b2261454c565b01546001600160a01b0316826132cc565b5080610b3e816145a8565b9150506109f7565b50565b604080516060810191829052600091829190600b9060039082845b815481526020019060010190808311610b6457505050505090506000610b88613313565b90506000610b9683836133b4565b905060005b6003811015610c3c578515610bec57868160038110610bbc57610bbc61454c565b6020020151848260038110610bd357610bd361454c565b60200201818151610be491906145c3565b905250610c2a565b868160038110610bfe57610bfe61454c565b6020020151848260038110610c1557610c1561454c565b60200201818151610c269190614578565b9052505b80610c34816145a8565b915050610b9b565b506000610c4984846133b4565b90506000601160009054906101000a90046001600160a01b03166001600160a01b03166318160ddd6040518163ffffffff1660e01b8152600401602060405180830381865afa158015610ca0573d6000803e3d6000fd5b505050506040513d601f19601f82011682018060405250810190610cc4919061458f565b905060008715610cdf57610cd88484614578565b9050610cec565b610ce98385614578565b90505b83610cf783836145db565b610d0191906145fa565b96505050505050505b92915050565b33610d19612426565b6001600160a01b031614610d3f5760405162461bcd60e51b815260040161092890614517565b62015180601454610d5091906145c3565b421015610d915760405162461bcd60e51b815260206004820152600f60248201526e646576203a20746f6f206561726c7960881b6044820152606401610928565b610d9e62015180426145c3565b811015610dbd5760405162461bcd60e51b81526004016109289061461c565b6000610dc7613313565b9050600083118015610ddb5750620f424083105b610e355760405162461bcd60e51b815260206004820152602560248201527f5f6675747572655f41206d757374206265206265747765656e203020616e64206044820152644d41585f4160d81b6064820152608401610928565b808310158015610e4f5750610e4b600a826145db565b8311155b80610e6e57508083108015610e6e575080610e6b600a856145db565b10155b610eba5760405162461bcd60e51b815260206004820152601b60248201527f496c6c6567616c20706172616d65746572205f6675747572655f4100000000006044820152606401610928565b60128190556013839055426014819055601583905560408051838152602081018690528082019290925260608201849052517fa2b71ec6df949300b59aab36b55e189697b750119dd349fcfa8c0f779e83c2549181900360800190a1505050565b60026001541415610f3e5760405162461bcd60e51b81526004016109289061464c565b6002600155601a5460ff1615610f665760405162461bcd60e51b815260040161092890614683565b601154600160a01b900460ff16610f95573415610f955760405162461bcd60e51b8152600401610928906146a3565b610f9d6141be565b6000610fab60016003614578565b610fb69060046145db565b6003600e54610fc591906145db565b610fcf91906145fa565b600f549091506000610fdf613313565b90506000601160009054906101000a90046001600160a01b03166001600160a01b03166318160ddd6040518163ffffffff1660e01b8152600401602060405180830381865afa158015611036573d6000803e3d6000fd5b505050506040513d601f19601f8201168201806040525081019061105a919061458f565b6040805160608101918290529192506000918291600b9060039082845b815481526020019060010190808311611077575050505050905060008311156110a7576110a481856133b4565b91505b60006040518060600160405280836000600381106110c7576110c761454c565b60200201518152602001836001600381106110e4576110e461454c565b60200201518152602001836002600381106111015761110161454c565b60200201519052905060005b60038110156111ed578461118c5760008b826003811061112f5761112f61454c565b60200201511161118c5760405162461bcd60e51b815260206004820152602260248201527f496e697469616c206465706f73697420726571756972657320616c6c20636f696044820152616e7360f01b6064820152608401610928565b8a816003811061119e5761119e61454c565b60200201518382600381106111b5576111b561454c565b60200201516111c491906145c3565b8282600381106111d6576111d661454c565b6020020152806111e5816145a8565b91505061110d565b5060006111fa82876133b4565b905083811161124b5760405162461bcd60e51b815260206004820152601a60248201527f4431206d7573742062652067726561746572207468616e2044300000000000006044820152606401610928565b8085156113f95760005b60038110156113e7576000868683600381106112735761127361454c565b602002015161128290866145db565b61128c91906145fa565b905060008583600381106112a2576112a261454c565b60200201518211156112d6578583600381106112c0576112c061454c565b60200201516112cf9083614578565b90506112fb565b818684600381106112e9576112e961454c565b60200201516112f89190614578565b90505b6402540be40061130b828e6145db565b61131591906145fa565b8d84600381106113275761132761454c565b60200201526402540be4008b8e85600381106113455761134561454c565b602002015161135491906145db565b61135e91906145fa565b8684600381106113705761137061454c565b602002015161137f9190614578565b600b84600381106113925761139261454c565b01558c83600381106113a6576113a661454c565b60200201518684600381106113bd576113bd61454c565b602002018181516113ce9190614578565b9052508291506113df9050816145a8565b915050611255565b506113f283886133b4565b9050611408565b611406600b8460036141dc565b505b600086611416575081611438565b856114218184614578565b61142b90896145db565b61143591906145fa565b90505b8b8110156114585760405162461bcd60e51b8152600401610928906146d2565b60005b60038110156114c05760008e82600381106114785761147861454c565b602002015190506000600883600381106114945761149461454c565b01546001600160a01b031690506114ab81836133c8565b505080806114b8906145a8565b91505061145b565b506011546040516340c10f1960e01b81526001600160a01b03909116906340c10f19906114f39033908590600401614700565b600060405180830381600087803b15801561150d57600080fd5b505af1158015611521573d6000803e3d6000fd5b503392507f423f6495a08fc652425cf4ed0d1f9e37e571d9b9529b1c1c23cce780b2e7df0d91508f90508d86611557868d6145c3565b604051611567949392919061473c565b60405180910390a25050600180555050505050505050505050565b600b816003811061159257600080fd5b0154905081565b601a54610100900460ff16156115f15760405162461bcd60e51b815260206004820152601f60248201527f4f7065726174696f6e733a20416c726561647920696e697469616c697a6564006044820152606401610928565b336001600160a01b037f000000000000000000000000000000000000000000000000000000000000000016146116635760405162461bcd60e51b81526020600482015260176024820152764f7065726174696f6e733a204e6f7420666163746f727960481b6044820152606401610928565b620f42408511156116ab5760405162461bcd60e51b81526020600482015260126024820152715f412065786365656473206d6178696d756d60701b6044820152606401610928565b64012a05f2008411156116f75760405162461bcd60e51b81526020600482015260146024820152735f6665652065786365656473206d6178696d756d60601b6044820152606401610928565b6402540be40083111561174c5760405162461bcd60e51b815260206004820152601a60248201527f5f61646d696e5f6665652065786365656473206d6178696d756d0000000000006044820152606401610928565b601a805461ff00191661010017905560005b600381101561197357600087826003811061177b5761177b61454c565b60200201516001600160a01b031614156117c65760405162461bcd60e51b815260206004820152600c60248201526b5a45524f204164647265737360a01b6044820152606401610928565b600073eeeeeeeeeeeeeeeeeeeeeeeeeeeeeeeeeeeeeeee8883600381106117ef576117ef61454c565b60200201516001600160a01b0316141561181e57506011805460ff60a01b1916600160a01b179055601261189c565b8782600381106118305761183061454c565b60200201516001600160a01b031663313ce5676040518163ffffffff1660e01b8152600401602060405180830381865afa158015611872573d6000803e3d6000fd5b505050506040513d601f19601f82011682018060405250810190611896919061476a565b60ff1690505b60128111156118f95760405162461bcd60e51b8152602060048201526024808201527f546865206d6178696d756d20646563696d616c2063616e6e6f742065786365656044820152630c84062760e31b6064820152608401610928565b611904816012614578565b61190f90600a614871565b600283600381106119225761192261454c565b0155600282600381106119375761193761454c565b015461194b90670de0b6b3a76400006145db565b6005836003811061195e5761195e61454c565b0155508061196b816145a8565b91505061175e565b506119816008876003614216565b5060128590556013859055600e849055600f8390556119a3624f1a00426145c3565b601955601180546001600160a01b0319166001600160a01b0383161790556119ca82613220565b505050505050565b336119db612426565b6001600160a01b031614611a015760405162461bcd60e51b815260040161092890614517565b601654421015611a235760405162461bcd60e51b81526004016109289061461c565b601654611a815760405162461bcd60e51b815260206004820152602660248201527f61646d696e5f616374696f6e735f646561646c696e652073686f756c64206e6f60448201526507420626520360d41b6064820152608401610928565b6000601655601754600e819055601854600f8190556040517fbe12859b636aed607d5230b2cc2711f68d70e51060e6cca1f575ef5d2fcc95d192611acd92908252602082015260400190565b60405180910390a1565b600080611ae48484613421565b50949350505050565b33611af6612426565b6001600160a01b031614611b1c5760405162461bcd60e51b815260040161092890614517565b60005b6003811015611c275773eeeeeeeeeeeeeeeeeeeeeeeeeeeeeeeeeeeeeeee60088260038110611b5057611b5061454c565b01546001600160a01b03161415611b7c5747600b8260038110611b7557611b7561454c565b0155611c15565b60088160038110611b8f57611b8f61454c565b01546040516370a0823160e01b81526001600160a01b03909116906370a0823190611bbe9030906004016144bb565b602060405180830381865afa158015611bdb573d6000803e3d6000fd5b505050506040513d601f19601f82011682018060405250810190611bff919061458f565b600b8260038110611c1257611c1261454c565b01555b80611c1f816145a8565b915050611b1f565b506040517f2c7203581ca666b8c5094c11c03f0b19b3750234a9d281bcbc88a260bcb006de90600090a1565b60408051606081019182905260009182919060059060039082845b815481526020019060010190808311611c6e57505050505090506000611c92613723565b90506000670de0b6b3a7640000838860038110611cb157611cb161454c565b6020020151611cc090876145db565b611cca91906145fa565b828860038110611cdc57611cdc61454c565b6020020151611ceb91906145c3565b90506000611cfb888884866137dd565b90506000848860038110611d1157611d1161454c565b6020020151670de0b6b3a7640000600184878c60038110611d3457611d3461454c565b6020020151611d439190614578565b611d4d9190614578565b611d5791906145db565b611d6191906145fa565b905060006402540be40082600e54611d7991906145db565b611d8391906145fa565b9050611d8f8183614578565b96505050505050505b9392505050565b60026001541415611dc25760405162461bcd60e51b81526004016109289061464c565b6002600155601a5460ff1615611dea5760405162461bcd60e51b815260040161092890614683565b601154600160a01b900460ff16611e19573415611e195760405162461bcd60e51b8152600401610928906146a3565b604080516060810191829052600091600b9060039082845b815481526020019060010190808311611e3157505050505090506000611e56826139d9565b90506000670de0b6b3a764000060058860038110611e7657611e7661454c565b0154611e8290876145db565b611e8c91906145fa565b828860038110611e9e57611e9e61454c565b6020020151611ead91906145c3565b90506000611ebd888884866137dd565b90506000600182858a60038110611ed657611ed661454c565b6020020151611ee59190614578565b611eef9190614578565b905060006402540be400600e5483611f0791906145db565b611f1191906145fa565b905060058960038110611f2657611f2661454c565b0154670de0b6b3a7640000611f3b8385614578565b611f4591906145db565b611f4f91906145fa565b915086821015611fb85760405162461bcd60e51b815260206004820152602e60248201527f45786368616e676520726573756c74656420696e20666577657220636f696e7360448201526d081d1a185b88195e1c1958dd195960921b6064820152608401610928565b60006402540be400600f5483611fce91906145db565b611fd891906145fa565b905060058a60038110611fed57611fed61454c565b0154612001670de0b6b3a7640000836145db565b61200b91906145fa565b905088878c600381106120205761202061454c565b602002015161202f91906145c3565b600b8c600381106120425761204261454c565b01558083888c600381106120585761205861454c565b60200201516120679190614578565b6120719190614578565b600b8b600381106120845761208461454c565b0155600060088c6003811061209b5761209b61454c565b01546001600160a01b0316905073eeeeeeeeeeeeeeeeeeeeeeeeeeeeeeeeeeeeeeee8114156120e857348a146120e35760405162461bcd60e51b8152600401610928906146a3565b6120fd565b6120fd6001600160a01b03821633308d613a97565b600060088c600381106121125761211261454c565b01546001600160a01b0316905061212981866132cc565b604080518e8152602081018d90529081018d90526060810186905233907fb2e76ae99761dc136e598d4a629bb347eccb9532a5f8bbd72e18467c3c34cc9890608001611567565b33612179612426565b6001600160a01b03161461219f5760405162461bcd60e51b815260040161092890614517565b601654156121ef5760405162461bcd60e51b815260206004820181905260248201527f61646d696e5f616374696f6e735f646561646c696e65206d75737420626520306044820152606401610928565b64012a05f20082111561223f5760405162461bcd60e51b81526020600482015260186024820152776465763a206665652065786365656473206d6178696d756d60401b6044820152606401610928565b6402540be4008111156122945760405162461bcd60e51b815260206004820152601e60248201527f6465763a2061646d696e206665652065786365656473206d6178696d756d00006044820152606401610928565b6122a16203f480426145c3565b60168190556017839055601882905560408051848152602081018490527f351fc5da2fbf480f2225debf3664a4bc90fa9923743aad58b4603f648e931fe0910160405180910390a25050565b6005816003811061159257600080fd5b33612306612426565b6001600160a01b03161461232c5760405162461bcd60e51b815260040161092890614517565b6123366000613b08565b565b6002816003811061159257600080fd5b600080612353613723565b6040805160608101918290529192506000919060029060039082845b81548152602001906001019080831161236f5750505050509050600081876003811061239d5761239d61454c565b60200201516123ac90866145db565b8388600381106123be576123be61454c565b60200201516123cd91906145c3565b905060006123dd888884876137dd565b905060008388600381106123f3576123f361454c565b6020020151600183878b6003811061240d5761240d61454c565b602002015161241c9190614578565b611d579190614578565b6000546001600160a01b031690565b600260015414156124585760405162461bcd60e51b81526004016109289061464c565b6002600155601a5460ff16156124805760405162461bcd60e51b815260040161092890614683565b601154604080516318160ddd60e01b815290516000926001600160a01b0316916318160ddd9160048083019260209291908290030181865afa1580156124ca573d6000803e3d6000fd5b505050506040513d601f19601f820116820180604052508101906124ee919061458f565b9050600081116125395760405162461bcd60e51b81526020600482015260166024820152756465763a207a65726f20746f74616c20737570706c7960501b6044820152606401610928565b600061254760016003614578565b6125529060046145db565b6003600e5461256191906145db565b61256b91906145fa565b600f54909150600061257b613313565b60408051606081019182905291925060009190600b9060039082845b815481526020019060010190808311612597575050505050905060006040518060600160405280836000600381106125d1576125d161454c565b60200201518152602001836001600381106125ee576125ee61454c565b602002015181526020018360026003811061260b5761260b61454c565b602002015190529050600061262083856133b4565b905060005b600381101561267d578981600381106126405761264061454c565b60200201518382600381106126575761265761454c565b602002018181516126689190614578565b90525080612675816145a8565b915050612625565b50600061268a83866133b4565b90506126946141be565b60005b6003811015612829576000848783600381106126b5576126b561454c565b60200201516126c490866145db565b6126ce91906145fa565b905060008683600381106126e4576126e461454c565b6020020151821115612718578683600381106127025761270261454c565b60200201516127119083614578565b905061273d565b8187846003811061272b5761272b61454c565b602002015161273a9190614578565b90505b6402540be40061274d828d6145db565b61275791906145fa565b8484600381106127695761276961454c565b60200201526402540be4008a8585600381106127875761278761454c565b602002015161279691906145db565b6127a091906145fa565b8784600381106127b2576127b261454c565b60200201516127c19190614578565b600b84600381106127d4576127d461454c565b01558383600381106127e8576127e861454c565b60200201518784600381106127ff576127ff61454c565b602002018181516128109190614578565b9052508291506128219050816145a8565b915050612697565b50600061283685886133b4565b90506000848b6128468483614578565b61285091906145db565b61285a91906145fa565b9050600081116128b85760405162461bcd60e51b815260206004820152602360248201527f746f6b656e5f616d6f756e74206d75737420626520677265617465722074686160448201526206e20360ec1b6064820152608401610928565b6128c36001826145c3565b90508b8111156128e55760405162461bcd60e51b8152600401610928906146d2565b60115460405163079cc67960e41b81526001600160a01b03909116906379cc6790906129179033908590600401614700565b600060405180830381600087803b15801561293157600080fd5b505af1158015612945573d6000803e3d6000fd5b5050505060005b60038110156129c35760008e82600381106129695761296961454c565b602002015111156129b1576129b16008826003811061298a5761298a61454c565b01546001600160a01b03168f83600381106129a7576129a761454c565b60200201516132cc565b806129bb816145a8565b91505061294c565b506129ce818c614578565b9a50336001600160a01b03167f173599dbf9c6ca6f7c3b590df07ae98a45d74ff54065505141e7de6c46a624c28e85878f604051611567949392919061473c565b33612a18612426565b6001600160a01b031614612a3e5760405162461bcd60e51b815260040161092890614517565b6108fc8110158015612a5257506159d88111155b612a8c5760405162461bcd60e51b815260206004820152600b60248201526a496c6c6567616c2067617360a81b6044820152606401610928565b60108190556040518181527f320c5e7159406866d39a81979ca1c22276b644dfcfd52ee1f335ee467ad0ec67906020015b60405180910390a150565b600080612ae3612ad6613723565b612ade613313565b613b58565b90506000601160009054906101000a90046001600160a01b03166001600160a01b03166318160ddd6040518163ffffffff1660e01b8152600401602060405180830381865afa158015612b3a573d6000803e3d6000fd5b505050506040513d601f19601f82011682018060405250810190612b5e919061458f565b905080612b73670de0b6b3a7640000846145db565b612b7d91906145fa565b9250505090565b60088160038110612b9457600080fd5b01546001600160a01b0316905081565b33612bad612426565b6001600160a01b031614612bd35760405162461bcd60e51b815260040161092890614517565b6000612bdd613313565b6012819055601381905542601481905560158190556040519192507f46e22fb3709ad289f62ce63d469248536dbc78d82b84a3d7e74ad606dc20193891612abd91848252602082015260400190565b600073eeeeeeeeeeeeeeeeeeeeeeeeeeeeeeeeeeeeeeee60088360038110612c5657612c5661454c565b01546001600160a01b03161415612c8657600b8260038110612c7a57612c7a61454c565b0154610d0a9047614578565b600b8260038110612c9957612c9961454c565b015460088360038110612cae57612cae61454c565b01546040516370a0823160e01b81526001600160a01b03909116906370a0823190612cdd9030906004016144bb565b602060405180830381865afa158015612cfa573d6000803e3d6000fd5b505050506040513d601f19601f82011682018060405250810190612d1e919061458f565b610d0a9190614578565b919050565b33612d36612426565b6001600160a01b031614612d5c5760405162461bcd60e51b815260040161092890614517565b4260195411612da15760405162461bcd60e51b8152602060048201526011602482015270457863656564656420646561646c696e6560781b6044820152606401610928565b601a805460ff191660011790556040517fbe26733c2bf6ff3ea5ba8cfe744422bd49052ff9ed5685c9e81e6f9321dbaddd90600090a1565b60026001541415612dfc5760405162461bcd60e51b81526004016109289061464c565b6002600155601154604080516318160ddd60e01b815290516000926001600160a01b0316916318160ddd9160048083019260209291908290030181865afa158015612e4b573d6000803e3d6000fd5b505050506040513d601f19601f82011682018060405250810190612e6f919061458f565b9050612e796141be565b612e816141be565b60005b6003811015612fa65760008487600b8460038110612ea457612ea461454c565b0154612eb091906145db565b612eba91906145fa565b9050858260038110612ece57612ece61454c565b6020020151811015612f3b5760405162461bcd60e51b815260206004820152603060248201527f5769746864726177616c20726573756c74656420696e20666577657220636f6960448201526f1b9cc81d1a185b88195e1c1958dd195960821b6064820152608401610928565b80600b8360038110612f4f57612f4f61454c565b016000828254612f5f9190614578565b90915550819050848360038110612f7857612f7861454c565b6020020152612f9360088360038110610b2257610b2261454c565b5080612f9e816145a8565b915050612e84565b5060115460405163079cc67960e41b81526001600160a01b03909116906379cc679090612fd99033908990600401614700565b600060405180830381600087803b158015612ff357600080fd5b505af1158015613007573d6000803e3d6000fd5b503392507fa49d4cf02656aebf8c771f5a8585638a2a15ee6c97cf7205d4208ed7c1df252d91508490508361303c8988614578565b60405161304b9392919061487d565b60405180910390a2505060018055505050565b600260015414156130815760405162461bcd60e51b81526004016109289061464c565b6002600155601a5460ff16156130a95760405162461bcd60e51b815260040161092890614683565b6000806130b68585613421565b91509150828210156131055760405162461bcd60e51b8152602060048201526018602482015277139bdd08195b9bdd59da0818dbda5b9cc81c995b5bdd995960421b6044820152606401610928565b6402540be400600f548261311991906145db565b61312391906145fa565b61312d90836145c3565b600b85600381106131405761314061454c565b0160008282546131509190614578565b909155505060115460405163079cc67960e41b81526001600160a01b03909116906379cc6790906131879033908990600401614700565b600060405180830381600087803b1580156131a157600080fd5b505af11580156131b5573d6000803e3d6000fd5b505050506131e0600885600381106131cf576131cf61454c565b01546001600160a01b0316836132cc565b604080518581526020810187905290810183905233907f5ad056f2e28a8cec232015406b843668c1e36cda598127ec3b8c59b8c72773a09060600161304b565b33613229612426565b6001600160a01b03161461324f5760405162461bcd60e51b815260040161092890614517565b6001600160a01b0381166132b45760405162461bcd60e51b815260206004820152602660248201527f4f776e61626c653a206e6577206f776e657220697320746865207a65726f206160448201526564647265737360d01b6064820152608401610928565b610b4681613b08565b60006132c7613313565b905090565b6001600160a01b03821673eeeeeeeeeeeeeeeeeeeeeeeeeeeeeeeeeeeeeeee14156132ff576132fb3382613cee565b5050565b6132fb6001600160a01b0383163383613d91565b6015546013546000919042821115610d0a57601254601454818311156133785761333d8185614578565b6133478242614578565b6133518486614578565b61335b91906145db565b61336591906145fa565b61336f90836145c3565b94505050505090565b6133828185614578565b61338c8242614578565b6133968585614578565b6133a091906145db565b6133aa91906145fa565b61336f9083614578565b6000611d986133c2846139d9565b83613b58565b6001600160a01b03821673eeeeeeeeeeeeeeeeeeeeeeeeeeeeeeeeeeeeeeee141561340c573481146132fb5760405162461bcd60e51b8152600401610928906146a3565b6132fb6001600160a01b038316333084613a97565b600080600061342e613313565b9050600061343e60016003614578565b6134499060046145db565b6003600e5461345891906145db565b61346291906145fa565b6040805160608101918290529192506000919060029060039082845b81548152602001906001019080831161347e57505050505090506000601160009054906101000a90046001600160a01b03166001600160a01b03166318160ddd6040518163ffffffff1660e01b8152600401602060405180830381865afa1580156134ed573d6000803e3d6000fd5b505050506040513d601f19601f82011682018060405250810190613511919061458f565b9050600061351d613723565b9050600061352b8287613b58565b905060008361353a838d6145db565b61354491906145fa565b61354e9083614578565b905082600061355f898d8486613db0565b90506000878d600381106135755761357561454c565b602002015182878f6003811061358d5761358d61454c565b602002015161359c9190614578565b6135a691906145fa565b905060005b60038110156136a25760008e8214156135fd578387878a85600381106135d3576135d361454c565b60200201516135e291906145db565b6135ec91906145fa565b6135f69190614578565b905061364e565b86868984600381106136115761361161454c565b602002015161362091906145db565b61362a91906145fa565b88836003811061363c5761363c61454c565b602002015161364b9190614578565b90505b6402540be40061365e828d6145db565b61366891906145fa565b85836003811061367a5761367a61454c565b6020020181815161368b9190614578565b90525081905061369a816145a8565b9150506135ab565b5060006136b18b8f8688613db0565b848f600381106136c3576136c361454c565b60200201516136d29190614578565b9050888e600381106136e6576136e661454c565b60200201516136f6600183614578565b61370091906145fa565b90508061370d8184614578565b9c509c5050505050505050505050509250929050565b61372b6141be565b6040805160608101918290529060059060039082845b815481526020019060010190808311613741575050505050905060005b60038110156137d957670de0b6b3a7640000600b82600381106137835761378361454c565b01548383600381106137975761379761454c565b60200201516137a691906145db565b6137b091906145fa565b8282600381106137c2576137c261454c565b6020020152806137d1816145a8565b91505061375e565b5090565b60008385141580156137ef5750600385105b80156137fb5750600384105b61383b5760405162461bcd60e51b815260206004820152601160248201527024b63632b3b0b6103830b930b6b2ba32b960791b6044820152606401610928565b6000613845613313565b905060006138538483613b58565b9050806000806138646003866145db565b90506000805b60038110156138ed578b811415613883578991506138ad565b8a81146138a85788816003811061389c5761389c61454c565b602002015191506138ad565b6138db565b6138b782856145c3565b93506138c46003836145db565b6138ce87876145db565b6138d891906145fa565b94505b806138e5816145a8565b91505061386a565b506138f96003836145db565b61390386866145db565b61390d91906145fa565b9350600061391b83876145fa565b61392590856145c3565b9050600086815b60ff8110156139c757819250888483600261394791906145db565b61395191906145c3565b61395b9190614578565b8861396684806145db565b61397091906145c3565b61397a91906145fa565b91508282111561399f5760016139908484614578565b1161399a576139c7565b6139b5565b60016139ab8385614578565b116139b5576139c7565b806139bf816145a8565b91505061392c565b509d9c50505050505050505050505050565b6139e16141be565b6040805160608101918290529060059060039082845b8154815260200190600101908083116139f7575050505050905060005b6003811015613a9157670de0b6b3a7640000838260038110613a3857613a3861454c565b6020020151838360038110613a4f57613a4f61454c565b6020020151613a5e91906145db565b613a6891906145fa565b828260038110613a7a57613a7a61454c565b602002015280613a89816145a8565b915050613a14565b50919050565b6040516001600160a01b0380851660248301528316604482015260648101829052613b029085906323b872dd60e01b906084015b60408051601f198184030181529190526020810180516001600160e01b03166001600160e01b031990931692909217909152613f6b565b50505050565b600080546001600160a01b038381166001600160a01b0319831681178455604051919092169283917f8be0079c531659141344cd1fd0a4f28419497f9722a3daafe3b4186f6b6457e09190a35050565b60008060005b6003811015613b9c57848160038110613b7957613b7961454c565b6020020151613b8890836145c3565b915080613b94816145a8565b915050613b5e565b5080613bac576000915050610d0a565b60008181613bbb6003876145db565b905060005b60ff811015613ce2578260005b6003811015613c215760038a8260038110613bea57613bea61454c565b6020020151613bf991906145db565b613c0386846145db565b613c0d91906145fa565b915080613c19816145a8565b915050613bcd565b508394508060036001613c3491906145c3565b613c3e91906145db565b84613c4a600186614578565b613c5491906145db565b613c5e91906145c3565b84613c6a6003846145db565b613c7489876145db565b613c7e91906145c3565b613c8891906145db565b613c9291906145fa565b935084841115613cb8576001613ca88686614578565b11613cb35750613ce2565b613ccf565b6001613cc48587614578565b11613ccf5750613ce2565b5080613cda816145a8565b915050613bc0565b50909695505050505050565b6000826001600160a01b031660105483604051600060405180830381858888f193505050503d8060008114613d3f576040519150601f19603f3d011682016040523d82523d6000602084013e613d44565b606091505b5050905080613d8c5760405162461bcd60e51b815260206004820152601460248201527311d25315081d1c985b9cd9995c8819985a5b195960621b6044820152606401610928565b505050565b613d8c8363a9059cbb60e01b8484604051602401613acb929190614700565b600060038410613df95760405162461bcd60e51b81526020600482015260146024820152736465763a20692061626f7665204e5f434f494e5360601b6044820152606401610928565b81600080613e086003896145db565b90506000805b6003811015613e8157888114613e3c57878160038110613e3057613e3061454c565b60200201519150613e41565b613e6f565b613e4b82856145c3565b9350613e586003836145db565b613e6288876145db565b613e6c91906145fa565b94505b80613e79816145a8565b915050613e0e565b50613e8d6003836145db565b613e9787866145db565b613ea191906145fa565b93506000613eaf83886145fa565b613eb990856145c3565b9050600087815b60ff811015613f5b578192508984836002613edb91906145db565b613ee591906145c3565b613eef9190614578565b88613efa84806145db565b613f0491906145c3565b613f0e91906145fa565b915082821115613f33576001613f248484614578565b11613f2e57613f5b565b613f49565b6001613f3f8385614578565b11613f4957613f5b565b80613f53816145a8565b915050613ec0565b509b9a5050505050505050505050565b6000613fc0826040518060400160405280602081526020017f5361666545524332303a206c6f772d6c6576656c2063616c6c206661696c6564815250856001600160a01b031661403d9092919063ffffffff16565b805190915015613d8c5780806020019051810190613fde91906148a6565b613d8c5760405162461bcd60e51b815260206004820152602a60248201527f5361666545524332303a204552433230206f7065726174696f6e20646964206e6044820152691bdd081cdd58d8d9595960b21b6064820152608401610928565b606061404c8484600085614054565b949350505050565b6060824710156140b55760405162461bcd60e51b815260206004820152602660248201527f416464726573733a20696e73756666696369656e742062616c616e636520666f6044820152651c8818d85b1b60d21b6064820152608401610928565b6001600160a01b0385163b61410c5760405162461bcd60e51b815260206004820152601d60248201527f416464726573733a2063616c6c20746f206e6f6e2d636f6e74726163740000006044820152606401610928565b600080866001600160a01b0316858760405161412891906148ef565b60006040518083038185875af1925050503d8060008114614165576040519150601f19603f3d011682016040523d82523d6000602084013e61416a565b606091505b509150915061417a828286614185565b979650505050505050565b60608315614194575081611d98565b8251156141a45782518084602001fd5b8160405162461bcd60e51b8152600401610928919061490b565b60405180606001604052806003906020820280368337509192915050565b826003810192821561420a579160200282015b8281111561420a5782518255916020019190600101906141ef565b506137d992915061425e565b826003810192821561420a579160200282015b8281111561420a57825182546001600160a01b0319166001600160a01b03909116178255602090920191600190910190614229565b5b808211156137d9576000815560010161425f565b6040516060810167ffffffffffffffff811182821017156142a457634e487b7160e01b600052604160045260246000fd5b60405290565b600082601f8301126142bb57600080fd5b6142c3614273565b8060608401858111156142d557600080fd5b845b818110156142ef5780358452602093840193016142d7565b509095945050505050565b8015158114610b4657600080fd5b6000806080838503121561431b57600080fd5b61432584846142aa565b91506060830135614335816142fa565b809150509250929050565b6000806040838503121561435357600080fd5b50508035926020909101359150565b6000806080838503121561437557600080fd5b61437f84846142aa565b946060939093013593505050565b60006020828403121561439f57600080fd5b5035919050565b80356001600160a01b0381168114612d2857600080fd5b60008060008060008061010087890312156143d757600080fd5b87601f8801126143e657600080fd5b6143ee614273565b80606089018a81111561440057600080fd5b895b8181101561442157614413816143a6565b845260209384019301614402565b50909750359550506080870135935060a0870135925061444360c088016143a6565b915061445160e088016143a6565b90509295509295509295565b60008060006060848603121561447257600080fd5b505081359360208301359350604090920135919050565b6000806000806080858703121561449f57600080fd5b5050823594602084013594506040840135936060013592509050565b6001600160a01b0391909116815260200190565b600080608083850312156144e257600080fd5b823591506144f384602085016142aa565b90509250929050565b60006020828403121561450e57600080fd5b611d98826143a6565b6020808252818101527f4f776e61626c653a2063616c6c6572206973206e6f7420746865206f776e6572604082015260600190565b634e487b7160e01b600052603260045260246000fd5b634e487b7160e01b600052601160045260246000fd5b60008282101561458a5761458a614562565b500390565b6000602082840312156145a157600080fd5b5051919050565b60006000198214156145bc576145bc614562565b5060010190565b600082198211156145d6576145d6614562565b500190565b60008160001904831182151516156145f5576145f5614562565b500290565b60008261461757634e487b7160e01b600052601260045260246000fd5b500490565b6020808252601690820152756465763a20696e73756666696369656e742074696d6560501b604082015260600190565b6020808252601f908201527f5265656e7472616e637947756172643a207265656e7472616e742063616c6c00604082015260600190565b60208082526006908201526512da5b1b195960d21b604082015260600190565b602080825260159082015274496e636f6e73697374656e74207175616e7469747960581b604082015260600190565b602080825260149082015273536c697070616765207363726577656420796f7560601b604082015260600190565b6001600160a01b03929092168252602082015260400190565b8060005b6003811015613b0257815184526020938401939091019060010161471d565b610100810161474b8287614719565b6147586060830186614719565b60c082019390935260e0015292915050565b60006020828403121561477c57600080fd5b815160ff81168114611d9857600080fd5b600181815b808511156147c85781600019048211156147ae576147ae614562565b808516156147bb57918102915b93841c9390800290614792565b509250929050565b6000826147df57506001610d0a565b816147ec57506000610d0a565b8160018114614802576002811461480c57614828565b6001915050610d0a565b60ff84111561481d5761481d614562565b50506001821b610d0a565b5060208310610133831016604e8410600b841016171561484b575081810a610d0a565b614855838361478d565b806000190482111561486957614869614562565b029392505050565b6000611d9883836147d0565b60e0810161488b8286614719565b6148986060830185614719565b8260c0830152949350505050565b6000602082840312156148b857600080fd5b8151611d98816142fa565b60005b838110156148de5781810151838201526020016148c6565b83811115613b025750506000910152565b600082516149018184602087016148c3565b9190910192915050565b602081526000825180602084015261492a8160408501602087016148c3565b601f01601f1916919091016040019291505056fea264697066735822122076b9f7414a85d5dc9599f7a9b18b1afd277b3491edf13434bf3c801efa0c8a9464736f6c634300080a0033",
  "linkReferences": {},
  "deployedLinkReferences": {}
}