{
  "_format": "hh-sol-artifact-1",
  "contractName": "WGOLDRouteToken",
  "sourceName": "contracts/WGOLDRouteToken.sol",
  "abi": [
    {
      "inputs": [
        {
          "internalType": "address",
          "name": "wrappedGold_",
          "type": "address"
        },
        {
          "internalType": "uint256",
          "name": "routeTokenId_",
          "type": "uint256"
        },
        {
          "internalType": "string",
          "name": "name_",
          "type": "string"
        },
        {
          "internalType": "string",
          "name": "symbol_",
          "type": "string"
        }
      ],
      "stateMutability": "nonpayable",
      "type": "constructor"
    },
    {
      "anonymous": false,
      "inputs": [
        {
          "indexed": true,
          "internalType": "address",
          "name": "owner",
          "type": "address"
        },
        {
          "indexed": true,
          "internalType": "address",
          "name": "spender",
          "type": "address"
        },
        {
          "indexed": false,
          "internalType": "uint256",
          "name": "value",
          "type": "uint256"
        }
      ],
      "name": "Approval",
      "type": "event"
    },
    {
      "anonymous": false,
      "inputs": [
        {
          "indexed": true,
          "internalType": "address",
          "name": "from",
          "type": "address"
        },
        {
          "indexed": true,
          "internalType": "address",
          "name": "to",
          "type": "address"
        },
        {
          "indexed": false,
          "internalType": "uint256",
          "name": "value",
          "type": "uint256"
        }
      ],
      "name": "Transfer",
      "type": "event"
    },
    {
      "anonymous": false,
      "inputs": [
        {
          "indexed": true,
          "internalType": "address",
          "name": "account",
          "type": "address"
        },
        {
          "indexed": true,
          "internalType": "uint256",
          "name": "tokenId",
          "type": "uint256"
        },
        {
          "indexed": false,
          "internalType": "uint256",
          "name": "amount",
          "type": "uint256"
        }
      ],
      "name": "UnwrappedRoute",
      "type": "event"
    },
    {
      "anonymous": false,
      "inputs": [
        {
          "indexed": true,
          "internalType": "address",
          "name": "account",
          "type": "address"
        },
        {
          "indexed": true,
          "internalType": "uint256",
          "name": "tokenId",
          "type": "uint256"
        },
        {
          "indexed": false,
          "internalType": "uint256",
          "name": "amount",
          "type": "uint256"
        }
      ],
      "name": "WrappedRoute",
      "type": "event"
    },
    {
      "inputs": [
        {
          "internalType": "address",
          "name": "owner",
          "type": "address"
        },
        {
          "internalType": "address",
          "name": "spender",
          "type": "address"
        }
      ],
      "name": "allowance",
      "outputs": [
        {
          "internalType": "uint256",
          "name": "",
          "type": "uint256"
        }
      ],
      "stateMutability": "view",
      "type": "function"
    },
    {
      "inputs": [
        {
          "internalType": "address",
          "name": "spender",
          "type": "address"
        },
        {
          "internalType": "uint256",
          "name": "amount",
          "type": "uint256"
        }
      ],
      "name": "approve",
      "outputs": [
        {
          "internalType": "bool",
          "name": "",
          "type": "bool"
        }
      ],
      "stateMutability": "nonpayable",
      "type": "function"
    },
    {
      "inputs": [
        {
          "internalType": "address",
          "name": "account",
          "type": "address"
        }
      ],
      "name": "balanceOf",
      "outputs": [
        {
          "internalType": "uint256",
          "name": "",
          "type": "uint256"
        }
      ],
      "stateMutability": "view",
      "type": "function"
    },
    {
      "inputs": [],
      "name": "decimals",
      "outputs": [
        {
          "internalType": "uint8",
          "name": "",
          "type": "uint8"
        }
      ],
      "stateMutability": "view",
      "type": "function"
    },
    {
      "inputs": [
        {
          "internalType": "address",
          "name": "spender",
          "type": "address"
        },
        {
          "internalType": "uint256",
          "name": "subtractedValue",
          "type": "uint256"
        }
      ],
      "name": "decreaseAllowance",
      "outputs": [
        {
          "internalType": "bool",
          "name": "",
          "type": "bool"
        }
      ],
      "stateMutability": "nonpayable",
      "type": "function"
    },
    {
      "inputs": [
        {
          "internalType": "address",
          "name": "spender",
          "type": "address"
        },
        {
          "internalType": "uint256",
          "name": "addedValue",
          "type": "uint256"
        }
      ],
      "name": "increaseAllowance",
      "outputs": [
        {
          "internalType": "bool",
          "name": "",
          "type": "bool"
        }
      ],
      "stateMutability": "nonpayable",
      "type": "function"
    },
    {
      "inputs": [],
      "name": "name",
      "outputs": [
        {
          "internalType": "string",
          "name": "",
          "type": "string"
        }
      ],
      "stateMutability": "view",
      "type": "function"
    },
    {
      "inputs": [
        {
          "internalType": "address",
          "name": "",
          "type": "address"
        },
        {
          "internalType": "address",
          "name": "",
          "type": "address"
        },
        {
          "internalType": "uint256[]",
          "name": "",
          "type": "uint256[]"
        },
        {
          "internalType": "uint256[]",
          "name": "",
          "type": "uint256[]"
        },
        {
          "internalType": "bytes",
          "name": "",
          "type": "bytes"
        }
      ],
      "name": "onERC1155BatchReceived",
      "outputs": [
        {
          "internalType": "bytes4",
          "name": "",
          "type": "bytes4"
        }
      ],
      "stateMutability": "nonpayable",
      "type": "function"
    },
    {
      "inputs": [
        {
          "internalType": "address",
          "name": "",
          "type": "address"
        },
        {
          "internalType": "address",
          "name": "",
          "type": "address"
        },
        {
          "internalType": "uint256",
          "name": "",
          "type": "uint256"
        },
        {
          "internalType": "uint256",
          "name": "",
          "type": "uint256"
        },
        {
          "internalType": "bytes",
          "name": "",
          "type": "bytes"
        }
      ],
      "name": "onERC1155Received",
      "outputs": [
        {
          "internalType": "bytes4",
          "name": "",
          "type": "bytes4"
        }
      ],
      "stateMutability": "nonpayable",
      "type": "function"
    },
    {
      "inputs": [],
      "name": "routeTokenId",
      "outputs": [
        {
          "internalType": "uint256",
          "name": "",
          "type": "uint256"
        }
      ],
      "stateMutability": "view",
      "type": "function"
    },
    {
      "inputs": [
        {
          "internalType": "bytes4",
          "name": "interfaceId",
          "type": "bytes4"
        }
      ],
      "name": "supportsInterface",
      "outputs": [
        {
          "internalType": "bool",
          "name": "",
          "type": "bool"
        }
      ],
      "stateMutability": "view",
      "type": "function"
    },
    {
      "inputs": [],
      "name": "symbol",
      "outputs": [
        {
          "internalType": "string",
          "name": "",
          "type": "string"
        }
      ],
      "stateMutability": "view",
      "type": "function"
    },
    {
      "inputs": [],
      "name": "totalSupply",
      "outputs": [
        {
          "internalType": "uint256",
          "name": "",
          "type": "uint256"
        }
      ],
      "stateMutability": "view",
      "type": "function"
    },
    {
      "inputs": [
        {
          "internalType": "address",
          "name": "recipient",
          "type": "address"
        },
        {
          "internalType": "uint256",
          "name": "amount",
          "type": "uint256"
        }
      ],
      "name": "transfer",
      "outputs": [
        {
          "internalType": "bool",
          "name": "",
          "type": "bool"
        }
      ],
      "stateMutability": "nonpayable",
      "type": "function"
    },
    {
      "inputs": [
        {
          "internalType": "address",
          "name": "sender",
          "type": "address"
        },
        {
          "internalType": "address",
          "name": "recipient",
          "type": "address"
        },
        {
          "internalType": "uint256",
          "name": "amount",
          "type": "uint256"
        }
      ],
      "name": "transferFrom",
      "outputs": [
        {
          "internalType": "bool",
          "name": "",
          "type": "bool"
        }
      ],
      "stateMutability": "nonpayable",
      "type": "function"
    },
    {
      "inputs": [
        {
          "internalType": "uint256",
          "name": "amount",
          "type": "uint256"
        }
      ],
      "name": "unwrap",
      "outputs": [],
      "stateMutability": "nonpayable",
      "type": "function"
    },
    {
      "inputs": [
        {
          "internalType": "uint256",
          "name": "amount",
          "type": "uint256"
        }
      ],
      "name": "wrap",
      "outputs": [],
      "stateMutability": "nonpayable",
      "type": "function"
    },
    {
      "inputs": [],
      "name": "wrappedGold",
      "outputs": [
        {
          "internalType": "contract IERC1155",
          "name": "",
          "type": "address"
        }
      ],
      "stateMutability": "view",
      "type": "function"
    }
  ],
  "bytecode": "0x60c06040523480156200001157600080fd5b5060405162001ad038038062001ad0833981016040819052620000349162000297565b8151829082906200004d9060039060208501906200013e565b508051620000639060049060208401906200013e565b5050506001600160a01b038416620000c25760405162461bcd60e51b815260206004820181905260248201527f57474f4c44526f757465546f6b656e3a20696e76616c6964207772617070657260448201526064015b60405180910390fd5b8260011480620000d25750826002145b620001205760405162461bcd60e51b815260206004820181905260248201527f57474f4c44526f757465546f6b656e3a20696e76616c696420746f6b656e49646044820152606401620000b9565b505060609190911b6001600160601b03191660a0526080526200037a565b8280546200014c9062000327565b90600052602060002090601f016020900481019282620001705760008555620001bb565b82601f106200018b57805160ff1916838001178555620001bb565b82800160010185558215620001bb579182015b82811115620001bb5782518255916020019190600101906200019e565b50620001c9929150620001cd565b5090565b5b80821115620001c95760008155600101620001ce565b600082601f830112620001f5578081fd5b81516001600160401b038082111562000212576200021262000364565b604051601f8301601f19908116603f011681019082821181831017156200023d576200023d62000364565b8160405283815260209250868385880101111562000259578485fd5b8491505b838210156200027c57858201830151818301840152908201906200025d565b838211156200028d57848385830101525b9695505050505050565b60008060008060808587031215620002ad578384fd5b84516001600160a01b0381168114620002c4578485fd5b6020860151604087015191955093506001600160401b0380821115620002e8578384fd5b620002f688838901620001e4565b935060608701519150808211156200030c578283fd5b506200031b87828801620001e4565b91505092959194509250565b600181811c908216806200033c57607f821691505b602082108114156200035e57634e487b7160e01b600052602260045260246000fd5b50919050565b634e487b7160e01b600052604160045260246000fd5b60805160a05160601c611703620003cd600039600081816101d70152818161080101526109a30152600081816102f0015281816107c601528181610878015281816109680152610a2601526117036000f3fe608060405234801561001057600080fd5b50600436106101365760003560e01c806395d89b41116100b2578063cb35c36c11610081578063de0e9a3e11610066578063de0e9a3e14610358578063ea598cb01461036d578063f23a6e611461038057600080fd5b8063cb35c36c146102eb578063dd62ed3e1461031257600080fd5b806395d89b4114610254578063a457c2d71461025c578063a9059cbb1461026f578063bc197c811461028257600080fd5b806323b872dd1161010957806339509351116100ee57806339509351146101bf57806355e67268146101d257806370a082311461021e57600080fd5b806323b872dd1461019d578063313ce567146101b057600080fd5b806301ffc9a71461013b57806306fdde0314610163578063095ea7b31461017857806318160ddd1461018b575b600080fd5b61014e6101493660046114d4565b6103b8565b60405190151581526020015b60405180910390f35b61016b610451565b60405161015a919061152c565b61014e6101863660046114ab565b6104e3565b6002545b60405190815260200161015a565b61014e6101ab36600461140d565b6104f9565b6040516012815260200161015a565b61014e6101cd3660046114ab565b6105e4565b6101f97f000000000000000000000000000000000000000000000000000000000000000081565b60405173ffffffffffffffffffffffffffffffffffffffff909116815260200161015a565b61018f61022c366004611314565b73ffffffffffffffffffffffffffffffffffffffff1660009081526020819052604090205490565b61016b61062d565b61014e61026a3660046114ab565b61063c565b61014e61027d3660046114ab565b610714565b6102ba610290366004611367565b7fbc197c810000000000000000000000000000000000000000000000000000000095945050505050565b6040517fffffffff00000000000000000000000000000000000000000000000000000000909116815260200161015a565b61018f7f000000000000000000000000000000000000000000000000000000000000000081565b61018f610320366004611335565b73ffffffffffffffffffffffffffffffffffffffff918216600090815260016020908152604080832093909416825291909152205490565b61036b610366366004611514565b610721565b005b61036b61037b366004611514565b6108cd565b6102ba61038e366004611448565b7ff23a6e610000000000000000000000000000000000000000000000000000000095945050505050565b60007fffffffff0000000000000000000000000000000000000000000000000000000082167f4e2312e000000000000000000000000000000000000000000000000000000000148061044b57507f01ffc9a7000000000000000000000000000000000000000000000000000000007fffffffff000000000000000000000000000000000000000000000000000000008316145b92915050565b6060600380546104609061161b565b80601f016020809104026020016040519081016040528092919081815260200182805461048c9061161b565b80156104d95780601f106104ae576101008083540402835291602001916104d9565b820191906000526020600020905b8154815290600101906020018083116104bc57829003601f168201915b5050505050905090565b60006104f0338484610a72565b50600192915050565b6000610506848484610c26565b73ffffffffffffffffffffffffffffffffffffffff84166000908152600160209081526040808320338452909152902054828110156105cc576040517f08c379a000000000000000000000000000000000000000000000000000000000815260206004820152602860248201527f45524332303a207472616e7366657220616d6f756e742065786365656473206160448201527f6c6c6f77616e636500000000000000000000000000000000000000000000000060648201526084015b60405180910390fd5b6105d98533858403610a72565b506001949350505050565b33600081815260016020908152604080832073ffffffffffffffffffffffffffffffffffffffff8716845290915281205490916104f09185906106289086906115ec565b610a72565b6060600480546104609061161b565b33600090815260016020908152604080832073ffffffffffffffffffffffffffffffffffffffff86168452909152812054828110156106fd576040517f08c379a000000000000000000000000000000000000000000000000000000000815260206004820152602560248201527f45524332303a2064656372656173656420616c6c6f77616e63652062656c6f7760448201527f207a65726f00000000000000000000000000000000000000000000000000000060648201526084016105c3565b61070a3385858403610a72565b5060019392505050565b60006104f0338484610c26565b80610788576040517f08c379a000000000000000000000000000000000000000000000000000000000815260206004820152601f60248201527f57474f4c44526f757465546f6b656e3a20696e76616c696420616d6f756e740060448201526064016105c3565b6107923382610eda565b6040517ff242432a0000000000000000000000000000000000000000000000000000000081523060048201523360248201527f000000000000000000000000000000000000000000000000000000000000000060448201526064810182905260a06084820152600060a48201527f000000000000000000000000000000000000000000000000000000000000000073ffffffffffffffffffffffffffffffffffffffff169063f242432a9060c401600060405180830381600087803b15801561085a57600080fd5b505af115801561086e573d6000803e3d6000fd5b50506040518381527f000000000000000000000000000000000000000000000000000000000000000092503391507f7b687e9fecc8521805e579b266b004bb4e64597dbb1edad8b17822eb2738fa7e906020015b60405180910390a350565b80610934576040517f08c379a000000000000000000000000000000000000000000000000000000000815260206004820152601f60248201527f57474f4c44526f757465546f6b656e3a20696e76616c696420616d6f756e740060448201526064016105c3565b6040517ff242432a0000000000000000000000000000000000000000000000000000000081523360048201523060248201527f000000000000000000000000000000000000000000000000000000000000000060448201526064810182905260a06084820152600060a48201527f000000000000000000000000000000000000000000000000000000000000000073ffffffffffffffffffffffffffffffffffffffff169063f242432a9060c401600060405180830381600087803b1580156109fc57600080fd5b505af1158015610a10573d6000803e3d6000fd5b50505050610a1e33826110bf565b6040518181527f00000000000000000000000000000000000000000000000000000000000000009033907f210741a9227a8c5bdf2d943f7d8e2dde962eaee1ed978effcfbdc37af282b245906020016108c2565b73ffffffffffffffffffffffffffffffffffffffff8316610b14576040517f08c379a0000000000000000000000000000000000000000000000000000000008152602060048201526024808201527f45524332303a20617070726f76652066726f6d20746865207a65726f2061646460448201527f726573730000000000000000000000000000000000000000000000000000000060648201526084016105c3565b73ffffffffffffffffffffffffffffffffffffffff8216610bb7576040517f08c379a000000000000000000000000000000000000000000000000000000000815260206004820152602260248201527f45524332303a20617070726f766520746f20746865207a65726f20616464726560448201527f737300000000000000000000000000000000000000000000000000000000000060648201526084016105c3565b73ffffffffffffffffffffffffffffffffffffffff83811660008181526001602090815260408083209487168084529482529182902085905590518481527f8c5be1e5ebec7d5bd14f71427d1e84f3dd0314c0f7b2291e5b200ac8c7c3b92591015b60405180910390a3505050565b73ffffffffffffffffffffffffffffffffffffffff8316610cc9576040517f08c379a000000000000000000000000000000000000000000000000000000000815260206004820152602560248201527f45524332303a207472616e736665722066726f6d20746865207a65726f20616460448201527f647265737300000000000000000000000000000000000000000000000000000060648201526084016105c3565b73ffffffffffffffffffffffffffffffffffffffff8216610d6c576040517f08c379a000000000000000000000000000000000000000000000000000000000815260206004820152602360248201527f45524332303a207472616e7366657220746f20746865207a65726f206164647260448201527f657373000000000000000000000000000000000000000000000000000000000060648201526084016105c3565b73ffffffffffffffffffffffffffffffffffffffff831660009081526020819052604090205481811015610e22576040517f08c379a000000000000000000000000000000000000000000000000000000000815260206004820152602660248201527f45524332303a207472616e7366657220616d6f756e742065786365656473206260448201527f616c616e6365000000000000000000000000000000000000000000000000000060648201526084016105c3565b73ffffffffffffffffffffffffffffffffffffffff808516600090815260208190526040808220858503905591851681529081208054849290610e669084906115ec565b925050819055508273ffffffffffffffffffffffffffffffffffffffff168473ffffffffffffffffffffffffffffffffffffffff167fddf252ad1be2c89b69c2b068fc378daa952ba7f163c4a11628f55a4df523b3ef84604051610ecc91815260200190565b60405180910390a350505050565b73ffffffffffffffffffffffffffffffffffffffff8216610f7d576040517f08c379a000000000000000000000000000000000000000000000000000000000815260206004820152602160248201527f45524332303a206275726e2066726f6d20746865207a65726f2061646472657360448201527f730000000000000000000000000000000000000000000000000000000000000060648201526084016105c3565b73ffffffffffffffffffffffffffffffffffffffff821660009081526020819052604090205481811015611033576040517f08c379a000000000000000000000000000000000000000000000000000000000815260206004820152602260248201527f45524332303a206275726e20616d6f756e7420657863656564732062616c616e60448201527f636500000000000000000000000000000000000000000000000000000000000060648201526084016105c3565b73ffffffffffffffffffffffffffffffffffffffff8316600090815260208190526040812083830390556002805484929061106f908490611604565b909155505060405182815260009073ffffffffffffffffffffffffffffffffffffffff8516907fddf252ad1be2c89b69c2b068fc378daa952ba7f163c4a11628f55a4df523b3ef90602001610c19565b73ffffffffffffffffffffffffffffffffffffffff821661113c576040517f08c379a000000000000000000000000000000000000000000000000000000000815260206004820152601f60248201527f45524332303a206d696e7420746f20746865207a65726f20616464726573730060448201526064016105c3565b806002600082825461114e91906115ec565b909155505073ffffffffffffffffffffffffffffffffffffffff8216600090815260208190526040812080548392906111889084906115ec565b909155505060405181815273ffffffffffffffffffffffffffffffffffffffff8316906000907fddf252ad1be2c89b69c2b068fc378daa952ba7f163c4a11628f55a4df523b3ef9060200160405180910390a35050565b803573ffffffffffffffffffffffffffffffffffffffff8116811461120357600080fd5b919050565b600082601f830112611218578081fd5b8135602067ffffffffffffffff8211156112345761123461169e565b8160051b61124382820161159d565b83815282810190868401838801850189101561125d578687fd5b8693505b8584101561127f578035835260019390930192918401918401611261565b50979650505050505050565b600082601f83011261129b578081fd5b813567ffffffffffffffff8111156112b5576112b561169e565b6112e660207fffffffffffffffffffffffffffffffffffffffffffffffffffffffffffffffe0601f8401160161159d565b8181528460208386010111156112fa578283fd5b816020850160208301379081016020019190915292915050565b600060208284031215611325578081fd5b61132e826111df565b9392505050565b60008060408385031215611347578081fd5b611350836111df565b915061135e602084016111df565b90509250929050565b600080600080600060a0868803121561137e578081fd5b611387866111df565b9450611395602087016111df565b9350604086013567ffffffffffffffff808211156113b1578283fd5b6113bd89838a01611208565b945060608801359150808211156113d2578283fd5b6113de89838a01611208565b935060808801359150808211156113f3578283fd5b506114008882890161128b565b9150509295509295909350565b600080600060608486031215611421578283fd5b61142a846111df565b9250611438602085016111df565b9150604084013590509250925092565b600080600080600060a0868803121561145f578081fd5b611468866111df565b9450611476602087016111df565b93506040860135925060608601359150608086013567ffffffffffffffff81111561149f578182fd5b6114008882890161128b565b600080604083850312156114bd578182fd5b6114c6836111df565b946020939093013593505050565b6000602082840312156114e5578081fd5b81357fffffffff000000000000000000000000000000000000000000000000000000008116811461132e578182fd5b600060208284031215611525578081fd5b5035919050565b6000602080835283518082850152825b818110156115585785810183015185820160400152820161153c565b818111156115695783604083870101525b50601f017fffffffffffffffffffffffffffffffffffffffffffffffffffffffffffffffe016929092016040019392505050565b604051601f82017fffffffffffffffffffffffffffffffffffffffffffffffffffffffffffffffe016810167ffffffffffffffff811182821017156115e4576115e461169e565b604052919050565b600082198211156115ff576115ff61166f565b500190565b6000828210156116165761161661166f565b500390565b600181811c9082168061162f57607f821691505b60208210811415611669577f4e487b7100000000000000000000000000000000000000000000000000000000600052602260045260246000fd5b50919050565b7f4e487b7100000000000000000000000000000000000000000000000000000000600052601160045260246000fd5b7f4e487b7100000000000000000000000000000000000000000000000000000000600052604160045260246000fdfea2646970667358221220df9cbab2b4e3b6513a5b46e4dad3c68b3c7589fea3563c6ff89001f16597dcf264736f6c63430008040033",
  "linkReferences": {},
  "deployedLinkReferences": {}
}