{
  "_format": "hh-sol-artifact-1",
  "contractName": "MCV3MultiPositionUpdate",
  "sourceName": "contracts/MCV3MultiPositionUpdate.sol",
  "abi": [
    {
      "inputs": [
        {
          "internalType": "contract IMasterChefV3",
          "name": "_v3",
          "type": "address"
        }
      ],
      "stateMutability": "nonpayable",
      "type": "constructor"
    },
    {
      "inputs": [],
      "name": "MASTER_CHEF_V3",
      "outputs": [
        {
          "internalType": "contract IMasterChefV3",
          "name": "",
          "type": "address"
        }
      ],
      "stateMutability": "view",
      "type": "function"
    },
    {
      "inputs": [
        {
          "internalType": "uint256[]",
          "name": "_tokenIds",
          "type": "uint256[]"
        }
      ],
      "name": "multiPositionUpdate",
      "outputs": [],
      "stateMutability": "nonpayable",
      "type": "function"
    }
  ],
  "bytecode": "0x60a060405234801561001057600080fd5b5060405161033238038061033283398101604081905261002f91610040565b6001600160a01b0316608052610070565b60006020828403121561005257600080fd5b81516001600160a01b038116811461006957600080fd5b9392505050565b6080516102a2610090600039600081816040015260ad01526102a26000f3fe608060405234801561001057600080fd5b50600436106100365760003560e01c806352fb65311461003b578063571185371461008b575b600080fd5b6100627f000000000000000000000000000000000000000000000000000000000000000081565b60405173ffffffffffffffffffffffffffffffffffffffff909116815260200160405180910390f35b61009e610099366004610168565b6100a0565b005b60005b81811015610163577f000000000000000000000000000000000000000000000000000000000000000073ffffffffffffffffffffffffffffffffffffffff1663ced091128484848181106100f9576100f96101dd565b905060200201356040518263ffffffff1660e01b815260040161011e91815260200190565b600060405180830381600087803b15801561013857600080fd5b505af115801561014c573d6000803e3d6000fd5b50505050808061015b9061020c565b9150506100a3565b505050565b6000806020838503121561017b57600080fd5b823567ffffffffffffffff8082111561019357600080fd5b818501915085601f8301126101a757600080fd5b8135818111156101b657600080fd5b8660208260051b85010111156101cb57600080fd5b60209290920196919550909350505050565b7f4e487b7100000000000000000000000000000000000000000000000000000000600052603260045260246000fd5b60007fffffffffffffffffffffffffffffffffffffffffffffffffffffffffffffffff821415610265577f4e487b7100000000000000000000000000000000000000000000000000000000600052601160045260246000fd5b506001019056fea264697066735822122085cea802ae666a9fb8922825920f57427eadf966028cd5360a0279b47752008d64736f6c634300080a0033",
  "linkReferences": {},
  "deployedLinkReferences": {}
}