{
  "_format": "hh-sol-artifact-1",
  "contractName": "Token",
  "sourceName": "contracts/test/Token.sol",
  "abi": [
    {
      "inputs": [
        {
          "internalType": "string",
          "name": "_name",
          "type": "string"
        },
        {
          "internalType": "string",
          "name": "_symbol",
          "type": "string"
        },
        {
          "internalType": "uint8",
          "name": "_decimal",
          "type": "uint8"
        }
      ],
      "stateMutability": "nonpayable",
      "type": "constructor"
    },
    {
      "anonymous": false,
      "inputs": [
        {
          "indexed": true,
          "internalType": "address",
          "name": "owner",
          "type": "address"
        },
        {
          "indexed": true,
          "internalType": "address",
          "name": "spender",
          "type": "address"
        },
        {
          "indexed": false,
          "internalType": "uint256",
          "name": "value",
          "type": "uint256"
        }
      ],
      "name": "Approval",
      "type": "event"
    },
    {
      "anonymous": false,
      "inputs": [
        {
          "indexed": true,
          "internalType": "address",
          "name": "from",
          "type": "address"
        },
        {
          "indexed": true,
          "internalType": "address",
          "name": "to",
          "type": "address"
        },
        {
          "indexed": false,
          "internalType": "uint256",
          "name": "value",
          "type": "uint256"
        }
      ],
      "name": "Transfer",
      "type": "event"
    },
    {
      "inputs": [
        {
          "internalType": "address",
          "name": "owner",
          "type": "address"
        },
        {
          "internalType": "address",
          "name": "spender",
          "type": "address"
        }
      ],
      "name": "allowance",
      "outputs": [
        {
          "internalType": "uint256",
          "name": "",
          "type": "uint256"
        }
      ],
      "stateMutability": "view",
      "type": "function"
    },
    {
      "inputs": [
        {
          "internalType": "address",
          "name": "spender",
          "type": "address"
        },
        {
          "internalType": "uint256",
          "name": "amount",
          "type": "uint256"
        }
      ],
      "name": "approve",
      "outputs": [
        {
          "internalType": "bool",
          "name": "",
          "type": "bool"
        }
      ],
      "stateMutability": "nonpayable",
      "type": "function"
    },
    {
      "inputs": [
        {
          "internalType": "address",
          "name": "account",
          "type": "address"
        }
      ],
      "name": "balanceOf",
      "outputs": [
        {
          "internalType": "uint256",
          "name": "",
          "type": "uint256"
        }
      ],
      "stateMutability": "view",
      "type": "function"
    },
    {
      "inputs": [
        {
          "internalType": "address",
          "name": "_to",
          "type": "address"
        },
        {
          "internalType": "uint256",
          "name": "_amount",
          "type": "uint256"
        }
      ],
      "name": "burnFrom",
      "outputs": [],
      "stateMutability": "nonpayable",
      "type": "function"
    },
    {
      "inputs": [],
      "name": "decimals",
      "outputs": [
        {
          "internalType": "uint8",
          "name": "",
          "type": "uint8"
        }
      ],
      "stateMutability": "view",
      "type": "function"
    },
    {
      "inputs": [
        {
          "internalType": "address",
          "name": "spender",
          "type": "address"
        },
        {
          "internalType": "uint256",
          "name": "subtractedValue",
          "type": "uint256"
        }
      ],
      "name": "decreaseAllowance",
      "outputs": [
        {
          "internalType": "bool",
          "name": "",
          "type": "bool"
        }
      ],
      "stateMutability": "nonpayable",
      "type": "function"
    },
    {
      "inputs": [
        {
          "internalType": "address",
          "name": "spender",
          "type": "address"
        },
        {
          "internalType": "uint256",
          "name": "addedValue",
          "type": "uint256"
        }
      ],
      "name": "increaseAllowance",
      "outputs": [
        {
          "internalType": "bool",
          "name": "",
          "type": "bool"
        }
      ],
      "stateMutability": "nonpayable",
      "type": "function"
    },
    {
      "inputs": [
        {
          "internalType": "address",
          "name": "_to",
          "type": "address"
        },
        {
          "internalType": "uint256",
          "name": "_amount",
          "type": "uint256"
        }
      ],
      "name": "mint",
      "outputs": [],
      "stateMutability": "nonpayable",
      "type": "function"
    },
    {
      "inputs": [],
      "name": "name",
      "outputs": [
        {
          "internalType": "string",
          "name": "",
          "type": "string"
        }
      ],
      "stateMutability": "view",
      "type": "function"
    },
    {
      "inputs": [],
      "name": "symbol",
      "outputs": [
        {
          "internalType": "string",
          "name": "",
          "type": "string"
        }
      ],
      "stateMutability": "view",
      "type": "function"
    },
    {
      "inputs": [],
      "name": "totalSupply",
      "outputs": [
        {
          "internalType": "uint256",
          "name": "",
          "type": "uint256"
        }
      ],
      "stateMutability": "view",
      "type": "function"
    },
    {
      "inputs": [
        {
          "internalType": "address",
          "name": "to",
          "type": "address"
        },
        {
          "internalType": "uint256",
          "name": "amount",
          "type": "uint256"
        }
      ],
      "name": "transfer",
      "outputs": [
        {
          "internalType": "bool",
          "name": "",
          "type": "bool"
        }
      ],
      "stateMutability": "nonpayable",
      "type": "function"
    },
    {
      "inputs": [
        {
          "internalType": "address",
          "name": "from",
          "type": "address"
        },
        {
          "internalType": "address",
          "name": "to",
          "type": "address"
        },
        {
          "internalType": "uint256",
          "name": "amount",
          "type": "uint256"
        }
      ],
      "name": "transferFrom",
      "outputs": [
        {
          "internalType": "bool",
          "name": "",
          "type": "bool"
        }
      ],
      "stateMutability": "nonpayable",
      "type": "function"
    }
  ],
  "bytecode": "0x60a06040523480156200001157600080fd5b5060405162000e2838038062000e288339810160408190526200003491620001e8565b8251839083906200004d90600390602085019062000075565b5080516200006390600490602084019062000075565b50505060ff1660805250620002aa9050565b82805462000083906200026d565b90600052602060002090601f016020900481019282620000a75760008555620000f2565b82601f10620000c257805160ff1916838001178555620000f2565b82800160010185558215620000f2579182015b82811115620000f2578251825591602001919060010190620000d5565b506200010092915062000104565b5090565b5b8082111562000100576000815560010162000105565b634e487b7160e01b600052604160045260246000fd5b600082601f8301126200014357600080fd5b81516001600160401b03808211156200016057620001606200011b565b604051601f8301601f19908116603f011681019082821181831017156200018b576200018b6200011b565b81604052838152602092508683858801011115620001a857600080fd5b600091505b83821015620001cc5785820183015181830184015290820190620001ad565b83821115620001de5760008385830101525b9695505050505050565b600080600060608486031215620001fe57600080fd5b83516001600160401b03808211156200021657600080fd5b620002248783880162000131565b945060208601519150808211156200023b57600080fd5b506200024a8682870162000131565b925050604084015160ff811681146200026257600080fd5b809150509250925092565b600181811c908216806200028257607f821691505b60208210811415620002a457634e487b7160e01b600052602260045260246000fd5b50919050565b608051610b62620002c660003960006101310152610b626000f3fe608060405234801561001057600080fd5b50600436106100bf5760003560e01c806340c10f191161007c57806340c10f191461016e57806370a082311461018357806379cc6790146101ac57806395d89b41146101bf578063a457c2d7146101c7578063a9059cbb146101da578063dd62ed3e146101ed57600080fd5b806306fdde03146100c4578063095ea7b3146100e257806318160ddd1461010557806323b872dd14610117578063313ce5671461012a578063395093511461015b575b600080fd5b6100cc610200565b6040516100d99190610960565b60405180910390f35b6100f56100f03660046109d1565b610292565b60405190151581526020016100d9565b6002545b6040519081526020016100d9565b6100f56101253660046109fb565b6102aa565b60405160ff7f00000000000000000000000000000000000000000000000000000000000000001681526020016100d9565b6100f56101693660046109d1565b6102ce565b61018161017c3660046109d1565b61030d565b005b610109610191366004610a37565b6001600160a01b031660009081526020819052604090205490565b6101816101ba3660046109d1565b61031b565b6100cc610325565b6100f56101d53660046109d1565b610334565b6100f56101e83660046109d1565b6103cb565b6101096101fb366004610a59565b6103d9565b60606003805461020f90610a8c565b80601f016020809104026020016040519081016040528092919081815260200182805461023b90610a8c565b80156102885780601f1061025d57610100808354040283529160200191610288565b820191906000526020600020905b81548152906001019060200180831161026b57829003601f168201915b5050505050905090565b6000336102a0818585610404565b5060019392505050565b6000336102b8858285610529565b6102c38585856105a3565b506001949350505050565b3360008181526001602090815260408083206001600160a01b03871684529091528120549091906102a09082908690610308908790610add565b610404565b610317828261075f565b5050565b610317828261082c565b60606004805461020f90610a8c565b3360008181526001602090815260408083206001600160a01b0387168452909152812054909190838110156103be5760405162461bcd60e51b815260206004820152602560248201527f45524332303a2064656372656173656420616c6c6f77616e63652062656c6f77604482015264207a65726f60d81b60648201526084015b60405180910390fd5b6102c38286868403610404565b6000336102a08185856105a3565b6001600160a01b03918216600090815260016020908152604080832093909416825291909152205490565b6001600160a01b0383166104665760405162461bcd60e51b8152602060048201526024808201527f45524332303a20617070726f76652066726f6d20746865207a65726f206164646044820152637265737360e01b60648201526084016103b5565b6001600160a01b0382166104c75760405162461bcd60e51b815260206004820152602260248201527f45524332303a20617070726f766520746f20746865207a65726f206164647265604482015261737360f01b60648201526084016103b5565b6001600160a01b0383811660008181526001602090815260408083209487168084529482529182902085905590518481527f8c5be1e5ebec7d5bd14f71427d1e84f3dd0314c0f7b2291e5b200ac8c7c3b92591015b60405180910390a3505050565b600061053584846103d9565b9050600019811461059d57818110156105905760405162461bcd60e51b815260206004820152601d60248201527f45524332303a20696e73756666696369656e7420616c6c6f77616e636500000060448201526064016103b5565b61059d8484848403610404565b50505050565b6001600160a01b0383166106075760405162461bcd60e51b815260206004820152602560248201527f45524332303a207472616e736665722066726f6d20746865207a65726f206164604482015264647265737360d81b60648201526084016103b5565b6001600160a01b0382166106695760405162461bcd60e51b815260206004820152602360248201527f45524332303a207472616e7366657220746f20746865207a65726f206164647260448201526265737360e81b60648201526084016103b5565b6001600160a01b038316600090815260208190526040902054818110156106e15760405162461bcd60e51b815260206004820152602660248201527f45524332303a207472616e7366657220616d6f756e7420657863656564732062604482015265616c616e636560d01b60648201526084016103b5565b6001600160a01b03808516600090815260208190526040808220858503905591851681529081208054849290610718908490610add565b92505081905550826001600160a01b0316846001600160a01b0316600080516020610b0d8339815191528460405161075291815260200190565b60405180910390a361059d565b6001600160a01b0382166107b55760405162461bcd60e51b815260206004820152601f60248201527f45524332303a206d696e7420746f20746865207a65726f20616464726573730060448201526064016103b5565b80600260008282546107c79190610add565b90915550506001600160a01b038216600090815260208190526040812080548392906107f4908490610add565b90915550506040518181526001600160a01b03831690600090600080516020610b0d8339815191529060200160405180910390a35050565b6001600160a01b03821661088c5760405162461bcd60e51b815260206004820152602160248201527f45524332303a206275726e2066726f6d20746865207a65726f206164647265736044820152607360f81b60648201526084016103b5565b6001600160a01b038216600090815260208190526040902054818110156109005760405162461bcd60e51b815260206004820152602260248201527f45524332303a206275726e20616d6f756e7420657863656564732062616c616e604482015261636560f01b60648201526084016103b5565b6001600160a01b038316600090815260208190526040812083830390556002805484929061092f908490610af5565b90915550506040518281526000906001600160a01b03851690600080516020610b0d8339815191529060200161051c565b600060208083528351808285015260005b8181101561098d57858101830151858201604001528201610971565b8181111561099f576000604083870101525b50601f01601f1916929092016040019392505050565b80356001600160a01b03811681146109cc57600080fd5b919050565b600080604083850312156109e457600080fd5b6109ed836109b5565b946020939093013593505050565b600080600060608486031215610a1057600080fd5b610a19846109b5565b9250610a27602085016109b5565b9150604084013590509250925092565b600060208284031215610a4957600080fd5b610a52826109b5565b9392505050565b60008060408385031215610a6c57600080fd5b610a75836109b5565b9150610a83602084016109b5565b90509250929050565b600181811c90821680610aa057607f821691505b60208210811415610ac157634e487b7160e01b600052602260045260246000fd5b50919050565b634e487b7160e01b600052601160045260246000fd5b60008219821115610af057610af0610ac7565b500190565b600082821015610b0757610b07610ac7565b50039056feddf252ad1be2c89b69c2b068fc378daa952ba7f163c4a11628f55a4df523b3efa2646970667358221220b1b84690f750e276163605aab45af2ef8612c81aed300304d2c97de54bdf69b664736f6c634300080a0033",
  "linkReferences": {},
  "deployedLinkReferences": {}
}