{
  "_format": "hh-sol-artifact-1",
  "contractName": "PancakeStableSwapThreePoolInfo",
  "sourceName": "contracts/utils/PancakeStableSwapThreePoolInfo.sol",
  "abi": [
    {
      "inputs": [],
      "name": "FEE_DENOMINATOR",
      "outputs": [
        {
          "internalType": "uint256",
          "name": "",
          "type": "uint256"
        }
      ],
      "stateMutability": "view",
      "type": "function"
    },
    {
      "inputs": [],
      "name": "N_COINS",
      "outputs": [
        {
          "internalType": "uint256",
          "name": "",
          "type": "uint256"
        }
      ],
      "stateMutability": "view",
      "type": "function"
    },
    {
      "inputs": [],
      "name": "PRECISION",
      "outputs": [
        {
          "internalType": "uint256",
          "name": "",
          "type": "uint256"
        }
      ],
      "stateMutability": "view",
      "type": "function"
    },
    {
      "inputs": [
        {
          "internalType": "address",
          "name": "_swap",
          "type": "address"
        }
      ],
      "name": "PRECISION_MUL",
      "outputs": [
        {
          "internalType": "uint256[3]",
          "name": "swapPRECISION_MUL",
          "type": "uint256[3]"
        }
      ],
      "stateMutability": "view",
      "type": "function"
    },
    {
      "inputs": [
        {
          "internalType": "address",
          "name": "_swap",
          "type": "address"
        }
      ],
      "name": "RATES",
      "outputs": [
        {
          "internalType": "uint256[3]",
          "name": "swapRATES",
          "type": "uint256[3]"
        }
      ],
      "stateMutability": "view",
      "type": "function"
    },
    {
      "inputs": [
        {
          "internalType": "address",
          "name": "_swap",
          "type": "address"
        },
        {
          "internalType": "uint256[3]",
          "name": "_balances",
          "type": "uint256[3]"
        }
      ],
      "name": "_xp_mem",
      "outputs": [
        {
          "internalType": "uint256[3]",
          "name": "result",
          "type": "uint256[3]"
        }
      ],
      "stateMutability": "view",
      "type": "function"
    },
    {
      "inputs": [
        {
          "internalType": "address",
          "name": "_swap",
          "type": "address"
        }
      ],
      "name": "balances",
      "outputs": [
        {
          "internalType": "uint256[3]",
          "name": "swapBalances",
          "type": "uint256[3]"
        }
      ],
      "stateMutability": "view",
      "type": "function"
    },
    {
      "inputs": [
        {
          "internalType": "address",
          "name": "_swap",
          "type": "address"
        },
        {
          "internalType": "uint256",
          "name": "_amount",
          "type": "uint256"
        }
      ],
      "name": "calc_coins_amount",
      "outputs": [
        {
          "internalType": "uint256[3]",
          "name": "",
          "type": "uint256[3]"
        }
      ],
      "stateMutability": "view",
      "type": "function"
    },
    {
      "inputs": [
        {
          "internalType": "address",
          "name": "_swap",
          "type": "address"
        },
        {
          "internalType": "uint256[3]",
          "name": "_balances",
          "type": "uint256[3]"
        },
        {
          "internalType": "uint256",
          "name": "amp",
          "type": "uint256"
        }
      ],
      "name": "get_D_mem",
      "outputs": [
        {
          "internalType": "uint256",
          "name": "",
          "type": "uint256"
        }
      ],
      "stateMutability": "view",
      "type": "function"
    },
    {
      "inputs": [
        {
          "internalType": "address",
          "name": "_swap",
          "type": "address"
        },
        {
          "internalType": "uint256[3]",
          "name": "amounts",
          "type": "uint256[3]"
        }
      ],
      "name": "get_add_liquidity_fee",
      "outputs": [
        {
          "internalType": "uint256[3]",
          "name": "liquidityFee",
          "type": "uint256[3]"
        }
      ],
      "stateMutability": "view",
      "type": "function"
    },
    {
      "inputs": [
        {
          "internalType": "address",
          "name": "_swap",
          "type": "address"
        },
        {
          "internalType": "uint256[3]",
          "name": "amounts",
          "type": "uint256[3]"
        }
      ],
      "name": "get_add_liquidity_mint_amount",
      "outputs": [
        {
          "internalType": "uint256",
          "name": "",
          "type": "uint256"
        }
      ],
      "stateMutability": "view",
      "type": "function"
    },
    {
      "inputs": [
        {
          "internalType": "address",
          "name": "_swap",
          "type": "address"
        },
        {
          "internalType": "uint256",
          "name": "i",
          "type": "uint256"
        },
        {
          "internalType": "uint256",
          "name": "j",
          "type": "uint256"
        },
        {
          "internalType": "uint256",
          "name": "dy",
          "type": "uint256"
        },
        {
          "internalType": "uint256",
          "name": "max_dx",
          "type": "uint256"
        }
      ],
      "name": "get_dx",
      "outputs": [
        {
          "internalType": "uint256",
          "name": "",
          "type": "uint256"
        }
      ],
      "stateMutability": "view",
      "type": "function"
    },
    {
      "inputs": [
        {
          "internalType": "address",
          "name": "_swap",
          "type": "address"
        },
        {
          "internalType": "uint256",
          "name": "i",
          "type": "uint256"
        },
        {
          "internalType": "uint256",
          "name": "j",
          "type": "uint256"
        },
        {
          "internalType": "uint256",
          "name": "dx",
          "type": "uint256"
        }
      ],
      "name": "get_exchange_fee",
      "outputs": [
        {
          "internalType": "uint256",
          "name": "exFee",
          "type": "uint256"
        },
        {
          "internalType": "uint256",
          "name": "exAdminFee",
          "type": "uint256"
        }
      ],
      "stateMutability": "view",
      "type": "function"
    },
    {
      "inputs": [
        {
          "internalType": "address",
          "name": "_swap",
          "type": "address"
        },
        {
          "internalType": "uint256[3]",
          "name": "amounts",
          "type": "uint256[3]"
        }
      ],
      "name": "get_remove_liquidity_imbalance_fee",
      "outputs": [
        {
          "internalType": "uint256[3]",
          "name": "liquidityFee",
          "type": "uint256[3]"
        }
      ],
      "stateMutability": "view",
      "type": "function"
    },
    {
      "inputs": [
        {
          "internalType": "address",
          "name": "_swap",
          "type": "address"
        },
        {
          "internalType": "uint256",
          "name": "_token_amount",
          "type": "uint256"
        },
        {
          "internalType": "uint256",
          "name": "i",
          "type": "uint256"
        }
      ],
      "name": "get_remove_liquidity_one_coin_fee",
      "outputs": [
        {
          "internalType": "uint256",
          "name": "adminFee",
          "type": "uint256"
        }
      ],
      "stateMutability": "view",
      "type": "function"
    },
    {
      "inputs": [
        {
          "internalType": "address",
          "name": "_swap",
          "type": "address"
        }
      ],
      "name": "token",
      "outputs": [
        {
          "internalType": "contract IERC20",
          "name": "",
          "type": "address"
        }
      ],
      "stateMutability": "view",
      "type": "function"
    }
  ],
  "bytecode": "0x608060405234801561001057600080fd5b506125a7806100206000396000f3fe608060405234801561001057600080fd5b50600436106100e05760003560e01c80635779dcd8116100875780635779dcd8146101ab5780636d46a1db146101be5780637619153d146101e9578063789787ac146101fc57806382abb1a31461020f578063aaf5eb6814610222578063ca4bc71414610231578063d73792a91461024457600080fd5b806315a4d7fe146100e55780631f38b0c71461010e5780632494acbd14610136578063279a07cc1461014957806327e235e31461015c578063293577501461016f578063437fe6f91461018557806346f57d4514610198575b600080fd5b6100f86100f33660046121e5565b610250565b6040516101059190612211565b60405180910390f35b61012161011c366004612242565b610399565b60408051928352602083019190915201610105565b6100f861014436600461227d565b6105de565b6100f861015736600461227d565b61068a565b6100f861016a36600461227d565b610730565b610177600381565b604051908152602001610105565b6100f861019336600461231d565b6107d6565b6101776101a636600461231d565b610b46565b6101776101b9366004612353565b610fa1565b6101d16101cc36600461227d565b611039565b6040516001600160a01b039091168152602001610105565b6101776101f7366004612388565b61109d565b6100f861020a36600461231d565b6110ba565b6100f861021d36600461231d565b611511565b610177670de0b6b3a764000081565b61017761023f3660046123c7565b6115ab565b6101776402540be40081565b6102586121af565b600061026384611039565b6001600160a01b03166318160ddd6040518163ffffffff1660e01b8152600401602060405180830381865afa1580156102a0573d6000803e3d6000fd5b505050506040513d601f19601f820116820180604052508101906102c4919061240b565b90506102ce6121af565b60005b600381101561038e5760008386886001600160a01b0316634903b0d1856040518263ffffffff1660e01b815260040161030c91815260200190565b602060405180830381865afa158015610329573d6000803e3d6000fd5b505050506040513d601f19601f8201168201806040525081019061034d919061240b565b610357919061243a565b6103619190612459565b9050808383600381106103765761037661247b565b6020020152508061038681612491565b9150506102d1565b509150505b92915050565b60008085816103a782610730565b905060006103b58983611511565b905060006103c28a6105de565b90506000670de0b6b3a7640000828b600381106103e1576103e161247b565b60200201516103f0908a61243a565b6103fa9190612459565b838b6003811061040c5761040c61247b565b602002015161041b91906124ac565b9050600061042c8c8c8c85886117ef565b90506000600182868d600381106104455761044561247b565b602002015161045491906124c4565b61045e91906124c4565b905060006402540be400886001600160a01b031663ddca3f436040518163ffffffff1660e01b8152600401602060405180830381865afa1580156104a6573d6000803e3d6000fd5b505050506040513d601f19601f820116820180604052508101906104ca919061240b565b6104d4908461243a565b6104de9190612459565b905060006402540be400896001600160a01b031663fee3f7f96040518163ffffffff1660e01b8152600401602060405180830381865afa158015610526573d6000803e3d6000fd5b505050506040513d601f19601f8201168201806040525081019061054a919061240b565b610554908461243a565b61055e9190612459565b9050858d600381106105725761057261247b565b6020020151610589670de0b6b3a76400008461243a565b6105939190612459565b9150858d600381106105a7576105a761247b565b60200201516105be670de0b6b3a76400008361243a565b6105c89190612459565b919f919e50909c50505050505050505050505050565b6105e66121af565b60005b6003811015610684576040516318880f5d60e21b8152600481018290526001600160a01b038416906362203d7490602401602060405180830381865afa158015610637573d6000803e3d6000fd5b505050506040513d601f19601f8201168201806040525081019061065b919061240b565b82826003811061066d5761066d61247b565b60200201528061067c81612491565b9150506105e9565b50919050565b6106926121af565b60005b600381101561068457604051631f6be8d960e21b8152600481018290526001600160a01b03841690637dafa36490602401602060405180830381865afa1580156106e3573d6000803e3d6000fd5b505050506040513d601f19601f82011682018060405250810190610707919061240b565b8282600381106107195761071961247b565b60200201528061072881612491565b915050610695565b6107386121af565b60005b600381101561068457604051634903b0d160e01b8152600481018290526001600160a01b03841690634903b0d190602401602060405180830381865afa158015610789573d6000803e3d6000fd5b505050506040513d601f19601f820116820180604052508101906107ad919061240b565b8282600381106107bf576107bf61247b565b6020020152806107ce81612491565b91505061073b565b6107de6121af565b8260006107ed600160036124c4565b6107f890600461243a565b6003836001600160a01b031663ddca3f436040518163ffffffff1660e01b8152600401602060405180830381865afa158015610838573d6000803e3d6000fd5b505050506040513d601f19601f8201168201806040525081019061085c919061240b565b610866919061243a565b6108709190612459565b90506000826001600160a01b031663fee3f7f96040518163ffffffff1660e01b8152600401602060405180830381865afa1580156108b2573d6000803e3d6000fd5b505050506040513d601f19601f820116820180604052508101906108d6919061240b565b90506000836001600160a01b031663f446c1d06040518163ffffffff1660e01b8152600401602060405180830381865afa158015610918573d6000803e3d6000fd5b505050506040513d601f19601f8201168201806040525081019061093c919061240b565b9050600061094988610730565b9050600060405180606001604052808360006003811061096b5761096b61247b565b60200201518152602001836001600381106109885761098861247b565b60200201518152602001836002600381106109a5576109a561247b565b60200201519052905060006109bb8a848661109d565b905060005b6003811015610a18578981600381106109db576109db61247b565b60200201518382600381106109f2576109f261247b565b60200201818151610a0391906124c4565b90525080610a1081612491565b9150506109c0565b506000610a268b848761109d565b905060005b6003811015610b3757600083868360038110610a4957610a4961247b565b6020020151610a58908561243a565b610a629190612459565b90506000858360038110610a7857610a7861247b565b6020020151821115610aac57858360038110610a9657610a9661247b565b6020020151610aa590836124c4565b9050610ad1565b81868460038110610abf57610abf61247b565b6020020151610ace91906124c4565b90505b60006402540be400610ae3838d61243a565b610aed9190612459565b90506402540be400610aff8b8361243a565b610b099190612459565b8d8560038110610b1b57610b1b61247b565b602002015250829150610b2f905081612491565b915050610a2b565b50505050505050505092915050565b600082610b516121af565b6000610b5f600160036124c4565b610b6a90600461243a565b6003846001600160a01b031663ddca3f436040518163ffffffff1660e01b8152600401602060405180830381865afa158015610baa573d6000803e3d6000fd5b505050506040513d601f19601f82011682018060405250810190610bce919061240b565b610bd8919061243a565b610be29190612459565b90506000836001600160a01b031663f446c1d06040518163ffffffff1660e01b8152600401602060405180830381865afa158015610c24573d6000803e3d6000fd5b505050506040513d601f19601f82011682018060405250810190610c48919061240b565b90506000610c5588611039565b6001600160a01b03166318160ddd6040518163ffffffff1660e01b8152600401602060405180830381865afa158015610c92573d6000803e3d6000fd5b505050506040513d601f19601f82011682018060405250810190610cb6919061240b565b9050600080610cc48a610730565b90508215610cda57610cd78a828661109d565b91505b6000604051806060016040528083600060038110610cfa57610cfa61247b565b6020020151815260200183600160038110610d1757610d1761247b565b6020020151815260200183600260038110610d3457610d3461247b565b60200201519052905060005b6003811015610dee5784610d8d5760008b8260038110610d6257610d6261247b565b602002015111610d8d5760405162461bcd60e51b8152600401610d84906124db565b60405180910390fd5b8a8160038110610d9f57610d9f61247b565b6020020151838260038110610db657610db661247b565b6020020151610dc591906124ac565b828260038110610dd757610dd761247b565b602002015280610de681612491565b915050610d40565b506000610dfc8c838861109d565b9050838111610e1d5760405162461bcd60e51b8152600401610d849061251d565b808515610f605760005b6003811015610f5157600086868360038110610e4557610e4561247b565b6020020151610e54908661243a565b610e5e9190612459565b90506000858360038110610e7457610e7461247b565b6020020151821115610ea857858360038110610e9257610e9261247b565b6020020151610ea190836124c4565b9050610ecd565b81868460038110610ebb57610ebb61247b565b6020020151610eca91906124c4565b90505b6402540be400610edd828d61243a565b610ee79190612459565b8c8460038110610ef957610ef961247b565b60200201528b8360038110610f1057610f1061247b565b6020020151868460038110610f2757610f2761247b565b60200201818151610f3891906124c4565b905250829150610f49905081612491565b915050610e27565b50610f5d8d848961109d565b90505b600086610f6e575081610f90565b85610f7981846124c4565b610f83908961243a565b610f8d9190612459565b90505b9d9c50505050505050505050505050565b60008381610fb08286866119ef565b9150506402540be400826001600160a01b031663fee3f7f96040518163ffffffff1660e01b8152600401602060405180830381865afa158015610ff7573d6000803e3d6000fd5b505050506040513d601f19601f8201168201806040525081019061101b919061240b565b611025908361243a565b61102f9190612459565b9695505050505050565b6000816001600160a01b031663fc0c546a6040518163ffffffff1660e01b8152600401602060405180830381865afa158015611079573d6000803e3d6000fd5b505050506040513d601f19601f820116820180604052508101906103939190612554565b60006110b26110ac8585611511565b83611d78565b949350505050565b6110c26121af565b8260006110d1600160036124c4565b6110dc90600461243a565b6003836001600160a01b031663ddca3f436040518163ffffffff1660e01b8152600401602060405180830381865afa15801561111c573d6000803e3d6000fd5b505050506040513d601f19601f82011682018060405250810190611140919061240b565b61114a919061243a565b6111549190612459565b90506000826001600160a01b031663fee3f7f96040518163ffffffff1660e01b8152600401602060405180830381865afa158015611196573d6000803e3d6000fd5b505050506040513d601f19601f820116820180604052508101906111ba919061240b565b90506000836001600160a01b031663f446c1d06040518163ffffffff1660e01b8152600401602060405180830381865afa1580156111fc573d6000803e3d6000fd5b505050506040513d601f19601f82011682018060405250810190611220919061240b565b9050600061122d88611039565b6001600160a01b03166318160ddd6040518163ffffffff1660e01b8152600401602060405180830381865afa15801561126a573d6000803e3d6000fd5b505050506040513d601f19601f8201168201806040525081019061128e919061240b565b905060008061129c8a610730565b905082156112b2576112af8a828661109d565b91505b60006040518060600160405280836000600381106112d2576112d261247b565b60200201518152602001836001600381106112ef576112ef61247b565b602002015181526020018360026003811061130c5761130c61247b565b60200201519052905060005b60038110156113bd578461135c5760008b826003811061133a5761133a61247b565b60200201511161135c5760405162461bcd60e51b8152600401610d84906124db565b8a816003811061136e5761136e61247b565b60200201518382600381106113855761138561247b565b602002015161139491906124ac565b8282600381106113a6576113a661247b565b6020020152806113b581612491565b915050611318565b5060006113cb8c838861109d565b90508381116113ec5760405162461bcd60e51b8152600401610d849061251d565b8415610b375760005b6003811015611501576000858583600381106114135761141361247b565b6020020151611422908561243a565b61142c9190612459565b905060008483600381106114425761144261247b565b6020020151821115611476578483600381106114605761146061247b565b602002015161146f90836124c4565b905061149b565b818584600381106114895761148961247b565b602002015161149891906124c4565b90505b60006402540be4006114ad838e61243a565b6114b79190612459565b90506402540be4006114c98c8361243a565b6114d39190612459565b8e85600381106114e5576114e561247b565b6020020152508291506114f9905081612491565b9150506113f5565b5050505050505050505092915050565b6115196121af565b611522836105de565b905060005b60038110156115a457670de0b6b3a764000083826003811061154b5761154b61247b565b60200201518383600381106115625761156261247b565b6020020151611571919061243a565b61157b9190612459565b82826003811061158d5761158d61247b565b60200201528061159c81612491565b915050611527565b5092915050565b600085816115b882610730565b905060006115c68983611511565b90506000836001600160a01b031663ddca3f436040518163ffffffff1660e01b8152600401602060405180830381865afa158015611608573d6000803e3d6000fd5b505050506040513d601f19601f8201168201806040525081019061162c919061240b565b61163b906402540be4006124c4565b61164a6402540be4008961243a565b6116549190612459565b90508288600381106116685761166861247b565b602002015181106116ac5760405162461bcd60e51b815260206004820152600e60248201526d4578636573732062616c616e636560901b6044820152606401610d84565b60006116b78b6105de565b90506000670de0b6b3a7640000828b600381106116d6576116d661247b565b60200201516116e5908561243a565b6116ef9190612459565b848b600381106117015761170161247b565b602002015161171091906124c4565b905060006117218d8c8e85896117ef565b90506000858d600381106117375761173761247b565b602002015161174690836124c4565b9050838d6003811061175a5761175a61247b565b6020020151611771670de0b6b3a76400008361243a565b61177b9190612459565b6117869060016124ac565b905089811115610f905760405162461bcd60e51b815260206004820152602e60248201527f45786368616e676520726573756c74656420696e20666577657220636f696e7360448201526d081d1a185b88195e1c1958dd195960921b6064820152608401610d84565b6000808690506000816001600160a01b031663f446c1d06040518163ffffffff1660e01b8152600401602060405180830381865afa158015611835573d6000803e3d6000fd5b505050506040513d601f19601f82011682018060405250810190611859919061240b565b905060006118678583611d78565b90508060008061187860038661243a565b90506000805b6003811015611901578c811415611897578a91506118c1565b8b81146118bc578981600381106118b0576118b061247b565b602002015191506118c1565b6118ef565b6118cb82856124ac565b93506118d860038361243a565b6118e2878761243a565b6118ec9190612459565b94505b806118f981612491565b91505061187e565b5061190d60038361243a565b611917868661243a565b6119219190612459565b9350600061192f8387612459565b61193990856124ac565b9050600086815b60ff8110156119db57819250888483600261195b919061243a565b61196591906124ac565b61196f91906124c4565b8861197a848061243a565b61198491906124ac565b61198e9190612459565b9150828211156119b35760016119a484846124c4565b116119ae576119db565b6119c9565b60016119bf83856124c4565b116119c9576119db565b806119d381612491565b915050611940565b509f9e505050505050505050505050505050565b60008060008590506000816001600160a01b031663f446c1d06040518163ffffffff1660e01b8152600401602060405180830381865afa158015611a37573d6000803e3d6000fd5b505050506040513d601f19601f82011682018060405250810190611a5b919061240b565b90506000611a6b600160036124c4565b611a7690600461243a565b6003846001600160a01b031663ddca3f436040518163ffffffff1660e01b8152600401602060405180830381865afa158015611ab6573d6000803e3d6000fd5b505050506040513d601f19601f82011682018060405250810190611ada919061240b565b611ae4919061243a565b611aee9190612459565b90506000611afb8961068a565b90506000611b088a611f0e565b90506000611b168286611d78565b90506000611b238c611039565b6001600160a01b03166318160ddd6040518163ffffffff1660e01b8152600401602060405180830381865afa158015611b60573d6000803e3d6000fd5b505050506040513d601f19601f82011682018060405250810190611b84919061240b565b611b8e838d61243a565b611b989190612459565b611ba290836124c4565b9050826000611bb3888d8486611ff4565b90506000868d60038110611bc957611bc961247b565b602002015182878f60038110611be157611be161247b565b6020020151611bf091906124c4565b611bfa9190612459565b905060005b6003811015611cf65760008e821415611c51578387878a8560038110611c2757611c2761247b565b6020020151611c36919061243a565b611c409190612459565b611c4a91906124c4565b9050611ca2565b8686898460038110611c6557611c6561247b565b6020020151611c74919061243a565b611c7e9190612459565b888360038110611c9057611c9061247b565b6020020151611c9f91906124c4565b90505b6402540be400611cb2828c61243a565b611cbc9190612459565b858360038110611cce57611cce61247b565b60200201818151611cdf91906124c4565b905250819050611cee81612491565b915050611bff565b506000611d058a8f8688611ff4565b848f60038110611d1757611d1761247b565b6020020151611d2691906124c4565b9050878e60038110611d3a57611d3a61247b565b6020020151611d4a6001836124c4565b611d549190612459565b905080611d6181846124c4565b9c509c505050505050505050505050935093915050565b60008060005b6003811015611dbc57848160038110611d9957611d9961247b565b6020020151611da890836124ac565b915080611db481612491565b915050611d7e565b5080611dcc576000915050610393565b60008181611ddb60038761243a565b905060005b60ff811015611f02578260005b6003811015611e415760038a8260038110611e0a57611e0a61247b565b6020020151611e19919061243a565b611e23868461243a565b611e2d9190612459565b915080611e3981612491565b915050611ded565b508394508060036001611e5491906124ac565b611e5e919061243a565b84611e6a6001866124c4565b611e74919061243a565b611e7e91906124ac565b84611e8a60038461243a565b611e94898761243a565b611e9e91906124ac565b611ea8919061243a565b611eb29190612459565b935084841115611ed8576001611ec886866124c4565b11611ed35750611f02565b611eef565b6001611ee485876124c4565b11611eef5750611f02565b5080611efa81612491565b915050611de0565b50909695505050505050565b611f166121af565b611f1f826105de565b905060005b600381101561068457604051634903b0d160e01b815260048101829052670de0b6b3a7640000906001600160a01b03851690634903b0d190602401602060405180830381865afa158015611f7c573d6000803e3d6000fd5b505050506040513d601f19601f82011682018060405250810190611fa0919061240b565b838360038110611fb257611fb261247b565b6020020151611fc1919061243a565b611fcb9190612459565b828260038110611fdd57611fdd61247b565b602002015280611fec81612491565b915050611f24565b60006003841061203d5760405162461bcd60e51b81526020600482015260146024820152736465763a20692061626f7665204e5f434f494e5360601b6044820152606401610d84565b8160008061204c60038961243a565b90506000805b60038110156120c557888114612080578781600381106120745761207461247b565b60200201519150612085565b6120b3565b61208f82856124ac565b935061209c60038361243a565b6120a6888761243a565b6120b09190612459565b94505b806120bd81612491565b915050612052565b506120d160038361243a565b6120db878661243a565b6120e59190612459565b935060006120f38388612459565b6120fd90856124ac565b9050600087815b60ff81101561219f57819250898483600261211f919061243a565b61212991906124ac565b61213391906124c4565b8861213e848061243a565b61214891906124ac565b6121529190612459565b91508282111561217757600161216884846124c4565b116121725761219f565b61218d565b600161218383856124c4565b1161218d5761219f565b8061219781612491565b915050612104565b509b9a5050505050505050505050565b60405180606001604052806003906020820280368337509192915050565b6001600160a01b03811681146121e257600080fd5b50565b600080604083850312156121f857600080fd5b8235612203816121cd565b946020939093013593505050565b60608101818360005b600381101561223957815183526020928301929091019060010161221a565b50505092915050565b6000806000806080858703121561225857600080fd5b8435612263816121cd565b966020860135965060408601359560600135945092505050565b60006020828403121561228f57600080fd5b813561229a816121cd565b9392505050565b600082601f8301126122b257600080fd5b6040516060810181811067ffffffffffffffff821117156122e357634e487b7160e01b600052604160045260246000fd5b6040528060608401858111156122f857600080fd5b845b818110156123125780358352602092830192016122fa565b509195945050505050565b6000806080838503121561233057600080fd5b823561233b816121cd565b915061234a84602085016122a1565b90509250929050565b60008060006060848603121561236857600080fd5b8335612373816121cd565b95602085013595506040909401359392505050565b600080600060a0848603121561239d57600080fd5b83356123a8816121cd565b92506123b785602086016122a1565b9150608084013590509250925092565b600080600080600060a086880312156123df57600080fd5b85356123ea816121cd565b97602087013597506040870135966060810135965060800135945092505050565b60006020828403121561241d57600080fd5b5051919050565b634e487b7160e01b600052601160045260246000fd5b600081600019048311821515161561245457612454612424565b500290565b60008261247657634e487b7160e01b600052601260045260246000fd5b500490565b634e487b7160e01b600052603260045260246000fd5b60006000198214156124a5576124a5612424565b5060010190565b600082198211156124bf576124bf612424565b500190565b6000828210156124d6576124d6612424565b500390565b60208082526022908201527f496e697469616c206465706f73697420726571756972657320616c6c20636f696040820152616e7360f01b606082015260800190565b6020808252601a908201527f4431206d7573742062652067726561746572207468616e204430000000000000604082015260600190565b60006020828403121561256657600080fd5b815161229a816121cd56fea2646970667358221220726e9f10d3bea67d3b0753dd76297b2bd1726a9b648223894e9623607ba2097d64736f6c634300080a0033",
  "linkReferences": {},
  "deployedLinkReferences": {}
}