{
  "_format": "hh-sol-artifact-1",
  "contractName": "RevenueSharingPoolKeeper",
  "sourceName": "contracts/keeper/RevenueSharingPoolKeeper.sol",
  "abi": [
    {
      "inputs": [
        {
          "internalType": "contract IRevenueSharingPool",
          "name": "_RevenueSharingPool",
          "type": "address"
        }
      ],
      "stateMutability": "nonpayable",
      "type": "constructor"
    },
    {
      "anonymous": false,
      "inputs": [
        {
          "indexed": true,
          "internalType": "address",
          "name": "register",
          "type": "address"
        }
      ],
      "name": "NewRegister",
      "type": "event"
    },
    {
      "anonymous": false,
      "inputs": [
        {
          "indexed": true,
          "internalType": "address",
          "name": "previousOwner",
          "type": "address"
        },
        {
          "indexed": true,
          "internalType": "address",
          "name": "newOwner",
          "type": "address"
        }
      ],
      "name": "OwnershipTransferred",
      "type": "event"
    },
    {
      "anonymous": false,
      "inputs": [
        {
          "indexed": false,
          "internalType": "address",
          "name": "account",
          "type": "address"
        }
      ],
      "name": "Paused",
      "type": "event"
    },
    {
      "anonymous": false,
      "inputs": [
        {
          "indexed": false,
          "internalType": "address",
          "name": "account",
          "type": "address"
        }
      ],
      "name": "Unpaused",
      "type": "event"
    },
    {
      "inputs": [],
      "name": "RevenueSharingPool",
      "outputs": [
        {
          "internalType": "contract IRevenueSharingPool",
          "name": "",
          "type": "address"
        }
      ],
      "stateMutability": "view",
      "type": "function"
    },
    {
      "inputs": [],
      "name": "WEEK",
      "outputs": [
        {
          "internalType": "uint256",
          "name": "",
          "type": "uint256"
        }
      ],
      "stateMutability": "view",
      "type": "function"
    },
    {
      "inputs": [
        {
          "internalType": "bytes",
          "name": "",
          "type": "bytes"
        }
      ],
      "name": "checkUpkeep",
      "outputs": [
        {
          "internalType": "bool",
          "name": "upkeepNeeded",
          "type": "bool"
        },
        {
          "internalType": "bytes",
          "name": "",
          "type": "bytes"
        }
      ],
      "stateMutability": "view",
      "type": "function"
    },
    {
      "inputs": [
        {
          "internalType": "uint256",
          "name": "",
          "type": "uint256"
        }
      ],
      "name": "checkpointTokenFlag",
      "outputs": [
        {
          "internalType": "bool",
          "name": "",
          "type": "bool"
        }
      ],
      "stateMutability": "view",
      "type": "function"
    },
    {
      "inputs": [],
      "name": "owner",
      "outputs": [
        {
          "internalType": "address",
          "name": "",
          "type": "address"
        }
      ],
      "stateMutability": "view",
      "type": "function"
    },
    {
      "inputs": [],
      "name": "pause",
      "outputs": [],
      "stateMutability": "nonpayable",
      "type": "function"
    },
    {
      "inputs": [],
      "name": "paused",
      "outputs": [
        {
          "internalType": "bool",
          "name": "",
          "type": "bool"
        }
      ],
      "stateMutability": "view",
      "type": "function"
    },
    {
      "inputs": [
        {
          "internalType": "bytes",
          "name": "",
          "type": "bytes"
        }
      ],
      "name": "performUpkeep",
      "outputs": [],
      "stateMutability": "nonpayable",
      "type": "function"
    },
    {
      "inputs": [],
      "name": "register",
      "outputs": [
        {
          "internalType": "address",
          "name": "",
          "type": "address"
        }
      ],
      "stateMutability": "view",
      "type": "function"
    },
    {
      "inputs": [],
      "name": "renounceOwnership",
      "outputs": [],
      "stateMutability": "nonpayable",
      "type": "function"
    },
    {
      "inputs": [
        {
          "internalType": "address",
          "name": "_register",
          "type": "address"
        }
      ],
      "name": "setRegister",
      "outputs": [],
      "stateMutability": "nonpayable",
      "type": "function"
    },
    {
      "inputs": [
        {
          "internalType": "address",
          "name": "newOwner",
          "type": "address"
        }
      ],
      "name": "transferOwnership",
      "outputs": [],
      "stateMutability": "nonpayable",
      "type": "function"
    },
    {
      "inputs": [],
      "name": "unpause",
      "outputs": [],
      "stateMutability": "nonpayable",
      "type": "function"
    }
  ],
  "bytecode": "0x60a060405234801561001057600080fd5b5060405161106538038061106583398101604081905261002f916100a6565b61003833610056565b6000805460ff60a01b191690556001600160a01b03166080526100d6565b600080546001600160a01b038381166001600160a01b0319831681178455604051919092169283917f8be0079c531659141344cd1fd0a4f28419497f9722a3daafe3b4186f6b6457e09190a35050565b6000602082840312156100b857600080fd5b81516001600160a01b03811681146100cf57600080fd5b9392505050565b608051610f5861010d60003960008181610204015281816103eb015281816105200152818161057d01526107990152610f586000f3fe608060405234801561001057600080fd5b50600436106100df5760003560e01c8063715018a61161008c578063e5172fc411610066578063e5172fc4146101dc578063f2ac5f47146101ff578063f2fde38b14610226578063f4359ce51461023957600080fd5b8063715018a6146101ae5780638456cb59146101b65780638da5cb5b146101be57600080fd5b806359ce3b48116100bd57806359ce3b481461014b5780635c975abb1461015e5780636e04ff0d1461018d57600080fd5b80631aa3a008146100e45780633f4ba83a1461012e5780634585e33b14610138575b600080fd5b6001546101049073ffffffffffffffffffffffffffffffffffffffff1681565b60405173ffffffffffffffffffffffffffffffffffffffff90911681526020015b60405180910390f35b610136610251565b005b610136610146366004610d25565b6102e1565b610136610159366004610d97565b610602565b60005474010000000000000000000000000000000000000000900460ff165b6040519015158152602001610125565b6101a061019b366004610d25565b61076f565b604051610125929190610dd4565b610136610867565b6101366108f2565b60005473ffffffffffffffffffffffffffffffffffffffff16610104565b61017d6101ea366004610e51565b60026020526000908152604090205460ff1681565b6101047f000000000000000000000000000000000000000000000000000000000000000081565b610136610234366004610d97565b61097b565b61024362093a8081565b604051908152602001610125565b60005473ffffffffffffffffffffffffffffffffffffffff1633146102d7576040517f08c379a000000000000000000000000000000000000000000000000000000000815260206004820181905260248201527f4f776e61626c653a2063616c6c6572206973206e6f7420746865206f776e657260448201526064015b60405180910390fd5b6102df610aab565b565b60015473ffffffffffffffffffffffffffffffffffffffff163314610362576040517f08c379a000000000000000000000000000000000000000000000000000000000815260206004820152600c60248201527f4e6f74207265676973746572000000000000000000000000000000000000000060448201526064016102ce565b60005474010000000000000000000000000000000000000000900460ff16156103e7576040517f08c379a000000000000000000000000000000000000000000000000000000000815260206004820152601060248201527f5061757361626c653a207061757365640000000000000000000000000000000060448201526064016102ce565b60007f000000000000000000000000000000000000000000000000000000000000000073ffffffffffffffffffffffffffffffffffffffff1663e1ebb9f06040518163ffffffff1660e01b8152600401602060405180830381865afa158015610454573d6000803e3d6000fd5b505050506040513d601f19601f820116820180604052508101906104789190610e6a565b9050600061048542610ba4565b905080821080156104a5575060008181526002602052604090205460ff16155b156105fc5760008181526002602052604080822080547fffffffffffffffffffffffffffffffffffffffffffffffffffffffffffffff0016600117905580517fbee5dc32000000000000000000000000000000000000000000000000000000008152905173ffffffffffffffffffffffffffffffffffffffff7f0000000000000000000000000000000000000000000000000000000000000000169263bee5dc32926004808201939182900301818387803b15801561056357600080fd5b505af1158015610577573d6000803e3d6000fd5b505050507f000000000000000000000000000000000000000000000000000000000000000073ffffffffffffffffffffffffffffffffffffffff1663326a94076040518163ffffffff1660e01b8152600401600060405180830381600087803b1580156105e357600080fd5b505af11580156105f7573d6000803e3d6000fd5b505050505b50505050565b60005473ffffffffffffffffffffffffffffffffffffffff163314610683576040517f08c379a000000000000000000000000000000000000000000000000000000000815260206004820181905260248201527f4f776e61626c653a2063616c6c6572206973206e6f7420746865206f776e657260448201526064016102ce565b73ffffffffffffffffffffffffffffffffffffffff8116610700576040517f08c379a000000000000000000000000000000000000000000000000000000000815260206004820152601760248201527f43616e206e6f74206265207a65726f206164647265737300000000000000000060448201526064016102ce565b600180547fffffffffffffffffffffffff00000000000000000000000000000000000000001673ffffffffffffffffffffffffffffffffffffffff83169081179091556040517f82b769e772c260bd3d5d5644881d43a4c580224a3861bb3e4c9b57bb7349a65390600090a250565b6000805460609074010000000000000000000000000000000000000000900460ff166108605760007f000000000000000000000000000000000000000000000000000000000000000073ffffffffffffffffffffffffffffffffffffffff1663e1ebb9f06040518163ffffffff1660e01b8152600401602060405180830381865afa158015610802573d6000803e3d6000fd5b505050506040513d601f19601f820116820180604052508101906108269190610e6a565b9050600061083342610ba4565b90508082108015610853575060008181526002602052604090205460ff16155b1561085d57600193505b50505b9250929050565b60005473ffffffffffffffffffffffffffffffffffffffff1633146108e8576040517f08c379a000000000000000000000000000000000000000000000000000000000815260206004820181905260248201527f4f776e61626c653a2063616c6c6572206973206e6f7420746865206f776e657260448201526064016102ce565b6102df6000610bc4565b60005473ffffffffffffffffffffffffffffffffffffffff163314610973576040517f08c379a000000000000000000000000000000000000000000000000000000000815260206004820181905260248201527f4f776e61626c653a2063616c6c6572206973206e6f7420746865206f776e657260448201526064016102ce565b6102df610c39565b60005473ffffffffffffffffffffffffffffffffffffffff1633146109fc576040517f08c379a000000000000000000000000000000000000000000000000000000000815260206004820181905260248201527f4f776e61626c653a2063616c6c6572206973206e6f7420746865206f776e657260448201526064016102ce565b73ffffffffffffffffffffffffffffffffffffffff8116610a9f576040517f08c379a000000000000000000000000000000000000000000000000000000000815260206004820152602660248201527f4f776e61626c653a206e6577206f776e657220697320746865207a65726f206160448201527f646472657373000000000000000000000000000000000000000000000000000060648201526084016102ce565b610aa881610bc4565b50565b60005474010000000000000000000000000000000000000000900460ff16610b2f576040517f08c379a000000000000000000000000000000000000000000000000000000000815260206004820152601460248201527f5061757361626c653a206e6f742070617573656400000000000000000000000060448201526064016102ce565b600080547fffffffffffffffffffffff00ffffffffffffffffffffffffffffffffffffffff1690557f5db9ee0a495bf2e6ff9c91a7834c1ba4fdd244a5e8aa4e537bd38aeae4b073aa335b60405173ffffffffffffffffffffffffffffffffffffffff909116815260200160405180910390a1565b600062093a80610bb48184610e83565b610bbe9190610ebe565b92915050565b6000805473ffffffffffffffffffffffffffffffffffffffff8381167fffffffffffffffffffffffff0000000000000000000000000000000000000000831681178455604051919092169283917f8be0079c531659141344cd1fd0a4f28419497f9722a3daafe3b4186f6b6457e09190a35050565b60005474010000000000000000000000000000000000000000900460ff1615610cbe576040517f08c379a000000000000000000000000000000000000000000000000000000000815260206004820152601060248201527f5061757361626c653a207061757365640000000000000000000000000000000060448201526064016102ce565b600080547fffffffffffffffffffffff00ffffffffffffffffffffffffffffffffffffffff16740100000000000000000000000000000000000000001790557f62e78cea01bee320cd4e420270b5ea74000d11b0c9f74754ebdbfc544b05a258610b7a3390565b60008060208385031215610d3857600080fd5b823567ffffffffffffffff80821115610d5057600080fd5b818501915085601f830112610d6457600080fd5b813581811115610d7357600080fd5b866020828501011115610d8557600080fd5b60209290920196919550909350505050565b600060208284031215610da957600080fd5b813573ffffffffffffffffffffffffffffffffffffffff81168114610dcd57600080fd5b9392505050565b821515815260006020604081840152835180604085015260005b81811015610e0a57858101830151858201606001528201610dee565b81811115610e1c576000606083870101525b50601f017fffffffffffffffffffffffffffffffffffffffffffffffffffffffffffffffe01692909201606001949350505050565b600060208284031215610e6357600080fd5b5035919050565b600060208284031215610e7c57600080fd5b5051919050565b600082610eb9577f4e487b7100000000000000000000000000000000000000000000000000000000600052601260045260246000fd5b500490565b6000817fffffffffffffffffffffffffffffffffffffffffffffffffffffffffffffffff0483118215151615610f1d577f4e487b7100000000000000000000000000000000000000000000000000000000600052601160045260246000fd5b50029056fea2646970667358221220cebd13c23693bbf1dbd0fcfb189818265177e1164effd7851a5fe6332c7e03bd64736f6c634300080a0033",
  "linkReferences": {},
  "deployedLinkReferences": {}
}