{
  "_format": "hh-sol-artifact-1",
  "contractName": "GaugeVoting",
  "sourceName": "contracts/GaugeVoting.sol",
  "abi": [
    {
      "inputs": [
        {
          "internalType": "address",
          "name": "_votingEscrow",
          "type": "address"
        }
      ],
      "stateMutability": "nonpayable",
      "type": "constructor"
    },
    {
      "anonymous": false,
      "inputs": [
        {
          "indexed": false,
          "internalType": "string",
          "name": "name",
          "type": "string"
        },
        {
          "indexed": false,
          "internalType": "uint256",
          "name": "type_id",
          "type": "uint256"
        }
      ],
      "name": "AddType",
      "type": "event"
    },
    {
      "anonymous": false,
      "inputs": [
        {
          "indexed": true,
          "internalType": "address",
          "name": "sender",
          "type": "address"
        },
        {
          "indexed": false,
          "internalType": "uint256",
          "name": "allocation",
          "type": "uint256"
        }
      ],
      "name": "AdminAllocationChanged",
      "type": "event"
    },
    {
      "anonymous": false,
      "inputs": [
        {
          "indexed": true,
          "internalType": "address",
          "name": "sender",
          "type": "address"
        },
        {
          "indexed": false,
          "internalType": "uint256",
          "name": "period",
          "type": "uint256"
        }
      ],
      "name": "AdminOnlyPeriodUpdated",
      "type": "event"
    },
    {
      "anonymous": false,
      "inputs": [
        {
          "indexed": true,
          "internalType": "address",
          "name": "sender",
          "type": "address"
        },
        {
          "indexed": true,
          "internalType": "address",
          "name": "gauage_addr",
          "type": "address"
        },
        {
          "indexed": false,
          "internalType": "uint256",
          "name": "chainId",
          "type": "uint256"
        },
        {
          "indexed": false,
          "internalType": "bytes32",
          "name": "hash",
          "type": "bytes32"
        }
      ],
      "name": "GaugeKilled",
      "type": "event"
    },
    {
      "anonymous": false,
      "inputs": [
        {
          "indexed": true,
          "internalType": "address",
          "name": "sender",
          "type": "address"
        },
        {
          "indexed": true,
          "internalType": "address",
          "name": "gauage_addr",
          "type": "address"
        },
        {
          "indexed": false,
          "internalType": "uint256",
          "name": "chainId",
          "type": "uint256"
        },
        {
          "indexed": false,
          "internalType": "bytes32",
          "name": "hash",
          "type": "bytes32"
        }
      ],
      "name": "GaugeUnKilled",
      "type": "event"
    },
    {
      "anonymous": false,
      "inputs": [
        {
          "indexed": false,
          "internalType": "bytes32",
          "name": "hash",
          "type": "bytes32"
        },
        {
          "indexed": false,
          "internalType": "uint256",
          "name": "gauge_type",
          "type": "uint256"
        },
        {
          "indexed": false,
          "internalType": "uint256",
          "name": "weight",
          "type": "uint256"
        },
        {
          "indexed": false,
          "internalType": "uint256",
          "name": "pid",
          "type": "uint256"
        },
        {
          "indexed": false,
          "internalType": "address",
          "name": "masterChef",
          "type": "address"
        },
        {
          "indexed": false,
          "internalType": "uint256",
          "name": "chainId",
          "type": "uint256"
        },
        {
          "indexed": false,
          "internalType": "uint256",
          "name": "boostMultiplier",
          "type": "uint256"
        },
        {
          "indexed": false,
          "internalType": "uint256",
          "name": "maxVoteCap",
          "type": "uint256"
        }
      ],
      "name": "NewGauge",
      "type": "event"
    },
    {
      "anonymous": false,
      "inputs": [
        {
          "indexed": false,
          "internalType": "bytes32",
          "name": "hash",
          "type": "bytes32"
        },
        {
          "indexed": false,
          "internalType": "uint256",
          "name": "time",
          "type": "uint256"
        },
        {
          "indexed": false,
          "internalType": "uint256",
          "name": "weight",
          "type": "uint256"
        },
        {
          "indexed": false,
          "internalType": "uint256",
          "name": "total_weight",
          "type": "uint256"
        }
      ],
      "name": "NewGaugeWeight",
      "type": "event"
    },
    {
      "anonymous": false,
      "inputs": [
        {
          "indexed": false,
          "internalType": "uint256",
          "name": "type_id",
          "type": "uint256"
        },
        {
          "indexed": false,
          "internalType": "uint256",
          "name": "time",
          "type": "uint256"
        },
        {
          "indexed": false,
          "internalType": "uint256",
          "name": "weight",
          "type": "uint256"
        },
        {
          "indexed": false,
          "internalType": "uint256",
          "name": "total_weight",
          "type": "uint256"
        }
      ],
      "name": "NewTypeWeight",
      "type": "event"
    },
    {
      "anonymous": false,
      "inputs": [
        {
          "indexed": true,
          "internalType": "address",
          "name": "previousOwner",
          "type": "address"
        },
        {
          "indexed": true,
          "internalType": "address",
          "name": "newOwner",
          "type": "address"
        }
      ],
      "name": "OwnershipTransferred",
      "type": "event"
    },
    {
      "anonymous": false,
      "inputs": [
        {
          "indexed": false,
          "internalType": "address",
          "name": "account",
          "type": "address"
        }
      ],
      "name": "Paused",
      "type": "event"
    },
    {
      "anonymous": false,
      "inputs": [
        {
          "indexed": false,
          "internalType": "address",
          "name": "account",
          "type": "address"
        }
      ],
      "name": "Unpaused",
      "type": "event"
    },
    {
      "anonymous": false,
      "inputs": [
        {
          "indexed": false,
          "internalType": "bytes32",
          "name": "hash",
          "type": "bytes32"
        },
        {
          "indexed": false,
          "internalType": "uint256",
          "name": "pid",
          "type": "uint256"
        },
        {
          "indexed": false,
          "internalType": "address",
          "name": "masterChef",
          "type": "address"
        },
        {
          "indexed": false,
          "internalType": "uint256",
          "name": "chainId",
          "type": "uint256"
        },
        {
          "indexed": false,
          "internalType": "uint256",
          "name": "boostMultiplier",
          "type": "uint256"
        },
        {
          "indexed": false,
          "internalType": "uint256",
          "name": "maxVoteCap",
          "type": "uint256"
        }
      ],
      "name": "UpdateGaugeInfo",
      "type": "event"
    },
    {
      "anonymous": false,
      "inputs": [
        {
          "indexed": false,
          "internalType": "uint256",
          "name": "time",
          "type": "uint256"
        },
        {
          "indexed": false,
          "internalType": "address",
          "name": "user",
          "type": "address"
        },
        {
          "indexed": false,
          "internalType": "bytes32",
          "name": "hash",
          "type": "bytes32"
        },
        {
          "indexed": false,
          "internalType": "uint256",
          "name": "weight",
          "type": "uint256"
        }
      ],
      "name": "VoteForGauge",
      "type": "event"
    },
    {
      "anonymous": false,
      "inputs": [
        {
          "indexed": false,
          "internalType": "uint256",
          "name": "time",
          "type": "uint256"
        },
        {
          "indexed": false,
          "internalType": "address",
          "name": "user",
          "type": "address"
        },
        {
          "indexed": false,
          "internalType": "bytes32",
          "name": "hash",
          "type": "bytes32"
        },
        {
          "indexed": false,
          "internalType": "uint256",
          "name": "weight",
          "type": "uint256"
        }
      ],
      "name": "VoteForGaugeFromAdmin",
      "type": "event"
    },
    {
      "anonymous": false,
      "inputs": [
        {
          "indexed": true,
          "internalType": "address",
          "name": "sender",
          "type": "address"
        },
        {
          "indexed": false,
          "internalType": "uint256",
          "name": "delay",
          "type": "uint256"
        }
      ],
      "name": "WeightVoteDelayChanged",
      "type": "event"
    },
    {
      "inputs": [],
      "name": "ADMIN_VOTE_PERIOD",
      "outputs": [
        {
          "internalType": "uint256",
          "name": "",
          "type": "uint256"
        }
      ],
      "stateMutability": "view",
      "type": "function"
    },
    {
      "inputs": [],
      "name": "WEIGHT_VOTE_DELAY",
      "outputs": [
        {
          "internalType": "uint256",
          "name": "",
          "type": "uint256"
        }
      ],
      "stateMutability": "view",
      "type": "function"
    },
    {
      "inputs": [
        {
          "internalType": "address",
          "name": "gauge_addr",
          "type": "address"
        },
        {
          "internalType": "uint256",
          "name": "gauge_type",
          "type": "uint256"
        },
        {
          "internalType": "uint256",
          "name": "_weight",
          "type": "uint256"
        },
        {
          "internalType": "uint256",
          "name": "_pid",
          "type": "uint256"
        },
        {
          "internalType": "address",
          "name": "_masterChef",
          "type": "address"
        },
        {
          "internalType": "uint256",
          "name": "_chainId",
          "type": "uint256"
        },
        {
          "internalType": "uint256",
          "name": "_boostMultiplier",
          "type": "uint256"
        },
        {
          "internalType": "uint256",
          "name": "_maxVoteCap",
          "type": "uint256"
        }
      ],
      "name": "addGauge",
      "outputs": [],
      "stateMutability": "nonpayable",
      "type": "function"
    },
    {
      "inputs": [
        {
          "internalType": "string",
          "name": "_name",
          "type": "string"
        },
        {
          "internalType": "uint256",
          "name": "_weight",
          "type": "uint256"
        }
      ],
      "name": "addType",
      "outputs": [],
      "stateMutability": "nonpayable",
      "type": "function"
    },
    {
      "inputs": [],
      "name": "adminAllocation",
      "outputs": [
        {
          "internalType": "uint256",
          "name": "",
          "type": "uint256"
        }
      ],
      "stateMutability": "view",
      "type": "function"
    },
    {
      "inputs": [
        {
          "internalType": "uint256",
          "name": "",
          "type": "uint256"
        }
      ],
      "name": "adminSlopes",
      "outputs": [
        {
          "internalType": "uint256",
          "name": "",
          "type": "uint256"
        }
      ],
      "stateMutability": "view",
      "type": "function"
    },
    {
      "inputs": [
        {
          "internalType": "uint256",
          "name": "_numerator",
          "type": "uint256"
        }
      ],
      "name": "changeAdminAllocation",
      "outputs": [],
      "stateMutability": "nonpayable",
      "type": "function"
    },
    {
      "inputs": [
        {
          "internalType": "address",
          "name": "gauge_addr",
          "type": "address"
        },
        {
          "internalType": "uint256",
          "name": "weight",
          "type": "uint256"
        },
        {
          "internalType": "uint256",
          "name": "_chainId",
          "type": "uint256"
        }
      ],
      "name": "changeGaugeWeight",
      "outputs": [],
      "stateMutability": "nonpayable",
      "type": "function"
    },
    {
      "inputs": [
        {
          "internalType": "uint256",
          "name": "type_id",
          "type": "uint256"
        },
        {
          "internalType": "uint256",
          "name": "weight",
          "type": "uint256"
        }
      ],
      "name": "changeTypeWeight",
      "outputs": [],
      "stateMutability": "nonpayable",
      "type": "function"
    },
    {
      "inputs": [
        {
          "internalType": "uint256",
          "name": "_delay",
          "type": "uint256"
        }
      ],
      "name": "changeWeightVoteDelay",
      "outputs": [],
      "stateMutability": "nonpayable",
      "type": "function"
    },
    {
      "inputs": [],
      "name": "checkpoint",
      "outputs": [],
      "stateMutability": "nonpayable",
      "type": "function"
    },
    {
      "inputs": [
        {
          "internalType": "address",
          "name": "gauge_addr",
          "type": "address"
        },
        {
          "internalType": "uint256",
          "name": "_chainId",
          "type": "uint256"
        }
      ],
      "name": "checkpointGauge",
      "outputs": [],
      "stateMutability": "nonpayable",
      "type": "function"
    },
    {
      "inputs": [
        {
          "internalType": "bytes32",
          "name": "",
          "type": "bytes32"
        },
        {
          "internalType": "uint256",
          "name": "",
          "type": "uint256"
        }
      ],
      "name": "gaugeChangesWeight",
      "outputs": [
        {
          "internalType": "uint256",
          "name": "",
          "type": "uint256"
        }
      ],
      "stateMutability": "view",
      "type": "function"
    },
    {
      "inputs": [],
      "name": "gaugeCount",
      "outputs": [
        {
          "internalType": "uint256",
          "name": "",
          "type": "uint256"
        }
      ],
      "stateMutability": "view",
      "type": "function"
    },
    {
      "inputs": [
        {
          "internalType": "bytes32",
          "name": "",
          "type": "bytes32"
        }
      ],
      "name": "gaugeIndex_",
      "outputs": [
        {
          "internalType": "uint256",
          "name": "",
          "type": "uint256"
        }
      ],
      "stateMutability": "view",
      "type": "function"
    },
    {
      "inputs": [
        {
          "internalType": "bytes32",
          "name": "",
          "type": "bytes32"
        }
      ],
      "name": "gaugeIsKilled_",
      "outputs": [
        {
          "internalType": "bool",
          "name": "",
          "type": "bool"
        }
      ],
      "stateMutability": "view",
      "type": "function"
    },
    {
      "inputs": [
        {
          "internalType": "bytes32",
          "name": "",
          "type": "bytes32"
        }
      ],
      "name": "gaugeLastScheduled",
      "outputs": [
        {
          "internalType": "uint256",
          "name": "",
          "type": "uint256"
        }
      ],
      "stateMutability": "view",
      "type": "function"
    },
    {
      "inputs": [
        {
          "internalType": "uint256",
          "name": "",
          "type": "uint256"
        }
      ],
      "name": "gaugePointsTotal",
      "outputs": [
        {
          "internalType": "uint256",
          "name": "",
          "type": "uint256"
        }
      ],
      "stateMutability": "view",
      "type": "function"
    },
    {
      "inputs": [
        {
          "internalType": "bytes32",
          "name": "",
          "type": "bytes32"
        },
        {
          "internalType": "uint256",
          "name": "",
          "type": "uint256"
        }
      ],
      "name": "gaugePointsWeight",
      "outputs": [
        {
          "internalType": "uint256",
          "name": "bias",
          "type": "uint256"
        },
        {
          "internalType": "uint256",
          "name": "slope",
          "type": "uint256"
        }
      ],
      "stateMutability": "view",
      "type": "function"
    },
    {
      "inputs": [
        {
          "internalType": "address",
          "name": "gauge_addr",
          "type": "address"
        },
        {
          "internalType": "uint256",
          "name": "time",
          "type": "uint256"
        },
        {
          "internalType": "uint256",
          "name": "_chainId",
          "type": "uint256"
        }
      ],
      "name": "gaugeRelativeWeight",
      "outputs": [
        {
          "internalType": "uint256",
          "name": "",
          "type": "uint256"
        }
      ],
      "stateMutability": "view",
      "type": "function"
    },
    {
      "inputs": [
        {
          "internalType": "address",
          "name": "gauge_addr",
          "type": "address"
        },
        {
          "internalType": "uint256",
          "name": "time",
          "type": "uint256"
        },
        {
          "internalType": "uint256",
          "name": "_chainId",
          "type": "uint256"
        }
      ],
      "name": "gaugeRelativeWeight_write",
      "outputs": [
        {
          "internalType": "uint256",
          "name": "",
          "type": "uint256"
        }
      ],
      "stateMutability": "nonpayable",
      "type": "function"
    },
    {
      "inputs": [
        {
          "internalType": "uint256",
          "name": "",
          "type": "uint256"
        },
        {
          "internalType": "uint256",
          "name": "",
          "type": "uint256"
        }
      ],
      "name": "gaugeTypeChangesSum",
      "outputs": [
        {
          "internalType": "uint256",
          "name": "",
          "type": "uint256"
        }
      ],
      "stateMutability": "view",
      "type": "function"
    },
    {
      "inputs": [
        {
          "internalType": "uint256",
          "name": "",
          "type": "uint256"
        }
      ],
      "name": "gaugeTypeLastScheduled",
      "outputs": [
        {
          "internalType": "uint256",
          "name": "",
          "type": "uint256"
        }
      ],
      "stateMutability": "view",
      "type": "function"
    },
    {
      "inputs": [
        {
          "internalType": "uint256",
          "name": "",
          "type": "uint256"
        }
      ],
      "name": "gaugeTypeNames",
      "outputs": [
        {
          "internalType": "string",
          "name": "",
          "type": "string"
        }
      ],
      "stateMutability": "view",
      "type": "function"
    },
    {
      "inputs": [
        {
          "internalType": "uint256",
          "name": "",
          "type": "uint256"
        },
        {
          "internalType": "uint256",
          "name": "",
          "type": "uint256"
        }
      ],
      "name": "gaugeTypePointsSum",
      "outputs": [
        {
          "internalType": "uint256",
          "name": "bias",
          "type": "uint256"
        },
        {
          "internalType": "uint256",
          "name": "slope",
          "type": "uint256"
        }
      ],
      "stateMutability": "view",
      "type": "function"
    },
    {
      "inputs": [
        {
          "internalType": "uint256",
          "name": "",
          "type": "uint256"
        },
        {
          "internalType": "uint256",
          "name": "",
          "type": "uint256"
        }
      ],
      "name": "gaugeTypePointsWeight",
      "outputs": [
        {
          "internalType": "uint256",
          "name": "",
          "type": "uint256"
        }
      ],
      "stateMutability": "view",
      "type": "function"
    },
    {
      "inputs": [
        {
          "internalType": "uint256",
          "name": "",
          "type": "uint256"
        }
      ],
      "name": "gaugeTypeSumLastScheduled",
      "outputs": [
        {
          "internalType": "uint256",
          "name": "",
          "type": "uint256"
        }
      ],
      "stateMutability": "view",
      "type": "function"
    },
    {
      "inputs": [],
      "name": "gaugeTypes",
      "outputs": [
        {
          "internalType": "uint256",
          "name": "",
          "type": "uint256"
        }
      ],
      "stateMutability": "view",
      "type": "function"
    },
    {
      "inputs": [
        {
          "internalType": "bytes32",
          "name": "",
          "type": "bytes32"
        }
      ],
      "name": "gaugeTypes_",
      "outputs": [
        {
          "internalType": "uint256",
          "name": "",
          "type": "uint256"
        }
      ],
      "stateMutability": "view",
      "type": "function"
    },
    {
      "inputs": [
        {
          "internalType": "uint256",
          "name": "",
          "type": "uint256"
        }
      ],
      "name": "gauges",
      "outputs": [
        {
          "internalType": "uint256",
          "name": "pid",
          "type": "uint256"
        },
        {
          "internalType": "address",
          "name": "masterChef",
          "type": "address"
        },
        {
          "internalType": "uint256",
          "name": "chainId",
          "type": "uint256"
        },
        {
          "internalType": "address",
          "name": "pairAddress",
          "type": "address"
        },
        {
          "internalType": "uint256",
          "name": "boostMultiplier",
          "type": "uint256"
        },
        {
          "internalType": "uint256",
          "name": "maxVoteCap",
          "type": "uint256"
        }
      ],
      "stateMutability": "view",
      "type": "function"
    },
    {
      "inputs": [
        {
          "internalType": "address",
          "name": "gauge_addr",
          "type": "address"
        },
        {
          "internalType": "uint256",
          "name": "_chainId",
          "type": "uint256"
        },
        {
          "internalType": "bool",
          "name": "inCap",
          "type": "bool"
        }
      ],
      "name": "getGaugeWeight",
      "outputs": [
        {
          "internalType": "uint256",
          "name": "",
          "type": "uint256"
        }
      ],
      "stateMutability": "view",
      "type": "function"
    },
    {
      "inputs": [
        {
          "internalType": "bool",
          "name": "inCap",
          "type": "bool"
        }
      ],
      "name": "getTotalWeight",
      "outputs": [
        {
          "internalType": "uint256",
          "name": "",
          "type": "uint256"
        }
      ],
      "stateMutability": "view",
      "type": "function"
    },
    {
      "inputs": [
        {
          "internalType": "uint256",
          "name": "_typeId",
          "type": "uint256"
        },
        {
          "internalType": "uint256",
          "name": "_chainId",
          "type": "uint256"
        }
      ],
      "name": "getTypeAndChainIdWeightCapped",
      "outputs": [
        {
          "internalType": "uint256",
          "name": "",
          "type": "uint256"
        }
      ],
      "stateMutability": "view",
      "type": "function"
    },
    {
      "inputs": [
        {
          "internalType": "uint256",
          "name": "_typeId",
          "type": "uint256"
        }
      ],
      "name": "getWeightsSumPerType",
      "outputs": [
        {
          "internalType": "uint256",
          "name": "",
          "type": "uint256"
        }
      ],
      "stateMutability": "view",
      "type": "function"
    },
    {
      "inputs": [
        {
          "internalType": "address",
          "name": "_gauge_addr",
          "type": "address"
        },
        {
          "internalType": "uint256",
          "name": "_chainId",
          "type": "uint256"
        }
      ],
      "name": "killGauge",
      "outputs": [],
      "stateMutability": "nonpayable",
      "type": "function"
    },
    {
      "inputs": [
        {
          "internalType": "address",
          "name": "",
          "type": "address"
        },
        {
          "internalType": "bytes32",
          "name": "",
          "type": "bytes32"
        }
      ],
      "name": "lastUserVote",
      "outputs": [
        {
          "internalType": "uint256",
          "name": "",
          "type": "uint256"
        }
      ],
      "stateMutability": "view",
      "type": "function"
    },
    {
      "inputs": [],
      "name": "owner",
      "outputs": [
        {
          "internalType": "address",
          "name": "",
          "type": "address"
        }
      ],
      "stateMutability": "view",
      "type": "function"
    },
    {
      "inputs": [],
      "name": "paused",
      "outputs": [
        {
          "internalType": "bool",
          "name": "",
          "type": "bool"
        }
      ],
      "stateMutability": "view",
      "type": "function"
    },
    {
      "inputs": [],
      "name": "renounceOwnership",
      "outputs": [],
      "stateMutability": "nonpayable",
      "type": "function"
    },
    {
      "inputs": [],
      "name": "totalLastScheduled",
      "outputs": [
        {
          "internalType": "uint256",
          "name": "",
          "type": "uint256"
        }
      ],
      "stateMutability": "view",
      "type": "function"
    },
    {
      "inputs": [
        {
          "internalType": "address",
          "name": "newOwner",
          "type": "address"
        }
      ],
      "name": "transferOwnership",
      "outputs": [],
      "stateMutability": "nonpayable",
      "type": "function"
    },
    {
      "inputs": [
        {
          "internalType": "address",
          "name": "_gauge_addr",
          "type": "address"
        },
        {
          "internalType": "uint256",
          "name": "_chainId",
          "type": "uint256"
        }
      ],
      "name": "unkillGauge",
      "outputs": [],
      "stateMutability": "nonpayable",
      "type": "function"
    },
    {
      "inputs": [
        {
          "internalType": "uint256",
          "name": "_newAdminOnlyPeriod",
          "type": "uint256"
        }
      ],
      "name": "updateAdminOnlyPeriod",
      "outputs": [],
      "stateMutability": "nonpayable",
      "type": "function"
    },
    {
      "inputs": [
        {
          "internalType": "address",
          "name": "gauge_addr",
          "type": "address"
        },
        {
          "internalType": "uint256",
          "name": "_pid",
          "type": "uint256"
        },
        {
          "internalType": "address",
          "name": "_masterChef",
          "type": "address"
        },
        {
          "internalType": "uint256",
          "name": "_chainId",
          "type": "uint256"
        },
        {
          "internalType": "uint256",
          "name": "_boostMultiplier",
          "type": "uint256"
        },
        {
          "internalType": "uint256",
          "name": "_maxVoteCap",
          "type": "uint256"
        }
      ],
      "name": "updateGaugeInfo",
      "outputs": [],
      "stateMutability": "nonpayable",
      "type": "function"
    },
    {
      "inputs": [
        {
          "internalType": "address",
          "name": "_gauge_addr",
          "type": "address"
        },
        {
          "internalType": "uint256",
          "name": "_user_weight",
          "type": "uint256"
        },
        {
          "internalType": "uint256",
          "name": "_chainId",
          "type": "uint256"
        },
        {
          "internalType": "bool",
          "name": "_skipNative",
          "type": "bool"
        },
        {
          "internalType": "bool",
          "name": "_skipProxy",
          "type": "bool"
        }
      ],
      "name": "voteForGaugeWeights",
      "outputs": [],
      "stateMutability": "nonpayable",
      "type": "function"
    },
    {
      "inputs": [
        {
          "internalType": "address[]",
          "name": "_gauge_addrs",
          "type": "address[]"
        },
        {
          "internalType": "uint256[]",
          "name": "_user_weights",
          "type": "uint256[]"
        },
        {
          "internalType": "uint256[]",
          "name": "_chainIds",
          "type": "uint256[]"
        },
        {
          "internalType": "bool",
          "name": "_skipNative",
          "type": "bool"
        },
        {
          "internalType": "bool",
          "name": "_skipProxy",
          "type": "bool"
        }
      ],
      "name": "voteForGaugeWeightsBulk",
      "outputs": [],
      "stateMutability": "nonpayable",
      "type": "function"
    },
    {
      "inputs": [
        {
          "internalType": "address",
          "name": "_gauge_addr",
          "type": "address"
        },
        {
          "internalType": "uint256",
          "name": "_admin_weight",
          "type": "uint256"
        },
        {
          "internalType": "uint256",
          "name": "_end",
          "type": "uint256"
        },
        {
          "internalType": "uint256",
          "name": "_chainId",
          "type": "uint256"
        }
      ],
      "name": "voteFromAdmin",
      "outputs": [],
      "stateMutability": "nonpayable",
      "type": "function"
    },
    {
      "inputs": [
        {
          "internalType": "address[]",
          "name": "_gauge_addrs",
          "type": "address[]"
        },
        {
          "internalType": "uint256[]",
          "name": "_admin_weights",
          "type": "uint256[]"
        },
        {
          "internalType": "uint256[]",
          "name": "_ends",
          "type": "uint256[]"
        },
        {
          "internalType": "uint256[]",
          "name": "_chainIds",
          "type": "uint256[]"
        }
      ],
      "name": "voteFromAdminBulk",
      "outputs": [],
      "stateMutability": "nonpayable",
      "type": "function"
    },
    {
      "inputs": [
        {
          "internalType": "address",
          "name": "",
          "type": "address"
        }
      ],
      "name": "voteUserPower",
      "outputs": [
        {
          "internalType": "uint256",
          "name": "",
          "type": "uint256"
        }
      ],
      "stateMutability": "view",
      "type": "function"
    },
    {
      "inputs": [
        {
          "internalType": "address",
          "name": "",
          "type": "address"
        },
        {
          "internalType": "bytes32",
          "name": "",
          "type": "bytes32"
        }
      ],
      "name": "voteUserSlopes",
      "outputs": [
        {
          "internalType": "uint256",
          "name": "slope",
          "type": "uint256"
        },
        {
          "internalType": "uint256",
          "name": "power",
          "type": "uint256"
        },
        {
          "internalType": "uint256",
          "name": "end",
          "type": "uint256"
        }
      ],
      "stateMutability": "view",
      "type": "function"
    },
    {
      "inputs": [],
      "name": "votingEscrow",
      "outputs": [
        {
          "internalType": "address",
          "name": "",
          "type": "address"
        }
      ],
      "stateMutability": "view",
      "type": "function"
    }
  ],
  "bytecode": "0x60a06040523480156200001157600080fd5b5060405162004a3638038062004a36833981016040819052620000349162000145565b6200003f33620000f5565b6000805460ff60a01b191690556001600160a01b038116620000a75760405162461bcd60e51b815260206004820152601d60248201527f496e76616c696420766f74696e6720657363726f772061646472657373000000604482015260640160405180910390fd5b6001600160a01b03811660805262093a80620000c4814262000177565b620000d091906200019a565b6401a13b861455506014640165a0bc0d55620d2f0060015562015180600255620001c6565b600080546001600160a01b038381166001600160a01b0319831681178455604051919092169283917f8be0079c531659141344cd1fd0a4f28419497f9722a3daafe3b4186f6b6457e09190a35050565b6000602082840312156200015857600080fd5b81516001600160a01b03811681146200017057600080fd5b9392505050565b6000826200019557634e487b7160e01b600052601260045260246000fd5b500490565b8082028115828204841417620001c057634e487b7160e01b600052601160045260246000fd5b92915050565b608051614846620001f06000396000818161043501528181611455015261255a01526148466000f3fe608060405234801561001057600080fd5b50600436106102f15760003560e01c80638da5cb5b1161019d578063b3bb8bc8116100e9578063cbd5dbf0116100a2578063e9c1f2141161007c578063e9c1f21414610826578063ec622ef514610839578063ec73d9061461085d578063f2fde38b1461088157600080fd5b8063cbd5dbf0146107ed578063d6b7949d14610800578063d7619fb11461081357600080fd5b8063b3bb8bc814610786578063b684d9ac14610799578063b71d4e7f146107ac578063c2c4c5c1146107bf578063c3fbcfb4146107c7578063c487da46146107da57600080fd5b8063a644008211610156578063ad625ab211610130578063ad625ab214610701578063ae43279414610714578063b020eefa14610727578063b05391871461073a57600080fd5b8063a6440082146106d8578063a6be78c0146106e1578063ac0bb802146106f457600080fd5b80638da5cb5b146106295780639272339b1461063a578063992681c8146106695780639d583b251461067c5780639f355b3f146106b2578063a2083014146106c557600080fd5b80635dfec0221161025c578063715018a61161021557806374d67324116101ef57806374d67324146105c157806385556a95146105d4578063870e3733146106035780638d2724b01461061657600080fd5b8063715018a614610582578063742df0fc1461058a57806374606010146105ae57600080fd5b80635dfec0221461048a5780635e7d092414610493578063609c6b871461049c5780636b012bfe146104f55780636c69d2e214610508578063703ef2af1461055357600080fd5b80632fe7c00b116102ae5780632fe7c00b146103c2578063471cc927146103f95780634bc8ac041461040c5780634f2bfe5b146104305780634f6ffd071461046f5780635c975abb1461047857600080fd5b8063116ec336146102f657806314da4c061461032d5780631af65813146103425780631cb1764314610366578063226a045d14610373578063282d5455146103a2575b600080fd5b61031a610304366004613ecf565b640165a0bc106020526000908152604090205481565b6040519081526020015b60405180910390f35b61034061033b366004613f34565b610894565b005b61031a610350366004613ecf565b640165a0bc076020526000908152604090205481565b61031a640165a0bc0d5481565b61031a610381366004613ff8565b640165a0bc0f60209081526000928352604080842090915290825290205481565b6103b56103b0366004613ecf565b6109c8565b6040516103249190614060565b6103e96103d0366004613ecf565b640165a0bc086020526000908152604090205460ff1681565b6040519015158152602001610324565b610340610407366004614088565b610a62565b61031a61041a366004613ecf565b640165a0bc066020526000908152604090205481565b6104577f000000000000000000000000000000000000000000000000000000000000000081565b6040516001600160a01b039091168152602001610324565b61031a60015481565b600054600160a01b900460ff166103e9565b61031a60025481565b61031a60035481565b6104da6104aa366004614088565b640165a0bc0960209081526000928352604080842090915290825290208054600182015460029092015490919083565b60408051938452602084019290925290820152606001610324565b61031a6105033660046140b4565b610ad9565b61053e610516366004613ff8565b640165a0bc0e6020908152600092835260408084209091529082529020805460019091015482565b60408051928352602083019190915201610324565b61031a610561366004613ff8565b6401a13b861560209081526000928352604080842090915290825290205481565b610340610b62565b61031a610598366004613ecf565b640165a0bc0c6020526000908152604090205481565b6103406105bc366004613ecf565b610b98565b61031a6105cf366004613ecf565b610c4a565b61031a6105e2366004614088565b640165a0bc0b60209081526000928352604080842090915290825290205481565b6103406106113660046140ff565b610c90565b61031a610624366004613ecf565b610d32565b6000546001600160a01b0316610457565b61031a610648366004613ff8565b640165a0bc1260209081526000928352604080842090915290825290205481565b61031a6106773660046141c9565b610d50565b61053e61068a366004613ff8565b640165a0bc116020908152600092835260408084209091529082529020805460019091015482565b6103406106c0366004613ecf565b61104b565b61031a6106d3366004613ff8565b61115f565b61031a60045481565b6103406106ef366004614207565b611290565b61031a6401a13b86145481565b61034061070f366004614088565b611700565b610340610722366004614260565b6117b8565b6103406107353660046142cf565b611c16565b61074d610748366004613ecf565b611fa4565b604080519687526001600160a01b03958616602088015286019390935292166060840152608083019190915260a082015260c001610324565b61031a6107943660046140b4565b611fee565b6103406107a736600461432b565b612003565b61031a6107ba366004613ecf565b61203f565b610340612056565b6103406107d5366004613ecf565b612061565b6103406107e8366004614366565b612123565b6103406107fb3660046140b4565b6121e2565b61034061080e366004613ff8565b61221c565b610340610821366004614088565b612254565b61031a610834366004614421565b612306565b61031a610847366004613ecf565b6401a13b86136020526000908152604090205481565b61031a61086b36600461443c565b640165a0bc0a6020526000908152604090205481565b61034061088f36600461443c565b6123e7565b6000546001600160a01b031633146108c75760405162461bcd60e51b81526004016108be90614459565b60405180910390fd5b868581146108e75760405162461bcd60e51b81526004016108be9061448e565b8084146109065760405162461bcd60e51b81526004016108be9061448e565b8082146109255760405162461bcd60e51b81526004016108be9061448e565b60005b818110156109bc576109aa8a8a83818110610945576109456144ba565b905060200201602081019061095a919061443c565b89898481811061096c5761096c6144ba565b90506020020135888885818110610985576109856144ba565b9050602002013587878681811061099e5761099e6144ba565b9050602002013561247f565b806109b4816144e6565b915050610928565b50505050505050505050565b600560205260009081526040902080546109e1906144ff565b80601f0160208091040260200160405190810160405280929190818152602001828054610a0d906144ff565b8015610a5a5780601f10610a2f57610100808354040283529160200191610a5a565b820191906000526020600020905b815481529060010190602001808311610a3d57829003601f168201915b505050505081565b60008282604051602001610a77929190614533565b60408051601f1981840301815291815281516020928301206000818152640165a0bc0690935291205490915080610ac05760405162461bcd60e51b81526004016108be90614555565b610ac982612a55565b50610ad2612bb6565b5050505050565b6000808483604051602001610aef929190614533565b60408051601f1981840301815291815281516020928301206000818152640165a0bc0690935291205490915080610b385760405162461bcd60e51b81526004016108be90614555565b610b4182612a55565b50610b4a612bb6565b50610b56868686612d05565b925050505b9392505050565b6000546001600160a01b03163314610b8c5760405162461bcd60e51b81526004016108be90614459565b610b966000612e04565b565b6000546001600160a01b03163314610bc25760405162461bcd60e51b81526004016108be90614459565b62093a808110610c0c5760405162461bcd60e51b815260206004820152601560248201527461646d696e20706572696f6420746f6f206c6f6e6760581b60448201526064016108be565b600281905560405181815233907f0f3fdc31725712424041e8ad7e10a5c1e40d3d71ffedabd9bb2823a5c238871d906020015b60405180910390a250565b6000818152640165a0bc116020526040812081640165a0bc1384633b9aca008110610c7757610c776144ba565b0154815260208101919091526040016000205492915050565b6000546001600160a01b03163314610cba5760405162461bcd60e51b81526004016108be90614459565b6003546000818152600560205260409020610cd584826145cc565b50610ce181600161468c565b6003558115610cf457610cf48183612e54565b7f9b3cf755e0156d3384e50449add1b3067cac8b2e929cdf888724b7b6cc10db988382604051610d2592919061469f565b60405180910390a1505050565b640165a0bc1381633b9aca008110610d4957600080fd5b0154905081565b6000808484604051602001610d66929190614533565b60408051601f1981840301815291815281516020928301206000818152640165a0bc0690935291205490915080610daf5760405162461bcd60e51b81526004016108be90614555565b60006006610dbe6001846146c1565b633b9aca008110610dd157610dd16144ba565b6040805160c081018252600692909202929092018054825260018101546001600160a01b03908116602080850191909152600283015484860152600383015490911660608401526004820154608084015260059091015460a08301526000868152640165a0bc0e8252838120640165a0bc108352848220548252909152919091205490915085156110405760648260a0015110158015610e715750600081115b15611040576000805b600454811015610fdf576000600682633b9aca008110610e9c57610e9c6144ba565b6040805160c081018252600692909202929092018054825260018101546001600160a01b0390811660208085019190915260028301548486018190526003840154909216606085018190526004840154608086015260059093015460a08501529351929450600093610f0e9301614533565b60408051601f1981840301815291815281516020928301206401a13b86145460009081526401a13b8613845282812054828252640165a0bc0e8552838220640165a0bc1086528483205483529094529182205490935090919061271090610f77906064906146d4565b610f8191906146d4565b610f8b91906146eb565b905060008360a00151118015610fa457508260a0015181115b15610fbd5760648360a00151610fba91906146d4565b90505b610fc7818661468c565b94505050508080610fd7906144e6565b915050610e7a565b506127106064806401a13b861360006401a13b861454815260200190815260200160002054848760a0015161101491906146d4565b61101e91906146d4565b61102891906146eb565b61103291906146eb565b61103c91906146eb565b9150505b979650505050505050565b6000546001600160a01b031633146110755760405162461bcd60e51b81526004016108be90614459565b62093a8081116110c75760405162461bcd60e51b815260206004820152601860248201527f64656c61792073686f756c6420657863656564205745454b000000000000000060448201526064016108be565b630788c27f81106111285760405162461bcd60e51b815260206004820152602560248201527f64656c61792073686f756c64206e6f7420657863656564204d41585f4c4f434b6044820152645f54494d4560d81b60648201526084016108be565b600181905560405181815233907f5060b5423f5ca721a518ac3ebdbba2c334606708eac89f4dfc6af34bce33ee0390602001610c3f565b600080805b600454811015611286576000600682633b9aca008110611186576111866144ba565b6040805160c081018252600692909202929092018054825260018101546001600160a01b0390811660208085019190915260028301548486018190526003840154909216606085018190526004840154608086015260059093015460a085015293519294506000936111f89301614533565b60408051601f1981840301815291815281516020928301206000818152640165a0bc0790935290822054909250611231906001906146c1565b905087811480156112455750868360400151145b15611270576000611260846060015185604001516001610d50565b905061126c818761468c565b9550505b505050808061127e906144e6565b915050611164565b5090505b92915050565b60006112a062093a8060026146d4565b6112ae62093a8060026146d4565b6112bc62093a8060026146d4565b6112c6904261468c565b6112d091906146eb565b6112da91906146d4565b9050600254816112ea91906146c1565b42106113385760405162461bcd60e51b815260206004820152601e60248201527f43757272656e746c7920696e2061646d696e206f6e6c7920706572696f64000060448201526064016108be565b6000868560405160200161134d929190614533565b60408051601f198184030181529181528151602092830120336000908152640165a0bc0a845282812054828252640165a0bc08909452919091205490925060ff16801561139c57506127108110155b156113a657600096505b6000828152640165a0bc08602052604090205460ff1615806113c6575086155b6114015760405162461bcd60e51b815260206004820152600c60248201526b19d85d59d9481ada5b1b195960a21b60448201526064016108be565b6127108711156114535760405162461bcd60e51b815260206004820152601e60248201527f596f75207573656420616c6c20796f757220766f74696e6720706f776572000060448201526064016108be565b7f0000000000000000000000000000000000000000000000000000000000000000600061147e612f9d565b90508661157057604051635de9a13760e01b815233600482015260009081906001600160a01b03851690635de9a137906024016040805180830381865afa1580156114cd573d6000803e3d6000fd5b505050506040513d601f19601f820116820180604052508101906114f1919061470d565b915091506000630788c27f61150884600f0b612fc7565b61151291906146eb565b905060008111801561152357508382115b801561155a5750600154336000908152640165a0bc0b602090815260408083208b8452909152902054611556919061468c565b4210155b1561156c5761156c87338e848661301d565b5050505b604051630cacd00160e11b81523360048201526000906001600160a01b03841690631959a0029060240160c060405180830381865afa1580156115b7573d6000803e3d6000fd5b505050506040513d601f19601f820116820180604052508101906115db9190614769565b50505050509050861580156115f857506001600160a01b03811615155b156116f357604051635de9a13760e01b81526001600160a01b0382811660048301526000918291861690635de9a137906024016040805180830381865afa158015611647573d6000803e3d6000fd5b505050506040513d601f19601f8201168201806040525081019061166b919061470d565b915091506000630788c27f61168284600f0b612fc7565b61168c91906146eb565b905060008111801561169d57508482115b80156116dd57506001546001600160a01b0385166000908152640165a0bc0b602090815260408083208c84529091529020546116d9919061468c565b4210155b156116ef576116ef88858f848661301d565b5050505b5050505050505050505050565b6000546001600160a01b0316331461172a5760405162461bcd60e51b81526004016108be90614459565b6000828260405160200161173f929190614533565b60408051808303601f1901815282825280516020918201206000818152640165a0bc088352839020805460ff1916905585845290830181905292506001600160a01b0385169133917fd27eba1653e8258512f696285474de4f60fd1834f30f5b7966b98c0d4cc8247891015b60405180910390a3505050565b6000546001600160a01b031633146117e25760405162461bcd60e51b81526004016108be90614459565b60035487106118285760405162461bcd60e51b8152602060048201526012602482015271496e76616c6964206761756765207479706560701b60448201526064016108be565b6000888460405160200161183d929190614533565b60408051601f1981840301815291815281516020928301206000818152640165a0bc07909352912054909150156118ac5760405162461bcd60e51b815260206004820152601360248201527211d85d59d948185b1c9958591e481859191959606a1b60448201526064016108be565b6001600160a01b0385166119025760405162461bcd60e51b815260206004820152601b60248201527f6d617374657243686566206164647265737320697320656d707479000000000060448201526064016108be565b6101f483111561191157600080fd5b61271082111561192057600080fd5b60045461192e81600161468c565b6004819055506040518060c00160405280888152602001876001600160a01b031681526020018681526020018b6001600160a01b0316815260200185815260200184815250600682633b9aca008110611989576119896144ba565b8251600691909102919091019081556020820151600180830180546001600160a01b039384166001600160a01b031991821617909155604085015160028501556060850151600385018054919094169116179091556080830151600483015560a0909201516005909101556119ff90829061468c565b6000838152640165a0bc066020526040902055611a1d89600161468c565b6000838152640165a0bc076020526040812091909155611a3b612f9d565b90508815611b44576000611a4e8b6134f3565b90506000611a5b8c6135b2565b90506000611a67612bb6565b9050816064611a768a8f6146d4565b611a8091906146eb565b611a8a919061468c565b60008e8152640165a0bc116020908152604080832088845290915290205583640165a0bc138e633b9aca008110611ac357611ac36144ba565b0155606488611ad28e866146d4565b611adc91906146d4565b611ae691906146eb565b611af0908261468c565b60008581526401a13b861360205260409020556401a13b86148490556064611b18898e6146d4565b611b2291906146eb565b6000878152640165a0bc0e602090815260408083208884529091529020555050505b640165a0bc138a633b9aca008110611b5e57611b5e6144ba565b0154600003611b855780640165a0bc138b633b9aca008110611b8257611b826144ba565b01555b6000838152640165a0bc10602090815260409182902083905581518581529081018c90529081018a9052606081018990526001600160a01b038816608082015260a0810187905260c0810186905260e081018590527fb597fc370497a7b4e73d003df2b20d27ffd0e13995184badf1403f913e93284e90610100015b60405180910390a15050505050505050505050565b6000546001600160a01b03163314611c405760405162461bcd60e51b81526004016108be90614459565b6001600160a01b038416611c965760405162461bcd60e51b815260206004820152601b60248201527f6d617374657243686566206164647265737320697320656d707479000000000060448201526064016108be565b6101f4821115611ca557600080fd5b612710811115611cb457600080fd5b60008684604051602001611cc9929190614533565b60408051601f1981840301815291815281516020928301206000818152640165a0bc0690935291205490915080611d125760405162461bcd60e51b81526004016108be90614555565b6000611d1c612f9d565b6000848152640165a0bc0e60209081526040808320848452825280832054878452640165a0bc0790925282205492935091611d59906001906146c1565b90508115611e30576000611d6c826134f3565b90506000611d7c8d8b6000610d50565b90506000611d89846135b2565b90506000611d95612bb6565b905082611da2878461468c565b611dac91906146c1565b6000868152640165a0bc11602090815260408083208b845290915290205586640165a0bc1386633b9aca008110611de557611de56144ba565b0155611df183856146d4565b611dfb87866146d4565b611e05908361468c565b611e0f91906146c1565b60008881526401a13b861360205260409020555050506401a13b8614849055505b640165a0bc1381633b9aca008110611e4a57611e4a6144ba565b0154600003611e715782640165a0bc1382633b9aca008110611e6e57611e6e6144ba565b01555b6040518060c001604052808b81526020018a6001600160a01b031681526020018981526020018c6001600160a01b03168152602001888152602001878152506006600186611ebf91906146c1565b633b9aca008110611ed257611ed26144ba565b82516006919091029190910190815560208201516001820180546001600160a01b039283166001600160a01b03199182161790915560408085015160028501556060850151600385018054919094169216919091179091556080830151600483015560a090920151600590910155517f3a14cca64572d116f9f83ba3a51da7d2fbd6113f37b9747fdb976aa341e21bed90611c019087908d908d908d908d908d9095865260208601949094526001600160a01b039290921660408501526060840152608083015260a082015260c00190565b600681633b9aca008110611fb757600080fd5b60060201805460018201546002830154600384015460048501546005909501549395506001600160a01b0392831694919392169186565b6000611ffb848484612d05565b949350505050565b6000546001600160a01b0316331461202d5760405162461bcd60e51b81526004016108be90614459565b6120398484848461247f565b50505050565b6401a13b861681633b9aca008110610d4957600080fd5b61205e612bb6565b50565b6000546001600160a01b0316331461208b5760405162461bcd60e51b81526004016108be90614459565b60008111801561209c575060648111155b6120e85760405162461bcd60e51b815260206004820152601e60248201527f6469766973696f6e2073686f756c64206e6f742065786365656420313030000060448201526064016108be565b640165a0bc0d81905560405181815233907f387d42e9c79f3596b9eea3aec81964a8d7c92f99bd65b9020a63f181a9d90aee90602001610c3f565b868581146121435760405162461bcd60e51b81526004016108be9061448e565b8084146121625760405162461bcd60e51b81526004016108be9061448e565b60005b818110156109bc576121d08a8a83818110612182576121826144ba565b9050602002016020810190612197919061443c565b8989848181106121a9576121a96144ba565b905060200201358888858181106121c2576121c26144ba565b905060200201358787611290565b806121da816144e6565b915050612165565b6000546001600160a01b0316331461220c5760405162461bcd60e51b81526004016108be90614459565b612217838383613711565b505050565b6000546001600160a01b031633146122465760405162461bcd60e51b81526004016108be90614459565b6122508282612e54565b5050565b6000546001600160a01b0316331461227e5760405162461bcd60e51b81526004016108be90614459565b60008282604051602001612293929190614533565b60408051601f1981840301815282825280516020918201206000818152640165a0bc088352839020805460ff1916600117905585845290830181905292506001600160a01b0385169133917f1cdfe3e0d091e965f4d2505ccc55362d276b6a347f449249a710199f0ac645f591016117ab565b600081156123c8576000805b6004548110156123c1576000600682633b9aca008110612334576123346144ba565b6040805160c08101825260069290920292909201805482526001808201546001600160a01b0390811660208501526002830154948401859052600383015416606084018190526004830154608085015260059092015460a084015291935060009261239e92610d50565b90506123aa818561468c565b9350505080806123b9906144e6565b915050612312565b5092915050565b50506401a13b86145460009081526401a13b8613602052604090205490565b6000546001600160a01b031633146124115760405162461bcd60e51b81526004016108be90614459565b6001600160a01b0381166124765760405162461bcd60e51b815260206004820152602660248201527f4f776e61626c653a206e6577206f776e657220697320746865207a65726f206160448201526564647265737360d01b60648201526084016108be565b61205e81612e04565b6000612489612f9d565b905080831180612497575082155b6124ef5760405162461bcd60e51b815260206004820152602360248201527f596f757220656e642074696d657374616d70206578706972657320746f6f207360448201526237b7b760e91b60648201526084016108be565b6127108411156125415760405162461bcd60e51b815260206004820152601860248201527f61646d696e20776569676874206973206f766572666c6f77000000000000000060448201526064016108be565b60405163d2dcd93360e01b8152600481018290526000907f00000000000000000000000000000000000000000000000000000000000000006001600160a01b03169063d2dcd93390602401602060405180830381865afa1580156125a9573d6000803e3d6000fd5b505050506040513d601f19601f820116820180604052508101906125cd91906147f7565b9050630788c27f6064640165a0bc0d54836125e891906146d4565b6125f291906146eb565b6125fc91906146eb565b6000838152640165a0bc0c602090815260408083209390935591519091612627918991879101614533565b60408051601f1981840301815291815281516020928301206000818152640165a0bc0790935290822054909250612660906001906146c1565b60008381527fbccb71735325668834956750903295b5db98525d653174e6361b987e6c46dd736020908152604080832081516060810183528154808252600183015494820194909452600290910154918101919091529293506126c890630788c27f906146d4565b6000858152640165a0bc066020526040902054909150806126fb5760405162461bcd60e51b81526004016108be90614555565b6000600661270a6001846146c1565b633b9aca00811061271d5761271d6144ba565b6040805160c081018252600692909202929092018054825260018101546001600160a01b039081166020840152600282015493830193909352600381015490921660608201526004820154608082015260059091015460a082015290508a60008b900361279557612792630788c27f4261468c565b9a505b62093a80806127a4818e61468c565b6127ae91906146eb565b6127b891906146d4565b9a506000604051806060016040528061271084640165a0bc0c60008f8152602001908152602001600020546127ed91906146d4565b6127f791906146eb565b8152602081018490526040018d9052905060006128148b8e6146c1565b9050600081836000015161282891906146d4565b90508b8860400151111561287e576128798a8985606489608001518c61284e91906146d4565b61285891906146eb565b60648a608001518761286a91906146d4565b61287491906146eb565b6139b2565b6128c0565b6128c08a84606488608001518b61289591906146d4565b61289f91906146eb565b60648960800151866128b191906146d4565b6128bb91906146eb565b613c37565b428860400151111561290e5761290e8a89606488608001518b6128e391906146d4565b6128ed91906146eb565b60648960800151866128ff91906146d4565b61290991906146eb565b613e39565b825160008b8152640165a0bc0f602090815260408083208188015184529091528120805490919061294090849061468c565b9091555050825160008a8152640165a0bc12602090815260408083208188015184529091528120805490919061297790849061468c565b909155506129859050612bb6565b5060008a81527fbccb71735325668834956750903295b5db98525d653174e6361b987e6c46dd73602090815260408083208651815586830180516001830155878301516002909201919091557f7a7802cab5dae09218333035b66afe7be5140deea28bfc59d11473108af867e2835292819020429081905592518151938452339284019290925282018c905260608201527fa45c9b0ee3ff4269ec85105be7ad4d296e1df509dbb70c4169f6cd92af7895679060800160405180910390a150505050505050505050505050505050565b6000818152640165a0bc1060205260408120548015612ba7576000838152640165a0bc0e6020908152604080832084845282528083208151808301909252805482526001015491810191909152905b6101f4811015612b9e57428311612b9e57612ac262093a808461468c565b9250600062093a808360200151612ad991906146d4565b90508083600001511115612b37578083600001818151612af991906146c1565b9052506000868152640165a0bc0f602090815260408083208784528252909120549084018051829190612b2d9083906146c1565b905250612b429050565b600080845260208401525b6000868152640165a0bc0e602090815260408083208784528252909120845181559084015160019091015542841115612b8b576000868152640165a0bc10602052604090208490555b5080612b96816144e6565b915050612aa4565b50519392505050565b50600092915050565b50919050565b6401a13b8614546003546000919042821115612bdc57612bd962093a80836146c1565b91505b60008281526401a13b86136020526040812054905b6064811015612c2757808314612c2757612c0a816135b2565b50612c14816134f3565b5080612c1f816144e6565b915050612bf1565b5060005b6101f4811015612cfd57428411612cfd57612c4962093a808561468c565b93506000915060005b6064811015612cc357808414612cc3576000818152640165a0bc11602090815260408083208884528252808320548484526401a13b8615835281842089855290925290912054612ca281836146d4565b612cac908661468c565b945050508080612cbb906144e6565b915050612c52565b5060008481526401a13b86136020526040902082905542841115612ceb576401a13b86148490555b80612cf5816144e6565b915050612c2b565b509392505050565b60008062093a80612d1681866146eb565b612d2091906146d4565b60008181526401a13b861360205260409020549091508015612df95760008685604051602001612d51929190614533565b60408051601f1981840301815291815281516020928301206000818152640165a0bc0790935290822054909250612d8a906001906146c1565b60008181526401a13b861560209081526040808320888452825280832054868452640165a0bc0e835281842089855290925290912054919250908481612dd884670de0b6b3a76400006146d4565b612de291906146d4565b612dec91906146eb565b9650505050505050610b5b565b600092505050610b5b565b600080546001600160a01b038381166001600160a01b0319831681178455604051919092169283917f8be0079c531659141344cd1fd0a4f28419497f9722a3daafe3b4186f6b6457e09190a35050565b6003548210612e9a5760405162461bcd60e51b8152602060048201526012602482015271496e76616c6964206761756765207479706560701b60448201526064016108be565b6000612ea5836134f3565b90506000612eb2846135b2565b90506000612ebe612bb6565b90506000612eca612f9d565b9050612ed684846146d4565b612ee086856146d4565b612eea908461468c565b612ef491906146c1565b60008281526401a13b8613602090815260408083208490558983526401a13b8615825280832085845290915290208690556401a13b86148290559150806401a13b861687633b9aca008110612f4b57612f4b6144ba565b01556040805187815260208101839052908101869052606081018390527f6203ee96bc508c05f9ccb8b5d93bb7fc6f0ef232071ba3a299aadd6f9724abf39060800160405180910390a1505050505050565b600062093a8080612fae814261468c565b612fb891906146eb565b612fc291906146d4565b905090565b6000808212156130195760405162461bcd60e51b815260206004820181905260248201527f53616665436173743a2076616c7565206d75737420626520706f73697469766560448201526064016108be565b5090565b6000613027612f9d565b6001600160a01b0386166000908152640165a0bc09602090815260408083208a845282528083208151606081018352815481526001820154938101939093526002015490820181905292935088928892908510156130925784826040015161308f91906146c1565b90505b81516000906130a29083906146d4565b60008c8152640165a0bc066020526040902054909150806130d55760405162461bcd60e51b81526004016108be90614555565b600060066130e46001846146c1565b633b9aca0081106130f7576130f76144ba565b600602016040518060c0016040529081600082015481526020016001820160009054906101000a90046001600160a01b03166001600160a01b03166001600160a01b03168152602001600282015481526020016003820160009054906101000a90046001600160a01b03166001600160a01b03166001600160a01b0316815260200160048201548152602001600582015481525050905060008b905060006040518060600160405280612710848f6131af91906146d4565b6131b991906146eb565b8152602081018490526040018c9052905060006131d68b8d6146c1565b905060008183600001516131ea91906146d4565b6001600160a01b038b166000908152640165a0bc0a60209081526040909120548b8201519186015192935091613220908361468c565b61322a91906146c1565b6001600160a01b038c166000908152640165a0bc0a6020526040902081905590506127108111156132935760405162461bcd60e51b81526020600482015260136024820152722ab9b2b2103a37b79036bab1b4103837bbb2b960691b60448201526064016108be565b8c8a6040015111156132d8576132d38c8b8660648a608001518d6132b791906146d4565b6132c191906146eb565b60648b608001518861286a91906146d4565b61330b565b61330b8c85606489608001518c6132ef91906146d4565b6132f991906146eb565b60648a60800151876128b191906146d4565b428a60400151111561334a5761334a8c8b606489608001518c61332e91906146d4565b61333891906146eb565b60648a60800151876128ff91906146d4565b60008c8152640165a0bc076020526040812054613369906001906146c1565b855160008f8152640165a0bc0f60209081526040808320818b0151845290915281208054939450919261339d90849061468c565b909155505084516000828152640165a0bc1260209081526040808320818a01518452909152812080549091906133d490849061468c565b909155506133e29050612bb6565b5084640165a0bc0960008e6001600160a01b03166001600160a01b0316815260200190815260200160002060008f815260200190815260200160002060008201518160000155602082015181600101556040820151816002015590505042640165a0bc0b60008e6001600160a01b03166001600160a01b0316815260200190815260200160002060008f8152602001908152602001600020819055507f0e2da017ca94051dcfb8151175e7a98e964b2cd83626aebec9a7f62a8575a83a428d8f88602001516040516134d694939291909384526001600160a01b039290921660208401526040830152606082015260800190565b60405180910390a150505050505050505050505050505050505050565b6000806401a13b861683633b9aca008110613510576135106144ba565b015490508015612ba75760008381526401a13b861560209081526040808320848452909152812054905b6101f4811015612cfd57428311612cfd5761355862093a808461468c565b60008681526401a13b86156020908152604080832084845290915290208390559250428311156135a057826401a13b861686633b9aca00811061359d5761359d6144ba565b01555b806135aa816144e6565b91505061353a565b600080640165a0bc1383633b9aca0081106135cf576135cf6144ba565b015490508015612ba7576000838152640165a0bc116020908152604080832084845282528083208151808301909252805482526001015491810191909152905b6101f4811015612b9e57428311612b9e5761362d62093a808461468c565b9250600062093a80836020015161364491906146d4565b905080836000015111156136a257808360000181815161366491906146c1565b9052506000868152640165a0bc126020908152604080832087845282529091205490840180518291906136989083906146c1565b9052506136ad9050565b600080845260208401525b6000868152640165a0bc116020908152604080832087845282529091208451815590840151600190910155428411156136fe5783640165a0bc1387633b9aca0081106136fb576136fb6144ba565b01555b5080613709816144e6565b91505061360f565b60008382604051602001613726929190614533565b60408051601f1981840301815291815281516020928301206000818152640165a0bc079093529082205490925061375f906001906146c1565b6000838152640165a0bc066020526040902054909150806137925760405162461bcd60e51b81526004016108be90614555565b600060066137a16001846146c1565b633b9aca0081106137b4576137b46144ba565b6040805160c081018252600692909202929092018054825260018101546001600160a01b039081166020840152600282015493830193909352600381015490921660608201526004820154608082015260059091015460a08201529050600061381c85612a55565b90506000613829856134f3565b90506000613836866135b2565b90506000613842612bb6565b9050600061384e612f9d565b9050606486608001518c61386291906146d4565b61386c91906146eb565b60008a8152640165a0bc0e602090815260408083208584528252808320939093558b8252640165a0bc109052908120829055608087015186906064906138b2908f6146d4565b6138bc91906146eb565b6138c6908661468c565b6138d091906146c1565b60008a8152640165a0bc11602090815260408083208684529091529020819055905081640165a0bc138a633b9aca00811061390d5761390d6144ba565b015561391985856146d4565b61392386836146d4565b61392d908561468c565b61393791906146c1565b60008381526401a13b861360209081526040918290208390556401a13b861485905581518d815242918101919091529081018e9052606081018290529093507f59cc8a78ccafacc9c21344f3ab363a1f6ace0b46575ba196257a9d52325652b89060800160405180910390a150505050505050505050505050565b60006139bc612f9d565b6000878152640165a0bc076020526040812054919250906139df906001906146c1565b6000888152640165a0bc06602052604090205490915080613a125760405162461bcd60e51b81526004016108be90614555565b60006006613a216001846146c1565b633b9aca008110613a3457613a346144ba565b6040805160c081018252600692909202929092018054825260018101546001600160a01b039081166020840152600282015493830193909352600381015490921660608201526004820154608082015260059091015460a082015290506000613a9c8a612a55565b60008b8152640165a0bc0e60209081526040808320898452909152812060010154919250613ac9866135b2565b6000878152640165a0bc11602090815260408083208b84529091529020600101549091508980613af98b8761468c565b11613b04578a613b0e565b613b0e8a8661468c565b613b1891906146c1565b60008e8152640165a0bc0e602090815260408083208c84529091529020558980613b428b8561468c565b11613b4d578a613b57565b613b578a8461468c565b613b6191906146c1565b6000888152640165a0bc11602090815260408083208c84529091529020558b518b518190613b8f908661468c565b11613b9b578c51613ba7565b8b51613ba7908561468c565b613bb191906146c1565b60008e8152640165a0bc0e602090815260408083208c84529091529020600101558b518b518190613be2908461468c565b11613bee578c51613bfa565b8b51613bfa908361468c565b613c0491906146c1565b6000978852640165a0bc1160209081526040808a209a8a5299905297909620600101969096555050505050505050505050565b6000613c41612f9d565b6000868152640165a0bc07602052604081205491925090613c64906001906146c1565b6000878152640165a0bc06602052604090205490915080613c975760405162461bcd60e51b81526004016108be90614555565b60006006613ca66001846146c1565b633b9aca008110613cb957613cb96144ba565b6040805160c081018252600692909202929092018054825260018101546001600160a01b039081166020840152600282015493830193909352600381015490921660608201526004820154608082015260059091015460a082015290506000613d2189612a55565b90506000613d2e856135b2565b90508780613d3c898561468c565b11613d475788613d51565b613d51888461468c565b613d5b91906146c1565b60008b8152640165a0bc0e602090815260408083208a84529091529020558780613d85898461468c565b11613d905788613d9a565b613d9a888361468c565b613da491906146c1565b6000868152640165a0bc11602090815260408083208a84528252808320939093558b518d8352640165a0bc0e82528383208a84529091529181206001018054909190613df190849061468c565b909155505088516000868152640165a0bc11602090815260408083208a845290915281206001018054909190613e2890849061468c565b909155505050505050505050505050565b6000848152640165a0bc076020526040812054613e58906001906146c1565b84516000878152640165a0bc0f60209081526040808320818a01518452909152812080549394509192613e8c9084906146c1565b909155505083516000828152640165a0bc126020908152604080832081890151845290915281208054909190613ec39084906146c1565b90915550505050505050565b600060208284031215613ee157600080fd5b5035919050565b60008083601f840112613efa57600080fd5b50813567ffffffffffffffff811115613f1257600080fd5b6020830191508360208260051b8501011115613f2d57600080fd5b9250929050565b6000806000806000806000806080898b031215613f5057600080fd5b883567ffffffffffffffff80821115613f6857600080fd5b613f748c838d01613ee8565b909a50985060208b0135915080821115613f8d57600080fd5b613f998c838d01613ee8565b909850965060408b0135915080821115613fb257600080fd5b613fbe8c838d01613ee8565b909650945060608b0135915080821115613fd757600080fd5b50613fe48b828c01613ee8565b999c989b5096995094979396929594505050565b6000806040838503121561400b57600080fd5b50508035926020909101359150565b6000815180845260005b8181101561404057602081850181015186830182015201614024565b506000602082860101526020601f19601f83011685010191505092915050565b602081526000610b5b602083018461401a565b6001600160a01b038116811461205e57600080fd5b6000806040838503121561409b57600080fd5b82356140a681614073565b946020939093013593505050565b6000806000606084860312156140c957600080fd5b83356140d481614073565b95602085013595506040909401359392505050565b634e487b7160e01b600052604160045260246000fd5b6000806040838503121561411257600080fd5b823567ffffffffffffffff8082111561412a57600080fd5b818501915085601f83011261413e57600080fd5b813581811115614150576141506140e9565b604051601f8201601f19908116603f01168101908382118183101715614178576141786140e9565b8160405282815288602084870101111561419157600080fd5b826020860160208301376000602093820184015298969091013596505050505050565b803580151581146141c457600080fd5b919050565b6000806000606084860312156141de57600080fd5b83356141e981614073565b9250602084013591506141fe604085016141b4565b90509250925092565b600080600080600060a0868803121561421f57600080fd5b853561422a81614073565b94506020860135935060408601359250614246606087016141b4565b9150614254608087016141b4565b90509295509295909350565b600080600080600080600080610100898b03121561427d57600080fd5b883561428881614073565b975060208901359650604089013595506060890135945060808901356142ad81614073565b979a969950949793969560a0850135955060c08501359460e001359350915050565b60008060008060008060c087890312156142e857600080fd5b86356142f381614073565b955060208701359450604087013561430a81614073565b959894975094956060810135955060808101359460a0909101359350915050565b6000806000806080858703121561434157600080fd5b843561434c81614073565b966020860135965060408601359560600135945092505050565b60008060008060008060008060a0898b03121561438257600080fd5b883567ffffffffffffffff8082111561439a57600080fd5b6143a68c838d01613ee8565b909a50985060208b01359150808211156143bf57600080fd5b6143cb8c838d01613ee8565b909850965060408b01359150808211156143e457600080fd5b506143f18b828c01613ee8565b9095509350614404905060608a016141b4565b915061441260808a016141b4565b90509295985092959890939650565b60006020828403121561443357600080fd5b610b5b826141b4565b60006020828403121561444e57600080fd5b8135610b5b81614073565b6020808252818101527f4f776e61626c653a2063616c6c6572206973206e6f7420746865206f776e6572604082015260600190565b6020808252601290820152716c656e677468206973206e6f742073616d6560701b604082015260600190565b634e487b7160e01b600052603260045260246000fd5b634e487b7160e01b600052601160045260246000fd5b6000600182016144f8576144f86144d0565b5060010190565b600181811c9082168061451357607f821691505b602082108103612bb057634e487b7160e01b600052602260045260246000fd5b60609290921b6bffffffffffffffffffffffff19168252601482015260340190565b6020808252600f908201526e11d85d59d9481b9bdd081859191959608a1b604082015260600190565b601f82111561221757600081815260208120601f850160051c810160208610156145a55750805b601f850160051c820191505b818110156145c4578281556001016145b1565b505050505050565b815167ffffffffffffffff8111156145e6576145e66140e9565b6145fa816145f484546144ff565b8461457e565b602080601f83116001811461462f57600084156146175750858301515b600019600386901b1c1916600185901b1785556145c4565b600085815260208120601f198616915b8281101561465e5788860151825594840194600190910190840161463f565b508582101561467c5787850151600019600388901b60f8161c191681555b5050505050600190811b01905550565b8082018082111561128a5761128a6144d0565b6040815260006146b2604083018561401a565b90508260208301529392505050565b8181038181111561128a5761128a6144d0565b808202811582820484141761128a5761128a6144d0565b60008261470857634e487b7160e01b600052601260045260246000fd5b500490565b6000806040838503121561472057600080fd5b825180600f0b811461473157600080fd5b6020939093015192949293505050565b805165ffffffffffff811681146141c457600080fd5b805161ffff811681146141c457600080fd5b60008060008060008060c0878903121561478257600080fd5b865161478d81614073565b60208801519096506fffffffffffffffffffffffffffffffff811681146147b357600080fd5b94506147c160408801614741565b93506147cf60608801614741565b92506147dd60808801614757565b91506147eb60a08801614757565b90509295509295509295565b60006020828403121561480957600080fd5b505191905056fea264697066735822122009dd4daaf681e96c8b0207feb35412ec52f050e758109ffc97e2795292fb315464736f6c63430008110033",
  "linkReferences": {},
  "deployedLinkReferences": {}
}