{
  "_format": "hh-sol-artifact-1",
  "contractName": "SmartChefFactory",
  "sourceName": "contracts/SmartChefFactory.sol",
  "abi": [
    {
      "inputs": [],
      "stateMutability": "nonpayable",
      "type": "constructor"
    },
    {
      "anonymous": false,
      "inputs": [
        {
          "indexed": true,
          "internalType": "address",
          "name": "smartChef",
          "type": "address"
        }
      ],
      "name": "NewSmartChefContract",
      "type": "event"
    },
    {
      "anonymous": false,
      "inputs": [
        {
          "indexed": true,
          "internalType": "address",
          "name": "previousOwner",
          "type": "address"
        },
        {
          "indexed": true,
          "internalType": "address",
          "name": "newOwner",
          "type": "address"
        }
      ],
      "name": "OwnershipTransferred",
      "type": "event"
    },
    {
      "inputs": [
        {
          "internalType": "contract IBEP20",
          "name": "_stakedToken",
          "type": "address"
        },
        {
          "internalType": "contract IBEP20",
          "name": "_rewardToken",
          "type": "address"
        },
        {
          "internalType": "uint256",
          "name": "_rewardPerBlock",
          "type": "uint256"
        },
        {
          "internalType": "uint256",
          "name": "_startBlock",
          "type": "uint256"
        },
        {
          "internalType": "uint256",
          "name": "_bonusEndBlock",
          "type": "uint256"
        },
        {
          "internalType": "uint256",
          "name": "_poolLimitPerUser",
          "type": "uint256"
        },
        {
          "internalType": "address",
          "name": "_admin",
          "type": "address"
        }
      ],
      "name": "deployPool",
      "outputs": [],
      "stateMutability": "nonpayable",
      "type": "function"
    },
    {
      "inputs": [],
      "name": "owner",
      "outputs": [
        {
          "internalType": "address",
          "name": "",
          "type": "address"
        }
      ],
      "stateMutability": "view",
      "type": "function"
    },
    {
      "inputs": [],
      "name": "renounceOwnership",
      "outputs": [],
      "stateMutability": "nonpayable",
      "type": "function"
    },
    {
      "inputs": [
        {
          "internalType": "address",
          "name": "newOwner",
          "type": "address"
        }
      ],
      "name": "transferOwnership",
      "outputs": [],
      "stateMutability": "nonpayable",
      "type": "function"
    }
  ],
  "bytecode": "0x608060405234801561001057600080fd5b50600061001b61006a565b600080546001600160a01b0319166001600160a01b0383169081178255604051929350917f8be0079c531659141344cd1fd0a4f28419497f9722a3daafe3b4186f6b6457e0908290a35061006e565b3390565b612c538061007d6000396000f3fe608060405234801561001057600080fd5b506004361061004c5760003560e01c8063715018a6146100515780638da5cb5b1461005b578063cc8402f51461008c578063f2fde38b146100e9575b600080fd5b61005961011c565b005b61006361021c565b6040805173ffffffffffffffffffffffffffffffffffffffff9092168252519081900360200190f35b610059600480360360e08110156100a257600080fd5b5073ffffffffffffffffffffffffffffffffffffffff8135811691602081013582169160408201359160608101359160808201359160a08101359160c09091013516610238565b610059600480360360208110156100ff57600080fd5b503573ffffffffffffffffffffffffffffffffffffffff16610608565b6101246106a5565b60005473ffffffffffffffffffffffffffffffffffffffff9081169116146101ad57604080517f08c379a000000000000000000000000000000000000000000000000000000000815260206004820181905260248201527f4f776e61626c653a2063616c6c6572206973206e6f7420746865206f776e6572604482015290519081900360640190fd5b6000805460405173ffffffffffffffffffffffffffffffffffffffff909116907f8be0079c531659141344cd1fd0a4f28419497f9722a3daafe3b4186f6b6457e0908390a3600080547fffffffffffffffffffffffff0000000000000000000000000000000000000000169055565b60005473ffffffffffffffffffffffffffffffffffffffff1690565b6102406106a5565b60005473ffffffffffffffffffffffffffffffffffffffff9081169116146102c957604080517f08c379a000000000000000000000000000000000000000000000000000000000815260206004820181905260248201527f4f776e61626c653a2063616c6c6572206973206e6f7420746865206f776e6572604482015290519081900360640190fd5b60008773ffffffffffffffffffffffffffffffffffffffff166318160ddd6040518163ffffffff1660e01b815260040160206040518083038186803b15801561031157600080fd5b505afa158015610325573d6000803e3d6000fd5b505050506040513d602081101561033b57600080fd5b5051101561034857600080fd5b60008673ffffffffffffffffffffffffffffffffffffffff166318160ddd6040518163ffffffff1660e01b815260040160206040518083038186803b15801561039057600080fd5b505afa1580156103a4573d6000803e3d6000fd5b505050506040513d60208110156103ba57600080fd5b505110156103c757600080fd5b8573ffffffffffffffffffffffffffffffffffffffff168773ffffffffffffffffffffffffffffffffffffffff16141561046257604080517f08c379a000000000000000000000000000000000000000000000000000000000815260206004820152601b60248201527f546f6b656e73206d75737420626520626520646966666572656e740000000000604482015290519081900360640190fd5b606060405180602001610474906107a2565b6020820181038252601f19601f8201166040525090506000888887604051602001808473ffffffffffffffffffffffffffffffffffffffff1660601b81526014018373ffffffffffffffffffffffffffffffffffffffff1660601b815260140182815260200193505050506040516020818303038152906040528051906020012090506000818351602085016000f5604080517f83a5041c00000000000000000000000000000000000000000000000000000000815273ffffffffffffffffffffffffffffffffffffffff8d811660048301528c81166024830152604482018c9052606482018b9052608482018a905260a4820189905287811660c48301529151929350908316916383a5041c9160e48082019260009290919082900301818387803b1580156105a357600080fd5b505af11580156105b7573d6000803e3d6000fd5b505060405173ffffffffffffffffffffffffffffffffffffffff841692507fe0d103a92c6ff6c4aceb49d436f4028e0deb4884fdbcb9f32b03045eabb44a6c9150600090a250505050505050505050565b6106106106a5565b60005473ffffffffffffffffffffffffffffffffffffffff90811691161461069957604080517f08c379a000000000000000000000000000000000000000000000000000000000815260206004820181905260248201527f4f776e61626c653a2063616c6c6572206973206e6f7420746865206f776e6572604482015290519081900360640190fd5b6106a2816106a9565b50565b3390565b73ffffffffffffffffffffffffffffffffffffffff8116610715576040517f08c379a0000000000000000000000000000000000000000000000000000000008152600401808060200182810382526026815260200180612bf86026913960400191505060405180910390fd5b6000805460405173ffffffffffffffffffffffffffffffffffffffff808516939216917f8be0079c531659141344cd1fd0a4f28419497f9722a3daafe3b4186f6b6457e091a3600080547fffffffffffffffffffffffff00000000000000000000000000000000000000001673ffffffffffffffffffffffffffffffffffffffff92909216919091179055565b612448806107b08339019056fe608060405234801561001057600080fd5b50600061001b610080565b600080546001600160a01b0319166001600160a01b0383169081178255604051929350917f8be0079c531659141344cd1fd0a4f28419497f9722a3daafe3b4186f6b6457e0908290a35060018055600280546001600160a01b03191633179055610084565b3390565b6123b5806100936000396000f3fe608060405234801561001057600080fd5b50600436106101b95760003560e01c80638da5cb5b116100f9578063bd61719111610097578063db2e21bc11610071578063db2e21bc1461041d578063f2fde38b14610425578063f40f0f5214610458578063f7c618c11461048b576101b9565b8063bd61719114610405578063cc7a262e1461040d578063ccd34cd514610415576101b9565b80639513997f116100d35780639513997f14610398578063a0b40905146103bb578063a9f8d181146103e0578063b6b55f25146103e8576101b9565b80638da5cb5b146103575780638f6629151461038857806392e8990e14610390576101b9565b80633f138d4b11610166578063715018a611610140578063715018a6146102e257806380dc0672146102ea57806383a5041c146102f25780638ae39cac1461034f576101b9565b80633f138d4b1461029957806348cd4cb1146102d257806366fe9f8a146102da576101b9565b80632e1a7d4d116101975780632e1a7d4d146102435780633279beab14610260578063392e53cd1461027d576101b9565b806301f8a976146101be5780631959a002146101dd5780631aed655314610229575b600080fd5b6101db600480360360208110156101d457600080fd5b5035610493565b005b610210600480360360208110156101f357600080fd5b503573ffffffffffffffffffffffffffffffffffffffff166105cf565b6040805192835260208301919091528051918290030190f35b6102316105e8565b60408051918252519081900360200190f35b6101db6004803603602081101561025957600080fd5b50356105ee565b6101db6004803603602081101561027657600080fd5b50356107e0565b610285610898565b604080519115158252519081900360200190f35b6101db600480360360408110156102af57600080fd5b5073ffffffffffffffffffffffffffffffffffffffff81351690602001356108ba565b610231610ad5565b610231610adb565b6101db610ae1565b6101db610be1565b6101db600480360360e081101561030857600080fd5b5073ffffffffffffffffffffffffffffffffffffffff8135811691602081013582169160408201359160608101359160808201359160a08101359160c09091013516610c78565b610231610fad565b61035f610fb3565b6040805173ffffffffffffffffffffffffffffffffffffffff9092168252519081900360200190f35b610231610fcf565b610285610fd5565b6101db600480360360408110156103ae57600080fd5b5080359060200135610ff6565b6101db600480360360408110156103d157600080fd5b508035151590602001356111f5565b610231611411565b6101db600480360360208110156103fe57600080fd5b5035611417565b61035f611637565b61035f611653565b61023161166f565b6101db611675565b6101db6004803603602081101561043b57600080fd5b503573ffffffffffffffffffffffffffffffffffffffff16611773565b6102316004803603602081101561046e57600080fd5b503573ffffffffffffffffffffffffffffffffffffffff1661180d565b61035f61198a565b61049b6119a6565b60005473ffffffffffffffffffffffffffffffffffffffff90811691161461052457604080517f08c379a000000000000000000000000000000000000000000000000000000000815260206004820181905260248201527f4f776e61626c653a2063616c6c6572206973206e6f7420746865206f776e6572604482015290519081900360640190fd5b600554431061059457604080517f08c379a000000000000000000000000000000000000000000000000000000000815260206004820152601060248201527f506f6f6c20686173207374617274656400000000000000000000000000000000604482015290519081900360640190fd5b60088190556040805182815290517f0c4d677eef92893ac7ec52faf8140fc6c851ab4736302b4f3a89dfb20696a0df9181900360200190a150565b600c602052600090815260409020805460019091015482565b60045481565b6002600154141561066057604080517f08c379a000000000000000000000000000000000000000000000000000000000815260206004820152601f60248201527f5265656e7472616e637947756172643a207265656e7472616e742063616c6c00604482015290519081900360640190fd5b6002600155336000908152600c6020526040902080548211156106e457604080517f08c379a000000000000000000000000000000000000000000000000000000000815260206004820152601b60248201527f416d6f756e7420746f20776974686472617720746f6f20686967680000000000604482015290519081900360640190fd5b6106ec6119aa565b6000610721826001015461071b6009546107156003548760000154611ab890919063ffffffff16565b90611b34565b90611b76565b9050821561075b5781546107359084611b76565b8255600b5461075b9073ffffffffffffffffffffffffffffffffffffffff163385611bb8565b801561078557600a546107859073ffffffffffffffffffffffffffffffffffffffff163383611bb8565b600954600354835461079c92916107159190611ab8565b600183015560408051848152905133917f884edad9ce6fa2440d8a54cc123490eb96d2768479d49ff9c7366125a9424364919081900360200190a250506001805550565b6107e86119a6565b60005473ffffffffffffffffffffffffffffffffffffffff90811691161461087157604080517f08c379a000000000000000000000000000000000000000000000000000000000815260206004820181905260248201527f4f776e61626c653a2063616c6c6572206973206e6f7420746865206f776e6572604482015290519081900360640190fd5b600a546108959073ffffffffffffffffffffffffffffffffffffffff163383611bb8565b50565b6002547501000000000000000000000000000000000000000000900460ff1681565b6108c26119a6565b60005473ffffffffffffffffffffffffffffffffffffffff90811691161461094b57604080517f08c379a000000000000000000000000000000000000000000000000000000000815260206004820181905260248201527f4f776e61626c653a2063616c6c6572206973206e6f7420746865206f776e6572604482015290519081900360640190fd5b600b5473ffffffffffffffffffffffffffffffffffffffff838116911614156109d557604080517f08c379a000000000000000000000000000000000000000000000000000000000815260206004820152601660248201527f43616e6e6f74206265207374616b656420746f6b656e00000000000000000000604482015290519081900360640190fd5b600a5473ffffffffffffffffffffffffffffffffffffffff83811691161415610a5f57604080517f08c379a000000000000000000000000000000000000000000000000000000000815260206004820152601660248201527f43616e6e6f742062652072657761726420746f6b656e00000000000000000000604482015290519081900360640190fd5b610a8073ffffffffffffffffffffffffffffffffffffffff83163383611bb8565b6040805173ffffffffffffffffffffffffffffffffffffffff841681526020810183905281517f74545154aac348a3eac92596bd1971957ca94795f4e954ec5f613b55fab78129929181900390910190a15050565b60055481565b60075481565b610ae96119a6565b60005473ffffffffffffffffffffffffffffffffffffffff908116911614610b7257604080517f08c379a000000000000000000000000000000000000000000000000000000000815260206004820181905260248201527f4f776e61626c653a2063616c6c6572206973206e6f7420746865206f776e6572604482015290519081900360640190fd5b6000805460405173ffffffffffffffffffffffffffffffffffffffff909116907f8be0079c531659141344cd1fd0a4f28419497f9722a3daafe3b4186f6b6457e0908390a3600080547fffffffffffffffffffffffff0000000000000000000000000000000000000000169055565b610be96119a6565b60005473ffffffffffffffffffffffffffffffffffffffff908116911614610c7257604080517f08c379a000000000000000000000000000000000000000000000000000000000815260206004820181905260248201527f4f776e61626c653a2063616c6c6572206973206e6f7420746865206f776e6572604482015290519081900360640190fd5b43600455565b6002547501000000000000000000000000000000000000000000900460ff1615610d0357604080517f08c379a000000000000000000000000000000000000000000000000000000000815260206004820152601360248201527f416c726561647920696e697469616c697a656400000000000000000000000000604482015290519081900360640190fd5b60025473ffffffffffffffffffffffffffffffffffffffff163314610d8957604080517f08c379a000000000000000000000000000000000000000000000000000000000815260206004820152600b60248201527f4e6f7420666163746f7279000000000000000000000000000000000000000000604482015290519081900360640190fd5b600280547fffffffffffffffffffff00ffffffffffffffffffffffffffffffffffffffffff167501000000000000000000000000000000000000000000179055600b805473ffffffffffffffffffffffffffffffffffffffff808a167fffffffffffffffffffffffff000000000000000000000000000000000000000092831617909255600a8054928916929091169190911790556008859055600584905560048390558115610e7857600280547fffffffffffffffffffffff00ffffffffffffffffffffffffffffffffffffffff167401000000000000000000000000000000000000000017905560078290555b600a54604080517f313ce567000000000000000000000000000000000000000000000000000000008152905160009273ffffffffffffffffffffffffffffffffffffffff169163313ce567916004808301926020929190829003018186803b158015610ee357600080fd5b505afa158015610ef7573d6000803e3d6000fd5b505050506040513d6020811015610f0d57600080fd5b505160ff169050601e8110610f8357604080517f08c379a000000000000000000000000000000000000000000000000000000000815260206004820152601660248201527f4d75737420626520696e666572696f7220746f20333000000000000000000000604482015290519081900360640190fd5b610f8e601e82611b76565b600a0a600955600554600655610fa382611773565b5050505050505050565b60085481565b60005473ffffffffffffffffffffffffffffffffffffffff1690565b60035481565b60025474010000000000000000000000000000000000000000900460ff1681565b610ffe6119a6565b60005473ffffffffffffffffffffffffffffffffffffffff90811691161461108757604080517f08c379a000000000000000000000000000000000000000000000000000000000815260206004820181905260248201527f4f776e61626c653a2063616c6c6572206973206e6f7420746865206f776e6572604482015290519081900360640190fd5b60055443106110f757604080517f08c379a000000000000000000000000000000000000000000000000000000000815260206004820152601060248201527f506f6f6c20686173207374617274656400000000000000000000000000000000604482015290519081900360640190fd5b80821061114f576040517f08c379a000000000000000000000000000000000000000000000000000000000815260040180806020018281038252602e815260200180612301602e913960400191505060405180910390fd5b8143106111a7576040517f08c379a000000000000000000000000000000000000000000000000000000000815260040180806020018281038252603081526020018061232f6030913960400191505060405180910390fd5b600582905560048190556006829055604080518381526020810183905281517f7cd0ab87d19036f3dfadadb232c78aa4879dda3f0c994a9d637532410ee2ce06929181900390910190a15050565b6111fd6119a6565b60005473ffffffffffffffffffffffffffffffffffffffff90811691161461128657604080517f08c379a000000000000000000000000000000000000000000000000000000000815260206004820181905260248201527f4f776e61626c653a2063616c6c6572206973206e6f7420746865206f776e6572604482015290519081900360640190fd5b60025474010000000000000000000000000000000000000000900460ff1661130f57604080517f08c379a000000000000000000000000000000000000000000000000000000000815260206004820152600b60248201527f4d75737420626520736574000000000000000000000000000000000000000000604482015290519081900360640190fd5b811561138f57600754811161138557604080517f08c379a000000000000000000000000000000000000000000000000000000000815260206004820152601860248201527f4e6577206c696d6974206d757374206265206869676865720000000000000000604482015290519081900360640190fd5b60078190556113d8565b600280547fffffffffffffffffffffff00ffffffffffffffffffffffffffffffffffffffff16740100000000000000000000000000000000000000008415150217905560006007555b60075460408051918252517f241f67ee5f41b7a5cabf911367329be7215900f602ebfc47f89dce2a6bcd847c9181900360200190a15050565b60065481565b6002600154141561148957604080517f08c379a000000000000000000000000000000000000000000000000000000000815260206004820152601f60248201527f5265656e7472616e637947756172643a207265656e7472616e742063616c6c00604482015290519081900360640190fd5b60026001819055336000908152600c60205260409020905474010000000000000000000000000000000000000000900460ff161561153e5760075481546114d1908490611c4a565b111561153e57604080517f08c379a000000000000000000000000000000000000000000000000000000000815260206004820152601760248201527f5573657220616d6f756e742061626f7665206c696d6974000000000000000000604482015290519081900360640190fd5b6115466119aa565b8054156115a4576000611576826001015461071b6009546107156003548760000154611ab890919063ffffffff16565b905080156115a257600a546115a29073ffffffffffffffffffffffffffffffffffffffff163383611bb8565b505b81156115dd5780546115b69083611c4a565b8155600b546115dd9073ffffffffffffffffffffffffffffffffffffffff16333085611cbe565b60095460035482546115f492916107159190611ab8565b600182015560408051838152905133917fe1fffcc4923d04b559f4d29a8bfc6cda04eb5b0d3c460751c2402c5c5cc9109c919081900360200190a2505060018055565b60025473ffffffffffffffffffffffffffffffffffffffff1681565b600b5473ffffffffffffffffffffffffffffffffffffffff1681565b60095481565b600260015414156116e757604080517f08c379a000000000000000000000000000000000000000000000000000000000815260206004820152601f60248201527f5265656e7472616e637947756172643a207265656e7472616e742063616c6c00604482015290519081900360640190fd5b60026001908155336000908152600c6020526040812080548282559281019190915590801561173457600b546117349073ffffffffffffffffffffffffffffffffffffffff163383611bb8565b8154604080519182525133917f5fafa99d0643513820be26656b45130b01e1c03062e1266bf36f88cbd3bd9695919081900360200190a2505060018055565b61177b6119a6565b60005473ffffffffffffffffffffffffffffffffffffffff90811691161461180457604080517f08c379a000000000000000000000000000000000000000000000000000000000815260206004820181905260248201527f4f776e61626c653a2063616c6c6572206973206e6f7420746865206f776e6572604482015290519081900360640190fd5b61089581611d59565b73ffffffffffffffffffffffffffffffffffffffff8082166000908152600c60209081526040808320600b5482517f70a08231000000000000000000000000000000000000000000000000000000008152306004820152925194959194869491909216926370a082319260248083019392829003018186803b15801561189257600080fd5b505afa1580156118a6573d6000803e3d6000fd5b505050506040513d60208110156118bc57600080fd5b5051600654909150431180156118d157508015155b156119595760006118e460065443611e52565b905060006118fd60085483611ab890919063ffffffff16565b9050600061192661191d8561071560095486611ab890919063ffffffff16565b60035490611c4a565b905061194d856001015461071b600954610715858a60000154611ab890919063ffffffff16565b95505050505050611985565b611980826001015461071b6009546107156003548760000154611ab890919063ffffffff16565b925050505b919050565b600a5473ffffffffffffffffffffffffffffffffffffffff1681565b3390565b60065443116119b857611ab6565b600b54604080517f70a08231000000000000000000000000000000000000000000000000000000008152306004820152905160009273ffffffffffffffffffffffffffffffffffffffff16916370a08231916024808301926020929190829003018186803b158015611a2957600080fd5b505afa158015611a3d573d6000803e3d6000fd5b505050506040513d6020811015611a5357600080fd5b5051905080611a66575043600655611ab6565b6000611a7460065443611e52565b90506000611a8d60085483611ab890919063ffffffff16565b9050611aab61191d8461071560095485611ab890919063ffffffff16565b600355505043600655505b565b600082611ac757506000611b2e565b82820282848281611ad457fe5b0414611b2b576040517f08c379a000000000000000000000000000000000000000000000000000000000815260040180806020018281038252602181526020018061235f6021913960400191505060405180910390fd5b90505b92915050565b6000611b2b83836040518060400160405280601a81526020017f536166654d6174683a206469766973696f6e206279207a65726f000000000000815250611e8c565b6000611b2b83836040518060400160405280601e81526020017f536166654d6174683a207375627472616374696f6e206f766572666c6f770000815250611f48565b6040805173ffffffffffffffffffffffffffffffffffffffff8416602482015260448082018490528251808303909101815260649091019091526020810180517bffffffffffffffffffffffffffffffffffffffffffffffffffffffff167fa9059cbb00000000000000000000000000000000000000000000000000000000179052611c45908490611fbc565b505050565b600082820183811015611b2b57604080517f08c379a000000000000000000000000000000000000000000000000000000000815260206004820152601b60248201527f536166654d6174683a206164646974696f6e206f766572666c6f770000000000604482015290519081900360640190fd5b6040805173ffffffffffffffffffffffffffffffffffffffff80861660248301528416604482015260648082018490528251808303909101815260849091019091526020810180517bffffffffffffffffffffffffffffffffffffffffffffffffffffffff167f23b872dd00000000000000000000000000000000000000000000000000000000179052611d53908590611fbc565b50505050565b73ffffffffffffffffffffffffffffffffffffffff8116611dc5576040517f08c379a00000000000000000000000000000000000000000000000000000000081526004018080602001828103825260268152602001806122db6026913960400191505060405180910390fd5b6000805460405173ffffffffffffffffffffffffffffffffffffffff808516939216917f8be0079c531659141344cd1fd0a4f28419497f9722a3daafe3b4186f6b6457e091a3600080547fffffffffffffffffffffffff00000000000000000000000000000000000000001673ffffffffffffffffffffffffffffffffffffffff92909216919091179055565b60006004548211611e6e57611e678284611b76565b9050611b2e565b6004548310611e7f57506000611b2e565b600454611e679084611b76565b60008183611f32576040517f08c379a00000000000000000000000000000000000000000000000000000000081526004018080602001828103825283818151815260200191508051906020019080838360005b83811015611ef7578181015183820152602001611edf565b50505050905090810190601f168015611f245780820380516001836020036101000a031916815260200191505b509250505060405180910390fd5b506000838581611f3e57fe5b0495945050505050565b60008184841115611fb4576040517f08c379a0000000000000000000000000000000000000000000000000000000008152602060048201818152835160248401528351909283926044909101919085019080838360008315611ef7578181015183820152602001611edf565b505050900390565b606061201e826040518060400160405280602081526020017f5361666542455032303a206c6f772d6c6576656c2063616c6c206661696c65648152508573ffffffffffffffffffffffffffffffffffffffff166120949092919063ffffffff16565b805190915015611c455780806020019051602081101561203d57600080fd5b5051611c45576040517f08c379a000000000000000000000000000000000000000000000000000000000815260040180806020018281038252602a8152602001806122b1602a913960400191505060405180910390fd5b60606120a384846000856120ab565b949350505050565b60606120b685612277565b61212157604080517f08c379a000000000000000000000000000000000000000000000000000000000815260206004820152601d60248201527f416464726573733a2063616c6c20746f206e6f6e2d636f6e7472616374000000604482015290519081900360640190fd5b600060608673ffffffffffffffffffffffffffffffffffffffff1685876040518082805190602001908083835b6020831061218b57805182527fffffffffffffffffffffffffffffffffffffffffffffffffffffffffffffffe0909201916020918201910161214e565b6001836020036101000a03801982511681845116808217855250505050505090500191505060006040518083038185875af1925050503d80600081146121ed576040519150601f19603f3d011682016040523d82523d6000602084013e6121f2565b606091505b509150915081156122065791506120a39050565b8051156122165780518082602001fd5b6040517f08c379a0000000000000000000000000000000000000000000000000000000008152602060048201818152865160248401528651879391928392604401919085019080838360008315611ef7578181015183820152602001611edf565b6000813f7fc5d2460186f7233c927e7db2dcc703c0e500b653ca82273b7bfad8045d85a47081811480159061198057505015159291505056fe5361666542455032303a204245503230206f7065726174696f6e20646964206e6f7420737563636565644f776e61626c653a206e6577206f776e657220697320746865207a65726f20616464726573734e6577207374617274426c6f636b206d757374206265206c6f776572207468616e206e657720656e64426c6f636b4e6577207374617274426c6f636b206d75737420626520686967686572207468616e2063757272656e7420626c6f636b536166654d6174683a206d756c7469706c69636174696f6e206f766572666c6f77a2646970667358221220b22b973a56e8623542021fb85117372f7604825e2331be2dbe8192d96accbef564736f6c634300060c00334f776e61626c653a206e6577206f776e657220697320746865207a65726f2061646472657373a2646970667358221220e4c10a6a219a93bef682ffee23dfdc563a1d935c36d61bddd44dfe0bd1b0795f64736f6c634300060c0033",
  "linkReferences": {},
  "deployedLinkReferences": {}
}