{
  "_format": "hh-sol-artifact-1",
  "contractName": "Delegator",
  "sourceName": "contracts/test/Delegator.sol",
  "abi": [
    {
      "inputs": [
        {
          "internalType": "contract IVECake",
          "name": "_VECake",
          "type": "address"
        },
        {
          "internalType": "contract IERC20",
          "name": "_token",
          "type": "address"
        }
      ],
      "stateMutability": "nonpayable",
      "type": "constructor"
    },
    {
      "anonymous": false,
      "inputs": [
        {
          "indexed": true,
          "internalType": "address",
          "name": "owner",
          "type": "address"
        },
        {
          "indexed": true,
          "internalType": "address",
          "name": "spender",
          "type": "address"
        },
        {
          "indexed": false,
          "internalType": "uint256",
          "name": "value",
          "type": "uint256"
        }
      ],
      "name": "Approval",
      "type": "event"
    },
    {
      "anonymous": false,
      "inputs": [
        {
          "indexed": true,
          "internalType": "address",
          "name": "from",
          "type": "address"
        },
        {
          "indexed": true,
          "internalType": "address",
          "name": "to",
          "type": "address"
        },
        {
          "indexed": false,
          "internalType": "uint256",
          "name": "value",
          "type": "uint256"
        }
      ],
      "name": "Transfer",
      "type": "event"
    },
    {
      "inputs": [],
      "name": "VECake",
      "outputs": [
        {
          "internalType": "contract IVECake",
          "name": "",
          "type": "address"
        }
      ],
      "stateMutability": "view",
      "type": "function"
    },
    {
      "inputs": [
        {
          "internalType": "address",
          "name": "owner",
          "type": "address"
        },
        {
          "internalType": "address",
          "name": "spender",
          "type": "address"
        }
      ],
      "name": "allowance",
      "outputs": [
        {
          "internalType": "uint256",
          "name": "",
          "type": "uint256"
        }
      ],
      "stateMutability": "view",
      "type": "function"
    },
    {
      "inputs": [
        {
          "internalType": "address",
          "name": "spender",
          "type": "address"
        },
        {
          "internalType": "uint256",
          "name": "amount",
          "type": "uint256"
        }
      ],
      "name": "approve",
      "outputs": [
        {
          "internalType": "bool",
          "name": "",
          "type": "bool"
        }
      ],
      "stateMutability": "nonpayable",
      "type": "function"
    },
    {
      "inputs": [
        {
          "internalType": "address",
          "name": "account",
          "type": "address"
        }
      ],
      "name": "balanceOf",
      "outputs": [
        {
          "internalType": "uint256",
          "name": "",
          "type": "uint256"
        }
      ],
      "stateMutability": "view",
      "type": "function"
    },
    {
      "inputs": [
        {
          "internalType": "uint256",
          "name": "_amount",
          "type": "uint256"
        },
        {
          "internalType": "uint256",
          "name": "_unlockTime",
          "type": "uint256"
        }
      ],
      "name": "createLock",
      "outputs": [],
      "stateMutability": "nonpayable",
      "type": "function"
    },
    {
      "inputs": [],
      "name": "decimals",
      "outputs": [
        {
          "internalType": "uint8",
          "name": "",
          "type": "uint8"
        }
      ],
      "stateMutability": "view",
      "type": "function"
    },
    {
      "inputs": [
        {
          "internalType": "address",
          "name": "spender",
          "type": "address"
        },
        {
          "internalType": "uint256",
          "name": "subtractedValue",
          "type": "uint256"
        }
      ],
      "name": "decreaseAllowance",
      "outputs": [
        {
          "internalType": "bool",
          "name": "",
          "type": "bool"
        }
      ],
      "stateMutability": "nonpayable",
      "type": "function"
    },
    {
      "inputs": [
        {
          "internalType": "address",
          "name": "user",
          "type": "address"
        },
        {
          "internalType": "uint256",
          "name": "amount",
          "type": "uint256"
        },
        {
          "internalType": "uint256",
          "name": "lockEndTime",
          "type": "uint256"
        }
      ],
      "name": "delegate",
      "outputs": [],
      "stateMutability": "nonpayable",
      "type": "function"
    },
    {
      "inputs": [
        {
          "internalType": "address",
          "name": "_to",
          "type": "address"
        },
        {
          "internalType": "uint256",
          "name": "_amount",
          "type": "uint256"
        }
      ],
      "name": "earlyWithdraw",
      "outputs": [],
      "stateMutability": "nonpayable",
      "type": "function"
    },
    {
      "inputs": [],
      "name": "emergencyWithdraw",
      "outputs": [],
      "stateMutability": "nonpayable",
      "type": "function"
    },
    {
      "inputs": [
        {
          "internalType": "address",
          "name": "spender",
          "type": "address"
        },
        {
          "internalType": "uint256",
          "name": "addedValue",
          "type": "uint256"
        }
      ],
      "name": "increaseAllowance",
      "outputs": [
        {
          "internalType": "bool",
          "name": "",
          "type": "bool"
        }
      ],
      "stateMutability": "nonpayable",
      "type": "function"
    },
    {
      "inputs": [
        {
          "internalType": "uint256",
          "name": "_amount",
          "type": "uint256"
        }
      ],
      "name": "increaseLockAmount",
      "outputs": [],
      "stateMutability": "nonpayable",
      "type": "function"
    },
    {
      "inputs": [
        {
          "internalType": "uint256",
          "name": "_newUnlockTime",
          "type": "uint256"
        }
      ],
      "name": "increaseUnlockTime",
      "outputs": [],
      "stateMutability": "nonpayable",
      "type": "function"
    },
    {
      "inputs": [],
      "name": "name",
      "outputs": [
        {
          "internalType": "string",
          "name": "",
          "type": "string"
        }
      ],
      "stateMutability": "view",
      "type": "function"
    },
    {
      "inputs": [],
      "name": "symbol",
      "outputs": [
        {
          "internalType": "string",
          "name": "",
          "type": "string"
        }
      ],
      "stateMutability": "view",
      "type": "function"
    },
    {
      "inputs": [],
      "name": "token",
      "outputs": [
        {
          "internalType": "contract IERC20",
          "name": "",
          "type": "address"
        }
      ],
      "stateMutability": "view",
      "type": "function"
    },
    {
      "inputs": [],
      "name": "totalSupply",
      "outputs": [
        {
          "internalType": "uint256",
          "name": "",
          "type": "uint256"
        }
      ],
      "stateMutability": "view",
      "type": "function"
    },
    {
      "inputs": [
        {
          "internalType": "address",
          "name": "to",
          "type": "address"
        },
        {
          "internalType": "uint256",
          "name": "amount",
          "type": "uint256"
        }
      ],
      "name": "transfer",
      "outputs": [
        {
          "internalType": "bool",
          "name": "",
          "type": "bool"
        }
      ],
      "stateMutability": "nonpayable",
      "type": "function"
    },
    {
      "inputs": [
        {
          "internalType": "address",
          "name": "from",
          "type": "address"
        },
        {
          "internalType": "address",
          "name": "to",
          "type": "address"
        },
        {
          "internalType": "uint256",
          "name": "amount",
          "type": "uint256"
        }
      ],
      "name": "transferFrom",
      "outputs": [
        {
          "internalType": "bool",
          "name": "",
          "type": "bool"
        }
      ],
      "stateMutability": "nonpayable",
      "type": "function"
    },
    {
      "inputs": [
        {
          "internalType": "address",
          "name": "_to",
          "type": "address"
        }
      ],
      "name": "withdrawAll",
      "outputs": [],
      "stateMutability": "nonpayable",
      "type": "function"
    }
  ],
  "bytecode": "0x60c06040523480156200001157600080fd5b5060405162001f2e38038062001f2e833981016040819052620000349162000574565b6040518060400160405280601681526020017f564543616b652044656c656761746f7220546f6b656e000000000000000000008152506040518060400160405280600381526020016215911560ea1b81525081600390805190602001906200009e929190620004b5565b508051620000b4906004906020840190620004b5565b5050506001600160a01b0382811660a05281166080819052620000e79083600019620000ef602090811b6200097317901c565b5050620006b4565b8015806200016d5750604051636eb1769f60e11b81523060048201526001600160a01b03838116602483015284169063dd62ed3e90604401602060405180830381865afa15801562000145573d6000803e3d6000fd5b505050506040513d601f19601f820116820180604052508101906200016b9190620005b3565b155b620001e55760405162461bcd60e51b815260206004820152603660248201527f5361666545524332303a20617070726f76652066726f6d206e6f6e2d7a65726f60448201527f20746f206e6f6e2d7a65726f20616c6c6f77616e63650000000000000000000060648201526084015b60405180910390fd5b604080516001600160a01b038416602482015260448082018490528251808303909101815260649091019091526020810180516001600160e01b0390811663095ea7b360e01b179091526200023d9185916200024216565b505050565b60006200029e826040518060400160405280602081526020017f5361666545524332303a206c6f772d6c6576656c2063616c6c206661696c6564815250856001600160a01b03166200032060201b62000b73179092919060201c565b8051909150156200023d5780806020019051810190620002bf9190620005cd565b6200023d5760405162461bcd60e51b815260206004820152602a60248201527f5361666545524332303a204552433230206f7065726174696f6e20646964206e6044820152691bdd081cdd58d8d9595960b21b6064820152608401620001dc565b60606200033184846000856200033b565b90505b9392505050565b6060824710156200039e5760405162461bcd60e51b815260206004820152602660248201527f416464726573733a20696e73756666696369656e742062616c616e636520666f6044820152651c8818d85b1b60d21b6064820152608401620001dc565b6001600160a01b0385163b620003f75760405162461bcd60e51b815260206004820152601d60248201527f416464726573733a2063616c6c20746f206e6f6e2d636f6e74726163740000006044820152606401620001dc565b600080866001600160a01b0316858760405162000415919062000624565b60006040518083038185875af1925050503d806000811462000454576040519150601f19603f3d011682016040523d82523d6000602084013e62000459565b606091505b5090925090506200046c82828662000477565b979650505050505050565b606083156200048857508162000334565b825115620004995782518084602001fd5b8160405162461bcd60e51b8152600401620001dc919062000642565b828054620004c39062000677565b90600052602060002090601f016020900481019282620004e7576000855562000532565b82601f106200050257805160ff191683800117855562000532565b8280016001018555821562000532579182015b828111156200053257825182559160200191906001019062000515565b506200054092915062000544565b5090565b5b8082111562000540576000815560010162000545565b6001600160a01b03811681146200057157600080fd5b50565b600080604083850312156200058857600080fd5b825162000595816200055b565b6020840151909250620005a8816200055b565b809150509250929050565b600060208284031215620005c657600080fd5b5051919050565b600060208284031215620005e057600080fd5b815180151581146200033457600080fd5b60005b838110156200060e578181015183820152602001620005f4565b838111156200061e576000848401525b50505050565b6000825162000638818460208701620005f1565b9190910192915050565b602081526000825180602084015262000663816040850160208701620005f1565b601f01601f19169190910160400192915050565b600181811c908216806200068c57607f821691505b60208210811415620006ae57634e487b7160e01b600052602260045260246000fd5b50919050565b60805160a05161181c62000712600039600081816102260152818161052e015281816105ef0152818161067f015281816108390152818161087f0152610944015260008181610370015281816104d701526107db015261181c6000f3fe608060405234801561001057600080fd5b506004361061016c5760003560e01c806370a08231116100cd578063b52c05fe11610081578063dd62ed3e11610066578063dd62ed3e14610312578063fa09e63014610358578063fc0c546a1461036b57600080fd5b8063b52c05fe146102f7578063db2e21bc1461030a57600080fd5b806395d89b41116100b257806395d89b41146102c9578063a457c2d7146102d1578063a9059cbb146102e457600080fd5b806370a08231146102805780637c616fe6146102b657600080fd5b8063313ce56711610124578063403f444711610109578063403f44471461020e57806362534e79146102215780636574deb71461026d57600080fd5b8063313ce567146101ec57806339509351146101fb57600080fd5b8063095ea7b311610155578063095ea7b3146101a457806318160ddd146101c757806323b872dd146101d957600080fd5b80630185921e1461017157806306fdde0314610186575b600080fd5b61018461017f36600461155d565b610392565b005b61018e6103a1565b60405161019b91906115bc565b60405180910390f35b6101b76101b236600461160d565b610433565b604051901515815260200161019b565b6002545b60405190815260200161019b565b6101b76101e7366004611637565b61044b565b6040516012815260200161019b565b6101b761020936600461160d565b610471565b61018461021c366004611673565b6104bd565b6102487f000000000000000000000000000000000000000000000000000000000000000081565b60405173ffffffffffffffffffffffffffffffffffffffff909116815260200161019b565b61018461027b36600461160d565b6105a3565b6101cb61028e36600461168c565b73ffffffffffffffffffffffffffffffffffffffff1660009081526020819052604090205490565b6101846102c4366004611673565b610650565b61018e6106c3565b6101b76102df36600461160d565b6106d2565b6101b76102f236600461160d565b6107b3565b6101846103053660046116a7565b6107c1565b61018461087d565b6101cb6103203660046116c9565b73ffffffffffffffffffffffffffffffffffffffff918216600090815260016020908152604080832093909416825291909152205490565b61018461036636600461168c565b6108ff565b6102487f000000000000000000000000000000000000000000000000000000000000000081565b61039c8383610b8a565b505050565b6060600380546103b0906116fc565b80601f01602080910402602001604051908101604052809291908181526020018280546103dc906116fc565b80156104295780601f106103fe57610100808354040283529160200191610429565b820191906000526020600020905b81548152906001019060200180831161040c57829003601f168201915b5050505050905090565b600033610441818585610caa565b5060019392505050565b600033610459858285610e5d565b610464858585610f2e565b60019150505b9392505050565b33600081815260016020908152604080832073ffffffffffffffffffffffffffffffffffffffff8716845290915281205490919061044190829086906104b8908790611750565b610caa565b6104ff73ffffffffffffffffffffffffffffffffffffffff7f0000000000000000000000000000000000000000000000000000000000000000163330846111e1565b6040517f403f4447000000000000000000000000000000000000000000000000000000008152600481018290527f000000000000000000000000000000000000000000000000000000000000000073ffffffffffffffffffffffffffffffffffffffff169063403f4447906024015b600060405180830381600087803b15801561058857600080fd5b505af115801561059c573d6000803e3d6000fd5b5050505050565b6040517f6574deb700000000000000000000000000000000000000000000000000000000815273ffffffffffffffffffffffffffffffffffffffff8381166004830152602482018390527f00000000000000000000000000000000000000000000000000000000000000001690636574deb7906044015b600060405180830381600087803b15801561063457600080fd5b505af1158015610648573d6000803e3d6000fd5b505050505050565b6040517f7c616fe6000000000000000000000000000000000000000000000000000000008152600481018290527f000000000000000000000000000000000000000000000000000000000000000073ffffffffffffffffffffffffffffffffffffffff1690637c616fe69060240161056e565b6060600480546103b0906116fc565b33600081815260016020908152604080832073ffffffffffffffffffffffffffffffffffffffff871684529091528120549091908381101561079b576040517f08c379a000000000000000000000000000000000000000000000000000000000815260206004820152602560248201527f45524332303a2064656372656173656420616c6c6f77616e63652062656c6f7760448201527f207a65726f00000000000000000000000000000000000000000000000000000060648201526084015b60405180910390fd5b6107a88286868403610caa565b506001949350505050565b600033610441818585610f2e565b61080373ffffffffffffffffffffffffffffffffffffffff7f0000000000000000000000000000000000000000000000000000000000000000163330856111e1565b6040517fb52c05fe00000000000000000000000000000000000000000000000000000000815260048101839052602481018290527f000000000000000000000000000000000000000000000000000000000000000073ffffffffffffffffffffffffffffffffffffffff169063b52c05fe9060440161061a565b7f000000000000000000000000000000000000000000000000000000000000000073ffffffffffffffffffffffffffffffffffffffff1663db2e21bc6040518163ffffffff1660e01b8152600401600060405180830381600087803b1580156108e557600080fd5b505af11580156108f9573d6000803e3d6000fd5b50505050565b6040517ffa09e63000000000000000000000000000000000000000000000000000000000815273ffffffffffffffffffffffffffffffffffffffff82811660048301527f0000000000000000000000000000000000000000000000000000000000000000169063fa09e6309060240161056e565b801580610a1357506040517fdd62ed3e00000000000000000000000000000000000000000000000000000000815230600482015273ffffffffffffffffffffffffffffffffffffffff838116602483015284169063dd62ed3e90604401602060405180830381865afa1580156109ed573d6000803e3d6000fd5b505050506040513d601f19601f82011682018060405250810190610a11919061178f565b155b610a9f576040517f08c379a000000000000000000000000000000000000000000000000000000000815260206004820152603660248201527f5361666545524332303a20617070726f76652066726f6d206e6f6e2d7a65726f60448201527f20746f206e6f6e2d7a65726f20616c6c6f77616e6365000000000000000000006064820152608401610792565b60405173ffffffffffffffffffffffffffffffffffffffff831660248201526044810182905261039c9084907f095ea7b300000000000000000000000000000000000000000000000000000000906064015b604080517fffffffffffffffffffffffffffffffffffffffffffffffffffffffffffffffe08184030181529190526020810180517bffffffffffffffffffffffffffffffffffffffffffffffffffffffff167fffffffff000000000000000000000000000000000000000000000000000000009093169290921790915261123f565b6060610b82848460008561134b565b949350505050565b73ffffffffffffffffffffffffffffffffffffffff8216610c07576040517f08c379a000000000000000000000000000000000000000000000000000000000815260206004820152601f60248201527f45524332303a206d696e7420746f20746865207a65726f2061646472657373006044820152606401610792565b8060026000828254610c199190611750565b909155505073ffffffffffffffffffffffffffffffffffffffff821660009081526020819052604081208054839290610c53908490611750565b909155505060405181815273ffffffffffffffffffffffffffffffffffffffff8316906000907fddf252ad1be2c89b69c2b068fc378daa952ba7f163c4a11628f55a4df523b3ef9060200160405180910390a35050565b73ffffffffffffffffffffffffffffffffffffffff8316610d4c576040517f08c379a0000000000000000000000000000000000000000000000000000000008152602060048201526024808201527f45524332303a20617070726f76652066726f6d20746865207a65726f2061646460448201527f72657373000000000000000000000000000000000000000000000000000000006064820152608401610792565b73ffffffffffffffffffffffffffffffffffffffff8216610def576040517f08c379a000000000000000000000000000000000000000000000000000000000815260206004820152602260248201527f45524332303a20617070726f766520746f20746865207a65726f20616464726560448201527f73730000000000000000000000000000000000000000000000000000000000006064820152608401610792565b73ffffffffffffffffffffffffffffffffffffffff83811660008181526001602090815260408083209487168084529482529182902085905590518481527f8c5be1e5ebec7d5bd14f71427d1e84f3dd0314c0f7b2291e5b200ac8c7c3b925910160405180910390a3505050565b73ffffffffffffffffffffffffffffffffffffffff8381166000908152600160209081526040808320938616835292905220547fffffffffffffffffffffffffffffffffffffffffffffffffffffffffffffffff81146108f95781811015610f21576040517f08c379a000000000000000000000000000000000000000000000000000000000815260206004820152601d60248201527f45524332303a20696e73756666696369656e7420616c6c6f77616e63650000006044820152606401610792565b6108f98484848403610caa565b73ffffffffffffffffffffffffffffffffffffffff8316610fd1576040517f08c379a000000000000000000000000000000000000000000000000000000000815260206004820152602560248201527f45524332303a207472616e736665722066726f6d20746865207a65726f20616460448201527f64726573730000000000000000000000000000000000000000000000000000006064820152608401610792565b73ffffffffffffffffffffffffffffffffffffffff8216611074576040517f08c379a000000000000000000000000000000000000000000000000000000000815260206004820152602360248201527f45524332303a207472616e7366657220746f20746865207a65726f206164647260448201527f65737300000000000000000000000000000000000000000000000000000000006064820152608401610792565b73ffffffffffffffffffffffffffffffffffffffff83166000908152602081905260409020548181101561112a576040517f08c379a000000000000000000000000000000000000000000000000000000000815260206004820152602660248201527f45524332303a207472616e7366657220616d6f756e742065786365656473206260448201527f616c616e636500000000000000000000000000000000000000000000000000006064820152608401610792565b73ffffffffffffffffffffffffffffffffffffffff80851660009081526020819052604080822085850390559185168152908120805484929061116e908490611750565b925050819055508273ffffffffffffffffffffffffffffffffffffffff168473ffffffffffffffffffffffffffffffffffffffff167fddf252ad1be2c89b69c2b068fc378daa952ba7f163c4a11628f55a4df523b3ef846040516111d491815260200190565b60405180910390a36108f9565b60405173ffffffffffffffffffffffffffffffffffffffff808516602483015283166044820152606481018290526108f99085907f23b872dd0000000000000000000000000000000000000000000000000000000090608401610af1565b60006112a1826040518060400160405280602081526020017f5361666545524332303a206c6f772d6c6576656c2063616c6c206661696c65648152508573ffffffffffffffffffffffffffffffffffffffff16610b739092919063ffffffff16565b80519091501561039c57808060200190518101906112bf91906117a8565b61039c576040517f08c379a000000000000000000000000000000000000000000000000000000000815260206004820152602a60248201527f5361666545524332303a204552433230206f7065726174696f6e20646964206e60448201527f6f742073756363656564000000000000000000000000000000000000000000006064820152608401610792565b6060824710156113dd576040517f08c379a000000000000000000000000000000000000000000000000000000000815260206004820152602660248201527f416464726573733a20696e73756666696369656e742062616c616e636520666f60448201527f722063616c6c00000000000000000000000000000000000000000000000000006064820152608401610792565b73ffffffffffffffffffffffffffffffffffffffff85163b61145b576040517f08c379a000000000000000000000000000000000000000000000000000000000815260206004820152601d60248201527f416464726573733a2063616c6c20746f206e6f6e2d636f6e74726163740000006044820152606401610792565b6000808673ffffffffffffffffffffffffffffffffffffffff16858760405161148491906117ca565b60006040518083038185875af1925050503d80600081146114c1576040519150601f19603f3d011682016040523d82523d6000602084013e6114c6565b606091505b50915091506114d68282866114e1565b979650505050505050565b606083156114f057508161046a565b8251156115005782518084602001fd5b816040517f08c379a000000000000000000000000000000000000000000000000000000000815260040161079291906115bc565b803573ffffffffffffffffffffffffffffffffffffffff8116811461155857600080fd5b919050565b60008060006060848603121561157257600080fd5b61157b84611534565b95602085013595506040909401359392505050565b60005b838110156115ab578181015183820152602001611593565b838111156108f95750506000910152565b60208152600082518060208401526115db816040850160208701611590565b601f017fffffffffffffffffffffffffffffffffffffffffffffffffffffffffffffffe0169190910160400192915050565b6000806040838503121561162057600080fd5b61162983611534565b946020939093013593505050565b60008060006060848603121561164c57600080fd5b61165584611534565b925061166360208501611534565b9150604084013590509250925092565b60006020828403121561168557600080fd5b5035919050565b60006020828403121561169e57600080fd5b61046a82611534565b600080604083850312156116ba57600080fd5b50508035926020909101359150565b600080604083850312156116dc57600080fd5b6116e583611534565b91506116f360208401611534565b90509250929050565b600181811c9082168061171057607f821691505b6020821081141561174a577f4e487b7100000000000000000000000000000000000000000000000000000000600052602260045260246000fd5b50919050565b6000821982111561178a577f4e487b7100000000000000000000000000000000000000000000000000000000600052601160045260246000fd5b500190565b6000602082840312156117a157600080fd5b5051919050565b6000602082840312156117ba57600080fd5b8151801515811461046a57600080fd5b600082516117dc818460208701611590565b919091019291505056fea2646970667358221220bf17af568e53b394206cf7d4eff202ec6e3cd048b972cb84999dfc9b4b6b34d564736f6c634300080a0033",
  "linkReferences": {},
  "deployedLinkReferences": {}
}