{
  "_format": "hh-sol-artifact-1",
  "contractName": "PancakeStableSwapLPFactory",
  "sourceName": "contracts/PancakeStableSwapLPFactory.sol",
  "abi": [
    {
      "inputs": [],
      "stateMutability": "nonpayable",
      "type": "constructor"
    },
    {
      "anonymous": false,
      "inputs": [
        {
          "indexed": true,
          "internalType": "address",
          "name": "swapLPContract",
          "type": "address"
        },
        {
          "indexed": false,
          "internalType": "address",
          "name": "tokenA",
          "type": "address"
        },
        {
          "indexed": false,
          "internalType": "address",
          "name": "tokenB",
          "type": "address"
        },
        {
          "indexed": false,
          "internalType": "address",
          "name": "tokenC",
          "type": "address"
        }
      ],
      "name": "NewStableSwapLP",
      "type": "event"
    },
    {
      "anonymous": false,
      "inputs": [
        {
          "indexed": true,
          "internalType": "address",
          "name": "previousOwner",
          "type": "address"
        },
        {
          "indexed": true,
          "internalType": "address",
          "name": "newOwner",
          "type": "address"
        }
      ],
      "name": "OwnershipTransferred",
      "type": "event"
    },
    {
      "inputs": [
        {
          "internalType": "address",
          "name": "_tokenA",
          "type": "address"
        },
        {
          "internalType": "address",
          "name": "_tokenB",
          "type": "address"
        },
        {
          "internalType": "address",
          "name": "_tokenC",
          "type": "address"
        },
        {
          "internalType": "address",
          "name": "_minter",
          "type": "address"
        }
      ],
      "name": "createSwapLP",
      "outputs": [
        {
          "internalType": "address",
          "name": "",
          "type": "address"
        }
      ],
      "stateMutability": "nonpayable",
      "type": "function"
    },
    {
      "inputs": [],
      "name": "owner",
      "outputs": [
        {
          "internalType": "address",
          "name": "",
          "type": "address"
        }
      ],
      "stateMutability": "view",
      "type": "function"
    },
    {
      "inputs": [],
      "name": "renounceOwnership",
      "outputs": [],
      "stateMutability": "nonpayable",
      "type": "function"
    },
    {
      "inputs": [
        {
          "internalType": "address",
          "name": "newOwner",
          "type": "address"
        }
      ],
      "name": "transferOwnership",
      "outputs": [],
      "stateMutability": "nonpayable",
      "type": "function"
    }
  ],
  "bytecode": "0x608060405234801561001057600080fd5b5061001a3361001f565b61006f565b600080546001600160a01b038381166001600160a01b0319831681178455604051919092169283917f8be0079c531659141344cd1fd0a4f28419497f9722a3daafe3b4186f6b6457e09190a35050565b6112528061007e6000396000f3fe608060405234801561001057600080fd5b506004361061004c5760003560e01c8063715018a6146100515780638da5cb5b1461005b578063b240221a14610084578063f2fde38b14610097575b600080fd5b6100596100aa565b005b6000546001600160a01b03165b6040516001600160a01b03909116815260200160405180910390f35b610068610092366004610379565b6100e9565b6100596100a53660046103cd565b610265565b6000546001600160a01b031633146100dd5760405162461bcd60e51b81526004016100d4906103ef565b60405180910390fd5b6100e76000610300565b565b600080546001600160a01b031633146101145760405162461bcd60e51b81526004016100d4906103ef565b60006040518060200161012690610350565b601f1982820381018352601f9091011660408190526bffffffffffffffffffffffff19606089811b8216602084015288811b8216603484015287811b8216604884015233901b16605c82015242607082015246609082015290915060009060b0016040516020818303038152906040528051906020012090506000818351602085016000f5604051637e51dad560e11b81526001600160a01b0387811660048301529192509082169063fca3b5aa90602401600060405180830381600087803b1580156101f257600080fd5b505af1158015610206573d6000803e3d6000fd5b5050604080516001600160a01b038c811682528b811660208301528a811682840152915191851693507f4e4b290d6a2867680831ef72cd9296e15a5df4169e3d44b24cd3ce3ecd753327925081900360600190a2979650505050505050565b6000546001600160a01b0316331461028f5760405162461bcd60e51b81526004016100d4906103ef565b6001600160a01b0381166102f45760405162461bcd60e51b815260206004820152602660248201527f4f776e61626c653a206e6577206f776e657220697320746865207a65726f206160448201526564647265737360d01b60648201526084016100d4565b6102fd81610300565b50565b600080546001600160a01b038381166001600160a01b0319831681178455604051919092169283917f8be0079c531659141344cd1fd0a4f28419497f9722a3daafe3b4186f6b6457e09190a35050565b610df88061042583390190565b80356001600160a01b038116811461037457600080fd5b919050565b6000806000806080858703121561038f57600080fd5b6103988561035d565b93506103a66020860161035d565b92506103b46040860161035d565b91506103c26060860161035d565b905092959194509250565b6000602082840312156103df57600080fd5b6103e88261035d565b9392505050565b6020808252818101527f4f776e61626c653a2063616c6c6572206973206e6f7420746865206f776e657260408201526060019056fe60806040523480156200001157600080fd5b50604080518082018252601681527f50616e63616b6520537461626c6553776170204c5073000000000000000000006020808301918252835180850190945260098452680537461626c652d4c560bc1b9084015281519192916200007891600391620000a9565b5080516200008e906004906020840190620000a9565b5050600580546001600160a01b03191633179055506200018c565b828054620000b7906200014f565b90600052602060002090601f016020900481019282620000db576000855562000126565b82601f10620000f657805160ff191683800117855562000126565b8280016001018555821562000126579182015b828111156200012657825182559160200191906001019062000109565b506200013492915062000138565b5090565b5b8082111562000134576000815560010162000139565b600181811c908216806200016457607f821691505b602082108114156200018657634e487b7160e01b600052602260045260246000fd5b50919050565b610c5c806200019c6000396000f3fe608060405234801561001057600080fd5b50600436106100d55760003560e01c806340c10f191161008757806340c10f191461018d57806370a08231146101a257806379cc6790146101cb57806395d89b41146101de578063a457c2d7146101e6578063a9059cbb146101f9578063dd62ed3e1461020c578063fca3b5aa1461021f57600080fd5b806306fdde03146100da57806307546172146100f8578063095ea7b31461012357806318160ddd1461014657806323b872dd14610158578063313ce5671461016b578063395093511461017a575b600080fd5b6100e2610232565b6040516100ef9190610a36565b60405180910390f35b60055461010b906001600160a01b031681565b6040516001600160a01b0390911681526020016100ef565b610136610131366004610aa7565b6102c4565b60405190151581526020016100ef565b6002545b6040519081526020016100ef565b610136610166366004610ad1565b6102dc565b604051601281526020016100ef565b610136610188366004610aa7565b610300565b6101a061019b366004610aa7565b61033f565b005b61014a6101b0366004610b0d565b6001600160a01b031660009081526020819052604090205490565b6101a06101d9366004610aa7565b610380565b6100e26103b4565b6101366101f4366004610aa7565b6103c3565b610136610207366004610aa7565b610455565b61014a61021a366004610b2f565b610463565b6101a061022d366004610b0d565b61048e565b60606003805461024190610b62565b80601f016020809104026020016040519081016040528092919081815260200182805461026d90610b62565b80156102ba5780601f1061028f576101008083540402835291602001916102ba565b820191906000526020600020905b81548152906001019060200180831161029d57829003601f168201915b5050505050905090565b6000336102d28185856104da565b5060019392505050565b6000336102ea8582856105ff565b6102f5858585610679565b506001949350505050565b3360008181526001602090815260408083206001600160a01b03871684529091528120549091906102d2908290869061033a908790610bb3565b6104da565b6005546001600160a01b031633146103725760405162461bcd60e51b815260040161036990610bcb565b60405180910390fd5b61037c8282610835565b5050565b6005546001600160a01b031633146103aa5760405162461bcd60e51b815260040161036990610bcb565b61037c8282610902565b60606004805461024190610b62565b3360008181526001602090815260408083206001600160a01b0387168452909152812054909190838110156104485760405162461bcd60e51b815260206004820152602560248201527f45524332303a2064656372656173656420616c6c6f77616e63652062656c6f77604482015264207a65726f60d81b6064820152608401610369565b6102f582868684036104da565b6000336102d2818585610679565b6001600160a01b03918216600090815260016020908152604080832093909416825291909152205490565b6005546001600160a01b031633146104b85760405162461bcd60e51b815260040161036990610bcb565b600580546001600160a01b0319166001600160a01b0392909216919091179055565b6001600160a01b03831661053c5760405162461bcd60e51b8152602060048201526024808201527f45524332303a20617070726f76652066726f6d20746865207a65726f206164646044820152637265737360e01b6064820152608401610369565b6001600160a01b03821661059d5760405162461bcd60e51b815260206004820152602260248201527f45524332303a20617070726f766520746f20746865207a65726f206164647265604482015261737360f01b6064820152608401610369565b6001600160a01b0383811660008181526001602090815260408083209487168084529482529182902085905590518481527f8c5be1e5ebec7d5bd14f71427d1e84f3dd0314c0f7b2291e5b200ac8c7c3b92591015b60405180910390a3505050565b600061060b8484610463565b9050600019811461067357818110156106665760405162461bcd60e51b815260206004820152601d60248201527f45524332303a20696e73756666696369656e7420616c6c6f77616e63650000006044820152606401610369565b61067384848484036104da565b50505050565b6001600160a01b0383166106dd5760405162461bcd60e51b815260206004820152602560248201527f45524332303a207472616e736665722066726f6d20746865207a65726f206164604482015264647265737360d81b6064820152608401610369565b6001600160a01b03821661073f5760405162461bcd60e51b815260206004820152602360248201527f45524332303a207472616e7366657220746f20746865207a65726f206164647260448201526265737360e81b6064820152608401610369565b6001600160a01b038316600090815260208190526040902054818110156107b75760405162461bcd60e51b815260206004820152602660248201527f45524332303a207472616e7366657220616d6f756e7420657863656564732062604482015265616c616e636560d01b6064820152608401610369565b6001600160a01b038085166000908152602081905260408082208585039055918516815290812080548492906107ee908490610bb3565b92505081905550826001600160a01b0316846001600160a01b0316600080516020610c078339815191528460405161082891815260200190565b60405180910390a3610673565b6001600160a01b03821661088b5760405162461bcd60e51b815260206004820152601f60248201527f45524332303a206d696e7420746f20746865207a65726f2061646472657373006044820152606401610369565b806002600082825461089d9190610bb3565b90915550506001600160a01b038216600090815260208190526040812080548392906108ca908490610bb3565b90915550506040518181526001600160a01b03831690600090600080516020610c078339815191529060200160405180910390a35050565b6001600160a01b0382166109625760405162461bcd60e51b815260206004820152602160248201527f45524332303a206275726e2066726f6d20746865207a65726f206164647265736044820152607360f81b6064820152608401610369565b6001600160a01b038216600090815260208190526040902054818110156109d65760405162461bcd60e51b815260206004820152602260248201527f45524332303a206275726e20616d6f756e7420657863656564732062616c616e604482015261636560f01b6064820152608401610369565b6001600160a01b0383166000908152602081905260408120838303905560028054849290610a05908490610bef565b90915550506040518281526000906001600160a01b03851690600080516020610c07833981519152906020016105f2565b600060208083528351808285015260005b81811015610a6357858101830151858201604001528201610a47565b81811115610a75576000604083870101525b50601f01601f1916929092016040019392505050565b80356001600160a01b0381168114610aa257600080fd5b919050565b60008060408385031215610aba57600080fd5b610ac383610a8b565b946020939093013593505050565b600080600060608486031215610ae657600080fd5b610aef84610a8b565b9250610afd60208501610a8b565b9150604084013590509250925092565b600060208284031215610b1f57600080fd5b610b2882610a8b565b9392505050565b60008060408385031215610b4257600080fd5b610b4b83610a8b565b9150610b5960208401610a8b565b90509250929050565b600181811c90821680610b7657607f821691505b60208210811415610b9757634e487b7160e01b600052602260045260246000fd5b50919050565b634e487b7160e01b600052601160045260246000fd5b60008219821115610bc657610bc6610b9d565b500190565b6020808252600a90820152692737ba1036b4b73a32b960b11b604082015260600190565b600082821015610c0157610c01610b9d565b50039056feddf252ad1be2c89b69c2b068fc378daa952ba7f163c4a11628f55a4df523b3efa264697066735822122056dfcb78846579644404b98041b552979d874b1aac67e2905ee76805ffeaa02d64736f6c634300080a0033a26469706673582212201fd2b1bd3ab7cb2ed2ad271a50085082314a3271d9f8a4997c56e609975fe9af64736f6c634300080a0033",
  "linkReferences": {},
  "deployedLinkReferences": {}
}