{
  "contracts/GaugeVotingCalc.sol": {
    "GaugeVotingCalc": {
      "abi": [
        {
          "inputs": [],
          "name": "gaugeVotingAddress",
          "outputs": [
            {
              "internalType": "address",
              "name": "",
              "type": "address"
            }
          ],
          "stateMutability": "view",
          "type": "function"
        },
        {
          "inputs": [
            {
              "internalType": "address",
              "name": "_gaugeAddr",
              "type": "address"
            },
            {
              "internalType": "uint256",
              "name": "_chainId",
              "type": "uint256"
            },
            {
              "internalType": "bool",
              "name": "_inCap",
              "type": "bool"
            }
          ],
          "name": "getGaugeRelativeWeight",
          "outputs": [
            {
              "internalType": "uint256",
              "name": "",
              "type": "uint256"
            }
          ],
          "stateMutability": "view",
          "type": "function"
        },
        {
          "inputs": [
            {
              "internalType": "uint256",
              "name": "_gaugeId",
              "type": "uint256"
            },
            {
              "internalType": "bool",
              "name": "_inCap",
              "type": "bool"
            }
          ],
          "name": "getGaugeRelativeWeightById",
          "outputs": [
            {
              "internalType": "uint256",
              "name": "",
              "type": "uint256"
            }
          ],
          "stateMutability": "view",
          "type": "function"
        },
        {
          "inputs": [
            {
              "internalType": "address",
              "name": "_gaugeAddr",
              "type": "address"
            },
            {
              "internalType": "uint256",
              "name": "_chainId",
              "type": "uint256"
            },
            {
              "internalType": "bool",
              "name": "_inCap",
              "type": "bool"
            }
          ],
          "name": "getGaugeWeight",
          "outputs": [
            {
              "internalType": "uint256",
              "name": "",
              "type": "uint256"
            }
          ],
          "stateMutability": "view",
          "type": "function"
        },
        {
          "inputs": [
            {
              "internalType": "uint256",
              "name": "_gaugeId",
              "type": "uint256"
            }
          ],
          "name": "getGaugeWeightDetails",
          "outputs": [
            {
              "internalType": "uint256",
              "name": "gaugeWeight",
              "type": "uint256"
            },
            {
              "internalType": "uint256",
              "name": "gaugeTotalWeight",
              "type": "uint256"
            },
            {
              "internalType": "uint256",
              "name": "gaugeRawPercent",
              "type": "uint256"
            },
            {
              "internalType": "uint256",
              "name": "gaugeCappedPercent",
              "type": "uint256"
            },
            {
              "internalType": "uint256",
              "name": "gaugeInCapWeight",
              "type": "uint256"
            },
            {
              "internalType": "uint256",
              "name": "gaugeTotalFinalWeights",
              "type": "uint256"
            },
            {
              "internalType": "uint256",
              "name": "gaugeFinalPercent",
              "type": "uint256"
            }
          ],
          "stateMutability": "view",
          "type": "function"
        },
        {
          "inputs": [
            {
              "internalType": "address",
              "name": "_gaugeAddr",
              "type": "address"
            },
            {
              "internalType": "uint256",
              "name": "_chainId",
              "type": "uint256"
            },
            {
              "internalType": "bool",
              "name": "_inCap",
              "type": "bool"
            },
            {
              "internalType": "uint256",
              "name": "_gaugeTotalWeight",
              "type": "uint256"
            },
            {
              "internalType": "uint256",
              "name": "_gaugeTotalCappedPercent",
              "type": "uint256"
            },
            {
              "internalType": "uint256",
              "name": "_gaugeTotalFinalWeights",
              "type": "uint256"
            }
          ],
          "name": "getGaugeWeightMass",
          "outputs": [
            {
              "internalType": "uint256",
              "name": "",
              "type": "uint256"
            }
          ],
          "stateMutability": "view",
          "type": "function"
        },
        {
          "inputs": [
            {
              "internalType": "uint256",
              "name": "_gaugeId",
              "type": "uint256"
            },
            {
              "internalType": "bool",
              "name": "_inCap",
              "type": "bool"
            }
          ],
          "name": "getGaugeWeightbyId",
          "outputs": [
            {
              "internalType": "uint256",
              "name": "",
              "type": "uint256"
            }
          ],
          "stateMutability": "view",
          "type": "function"
        },
        {
          "inputs": [],
          "name": "getRawTotalGaugeWeight",
          "outputs": [
            {
              "internalType": "uint256",
              "name": "gaugeTotalWeight",
              "type": "uint256"
            }
          ],
          "stateMutability": "view",
          "type": "function"
        },
        {
          "inputs": [],
          "name": "getTotalCappedPercent",
          "outputs": [
            {
              "internalType": "uint256",
              "name": "gaugeTotalCappedPercent",
              "type": "uint256"
            }
          ],
          "stateMutability": "view",
          "type": "function"
        },
        {
          "inputs": [],
          "name": "getTotalFinalWeights",
          "outputs": [
            {
              "internalType": "uint256",
              "name": "gaugeTotalFinalWeights",
              "type": "uint256"
            }
          ],
          "stateMutability": "view",
          "type": "function"
        },
        {
          "inputs": [
            {
              "internalType": "bool",
              "name": "_inCap",
              "type": "bool"
            }
          ],
          "name": "getTotalWeight",
          "outputs": [
            {
              "internalType": "uint256",
              "name": "",
              "type": "uint256"
            }
          ],
          "stateMutability": "view",
          "type": "function"
        },
        {
          "inputs": [
            {
              "internalType": "bool",
              "name": "_inCap",
              "type": "bool"
            }
          ],
          "name": "massGetGaugeWeight",
          "outputs": [
            {
              "internalType": "uint256[]",
              "name": "result",
              "type": "uint256[]"
            }
          ],
          "stateMutability": "view",
          "type": "function"
        }
      ],
      "evm": {
        "bytecode": {
          "linkReferences": {},
          "object": "6080604052600080546001600160a01b03191673f81953dc234cdef1d6d0d3ef61b232c6bcbf9aef17905534801561003657600080fd5b506113af806100466000396000f3fe608060405234801561001057600080fd5b50600436106100b45760003560e01c80639734e68e116100715780639734e68e1461011d578063992681c814610148578063a82eed171461015b578063d983cd561461017b578063de52092c146101c3578063e9c1f214146101d657600080fd5b8063065e9f34146100b95780632a942fa3146100df5780632ce9b0d6146100f257806340b8447e146100fa57806376c130cf1461010257806396a55c091461010a575b600080fd5b6100cc6100c73660046110c6565b6101e9565b6040519081526020015b60405180910390f35b6100cc6100ed366004611104565b6102d0565b6100cc610308565b6100cc610319565b6100cc610326565b6100cc610118366004611104565b610330565b600054610130906001600160a01b031681565b6040516001600160a01b0390911681526020016100d6565b6100cc6101563660046110c6565b610359565b61016e610169366004611130565b61042e565b6040516100d6919061114b565b61018e61018936600461118f565b6106ff565b604080519788526020880196909652948601939093526060850191909152608084015260a083015260c082015260e0016100d6565b6100cc6101d13660046111a8565b61072f565b6100cc6101e4366004611130565b610876565b60008084846040516020016101ff929190611202565b60408051808303601f19018152908290528051602090910120600080546312f22b0160e21b845260048401839052919350916001916001600160a01b031690634bc8ac0490602401602060405180830381865afa158015610264573d6000803e3d6000fd5b505050506040513d601f19601f820116820180604052508101906102889190611224565b6102929190611253565b90506000806102a5836000806000610895565b965050505093505050856102be575092506102c9915050565b93506102c992505050565b9392505050565b60008060006102e3856000806000610895565b505094505050509150836102f957509050610302565b91506103029050565b92915050565b60006103146000610aae565b905090565b6000610314600080610ca9565b6000610314610f09565b6000806000610343856000806000610895565b965050505093505050836102f957509050610302565b600080848460405160200161036f929190611202565b60408051808303601f19018152908290528051602090910120600080546312f22b0160e21b845260048401839052919350916001916001600160a01b031690634bc8ac0490602401602060405180830381865afa1580156103d4573d6000803e3d6000fd5b505050506040513d601f19601f820116820180604052508101906103f89190611224565b6104029190611253565b9050600080610415836000806000610895565b505094505050509150856102be575092506102c9915050565b6000805460408051635322004160e11b81529051606093926001600160a01b03169163a64400829160048083019260209291908290030181865afa15801561047a573d6000803e3d6000fd5b505050506040513d601f19601f8201168201806040525081019061049e9190611224565b90508067ffffffffffffffff8111156104b9576104b9611266565b6040519080825280602002602001820160405280156104e2578160200160208202803683370190505b50915060006104ef610f09565b905060006104fc82610aae565b905060005b838110156106f6576000805460405163b053918760e01b815260048101849052829182916001600160a01b039091169063b05391879060240160c060405180830381865afa158015610557573d6000803e3d6000fd5b505050506040513d601f19601f8201168201806040525081019061057b919061127c565b60008054604051631324d03960e31b8152959a509398509096509450506001600160a01b0316915063992681c8906105bb908690889086906004016112db565b602060405180830381865afa1580156105d8573d6000803e3d6000fd5b505050506040513d601f19601f820116820180604052508101906105fc9190611224565b9050600087610610836402540be4006112fe565b61061a9190611315565b9050600061062b84620f42406112fe565b905081818111801561063c57508115155b156106445750805b60006402540be400610656838d6112fe565b6106609190611315565b9050828411801561067057508215155b15610692576402540be4006106858b836112fe565b61068f9190611315565b90505b8d6106bb57848d8a815181106106aa576106aa611337565b6020026020010181815250506106db565b808d8a815181106106ce576106ce611337565b6020026020010181815250505b505050505050505080806106ee9061134d565b915050610501565b50505050919050565b6000806000806000806000610718886000806000610895565b959e949d50929b5090995097509550909350915050565b6000808261073d85876112fe565b61074791906112fe565b1161078f5760405162461bcd60e51b81526020600482015260146024820152736d697373696e6720746f74616c20706172616d7360601b604482015260640160405180910390fd5b600087876040516020016107a4929190611202565b60408051808303601f19018152908290528051602090910120600080546312f22b0160e21b845260048401839052919350916001916001600160a01b031690634bc8ac0490602401602060405180830381865afa158015610809573d6000803e3d6000fd5b505050506040513d601f19601f8201168201806040525081019061082d9190611224565b6108379190611253565b905060008061084883898989610895565b505094505050509150886108615750925061086c915050565b935061086c92505050565b9695505050505050565b60008161088557610302610f09565b610302600080610ca9565b919050565b6000805460405163b053918760e01b8152600481018790528291829182918291829182918291829182916001600160a01b03169063b05391879060240160c060405180830381865afa1580156108ef573d6000803e3d6000fd5b505050506040513d601f19601f82011682018060405250810190610913919061127c565b60008054604051631324d03960e31b8152959a509398509096506001600160a01b03909216945063992681c89350610953928792899250906004016112db565b602060405180830381865afa158015610970573d6000803e3d6000fd5b505050506040513d601f19601f820116820180604052508101906109949190611224565b99508c6000036109ad576109a6610f09565b98506109b1565b8c98505b886109c18b6402540be4006112fe565b6109cb9190611315565b975060008c6000036109e8576109e16000610aae565b90506109eb565b508b5b8b600003610a04576109fd8a82610ca9565b9550610a08565b8b95505b6000610a1783620f42406112fe565b9050899850808a118015610a2a57508015155b15610a33578098505b6402540be400610a438a8d6112fe565b610a4d9190611315565b9750808a118015610a5d57508015155b15610a7f576402540be400610a72838a6112fe565b610a7c9190611315565b97505b86610a8f896402540be4006112fe565b610a999190611315565b95505050505050949950949992975094509450565b600081600003610ac357610ac0610f09565b91505b60005b60008054906101000a90046001600160a01b03166001600160a01b031663a64400826040518163ffffffff1660e01b8152600401602060405180830381865afa158015610b17573d6000803e3d6000fd5b505050506040513d601f19601f82011682018060405250810190610b3b9190611224565b811015610ca3576000805460405163b053918760e01b815260048101849052829182916001600160a01b039091169063b05391879060240160c060405180830381865afa158015610b90573d6000803e3d6000fd5b505050506040513d601f19601f82011682018060405250810190610bb4919061127c565b60008054604051631324d03960e31b8152959a509398509096509450506001600160a01b0316915063992681c890610bf4908690889086906004016112db565b602060405180830381865afa158015610c11573d6000803e3d6000fd5b505050506040513d601f19601f82011682018060405250810190610c359190611224565b9050600087610c49836402540be4006112fe565b610c539190611315565b90506000610c6484620f42406112fe565b9050818181118015610c7557508115155b15610c7d5750805b610c87818a611366565b9850505050505050508080610c9b9061134d565b915050610ac6565b50919050565b600082600003610cbe57610cbb610f09565b92505b81600003610cd357610cd06000610aae565b91505b60005b60008054906101000a90046001600160a01b03166001600160a01b031663a64400826040518163ffffffff1660e01b8152600401602060405180830381865afa158015610d27573d6000803e3d6000fd5b505050506040513d601f19601f82011682018060405250810190610d4b9190611224565b811015610f02576000805460405163b053918760e01b815260048101849052829182916001600160a01b039091169063b05391879060240160c060405180830381865afa158015610da0573d6000803e3d6000fd5b505050506040513d601f19601f82011682018060405250810190610dc4919061127c565b60008054604051631324d03960e31b8152959a509398509096509450506001600160a01b0316915063992681c890610e04908690889086906004016112db565b602060405180830381865afa158015610e21573d6000803e3d6000fd5b505050506040513d601f19601f82011682018060405250810190610e459190611224565b9050600088610e59836402540be4006112fe565b610e639190611315565b90506000610e7484620f42406112fe565b9050818181118015610e8557508115155b15610e8d5750805b60006402540be400610e9f838e6112fe565b610ea99190611315565b90508284118015610eb957508215155b15610edb576402540be400610ece8c836112fe565b610ed89190611315565b90505b610ee5818b611366565b995050505050505050508080610efa9061134d565b915050610cd6565b5092915050565b6000805b60008054906101000a90046001600160a01b03166001600160a01b031663a64400826040518163ffffffff1660e01b8152600401602060405180830381865afa158015610f5e573d6000803e3d6000fd5b505050506040513d601f19601f82011682018060405250810190610f829190611224565b81101561109a576000805460405163b053918760e01b81526004810184905282916001600160a01b03169063b05391879060240160c060405180830381865afa158015610fd3573d6000803e3d6000fd5b505050506040513d601f19601f82011682018060405250810190610ff7919061127c565b505060008054604051631324d03960e31b815293975091955093506001600160a01b0316915063992681c890611035908590879086906004016112db565b602060405180830381865afa158015611052573d6000803e3d6000fd5b505050506040513d601f19601f820116820180604052508101906110769190611224565b90506110828186611366565b945050505080806110929061134d565b915050610f0d565b5090565b6001600160a01b03811681146110b357600080fd5b50565b8035801515811461089057600080fd5b6000806000606084860312156110db57600080fd5b83356110e68161109e565b9250602084013591506110fb604085016110b6565b90509250925092565b6000806040838503121561111757600080fd5b82359150611127602084016110b6565b90509250929050565b60006020828403121561114257600080fd5b6102c9826110b6565b6020808252825182820181905260009190848201906040850190845b8181101561118357835183529284019291840191600101611167565b50909695505050505050565b6000602082840312156111a157600080fd5b5035919050565b60008060008060008060c087890312156111c157600080fd5b86356111cc8161109e565b9550602087013594506111e1604088016110b6565b9350606087013592506080870135915060a087013590509295509295509295565b60609290921b6bffffffffffffffffffffffff19168252601482015260340190565b60006020828403121561123657600080fd5b5051919050565b634e487b7160e01b600052601160045260246000fd5b818103818111156103025761030261123d565b634e487b7160e01b600052604160045260246000fd5b60008060008060008060c0878903121561129557600080fd5b8651955060208701516112a78161109e565b6040880151606089015191965094506112bf8161109e565b809350506080870151915060a087015190509295509295509295565b6001600160a01b0393909316835260208301919091521515604082015260600190565b80820281158282048414176103025761030261123d565b60008261133257634e487b7160e01b600052601260045260246000fd5b500490565b634e487b7160e01b600052603260045260246000fd5b60006001820161135f5761135f61123d565b5060010190565b808201808211156103025761030261123d56fea2646970667358221220b5bbf714cfc98c55b1cbecc81bbbd499ca8e8e2a4decf15e8ef255079c6ee94b64736f6c63430008110033",
          "opcodes": "PUSH1 0x80 PUSH1 0x40 MSTORE PUSH1 0x0 DUP1 SLOAD PUSH1 0x1 PUSH1 0x1 PUSH1 0xA0 SHL SUB NOT AND PUSH20 0xF81953DC234CDEF1D6D0D3EF61B232C6BCBF9AEF OR SWAP1 SSTORE CALLVALUE DUP1 ISZERO PUSH2 0x36 JUMPI PUSH1 0x0 DUP1 REVERT JUMPDEST POP PUSH2 0x13AF DUP1 PUSH2 0x46 PUSH1 0x0 CODECOPY PUSH1 0x0 RETURN INVALID PUSH1 0x80 PUSH1 0x40 MSTORE CALLVALUE DUP1 ISZERO PUSH2 0x10 JUMPI PUSH1 0x0 DUP1 REVERT JUMPDEST POP PUSH1 0x4 CALLDATASIZE LT PUSH2 0xB4 JUMPI PUSH1 0x0 CALLDATALOAD PUSH1 0xE0 SHR DUP1 PUSH4 0x9734E68E GT PUSH2 0x71 JUMPI DUP1 PUSH4 0x9734E68E EQ PUSH2 0x11D JUMPI DUP1 PUSH4 0x992681C8 EQ PUSH2 0x148 JUMPI DUP1 PUSH4 0xA82EED17 EQ PUSH2 0x15B JUMPI DUP1 PUSH4 0xD983CD56 EQ PUSH2 0x17B JUMPI DUP1 PUSH4 0xDE52092C EQ PUSH2 0x1C3 JUMPI DUP1 PUSH4 0xE9C1F214 EQ PUSH2 0x1D6 JUMPI PUSH1 0x0 DUP1 REVERT JUMPDEST DUP1 PUSH4 0x65E9F34 EQ PUSH2 0xB9 JUMPI DUP1 PUSH4 0x2A942FA3 EQ PUSH2 0xDF JUMPI DUP1 PUSH4 0x2CE9B0D6 EQ PUSH2 0xF2 JUMPI DUP1 PUSH4 0x40B8447E EQ PUSH2 0xFA JUMPI DUP1 PUSH4 0x76C130CF EQ PUSH2 0x102 JUMPI DUP1 PUSH4 0x96A55C09 EQ PUSH2 0x10A JUMPI JUMPDEST PUSH1 0x0 DUP1 REVERT JUMPDEST PUSH2 0xCC PUSH2 0xC7 CALLDATASIZE PUSH1 0x4 PUSH2 0x10C6 JUMP JUMPDEST PUSH2 0x1E9 JUMP JUMPDEST PUSH1 0x40 MLOAD SWAP1 DUP2 MSTORE PUSH1 0x20 ADD JUMPDEST PUSH1 0x40 MLOAD DUP1 SWAP2 SUB SWAP1 RETURN JUMPDEST PUSH2 0xCC PUSH2 0xED CALLDATASIZE PUSH1 0x4 PUSH2 0x1104 JUMP JUMPDEST PUSH2 0x2D0 JUMP JUMPDEST PUSH2 0xCC PUSH2 0x308 JUMP JUMPDEST PUSH2 0xCC PUSH2 0x319 JUMP JUMPDEST PUSH2 0xCC PUSH2 0x326 JUMP JUMPDEST PUSH2 0xCC PUSH2 0x118 CALLDATASIZE PUSH1 0x4 PUSH2 0x1104 JUMP JUMPDEST PUSH2 0x330 JUMP JUMPDEST PUSH1 0x0 SLOAD PUSH2 0x130 SWAP1 PUSH1 0x1 PUSH1 0x1 PUSH1 0xA0 SHL SUB AND DUP2 JUMP JUMPDEST PUSH1 0x40 MLOAD PUSH1 0x1 PUSH1 0x1 PUSH1 0xA0 SHL SUB SWAP1 SWAP2 AND DUP2 MSTORE PUSH1 0x20 ADD PUSH2 0xD6 JUMP JUMPDEST PUSH2 0xCC PUSH2 0x156 CALLDATASIZE PUSH1 0x4 PUSH2 0x10C6 JUMP JUMPDEST PUSH2 0x359 JUMP JUMPDEST PUSH2 0x16E PUSH2 0x169 CALLDATASIZE PUSH1 0x4 PUSH2 0x1130 JUMP JUMPDEST PUSH2 0x42E JUMP JUMPDEST PUSH1 0x40 MLOAD PUSH2 0xD6 SWAP2 SWAP1 PUSH2 0x114B JUMP JUMPDEST PUSH2 0x18E PUSH2 0x189 CALLDATASIZE PUSH1 0x4 PUSH2 0x118F JUMP JUMPDEST PUSH2 0x6FF JUMP JUMPDEST PUSH1 0x40 DUP1 MLOAD SWAP8 DUP9 MSTORE PUSH1 0x20 DUP9 ADD SWAP7 SWAP1 SWAP7 MSTORE SWAP5 DUP7 ADD SWAP4 SWAP1 SWAP4 MSTORE PUSH1 0x60 DUP6 ADD SWAP2 SWAP1 SWAP2 MSTORE PUSH1 0x80 DUP5 ADD MSTORE PUSH1 0xA0 DUP4 ADD MSTORE PUSH1 0xC0 DUP3 ADD MSTORE PUSH1 0xE0 ADD PUSH2 0xD6 JUMP JUMPDEST PUSH2 0xCC PUSH2 0x1D1 CALLDATASIZE PUSH1 0x4 PUSH2 0x11A8 JUMP JUMPDEST PUSH2 0x72F JUMP JUMPDEST PUSH2 0xCC PUSH2 0x1E4 CALLDATASIZE PUSH1 0x4 PUSH2 0x1130 JUMP JUMPDEST PUSH2 0x876 JUMP JUMPDEST PUSH1 0x0 DUP1 DUP5 DUP5 PUSH1 0x40 MLOAD PUSH1 0x20 ADD PUSH2 0x1FF SWAP3 SWAP2 SWAP1 PUSH2 0x1202 JUMP JUMPDEST PUSH1 0x40 DUP1 MLOAD DUP1 DUP4 SUB PUSH1 0x1F NOT ADD DUP2 MSTORE SWAP1 DUP3 SWAP1 MSTORE DUP1 MLOAD PUSH1 0x20 SWAP1 SWAP2 ADD KECCAK256 PUSH1 0x0 DUP1 SLOAD PUSH4 0x12F22B01 PUSH1 0xE2 SHL DUP5 MSTORE PUSH1 0x4 DUP5 ADD DUP4 SWAP1 MSTORE SWAP2 SWAP4 POP SWAP2 PUSH1 0x1 SWAP2 PUSH1 0x1 PUSH1 0x1 PUSH1 0xA0 SHL SUB AND SWAP1 PUSH4 0x4BC8AC04 SWAP1 PUSH1 0x24 ADD PUSH1 0x20 PUSH1 0x40 MLOAD DUP1 DUP4 SUB DUP2 DUP7 GAS STATICCALL ISZERO DUP1 ISZERO PUSH2 0x264 JUMPI RETURNDATASIZE PUSH1 0x0 DUP1 RETURNDATACOPY RETURNDATASIZE PUSH1 0x0 REVERT JUMPDEST POP POP POP POP PUSH1 0x40 MLOAD RETURNDATASIZE PUSH1 0x1F NOT PUSH1 0x1F DUP3 ADD AND DUP3 ADD DUP1 PUSH1 0x40 MSTORE POP DUP2 ADD SWAP1 PUSH2 0x288 SWAP2 SWAP1 PUSH2 0x1224 JUMP JUMPDEST PUSH2 0x292 SWAP2 SWAP1 PUSH2 0x1253 JUMP JUMPDEST SWAP1 POP PUSH1 0x0 DUP1 PUSH2 0x2A5 DUP4 PUSH1 0x0 DUP1 PUSH1 0x0 PUSH2 0x895 JUMP JUMPDEST SWAP7 POP POP POP POP SWAP4 POP POP POP DUP6 PUSH2 0x2BE JUMPI POP SWAP3 POP PUSH2 0x2C9 SWAP2 POP POP JUMP JUMPDEST SWAP4 POP PUSH2 0x2C9 SWAP3 POP POP POP JUMP JUMPDEST SWAP4 SWAP3 POP POP POP JUMP JUMPDEST PUSH1 0x0 DUP1 PUSH1 0x0 PUSH2 0x2E3 DUP6 PUSH1 0x0 DUP1 PUSH1 0x0 PUSH2 0x895 JUMP JUMPDEST POP POP SWAP5 POP POP POP POP SWAP2 POP DUP4 PUSH2 0x2F9 JUMPI POP SWAP1 POP PUSH2 0x302 JUMP JUMPDEST SWAP2 POP PUSH2 0x302 SWAP1 POP JUMP JUMPDEST SWAP3 SWAP2 POP POP JUMP JUMPDEST PUSH1 0x0 PUSH2 0x314 PUSH1 0x0 PUSH2 0xAAE JUMP JUMPDEST SWAP1 POP SWAP1 JUMP JUMPDEST PUSH1 0x0 PUSH2 0x314 PUSH1 0x0 DUP1 PUSH2 0xCA9 JUMP JUMPDEST PUSH1 0x0 PUSH2 0x314 PUSH2 0xF09 JUMP JUMPDEST PUSH1 0x0 DUP1 PUSH1 0x0 PUSH2 0x343 DUP6 PUSH1 0x0 DUP1 PUSH1 0x0 PUSH2 0x895 JUMP JUMPDEST SWAP7 POP POP POP POP SWAP4 POP POP POP DUP4 PUSH2 0x2F9 JUMPI POP SWAP1 POP PUSH2 0x302 JUMP JUMPDEST PUSH1 0x0 DUP1 DUP5 DUP5 PUSH1 0x40 MLOAD PUSH1 0x20 ADD PUSH2 0x36F SWAP3 SWAP2 SWAP1 PUSH2 0x1202 JUMP JUMPDEST PUSH1 0x40 DUP1 MLOAD DUP1 DUP4 SUB PUSH1 0x1F NOT ADD DUP2 MSTORE SWAP1 DUP3 SWAP1 MSTORE DUP1 MLOAD PUSH1 0x20 SWAP1 SWAP2 ADD KECCAK256 PUSH1 0x0 DUP1 SLOAD PUSH4 0x12F22B01 PUSH1 0xE2 SHL DUP5 MSTORE PUSH1 0x4 DUP5 ADD DUP4 SWAP1 MSTORE SWAP2 SWAP4 POP SWAP2 PUSH1 0x1 SWAP2 PUSH1 0x1 PUSH1 0x1 PUSH1 0xA0 SHL SUB AND SWAP1 PUSH4 0x4BC8AC04 SWAP1 PUSH1 0x24 ADD PUSH1 0x20 PUSH1 0x40 MLOAD DUP1 DUP4 SUB DUP2 DUP7 GAS STATICCALL ISZERO DUP1 ISZERO PUSH2 0x3D4 JUMPI RETURNDATASIZE PUSH1 0x0 DUP1 RETURNDATACOPY RETURNDATASIZE PUSH1 0x0 REVERT JUMPDEST POP POP POP POP PUSH1 0x40 MLOAD RETURNDATASIZE PUSH1 0x1F NOT PUSH1 0x1F DUP3 ADD AND DUP3 ADD DUP1 PUSH1 0x40 MSTORE POP DUP2 ADD SWAP1 PUSH2 0x3F8 SWAP2 SWAP1 PUSH2 0x1224 JUMP JUMPDEST PUSH2 0x402 SWAP2 SWAP1 PUSH2 0x1253 JUMP JUMPDEST SWAP1 POP PUSH1 0x0 DUP1 PUSH2 0x415 DUP4 PUSH1 0x0 DUP1 PUSH1 0x0 PUSH2 0x895 JUMP JUMPDEST POP POP SWAP5 POP POP POP POP SWAP2 POP DUP6 PUSH2 0x2BE JUMPI POP SWAP3 POP PUSH2 0x2C9 SWAP2 POP POP JUMP JUMPDEST PUSH1 0x0 DUP1 SLOAD PUSH1 0x40 DUP1 MLOAD PUSH4 0x53220041 PUSH1 0xE1 SHL DUP2 MSTORE SWAP1 MLOAD PUSH1 0x60 SWAP4 SWAP3 PUSH1 0x1 PUSH1 0x1 PUSH1 0xA0 SHL SUB AND SWAP2 PUSH4 0xA6440082 SWAP2 PUSH1 0x4 DUP1 DUP4 ADD SWAP3 PUSH1 0x20 SWAP3 SWAP2 SWAP1 DUP3 SWAP1 SUB ADD DUP2 DUP7 GAS STATICCALL ISZERO DUP1 ISZERO PUSH2 0x47A JUMPI RETURNDATASIZE PUSH1 0x0 DUP1 RETURNDATACOPY RETURNDATASIZE PUSH1 0x0 REVERT JUMPDEST POP POP POP POP PUSH1 0x40 MLOAD RETURNDATASIZE PUSH1 0x1F NOT PUSH1 0x1F DUP3 ADD AND DUP3 ADD DUP1 PUSH1 0x40 MSTORE POP DUP2 ADD SWAP1 PUSH2 0x49E SWAP2 SWAP1 PUSH2 0x1224 JUMP JUMPDEST SWAP1 POP DUP1 PUSH8 0xFFFFFFFFFFFFFFFF DUP2 GT ISZERO PUSH2 0x4B9 JUMPI PUSH2 0x4B9 PUSH2 0x1266 JUMP JUMPDEST PUSH1 0x40 MLOAD SWAP1 DUP1 DUP3 MSTORE DUP1 PUSH1 0x20 MUL PUSH1 0x20 ADD DUP3 ADD PUSH1 0x40 MSTORE DUP1 ISZERO PUSH2 0x4E2 JUMPI DUP2 PUSH1 0x20 ADD PUSH1 0x20 DUP3 MUL DUP1 CALLDATASIZE DUP4 CALLDATACOPY ADD SWAP1 POP JUMPDEST POP SWAP2 POP PUSH1 0x0 PUSH2 0x4EF PUSH2 0xF09 JUMP JUMPDEST SWAP1 POP PUSH1 0x0 PUSH2 0x4FC DUP3 PUSH2 0xAAE JUMP JUMPDEST SWAP1 POP PUSH1 0x0 JUMPDEST DUP4 DUP2 LT ISZERO PUSH2 0x6F6 JUMPI PUSH1 0x0 DUP1 SLOAD PUSH1 0x40 MLOAD PUSH4 0xB0539187 PUSH1 0xE0 SHL DUP2 MSTORE PUSH1 0x4 DUP2 ADD DUP5 SWAP1 MSTORE DUP3 SWAP2 DUP3 SWAP2 PUSH1 0x1 PUSH1 0x1 PUSH1 0xA0 SHL SUB SWAP1 SWAP2 AND SWAP1 PUSH4 0xB0539187 SWAP1 PUSH1 0x24 ADD PUSH1 0xC0 PUSH1 0x40 MLOAD DUP1 DUP4 SUB DUP2 DUP7 GAS STATICCALL ISZERO DUP1 ISZERO PUSH2 0x557 JUMPI RETURNDATASIZE PUSH1 0x0 DUP1 RETURNDATACOPY RETURNDATASIZE PUSH1 0x0 REVERT JUMPDEST POP POP POP POP PUSH1 0x40 MLOAD RETURNDATASIZE PUSH1 0x1F NOT PUSH1 0x1F DUP3 ADD AND DUP3 ADD DUP1 PUSH1 0x40 MSTORE POP DUP2 ADD SWAP1 PUSH2 0x57B SWAP2 SWAP1 PUSH2 0x127C JUMP JUMPDEST PUSH1 0x0 DUP1 SLOAD PUSH1 0x40 MLOAD PUSH4 0x1324D039 PUSH1 0xE3 SHL DUP2 MSTORE SWAP6 SWAP11 POP SWAP4 SWAP9 POP SWAP1 SWAP7 POP SWAP5 POP POP PUSH1 0x1 PUSH1 0x1 PUSH1 0xA0 SHL SUB AND SWAP2 POP PUSH4 0x992681C8 SWAP1 PUSH2 0x5BB SWAP1 DUP7 SWAP1 DUP9 SWAP1 DUP7 SWAP1 PUSH1 0x4 ADD PUSH2 0x12DB JUMP JUMPDEST PUSH1 0x20 PUSH1 0x40 MLOAD DUP1 DUP4 SUB DUP2 DUP7 GAS STATICCALL ISZERO DUP1 ISZERO PUSH2 0x5D8 JUMPI RETURNDATASIZE PUSH1 0x0 DUP1 RETURNDATACOPY RETURNDATASIZE PUSH1 0x0 REVERT JUMPDEST POP POP POP POP PUSH1 0x40 MLOAD RETURNDATASIZE PUSH1 0x1F NOT PUSH1 0x1F DUP3 ADD AND DUP3 ADD DUP1 PUSH1 0x40 MSTORE POP DUP2 ADD SWAP1 PUSH2 0x5FC SWAP2 SWAP1 PUSH2 0x1224 JUMP JUMPDEST SWAP1 POP PUSH1 0x0 DUP8 PUSH2 0x610 DUP4 PUSH5 0x2540BE400 PUSH2 0x12FE JUMP JUMPDEST PUSH2 0x61A SWAP2 SWAP1 PUSH2 0x1315 JUMP JUMPDEST SWAP1 POP PUSH1 0x0 PUSH2 0x62B DUP5 PUSH3 0xF4240 PUSH2 0x12FE JUMP JUMPDEST SWAP1 POP DUP2 DUP2 DUP2 GT DUP1 ISZERO PUSH2 0x63C JUMPI POP DUP2 ISZERO ISZERO JUMPDEST ISZERO PUSH2 0x644 JUMPI POP DUP1 JUMPDEST PUSH1 0x0 PUSH5 0x2540BE400 PUSH2 0x656 DUP4 DUP14 PUSH2 0x12FE JUMP JUMPDEST PUSH2 0x660 SWAP2 SWAP1 PUSH2 0x1315 JUMP JUMPDEST SWAP1 POP DUP3 DUP5 GT DUP1 ISZERO PUSH2 0x670 JUMPI POP DUP3 ISZERO ISZERO JUMPDEST ISZERO PUSH2 0x692 JUMPI PUSH5 0x2540BE400 PUSH2 0x685 DUP12 DUP4 PUSH2 0x12FE JUMP JUMPDEST PUSH2 0x68F SWAP2 SWAP1 PUSH2 0x1315 JUMP JUMPDEST SWAP1 POP JUMPDEST DUP14 PUSH2 0x6BB JUMPI DUP5 DUP14 DUP11 DUP2 MLOAD DUP2 LT PUSH2 0x6AA JUMPI PUSH2 0x6AA PUSH2 0x1337 JUMP JUMPDEST PUSH1 0x20 MUL PUSH1 0x20 ADD ADD DUP2 DUP2 MSTORE POP POP PUSH2 0x6DB JUMP JUMPDEST DUP1 DUP14 DUP11 DUP2 MLOAD DUP2 LT PUSH2 0x6CE JUMPI PUSH2 0x6CE PUSH2 0x1337 JUMP JUMPDEST PUSH1 0x20 MUL PUSH1 0x20 ADD ADD DUP2 DUP2 MSTORE POP POP JUMPDEST POP POP POP POP POP POP POP POP DUP1 DUP1 PUSH2 0x6EE SWAP1 PUSH2 0x134D JUMP JUMPDEST SWAP2 POP POP PUSH2 0x501 JUMP JUMPDEST POP POP POP POP SWAP2 SWAP1 POP JUMP JUMPDEST PUSH1 0x0 DUP1 PUSH1 0x0 DUP1 PUSH1 0x0 DUP1 PUSH1 0x0 PUSH2 0x718 DUP9 PUSH1 0x0 DUP1 PUSH1 0x0 PUSH2 0x895 JUMP JUMPDEST SWAP6 SWAP15 SWAP5 SWAP14 POP SWAP3 SWAP12 POP SWAP1 SWAP10 POP SWAP8 POP SWAP6 POP SWAP1 SWAP4 POP SWAP2 POP POP JUMP JUMPDEST PUSH1 0x0 DUP1 DUP3 PUSH2 0x73D DUP6 DUP8 PUSH2 0x12FE JUMP JUMPDEST PUSH2 0x747 SWAP2 SWAP1 PUSH2 0x12FE JUMP JUMPDEST GT PUSH2 0x78F JUMPI PUSH1 0x40 MLOAD PUSH3 0x461BCD PUSH1 0xE5 SHL DUP2 MSTORE PUSH1 0x20 PUSH1 0x4 DUP3 ADD MSTORE PUSH1 0x14 PUSH1 0x24 DUP3 ADD MSTORE PUSH20 0x6D697373696E6720746F74616C20706172616D73 PUSH1 0x60 SHL PUSH1 0x44 DUP3 ADD MSTORE PUSH1 0x64 ADD PUSH1 0x40 MLOAD DUP1 SWAP2 SUB SWAP1 REVERT JUMPDEST PUSH1 0x0 DUP8 DUP8 PUSH1 0x40 MLOAD PUSH1 0x20 ADD PUSH2 0x7A4 SWAP3 SWAP2 SWAP1 PUSH2 0x1202 JUMP JUMPDEST PUSH1 0x40 DUP1 MLOAD DUP1 DUP4 SUB PUSH1 0x1F NOT ADD DUP2 MSTORE SWAP1 DUP3 SWAP1 MSTORE DUP1 MLOAD PUSH1 0x20 SWAP1 SWAP2 ADD KECCAK256 PUSH1 0x0 DUP1 SLOAD PUSH4 0x12F22B01 PUSH1 0xE2 SHL DUP5 MSTORE PUSH1 0x4 DUP5 ADD DUP4 SWAP1 MSTORE SWAP2 SWAP4 POP SWAP2 PUSH1 0x1 SWAP2 PUSH1 0x1 PUSH1 0x1 PUSH1 0xA0 SHL SUB AND SWAP1 PUSH4 0x4BC8AC04 SWAP1 PUSH1 0x24 ADD PUSH1 0x20 PUSH1 0x40 MLOAD DUP1 DUP4 SUB DUP2 DUP7 GAS STATICCALL ISZERO DUP1 ISZERO PUSH2 0x809 JUMPI RETURNDATASIZE PUSH1 0x0 DUP1 RETURNDATACOPY RETURNDATASIZE PUSH1 0x0 REVERT JUMPDEST POP POP POP POP PUSH1 0x40 MLOAD RETURNDATASIZE PUSH1 0x1F NOT PUSH1 0x1F DUP3 ADD AND DUP3 ADD DUP1 PUSH1 0x40 MSTORE POP DUP2 ADD SWAP1 PUSH2 0x82D SWAP2 SWAP1 PUSH2 0x1224 JUMP JUMPDEST PUSH2 0x837 SWAP2 SWAP1 PUSH2 0x1253 JUMP JUMPDEST SWAP1 POP PUSH1 0x0 DUP1 PUSH2 0x848 DUP4 DUP10 DUP10 DUP10 PUSH2 0x895 JUMP JUMPDEST POP POP SWAP5 POP POP POP POP SWAP2 POP DUP9 PUSH2 0x861 JUMPI POP SWAP3 POP PUSH2 0x86C SWAP2 POP POP JUMP JUMPDEST SWAP4 POP PUSH2 0x86C SWAP3 POP POP POP JUMP JUMPDEST SWAP7 SWAP6 POP POP POP POP POP POP JUMP JUMPDEST PUSH1 0x0 DUP2 PUSH2 0x885 JUMPI PUSH2 0x302 PUSH2 0xF09 JUMP JUMPDEST PUSH2 0x302 PUSH1 0x0 DUP1 PUSH2 0xCA9 JUMP JUMPDEST SWAP2 SWAP1 POP JUMP JUMPDEST PUSH1 0x0 DUP1 SLOAD PUSH1 0x40 MLOAD PUSH4 0xB0539187 PUSH1 0xE0 SHL DUP2 MSTORE PUSH1 0x4 DUP2 ADD DUP8 SWAP1 MSTORE DUP3 SWAP2 DUP3 SWAP2 DUP3 SWAP2 DUP3 SWAP2 DUP3 SWAP2 DUP3 SWAP2 DUP3 SWAP2 DUP3 SWAP2 DUP3 SWAP2 PUSH1 0x1 PUSH1 0x1 PUSH1 0xA0 SHL SUB AND SWAP1 PUSH4 0xB0539187 SWAP1 PUSH1 0x24 ADD PUSH1 0xC0 PUSH1 0x40 MLOAD DUP1 DUP4 SUB DUP2 DUP7 GAS STATICCALL ISZERO DUP1 ISZERO PUSH2 0x8EF JUMPI RETURNDATASIZE PUSH1 0x0 DUP1 RETURNDATACOPY RETURNDATASIZE PUSH1 0x0 REVERT JUMPDEST POP POP POP POP PUSH1 0x40 MLOAD RETURNDATASIZE PUSH1 0x1F NOT PUSH1 0x1F DUP3 ADD AND DUP3 ADD DUP1 PUSH1 0x40 MSTORE POP DUP2 ADD SWAP1 PUSH2 0x913 SWAP2 SWAP1 PUSH2 0x127C JUMP JUMPDEST PUSH1 0x0 DUP1 SLOAD PUSH1 0x40 MLOAD PUSH4 0x1324D039 PUSH1 0xE3 SHL DUP2 MSTORE SWAP6 SWAP11 POP SWAP4 SWAP9 POP SWAP1 SWAP7 POP PUSH1 0x1 PUSH1 0x1 PUSH1 0xA0 SHL SUB SWAP1 SWAP3 AND SWAP5 POP PUSH4 0x992681C8 SWAP4 POP PUSH2 0x953 SWAP3 DUP8 SWAP3 DUP10 SWAP3 POP SWAP1 PUSH1 0x4 ADD PUSH2 0x12DB JUMP JUMPDEST PUSH1 0x20 PUSH1 0x40 MLOAD DUP1 DUP4 SUB DUP2 DUP7 GAS STATICCALL ISZERO DUP1 ISZERO PUSH2 0x970 JUMPI RETURNDATASIZE PUSH1 0x0 DUP1 RETURNDATACOPY RETURNDATASIZE PUSH1 0x0 REVERT JUMPDEST POP POP POP POP PUSH1 0x40 MLOAD RETURNDATASIZE PUSH1 0x1F NOT PUSH1 0x1F DUP3 ADD AND DUP3 ADD DUP1 PUSH1 0x40 MSTORE POP DUP2 ADD SWAP1 PUSH2 0x994 SWAP2 SWAP1 PUSH2 0x1224 JUMP JUMPDEST SWAP10 POP DUP13 PUSH1 0x0 SUB PUSH2 0x9AD JUMPI PUSH2 0x9A6 PUSH2 0xF09 JUMP JUMPDEST SWAP9 POP PUSH2 0x9B1 JUMP JUMPDEST DUP13 SWAP9 POP JUMPDEST DUP9 PUSH2 0x9C1 DUP12 PUSH5 0x2540BE400 PUSH2 0x12FE JUMP JUMPDEST PUSH2 0x9CB SWAP2 SWAP1 PUSH2 0x1315 JUMP JUMPDEST SWAP8 POP PUSH1 0x0 DUP13 PUSH1 0x0 SUB PUSH2 0x9E8 JUMPI PUSH2 0x9E1 PUSH1 0x0 PUSH2 0xAAE JUMP JUMPDEST SWAP1 POP PUSH2 0x9EB JUMP JUMPDEST POP DUP12 JUMPDEST DUP12 PUSH1 0x0 SUB PUSH2 0xA04 JUMPI PUSH2 0x9FD DUP11 DUP3 PUSH2 0xCA9 JUMP JUMPDEST SWAP6 POP PUSH2 0xA08 JUMP JUMPDEST DUP12 SWAP6 POP JUMPDEST PUSH1 0x0 PUSH2 0xA17 DUP4 PUSH3 0xF4240 PUSH2 0x12FE JUMP JUMPDEST SWAP1 POP DUP10 SWAP9 POP DUP1 DUP11 GT DUP1 ISZERO PUSH2 0xA2A JUMPI POP DUP1 ISZERO ISZERO JUMPDEST ISZERO PUSH2 0xA33 JUMPI DUP1 SWAP9 POP JUMPDEST PUSH5 0x2540BE400 PUSH2 0xA43 DUP11 DUP14 PUSH2 0x12FE JUMP JUMPDEST PUSH2 0xA4D SWAP2 SWAP1 PUSH2 0x1315 JUMP JUMPDEST SWAP8 POP DUP1 DUP11 GT DUP1 ISZERO PUSH2 0xA5D JUMPI POP DUP1 ISZERO ISZERO JUMPDEST ISZERO PUSH2 0xA7F JUMPI PUSH5 0x2540BE400 PUSH2 0xA72 DUP4 DUP11 PUSH2 0x12FE JUMP JUMPDEST PUSH2 0xA7C SWAP2 SWAP1 PUSH2 0x1315 JUMP JUMPDEST SWAP8 POP JUMPDEST DUP7 PUSH2 0xA8F DUP10 PUSH5 0x2540BE400 PUSH2 0x12FE JUMP JUMPDEST PUSH2 0xA99 SWAP2 SWAP1 PUSH2 0x1315 JUMP JUMPDEST SWAP6 POP POP POP POP POP POP SWAP5 SWAP10 POP SWAP5 SWAP10 SWAP3 SWAP8 POP SWAP5 POP SWAP5 POP JUMP JUMPDEST PUSH1 0x0 DUP2 PUSH1 0x0 SUB PUSH2 0xAC3 JUMPI PUSH2 0xAC0 PUSH2 0xF09 JUMP JUMPDEST SWAP2 POP JUMPDEST PUSH1 0x0 JUMPDEST PUSH1 0x0 DUP1 SLOAD SWAP1 PUSH2 0x100 EXP SWAP1 DIV PUSH1 0x1 PUSH1 0x1 PUSH1 0xA0 SHL SUB AND PUSH1 0x1 PUSH1 0x1 PUSH1 0xA0 SHL SUB AND PUSH4 0xA6440082 PUSH1 0x40 MLOAD DUP2 PUSH4 0xFFFFFFFF AND PUSH1 0xE0 SHL DUP2 MSTORE PUSH1 0x4 ADD PUSH1 0x20 PUSH1 0x40 MLOAD DUP1 DUP4 SUB DUP2 DUP7 GAS STATICCALL ISZERO DUP1 ISZERO PUSH2 0xB17 JUMPI RETURNDATASIZE PUSH1 0x0 DUP1 RETURNDATACOPY RETURNDATASIZE PUSH1 0x0 REVERT JUMPDEST POP POP POP POP PUSH1 0x40 MLOAD RETURNDATASIZE PUSH1 0x1F NOT PUSH1 0x1F DUP3 ADD AND DUP3 ADD DUP1 PUSH1 0x40 MSTORE POP DUP2 ADD SWAP1 PUSH2 0xB3B SWAP2 SWAP1 PUSH2 0x1224 JUMP JUMPDEST DUP2 LT ISZERO PUSH2 0xCA3 JUMPI PUSH1 0x0 DUP1 SLOAD PUSH1 0x40 MLOAD PUSH4 0xB0539187 PUSH1 0xE0 SHL DUP2 MSTORE PUSH1 0x4 DUP2 ADD DUP5 SWAP1 MSTORE DUP3 SWAP2 DUP3 SWAP2 PUSH1 0x1 PUSH1 0x1 PUSH1 0xA0 SHL SUB SWAP1 SWAP2 AND SWAP1 PUSH4 0xB0539187 SWAP1 PUSH1 0x24 ADD PUSH1 0xC0 PUSH1 0x40 MLOAD DUP1 DUP4 SUB DUP2 DUP7 GAS STATICCALL ISZERO DUP1 ISZERO PUSH2 0xB90 JUMPI RETURNDATASIZE PUSH1 0x0 DUP1 RETURNDATACOPY RETURNDATASIZE PUSH1 0x0 REVERT JUMPDEST POP POP POP POP PUSH1 0x40 MLOAD RETURNDATASIZE PUSH1 0x1F NOT PUSH1 0x1F DUP3 ADD AND DUP3 ADD DUP1 PUSH1 0x40 MSTORE POP DUP2 ADD SWAP1 PUSH2 0xBB4 SWAP2 SWAP1 PUSH2 0x127C JUMP JUMPDEST PUSH1 0x0 DUP1 SLOAD PUSH1 0x40 MLOAD PUSH4 0x1324D039 PUSH1 0xE3 SHL DUP2 MSTORE SWAP6 SWAP11 POP SWAP4 SWAP9 POP SWAP1 SWAP7 POP SWAP5 POP POP PUSH1 0x1 PUSH1 0x1 PUSH1 0xA0 SHL SUB AND SWAP2 POP PUSH4 0x992681C8 SWAP1 PUSH2 0xBF4 SWAP1 DUP7 SWAP1 DUP9 SWAP1 DUP7 SWAP1 PUSH1 0x4 ADD PUSH2 0x12DB JUMP JUMPDEST PUSH1 0x20 PUSH1 0x40 MLOAD DUP1 DUP4 SUB DUP2 DUP7 GAS STATICCALL ISZERO DUP1 ISZERO PUSH2 0xC11 JUMPI RETURNDATASIZE PUSH1 0x0 DUP1 RETURNDATACOPY RETURNDATASIZE PUSH1 0x0 REVERT JUMPDEST POP POP POP POP PUSH1 0x40 MLOAD RETURNDATASIZE PUSH1 0x1F NOT PUSH1 0x1F DUP3 ADD AND DUP3 ADD DUP1 PUSH1 0x40 MSTORE POP DUP2 ADD SWAP1 PUSH2 0xC35 SWAP2 SWAP1 PUSH2 0x1224 JUMP JUMPDEST SWAP1 POP PUSH1 0x0 DUP8 PUSH2 0xC49 DUP4 PUSH5 0x2540BE400 PUSH2 0x12FE JUMP JUMPDEST PUSH2 0xC53 SWAP2 SWAP1 PUSH2 0x1315 JUMP JUMPDEST SWAP1 POP PUSH1 0x0 PUSH2 0xC64 DUP5 PUSH3 0xF4240 PUSH2 0x12FE JUMP JUMPDEST SWAP1 POP DUP2 DUP2 DUP2 GT DUP1 ISZERO PUSH2 0xC75 JUMPI POP DUP2 ISZERO ISZERO JUMPDEST ISZERO PUSH2 0xC7D JUMPI POP DUP1 JUMPDEST PUSH2 0xC87 DUP2 DUP11 PUSH2 0x1366 JUMP JUMPDEST SWAP9 POP POP POP POP POP POP POP POP DUP1 DUP1 PUSH2 0xC9B SWAP1 PUSH2 0x134D JUMP JUMPDEST SWAP2 POP POP PUSH2 0xAC6 JUMP JUMPDEST POP SWAP2 SWAP1 POP JUMP JUMPDEST PUSH1 0x0 DUP3 PUSH1 0x0 SUB PUSH2 0xCBE JUMPI PUSH2 0xCBB PUSH2 0xF09 JUMP JUMPDEST SWAP3 POP JUMPDEST DUP2 PUSH1 0x0 SUB PUSH2 0xCD3 JUMPI PUSH2 0xCD0 PUSH1 0x0 PUSH2 0xAAE JUMP JUMPDEST SWAP2 POP JUMPDEST PUSH1 0x0 JUMPDEST PUSH1 0x0 DUP1 SLOAD SWAP1 PUSH2 0x100 EXP SWAP1 DIV PUSH1 0x1 PUSH1 0x1 PUSH1 0xA0 SHL SUB AND PUSH1 0x1 PUSH1 0x1 PUSH1 0xA0 SHL SUB AND PUSH4 0xA6440082 PUSH1 0x40 MLOAD DUP2 PUSH4 0xFFFFFFFF AND PUSH1 0xE0 SHL DUP2 MSTORE PUSH1 0x4 ADD PUSH1 0x20 PUSH1 0x40 MLOAD DUP1 DUP4 SUB DUP2 DUP7 GAS STATICCALL ISZERO DUP1 ISZERO PUSH2 0xD27 JUMPI RETURNDATASIZE PUSH1 0x0 DUP1 RETURNDATACOPY RETURNDATASIZE PUSH1 0x0 REVERT JUMPDEST POP POP POP POP PUSH1 0x40 MLOAD RETURNDATASIZE PUSH1 0x1F NOT PUSH1 0x1F DUP3 ADD AND DUP3 ADD DUP1 PUSH1 0x40 MSTORE POP DUP2 ADD SWAP1 PUSH2 0xD4B SWAP2 SWAP1 PUSH2 0x1224 JUMP JUMPDEST DUP2 LT ISZERO PUSH2 0xF02 JUMPI PUSH1 0x0 DUP1 SLOAD PUSH1 0x40 MLOAD PUSH4 0xB0539187 PUSH1 0xE0 SHL DUP2 MSTORE PUSH1 0x4 DUP2 ADD DUP5 SWAP1 MSTORE DUP3 SWAP2 DUP3 SWAP2 PUSH1 0x1 PUSH1 0x1 PUSH1 0xA0 SHL SUB SWAP1 SWAP2 AND SWAP1 PUSH4 0xB0539187 SWAP1 PUSH1 0x24 ADD PUSH1 0xC0 PUSH1 0x40 MLOAD DUP1 DUP4 SUB DUP2 DUP7 GAS STATICCALL ISZERO DUP1 ISZERO PUSH2 0xDA0 JUMPI RETURNDATASIZE PUSH1 0x0 DUP1 RETURNDATACOPY RETURNDATASIZE PUSH1 0x0 REVERT JUMPDEST POP POP POP POP PUSH1 0x40 MLOAD RETURNDATASIZE PUSH1 0x1F NOT PUSH1 0x1F DUP3 ADD AND DUP3 ADD DUP1 PUSH1 0x40 MSTORE POP DUP2 ADD SWAP1 PUSH2 0xDC4 SWAP2 SWAP1 PUSH2 0x127C JUMP JUMPDEST PUSH1 0x0 DUP1 SLOAD PUSH1 0x40 MLOAD PUSH4 0x1324D039 PUSH1 0xE3 SHL DUP2 MSTORE SWAP6 SWAP11 POP SWAP4 SWAP9 POP SWAP1 SWAP7 POP SWAP5 POP POP PUSH1 0x1 PUSH1 0x1 PUSH1 0xA0 SHL SUB AND SWAP2 POP PUSH4 0x992681C8 SWAP1 PUSH2 0xE04 SWAP1 DUP7 SWAP1 DUP9 SWAP1 DUP7 SWAP1 PUSH1 0x4 ADD PUSH2 0x12DB JUMP JUMPDEST PUSH1 0x20 PUSH1 0x40 MLOAD DUP1 DUP4 SUB DUP2 DUP7 GAS STATICCALL ISZERO DUP1 ISZERO PUSH2 0xE21 JUMPI RETURNDATASIZE PUSH1 0x0 DUP1 RETURNDATACOPY RETURNDATASIZE PUSH1 0x0 REVERT JUMPDEST POP POP POP POP PUSH1 0x40 MLOAD RETURNDATASIZE PUSH1 0x1F NOT PUSH1 0x1F DUP3 ADD AND DUP3 ADD DUP1 PUSH1 0x40 MSTORE POP DUP2 ADD SWAP1 PUSH2 0xE45 SWAP2 SWAP1 PUSH2 0x1224 JUMP JUMPDEST SWAP1 POP PUSH1 0x0 DUP9 PUSH2 0xE59 DUP4 PUSH5 0x2540BE400 PUSH2 0x12FE JUMP JUMPDEST PUSH2 0xE63 SWAP2 SWAP1 PUSH2 0x1315 JUMP JUMPDEST SWAP1 POP PUSH1 0x0 PUSH2 0xE74 DUP5 PUSH3 0xF4240 PUSH2 0x12FE JUMP JUMPDEST SWAP1 POP DUP2 DUP2 DUP2 GT DUP1 ISZERO PUSH2 0xE85 JUMPI POP DUP2 ISZERO ISZERO JUMPDEST ISZERO PUSH2 0xE8D JUMPI POP DUP1 JUMPDEST PUSH1 0x0 PUSH5 0x2540BE400 PUSH2 0xE9F DUP4 DUP15 PUSH2 0x12FE JUMP JUMPDEST PUSH2 0xEA9 SWAP2 SWAP1 PUSH2 0x1315 JUMP JUMPDEST SWAP1 POP DUP3 DUP5 GT DUP1 ISZERO PUSH2 0xEB9 JUMPI POP DUP3 ISZERO ISZERO JUMPDEST ISZERO PUSH2 0xEDB JUMPI PUSH5 0x2540BE400 PUSH2 0xECE DUP13 DUP4 PUSH2 0x12FE JUMP JUMPDEST PUSH2 0xED8 SWAP2 SWAP1 PUSH2 0x1315 JUMP JUMPDEST SWAP1 POP JUMPDEST PUSH2 0xEE5 DUP2 DUP12 PUSH2 0x1366 JUMP JUMPDEST SWAP10 POP POP POP POP POP POP POP POP POP DUP1 DUP1 PUSH2 0xEFA SWAP1 PUSH2 0x134D JUMP JUMPDEST SWAP2 POP POP PUSH2 0xCD6 JUMP JUMPDEST POP SWAP3 SWAP2 POP POP JUMP JUMPDEST PUSH1 0x0 DUP1 JUMPDEST PUSH1 0x0 DUP1 SLOAD SWAP1 PUSH2 0x100 EXP SWAP1 DIV PUSH1 0x1 PUSH1 0x1 PUSH1 0xA0 SHL SUB AND PUSH1 0x1 PUSH1 0x1 PUSH1 0xA0 SHL SUB AND PUSH4 0xA6440082 PUSH1 0x40 MLOAD DUP2 PUSH4 0xFFFFFFFF AND PUSH1 0xE0 SHL DUP2 MSTORE PUSH1 0x4 ADD PUSH1 0x20 PUSH1 0x40 MLOAD DUP1 DUP4 SUB DUP2 DUP7 GAS STATICCALL ISZERO DUP1 ISZERO PUSH2 0xF5E JUMPI RETURNDATASIZE PUSH1 0x0 DUP1 RETURNDATACOPY RETURNDATASIZE PUSH1 0x0 REVERT JUMPDEST POP POP POP POP PUSH1 0x40 MLOAD RETURNDATASIZE PUSH1 0x1F NOT PUSH1 0x1F DUP3 ADD AND DUP3 ADD DUP1 PUSH1 0x40 MSTORE POP DUP2 ADD SWAP1 PUSH2 0xF82 SWAP2 SWAP1 PUSH2 0x1224 JUMP JUMPDEST DUP2 LT ISZERO PUSH2 0x109A JUMPI PUSH1 0x0 DUP1 SLOAD PUSH1 0x40 MLOAD PUSH4 0xB0539187 PUSH1 0xE0 SHL DUP2 MSTORE PUSH1 0x4 DUP2 ADD DUP5 SWAP1 MSTORE DUP3 SWAP2 PUSH1 0x1 PUSH1 0x1 PUSH1 0xA0 SHL SUB AND SWAP1 PUSH4 0xB0539187 SWAP1 PUSH1 0x24 ADD PUSH1 0xC0 PUSH1 0x40 MLOAD DUP1 DUP4 SUB DUP2 DUP7 GAS STATICCALL ISZERO DUP1 ISZERO PUSH2 0xFD3 JUMPI RETURNDATASIZE PUSH1 0x0 DUP1 RETURNDATACOPY RETURNDATASIZE PUSH1 0x0 REVERT JUMPDEST POP POP POP POP PUSH1 0x40 MLOAD RETURNDATASIZE PUSH1 0x1F NOT PUSH1 0x1F DUP3 ADD AND DUP3 ADD DUP1 PUSH1 0x40 MSTORE POP DUP2 ADD SWAP1 PUSH2 0xFF7 SWAP2 SWAP1 PUSH2 0x127C JUMP JUMPDEST POP POP PUSH1 0x0 DUP1 SLOAD PUSH1 0x40 MLOAD PUSH4 0x1324D039 PUSH1 0xE3 SHL DUP2 MSTORE SWAP4 SWAP8 POP SWAP2 SWAP6 POP SWAP4 POP PUSH1 0x1 PUSH1 0x1 PUSH1 0xA0 SHL SUB AND SWAP2 POP PUSH4 0x992681C8 SWAP1 PUSH2 0x1035 SWAP1 DUP6 SWAP1 DUP8 SWAP1 DUP7 SWAP1 PUSH1 0x4 ADD PUSH2 0x12DB JUMP JUMPDEST PUSH1 0x20 PUSH1 0x40 MLOAD DUP1 DUP4 SUB DUP2 DUP7 GAS STATICCALL ISZERO DUP1 ISZERO PUSH2 0x1052 JUMPI RETURNDATASIZE PUSH1 0x0 DUP1 RETURNDATACOPY RETURNDATASIZE PUSH1 0x0 REVERT JUMPDEST POP POP POP POP PUSH1 0x40 MLOAD RETURNDATASIZE PUSH1 0x1F NOT PUSH1 0x1F DUP3 ADD AND DUP3 ADD DUP1 PUSH1 0x40 MSTORE POP DUP2 ADD SWAP1 PUSH2 0x1076 SWAP2 SWAP1 PUSH2 0x1224 JUMP JUMPDEST SWAP1 POP PUSH2 0x1082 DUP2 DUP7 PUSH2 0x1366 JUMP JUMPDEST SWAP5 POP POP POP POP DUP1 DUP1 PUSH2 0x1092 SWAP1 PUSH2 0x134D JUMP JUMPDEST SWAP2 POP POP PUSH2 0xF0D JUMP JUMPDEST POP SWAP1 JUMP JUMPDEST PUSH1 0x1 PUSH1 0x1 PUSH1 0xA0 SHL SUB DUP2 AND DUP2 EQ PUSH2 0x10B3 JUMPI PUSH1 0x0 DUP1 REVERT JUMPDEST POP JUMP JUMPDEST DUP1 CALLDATALOAD DUP1 ISZERO ISZERO DUP2 EQ PUSH2 0x890 JUMPI PUSH1 0x0 DUP1 REVERT JUMPDEST PUSH1 0x0 DUP1 PUSH1 0x0 PUSH1 0x60 DUP5 DUP7 SUB SLT ISZERO PUSH2 0x10DB JUMPI PUSH1 0x0 DUP1 REVERT JUMPDEST DUP4 CALLDATALOAD PUSH2 0x10E6 DUP2 PUSH2 0x109E JUMP JUMPDEST SWAP3 POP PUSH1 0x20 DUP5 ADD CALLDATALOAD SWAP2 POP PUSH2 0x10FB PUSH1 0x40 DUP6 ADD PUSH2 0x10B6 JUMP JUMPDEST SWAP1 POP SWAP3 POP SWAP3 POP SWAP3 JUMP JUMPDEST PUSH1 0x0 DUP1 PUSH1 0x40 DUP4 DUP6 SUB SLT ISZERO PUSH2 0x1117 JUMPI PUSH1 0x0 DUP1 REVERT JUMPDEST DUP3 CALLDATALOAD SWAP2 POP PUSH2 0x1127 PUSH1 0x20 DUP5 ADD PUSH2 0x10B6 JUMP JUMPDEST SWAP1 POP SWAP3 POP SWAP3 SWAP1 POP JUMP JUMPDEST PUSH1 0x0 PUSH1 0x20 DUP3 DUP5 SUB SLT ISZERO PUSH2 0x1142 JUMPI PUSH1 0x0 DUP1 REVERT JUMPDEST PUSH2 0x2C9 DUP3 PUSH2 0x10B6 JUMP JUMPDEST PUSH1 0x20 DUP1 DUP3 MSTORE DUP3 MLOAD DUP3 DUP3 ADD DUP2 SWAP1 MSTORE PUSH1 0x0 SWAP2 SWAP1 DUP5 DUP3 ADD SWAP1 PUSH1 0x40 DUP6 ADD SWAP1 DUP5 JUMPDEST DUP2 DUP2 LT ISZERO PUSH2 0x1183 JUMPI DUP4 MLOAD DUP4 MSTORE SWAP3 DUP5 ADD SWAP3 SWAP2 DUP5 ADD SWAP2 PUSH1 0x1 ADD PUSH2 0x1167 JUMP JUMPDEST POP SWAP1 SWAP7 SWAP6 POP POP POP POP POP POP JUMP JUMPDEST PUSH1 0x0 PUSH1 0x20 DUP3 DUP5 SUB SLT ISZERO PUSH2 0x11A1 JUMPI PUSH1 0x0 DUP1 REVERT JUMPDEST POP CALLDATALOAD SWAP2 SWAP1 POP JUMP JUMPDEST PUSH1 0x0 DUP1 PUSH1 0x0 DUP1 PUSH1 0x0 DUP1 PUSH1 0xC0 DUP8 DUP10 SUB SLT ISZERO PUSH2 0x11C1 JUMPI PUSH1 0x0 DUP1 REVERT JUMPDEST DUP7 CALLDATALOAD PUSH2 0x11CC DUP2 PUSH2 0x109E JUMP JUMPDEST SWAP6 POP PUSH1 0x20 DUP8 ADD CALLDATALOAD SWAP5 POP PUSH2 0x11E1 PUSH1 0x40 DUP9 ADD PUSH2 0x10B6 JUMP JUMPDEST SWAP4 POP PUSH1 0x60 DUP8 ADD CALLDATALOAD SWAP3 POP PUSH1 0x80 DUP8 ADD CALLDATALOAD SWAP2 POP PUSH1 0xA0 DUP8 ADD CALLDATALOAD SWAP1 POP SWAP3 SWAP6 POP SWAP3 SWAP6 POP SWAP3 SWAP6 JUMP JUMPDEST PUSH1 0x60 SWAP3 SWAP1 SWAP3 SHL PUSH12 0xFFFFFFFFFFFFFFFFFFFFFFFF NOT AND DUP3 MSTORE PUSH1 0x14 DUP3 ADD MSTORE PUSH1 0x34 ADD SWAP1 JUMP JUMPDEST PUSH1 0x0 PUSH1 0x20 DUP3 DUP5 SUB SLT ISZERO PUSH2 0x1236 JUMPI PUSH1 0x0 DUP1 REVERT JUMPDEST POP MLOAD SWAP2 SWAP1 POP JUMP JUMPDEST PUSH4 0x4E487B71 PUSH1 0xE0 SHL PUSH1 0x0 MSTORE PUSH1 0x11 PUSH1 0x4 MSTORE PUSH1 0x24 PUSH1 0x0 REVERT JUMPDEST DUP2 DUP2 SUB DUP2 DUP2 GT ISZERO PUSH2 0x302 JUMPI PUSH2 0x302 PUSH2 0x123D JUMP JUMPDEST PUSH4 0x4E487B71 PUSH1 0xE0 SHL PUSH1 0x0 MSTORE PUSH1 0x41 PUSH1 0x4 MSTORE PUSH1 0x24 PUSH1 0x0 REVERT JUMPDEST PUSH1 0x0 DUP1 PUSH1 0x0 DUP1 PUSH1 0x0 DUP1 PUSH1 0xC0 DUP8 DUP10 SUB SLT ISZERO PUSH2 0x1295 JUMPI PUSH1 0x0 DUP1 REVERT JUMPDEST DUP7 MLOAD SWAP6 POP PUSH1 0x20 DUP8 ADD MLOAD PUSH2 0x12A7 DUP2 PUSH2 0x109E JUMP JUMPDEST PUSH1 0x40 DUP9 ADD MLOAD PUSH1 0x60 DUP10 ADD MLOAD SWAP2 SWAP7 POP SWAP5 POP PUSH2 0x12BF DUP2 PUSH2 0x109E JUMP JUMPDEST DUP1 SWAP4 POP POP PUSH1 0x80 DUP8 ADD MLOAD SWAP2 POP PUSH1 0xA0 DUP8 ADD MLOAD SWAP1 POP SWAP3 SWAP6 POP SWAP3 SWAP6 POP SWAP3 SWAP6 JUMP JUMPDEST PUSH1 0x1 PUSH1 0x1 PUSH1 0xA0 SHL SUB SWAP4 SWAP1 SWAP4 AND DUP4 MSTORE PUSH1 0x20 DUP4 ADD SWAP2 SWAP1 SWAP2 MSTORE ISZERO ISZERO PUSH1 0x40 DUP3 ADD MSTORE PUSH1 0x60 ADD SWAP1 JUMP JUMPDEST DUP1 DUP3 MUL DUP2 ISZERO DUP3 DUP3 DIV DUP5 EQ OR PUSH2 0x302 JUMPI PUSH2 0x302 PUSH2 0x123D JUMP JUMPDEST PUSH1 0x0 DUP3 PUSH2 0x1332 JUMPI PUSH4 0x4E487B71 PUSH1 0xE0 SHL PUSH1 0x0 MSTORE PUSH1 0x12 PUSH1 0x4 MSTORE PUSH1 0x24 PUSH1 0x0 REVERT JUMPDEST POP DIV SWAP1 JUMP JUMPDEST PUSH4 0x4E487B71 PUSH1 0xE0 SHL PUSH1 0x0 MSTORE PUSH1 0x32 PUSH1 0x4 MSTORE PUSH1 0x24 PUSH1 0x0 REVERT JUMPDEST PUSH1 0x0 PUSH1 0x1 DUP3 ADD PUSH2 0x135F JUMPI PUSH2 0x135F PUSH2 0x123D JUMP JUMPDEST POP PUSH1 0x1 ADD SWAP1 JUMP JUMPDEST DUP1 DUP3 ADD DUP1 DUP3 GT ISZERO PUSH2 0x302 JUMPI PUSH2 0x302 PUSH2 0x123D JUMP INVALID LOG2 PUSH5 0x6970667358 0x22 SLT KECCAK256 0xB5 0xBB 0xF7 EQ 0xCF 0xC9 DUP13 SSTORE 0xB1 0xCB 0xEC 0xC8 SHL 0xBB 0xD4 SWAP10 0xCA DUP15 DUP15 0x2A 0x4D 0xEC CALL 0x5E DUP15 CALLCODE SSTORE SMOD SWAP13 PUSH15 0xE94B64736F6C634300081100330000 "
        },
        "methodIdentifiers": {
          "gaugeVotingAddress()": "9734e68e",
          "getGaugeRelativeWeight(address,uint256,bool)": "065e9f34",
          "getGaugeRelativeWeightById(uint256,bool)": "96a55c09",
          "getGaugeWeight(address,uint256,bool)": "992681c8",
          "getGaugeWeightDetails(uint256)": "d983cd56",
          "getGaugeWeightMass(address,uint256,bool,uint256,uint256,uint256)": "de52092c",
          "getGaugeWeightbyId(uint256,bool)": "2a942fa3",
          "getRawTotalGaugeWeight()": "76c130cf",
          "getTotalCappedPercent()": "2ce9b0d6",
          "getTotalFinalWeights()": "40b8447e",
          "getTotalWeight(bool)": "e9c1f214",
          "massGetGaugeWeight(bool)": "a82eed17"
        }
      }
    }
  }
}