{
  "_format": "hh-sol-artifact-1",
  "contractName": "GaugeVotingBulk",
  "sourceName": "contracts/GaugeVotingBulk.sol",
  "abi": [
    {
      "anonymous": false,
      "inputs": [
        {
          "indexed": true,
          "internalType": "address",
          "name": "previousOwner",
          "type": "address"
        },
        {
          "indexed": true,
          "internalType": "address",
          "name": "newOwner",
          "type": "address"
        }
      ],
      "name": "OwnershipTransferred",
      "type": "event"
    },
    {
      "inputs": [],
      "name": "GaugeVoting",
      "outputs": [
        {
          "internalType": "address",
          "name": "",
          "type": "address"
        }
      ],
      "stateMutability": "view",
      "type": "function"
    },
    {
      "inputs": [
        {
          "components": [
            {
              "internalType": "address",
              "name": "gauge_addr",
              "type": "address"
            },
            {
              "internalType": "uint256",
              "name": "gauge_type",
              "type": "uint256"
            },
            {
              "internalType": "uint256",
              "name": "_weight",
              "type": "uint256"
            },
            {
              "internalType": "uint256",
              "name": "_pid",
              "type": "uint256"
            },
            {
              "internalType": "address",
              "name": "_masterChef",
              "type": "address"
            },
            {
              "internalType": "uint256",
              "name": "_chainId",
              "type": "uint256"
            },
            {
              "internalType": "uint256",
              "name": "_boostMultiplier",
              "type": "uint256"
            },
            {
              "internalType": "uint256",
              "name": "_maxVoteCap",
              "type": "uint256"
            }
          ],
          "internalType": "struct GaugeVotingBulk.GaugeConfig[]",
          "name": "_gaugeList",
          "type": "tuple[]"
        }
      ],
      "name": "addGauges",
      "outputs": [],
      "stateMutability": "nonpayable",
      "type": "function"
    },
    {
      "inputs": [],
      "name": "owner",
      "outputs": [
        {
          "internalType": "address",
          "name": "",
          "type": "address"
        }
      ],
      "stateMutability": "view",
      "type": "function"
    },
    {
      "inputs": [],
      "name": "renounceOwnership",
      "outputs": [],
      "stateMutability": "nonpayable",
      "type": "function"
    },
    {
      "inputs": [
        {
          "internalType": "address",
          "name": "_owner",
          "type": "address"
        }
      ],
      "name": "transferBackOwner",
      "outputs": [],
      "stateMutability": "nonpayable",
      "type": "function"
    },
    {
      "inputs": [
        {
          "internalType": "address",
          "name": "newOwner",
          "type": "address"
        }
      ],
      "name": "transferOwnership",
      "outputs": [],
      "stateMutability": "nonpayable",
      "type": "function"
    }
  ],
  "bytecode": "0x6080604052600180546001600160a01b0319167314060b856c47983439509d17ff8f4e11385cb1dd17905534801561003657600080fd5b5061004033610045565b610095565b600080546001600160a01b038381166001600160a01b0319831681178455604051919092169283917f8be0079c531659141344cd1fd0a4f28419497f9722a3daafe3b4186f6b6457e09190a35050565b6105d6806100a46000396000f3fe608060405234801561001057600080fd5b50600436106100625760003560e01c80631fa95e9e14610067578063715018a6146100965780638da5cb5b146100a0578063a871d21e146100b1578063f24ff88a146100c4578063f2fde38b146100d7575b600080fd5b60015461007a906001600160a01b031681565b6040516001600160a01b03909116815260200160405180910390f35b61009e6100ea565b005b6000546001600160a01b031661007a565b61009e6100bf3660046103eb565b610129565b61009e6100d236600461040d565b6101b5565b61009e6100e53660046103eb565b6102e4565b6000546001600160a01b0316331461011d5760405162461bcd60e51b815260040161011490610482565b60405180910390fd5b610127600061037f565b565b6000546001600160a01b031633146101535760405162461bcd60e51b815260040161011490610482565b60015460405163f2fde38b60e01b81526001600160a01b0383811660048301529091169063f2fde38b90602401600060405180830381600087803b15801561019a57600080fd5b505af11580156101ae573d6000803e3d6000fd5b5050505050565b6000546001600160a01b031633146101df5760405162461bcd60e51b815260040161011490610482565b8060005b818110156102de5760008484838181106101ff576101ff6104b7565b9050610100020180360381019061021691906104cd565b600154815160208301516040808501516060860151608087015160a088015160c089015160e08a01519551632b90c9e560e21b81526001600160a01b0398891660048201526024810197909752604487019490945260648601929092528516608485015260a484015260c483015260e4820152929350169063ae4327949061010401600060405180830381600087803b1580156102b257600080fd5b505af11580156102c6573d6000803e3d6000fd5b505050505080806102d690610579565b9150506101e3565b50505050565b6000546001600160a01b0316331461030e5760405162461bcd60e51b815260040161011490610482565b6001600160a01b0381166103735760405162461bcd60e51b815260206004820152602660248201527f4f776e61626c653a206e6577206f776e657220697320746865207a65726f206160448201526564647265737360d01b6064820152608401610114565b61037c8161037f565b50565b600080546001600160a01b038381166001600160a01b0319831681178455604051919092169283917f8be0079c531659141344cd1fd0a4f28419497f9722a3daafe3b4186f6b6457e09190a35050565b80356001600160a01b03811681146103e657600080fd5b919050565b6000602082840312156103fd57600080fd5b610406826103cf565b9392505050565b6000806020838503121561042057600080fd5b823567ffffffffffffffff8082111561043857600080fd5b818501915085601f83011261044c57600080fd5b81358181111561045b57600080fd5b8660208260081b850101111561047057600080fd5b60209290920196919550909350505050565b6020808252818101527f4f776e61626c653a2063616c6c6572206973206e6f7420746865206f776e6572604082015260600190565b634e487b7160e01b600052603260045260246000fd5b60006101008083850312156104e157600080fd5b6040519081019067ffffffffffffffff8211818310171561051257634e487b7160e01b600052604160045260246000fd5b8160405261051f846103cf565b815260208401356020820152604084013560408201526060840135606082015261054b608085016103cf565b608082015260a084013560a082015260c084013560c082015260e084013560e0820152809250505092915050565b60006001820161059957634e487b7160e01b600052601160045260246000fd5b506001019056fea2646970667358221220dbd9b6760bbc05428f4e6ef241c4dee66bf6da27b513cee12685098c0b0b174764736f6c63430008110033",
  "linkReferences": {},
  "deployedLinkReferences": {}
}