{
  "_format": "hh-sol-artifact-1",
  "contractName": "Multicall3",
  "sourceName": "contracts/Multicall3.sol",
  "abi": [
    {
      "inputs": [
        {
          "components": [
            {
              "internalType": "address",
              "name": "target",
              "type": "address"
            },
            {
              "internalType": "bytes",
              "name": "callData",
              "type": "bytes"
            }
          ],
          "internalType": "struct Multicall3.Call[]",
          "name": "calls",
          "type": "tuple[]"
        }
      ],
      "name": "aggregate",
      "outputs": [
        {
          "internalType": "uint256",
          "name": "blockNumber",
          "type": "uint256"
        },
        {
          "internalType": "bytes[]",
          "name": "returnData",
          "type": "bytes[]"
        }
      ],
      "stateMutability": "payable",
      "type": "function"
    },
    {
      "inputs": [
        {
          "components": [
            {
              "internalType": "address",
              "name": "target",
              "type": "address"
            },
            {
              "internalType": "bool",
              "name": "allowFailure",
              "type": "bool"
            },
            {
              "internalType": "bytes",
              "name": "callData",
              "type": "bytes"
            }
          ],
          "internalType": "struct Multicall3.Call3[]",
          "name": "calls",
          "type": "tuple[]"
        }
      ],
      "name": "aggregate3",
      "outputs": [
        {
          "components": [
            {
              "internalType": "bool",
              "name": "success",
              "type": "bool"
            },
            {
              "internalType": "bytes",
              "name": "returnData",
              "type": "bytes"
            }
          ],
          "internalType": "struct Multicall3.Result[]",
          "name": "results",
          "type": "tuple[]"
        }
      ],
      "stateMutability": "payable",
      "type": "function"
    },
    {
      "inputs": [
        {
          "components": [
            {
              "internalType": "address",
              "name": "target",
              "type": "address"
            },
            {
              "internalType": "bool",
              "name": "allowFailure",
              "type": "bool"
            },
            {
              "internalType": "uint256",
              "name": "value",
              "type": "uint256"
            },
            {
              "internalType": "bytes",
              "name": "callData",
              "type": "bytes"
            }
          ],
          "internalType": "struct Multicall3.Call3Value[]",
          "name": "calls",
          "type": "tuple[]"
        }
      ],
      "name": "aggregate3Value",
      "outputs": [
        {
          "components": [
            {
              "internalType": "bool",
              "name": "success",
              "type": "bool"
            },
            {
              "internalType": "bytes",
              "name": "returnData",
              "type": "bytes"
            }
          ],
          "internalType": "struct Multicall3.Result[]",
          "name": "results",
          "type": "tuple[]"
        }
      ],
      "stateMutability": "payable",
      "type": "function"
    },
    {
      "inputs": [],
      "name": "getBasefee",
      "outputs": [
        {
          "internalType": "uint256",
          "name": "",
          "type": "uint256"
        }
      ],
      "stateMutability": "view",
      "type": "function"
    },
    {
      "inputs": [
        {
          "internalType": "uint256",
          "name": "blockNumber",
          "type": "uint256"
        }
      ],
      "name": "getBlockHash",
      "outputs": [
        {
          "internalType": "bytes32",
          "name": "",
          "type": "bytes32"
        }
      ],
      "stateMutability": "view",
      "type": "function"
    },
    {
      "inputs": [],
      "name": "getBlockNumber",
      "outputs": [
        {
          "internalType": "uint256",
          "name": "",
          "type": "uint256"
        }
      ],
      "stateMutability": "view",
      "type": "function"
    },
    {
      "inputs": [],
      "name": "getChainId",
      "outputs": [
        {
          "internalType": "uint256",
          "name": "",
          "type": "uint256"
        }
      ],
      "stateMutability": "view",
      "type": "function"
    },
    {
      "inputs": [],
      "name": "getCurrentBlockCoinbase",
      "outputs": [
        {
          "internalType": "address",
          "name": "",
          "type": "address"
        }
      ],
      "stateMutability": "view",
      "type": "function"
    },
    {
      "inputs": [],
      "name": "getCurrentBlockDifficulty",
      "outputs": [
        {
          "internalType": "uint256",
          "name": "",
          "type": "uint256"
        }
      ],
      "stateMutability": "view",
      "type": "function"
    },
    {
      "inputs": [],
      "name": "getCurrentBlockGasLimit",
      "outputs": [
        {
          "internalType": "uint256",
          "name": "",
          "type": "uint256"
        }
      ],
      "stateMutability": "view",
      "type": "function"
    },
    {
      "inputs": [],
      "name": "getCurrentBlockTimestamp",
      "outputs": [
        {
          "internalType": "uint256",
          "name": "",
          "type": "uint256"
        }
      ],
      "stateMutability": "view",
      "type": "function"
    },
    {
      "inputs": [
        {
          "internalType": "address",
          "name": "addr",
          "type": "address"
        }
      ],
      "name": "getEthBalance",
      "outputs": [
        {
          "internalType": "uint256",
          "name": "",
          "type": "uint256"
        }
      ],
      "stateMutability": "view",
      "type": "function"
    },
    {
      "inputs": [],
      "name": "getLastBlockHash",
      "outputs": [
        {
          "internalType": "bytes32",
          "name": "",
          "type": "bytes32"
        }
      ],
      "stateMutability": "view",
      "type": "function"
    },
    {
      "inputs": [
        {
          "internalType": "bool",
          "name": "requireSuccess",
          "type": "bool"
        },
        {
          "components": [
            {
              "internalType": "address",
              "name": "target",
              "type": "address"
            },
            {
              "internalType": "bytes",
              "name": "callData",
              "type": "bytes"
            }
          ],
          "internalType": "struct Multicall3.Call[]",
          "name": "calls",
          "type": "tuple[]"
        }
      ],
      "name": "tryAggregate",
      "outputs": [
        {
          "components": [
            {
              "internalType": "bool",
              "name": "success",
              "type": "bool"
            },
            {
              "internalType": "bytes",
              "name": "returnData",
              "type": "bytes"
            }
          ],
          "internalType": "struct Multicall3.Result[]",
          "name": "results",
          "type": "tuple[]"
        }
      ],
      "stateMutability": "payable",
      "type": "function"
    }
  ],
  "bytecode": "0x608060405234801561001057600080fd5b5061134f806100206000396000f3fe6080604052600436106100dd5760003560e01c80634d2301cc1161007f57806386d516e81161005957806386d516e8146101ef578063a8b0574e14610202578063bce38bd71461021d578063ee82ac5e1461023057600080fd5b80634d2301cc1461019457806372425d9d146101c957806382ad56cb146101dc57600080fd5b806327e86d6e116100bb57806327e86d6e146101455780633408e4701461015a5780633e64a6961461016d57806342cbb15c1461018157600080fd5b80630f28c97d146100e2578063174dea7114610104578063252dba4214610124575b600080fd5b3480156100ee57600080fd5b50425b6040519081526020015b60405180910390f35b610117610112366004610efe565b61024f565b6040516100fb9190611062565b610137610132366004610f3e565b61065d565b6040516100fb9291906110f5565b34801561015157600080fd5b506100f16108ca565b34801561016657600080fd5b50466100f1565b34801561017957600080fd5b5060006100f1565b34801561018d57600080fd5b50436100f1565b3480156101a057600080fd5b506100f16101af366004610ec3565b73ffffffffffffffffffffffffffffffffffffffff163190565b3480156101d557600080fd5b50446100f1565b6101176101ea366004610f3e565b6108dd565b3480156101fb57600080fd5b50456100f1565b34801561020e57600080fd5b506040514181526020016100fb565b61011761022b366004610f80565b610bc9565b34801561023c57600080fd5b506100f161024b366004610fd1565b4090565b6060818067ffffffffffffffff811115610292577f4e487b7100000000000000000000000000000000000000000000000000000000600052604160045260246000fd5b6040519080825280602002602001820160405280156102d857816020015b6040805180820190915260008152606060208201528152602001906001900390816102b05790505b5091506000805b828110156105eb57858582818110610320577f4e487b7100000000000000000000000000000000000000000000000000000000600052603260045260246000fd5b905060200281019061033291906111df565b610340906040013583611282565b915060008087878481811061037e577f4e487b7100000000000000000000000000000000000000000000000000000000600052603260045260246000fd5b905060200281019061039091906111df565b61039e906020810190610ec3565b73ffffffffffffffffffffffffffffffffffffffff168888858181106103ed577f4e487b7100000000000000000000000000000000000000000000000000000000600052603260045260246000fd5b90506020028101906103ff91906111df565b6040013589898681811061043c577f4e487b7100000000000000000000000000000000000000000000000000000000600052603260045260246000fd5b905060200281019061044e91906111df565b61045c90606081019061117c565b60405161046a929190611052565b60006040518083038185875af1925050503d80600081146104a7576040519150601f19603f3d011682016040523d82523d6000602084013e6104ac565b606091505b50915091508787848181106104ea577f4e487b7100000000000000000000000000000000000000000000000000000000600052603260045260246000fd5b90506020028101906104fc91906111df565b61050d906040810190602001610f66565b61057d578161057d576040517f08c379a000000000000000000000000000000000000000000000000000000000815260206004820152601760248201527f4d756c746963616c6c333a2063616c6c206661696c656400000000000000000060448201526064015b60405180910390fd5b60405180604001604052808315158152602001828152508684815181106105cd577f4e487b7100000000000000000000000000000000000000000000000000000000600052603260045260246000fd5b60200260200101819052505050806105e4906112b1565b90506102df565b50803414610655576040517f08c379a000000000000000000000000000000000000000000000000000000000815260206004820152601a60248201527f4d756c746963616c6c333a2076616c7565206d69736d617463680000000000006044820152606401610574565b505092915050565b436060828067ffffffffffffffff8111156106a1577f4e487b7100000000000000000000000000000000000000000000000000000000600052604160045260246000fd5b6040519080825280602002602001820160405280156106d457816020015b60608152602001906001900390816106bf5790505b50915060005b818110156108c15760008087878481811061071e577f4e487b7100000000000000000000000000000000000000000000000000000000600052603260045260246000fd5b9050602002810190610730919061124f565b61073e906020810190610ec3565b73ffffffffffffffffffffffffffffffffffffffff1688888581811061078d577f4e487b7100000000000000000000000000000000000000000000000000000000600052603260045260246000fd5b905060200281019061079f919061124f565b6107ad90602081019061117c565b6040516107bb929190611052565b6000604051808303816000865af19150503d80600081146107f8576040519150601f19603f3d011682016040523d82523d6000602084013e6107fd565b606091505b509150915081610869576040517f08c379a000000000000000000000000000000000000000000000000000000000815260206004820152601760248201527f4d756c746963616c6c333a2063616c6c206661696c65640000000000000000006044820152606401610574565b808584815181106108a3577f4e487b7100000000000000000000000000000000000000000000000000000000600052603260045260246000fd5b60200260200101819052505050806108ba906112b1565b90506106da565b50509250929050565b60006108d760014361129a565b40905090565b6060818067ffffffffffffffff811115610920577f4e487b7100000000000000000000000000000000000000000000000000000000600052604160045260246000fd5b60405190808252806020026020018201604052801561096657816020015b60408051808201909152600081526060602082015281526020019060019003908161093e5790505b50915060005b81811015610655576000808686848181106109b0577f4e487b7100000000000000000000000000000000000000000000000000000000600052603260045260246000fd5b90506020028101906109c2919061121c565b6109d0906020810190610ec3565b73ffffffffffffffffffffffffffffffffffffffff16878785818110610a1f577f4e487b7100000000000000000000000000000000000000000000000000000000600052603260045260246000fd5b9050602002810190610a31919061121c565b610a3f90604081019061117c565b604051610a4d929190611052565b6000604051808303816000865af19150503d8060008114610a8a576040519150601f19603f3d011682016040523d82523d6000602084013e610a8f565b606091505b5091509150868684818110610acd577f4e487b7100000000000000000000000000000000000000000000000000000000600052603260045260246000fd5b9050602002810190610adf919061121c565b610af0906040810190602001610f66565b610b5b5781610b5b576040517f08c379a000000000000000000000000000000000000000000000000000000000815260206004820152601760248201527f4d756c746963616c6c333a2063616c6c206661696c65640000000000000000006044820152606401610574565b6040518060400160405280831515815260200182815250858481518110610bab577f4e487b7100000000000000000000000000000000000000000000000000000000600052603260045260246000fd5b6020026020010181905250505080610bc2906112b1565b905061096c565b6060818067ffffffffffffffff811115610c0c577f4e487b7100000000000000000000000000000000000000000000000000000000600052604160045260246000fd5b604051908082528060200260200182016040528015610c5257816020015b604080518082019091526000815260606020820152815260200190600190039081610c2a5790505b50915060005b81811015610e5b57600080868684818110610c9c577f4e487b7100000000000000000000000000000000000000000000000000000000600052603260045260246000fd5b9050602002810190610cae919061124f565b610cbc906020810190610ec3565b73ffffffffffffffffffffffffffffffffffffffff16878785818110610d0b577f4e487b7100000000000000000000000000000000000000000000000000000000600052603260045260246000fd5b9050602002810190610d1d919061124f565b610d2b90602081019061117c565b604051610d39929190611052565b6000604051808303816000865af19150503d8060008114610d76576040519150601f19603f3d011682016040523d82523d6000602084013e610d7b565b606091505b50915091508715610ded5781610ded576040517f08c379a000000000000000000000000000000000000000000000000000000000815260206004820152601760248201527f4d756c746963616c6c333a2063616c6c206661696c65640000000000000000006044820152606401610574565b6040518060400160405280831515815260200182815250858481518110610e3d577f4e487b7100000000000000000000000000000000000000000000000000000000600052603260045260246000fd5b6020026020010181905250505080610e54906112b1565b9050610c58565b50509392505050565b60008083601f840112610e75578182fd5b50813567ffffffffffffffff811115610e8c578182fd5b6020830191508360208260051b8501011115610ea757600080fd5b9250929050565b80358015158114610ebe57600080fd5b919050565b600060208284031215610ed4578081fd5b813573ffffffffffffffffffffffffffffffffffffffff81168114610ef7578182fd5b9392505050565b60008060208385031215610f10578081fd5b823567ffffffffffffffff811115610f26578182fd5b610f3285828601610e64565b90969095509350505050565b60008060208385031215610f50578182fd5b823567ffffffffffffffff811115610f26578283fd5b600060208284031215610f77578081fd5b610ef782610eae565b600080600060408486031215610f94578081fd5b610f9d84610eae565b9250602084013567ffffffffffffffff811115610fb8578182fd5b610fc486828701610e64565b9497909650939450505050565b600060208284031215610fe2578081fd5b5035919050565b60008151808452815b8181101561100e57602081850181015186830182015201610ff2565b8181111561101f5782602083870101525b50601f017fffffffffffffffffffffffffffffffffffffffffffffffffffffffffffffffe0169290920160200192915050565b8183823760009101908152919050565b60006020808301818452808551808352604092508286019150828160051b870101848801865b838110156110e7578883037fffffffffffffffffffffffffffffffffffffffffffffffffffffffffffffffc001855281518051151584528701518784018790526110d487850182610fe9565b9588019593505090860190600101611088565b509098975050505050505050565b600060408201848352602060408185015281855180845260608601915060608160051b8701019350828701855b8281101561116e577fffffffffffffffffffffffffffffffffffffffffffffffffffffffffffffffa088870301845261115c868351610fe9565b95509284019290840190600101611122565b509398975050505050505050565b60008083357fffffffffffffffffffffffffffffffffffffffffffffffffffffffffffffffe18436030181126111b0578283fd5b83018035915067ffffffffffffffff8211156111ca578283fd5b602001915036819003821315610ea757600080fd5b600082357fffffffffffffffffffffffffffffffffffffffffffffffffffffffffffffff81833603018112611212578182fd5b9190910192915050565b600082357fffffffffffffffffffffffffffffffffffffffffffffffffffffffffffffffa1833603018112611212578182fd5b600082357fffffffffffffffffffffffffffffffffffffffffffffffffffffffffffffffc1833603018112611212578182fd5b60008219821115611295576112956112ea565b500190565b6000828210156112ac576112ac6112ea565b500390565b60007fffffffffffffffffffffffffffffffffffffffffffffffffffffffffffffffff8214156112e3576112e36112ea565b5060010190565b7f4e487b7100000000000000000000000000000000000000000000000000000000600052601160045260246000fdfea26469706673582212201110828c460068693e6184e18c014cbf8c7fc8788e5b140bab6e2c67c2dba36e64736f6c63430008040033",
  "linkReferences": {},
  "deployedLinkReferences": {}
}