{
  "_format": "hh-sol-artifact-1",
  "contractName": "MockVotingEscrow",
  "sourceName": "contracts/test/MockVotingEscrow.sol",
  "abi": [
    {
      "inputs": [
        {
          "internalType": "address",
          "name": "addr",
          "type": "address"
        },
        {
          "internalType": "int128",
          "name": "slope",
          "type": "int128"
        },
        {
          "internalType": "uint256",
          "name": "end",
          "type": "uint256"
        }
      ],
      "name": "createLocksForUser",
      "outputs": [],
      "stateMutability": "nonpayable",
      "type": "function"
    },
    {
      "inputs": [
        {
          "internalType": "address",
          "name": "addr",
          "type": "address"
        }
      ],
      "name": "locks",
      "outputs": [
        {
          "internalType": "int128",
          "name": "",
          "type": "int128"
        },
        {
          "internalType": "uint256",
          "name": "",
          "type": "uint256"
        }
      ],
      "stateMutability": "view",
      "type": "function"
    },
    {
      "inputs": [
        {
          "internalType": "uint256",
          "name": "_total",
          "type": "uint256"
        }
      ],
      "name": "setTotalSupply",
      "outputs": [],
      "stateMutability": "nonpayable",
      "type": "function"
    },
    {
      "inputs": [
        {
          "internalType": "uint256",
          "name": "_timestamp",
          "type": "uint256"
        }
      ],
      "name": "totalSupplyAtTime",
      "outputs": [
        {
          "internalType": "uint256",
          "name": "",
          "type": "uint256"
        }
      ],
      "stateMutability": "view",
      "type": "function"
    },
    {
      "inputs": [],
      "name": "totalSupplySlope",
      "outputs": [
        {
          "internalType": "uint256",
          "name": "",
          "type": "uint256"
        }
      ],
      "stateMutability": "view",
      "type": "function"
    },
    {
      "inputs": [
        {
          "internalType": "address",
          "name": "user",
          "type": "address"
        }
      ],
      "name": "userInfo",
      "outputs": [
        {
          "internalType": "address",
          "name": "",
          "type": "address"
        },
        {
          "internalType": "uint128",
          "name": "",
          "type": "uint128"
        },
        {
          "internalType": "uint48",
          "name": "",
          "type": "uint48"
        },
        {
          "internalType": "uint48",
          "name": "",
          "type": "uint48"
        },
        {
          "internalType": "uint16",
          "name": "",
          "type": "uint16"
        },
        {
          "internalType": "uint16",
          "name": "",
          "type": "uint16"
        }
      ],
      "stateMutability": "view",
      "type": "function"
    },
    {
      "inputs": [
        {
          "internalType": "address",
          "name": "",
          "type": "address"
        }
      ],
      "name": "userLockEnd",
      "outputs": [
        {
          "internalType": "uint256",
          "name": "",
          "type": "uint256"
        }
      ],
      "stateMutability": "view",
      "type": "function"
    },
    {
      "inputs": [
        {
          "internalType": "address",
          "name": "",
          "type": "address"
        }
      ],
      "name": "userSlope",
      "outputs": [
        {
          "internalType": "int128",
          "name": "",
          "type": "int128"
        }
      ],
      "stateMutability": "view",
      "type": "function"
    }
  ],
  "bytecode": "0x608060405234801561001057600080fd5b50610338806100206000396000f3fe608060405234801561001057600080fd5b50600436106100885760003560e01c8063914c504e1161005b578063914c504e146101bc578063c1b87559146101c4578063d2dcd93314610201578063f7ea7a3d1461021e57610088565b80631959a0021461008d578063321bae9f146101075780635de9a1371461013f5780638309408d14610185575b600080fd5b6100b3600480360360208110156100a357600080fd5b50356001600160a01b031661023b565b604080516001600160a01b0390971687526001600160801b03909516602087015265ffffffffffff9384168686015291909216606085015261ffff91821660808501521660a0830152519081900360c00190f35b61012d6004803603602081101561011d57600080fd5b50356001600160a01b031661024b565b60408051918252519081900360200190f35b6101656004803603602081101561015557600080fd5b50356001600160a01b031661025d565b6040518083600f0b81526020018281526020019250505060405180910390f35b6101ba6004803603606081101561019b57600080fd5b506001600160a01b03813516906020810135600f0b906040013561028a565b005b61012d6102db565b6101ea600480360360208110156101da57600080fd5b50356001600160a01b03166102e1565b60408051600f9290920b8252519081900360200190f35b61012d6004803603602081101561021757600080fd5b50356102f6565b6101ba6004803603602081101561023457600080fd5b50356102fd565b6000808080808091939550919395565b60026020526000908152604090205481565b6001600160a01b0316600090815260016020908152604080832054600290925290912054600f9190910b91565b6001600160a01b0390921660009081526001602090815260408083208054600f9590950b6001600160801b03166fffffffffffffffffffffffffffffffff1990951694909417909355600290522055565b60005481565b600160205260009081526040902054600f0b81565b5060005490565b60005556fea26469706673582212203f7366c4fc5070d5e9b05f3a75bf4f1abdc0811815f977d7213f268af66df33364736f6c634300060c0033",
  "linkReferences": {},
  "deployedLinkReferences": {}
}