{
  "_format": "hh-sol-artifact-1",
  "contractName": "GaugeVotingAdminUtil",
  "sourceName": "contracts/GaugeVotingAdminUtil.sol",
  "abi": [
    {
      "anonymous": false,
      "inputs": [
        {
          "indexed": true,
          "internalType": "address",
          "name": "sender",
          "type": "address"
        },
        {
          "indexed": true,
          "internalType": "address",
          "name": "gaugeVotingAddress",
          "type": "address"
        }
      ],
      "name": "GaugeVotingAddressUpdated",
      "type": "event"
    },
    {
      "anonymous": false,
      "inputs": [
        {
          "indexed": true,
          "internalType": "address",
          "name": "previousOwner",
          "type": "address"
        },
        {
          "indexed": true,
          "internalType": "address",
          "name": "newOwner",
          "type": "address"
        }
      ],
      "name": "OwnershipTransferred",
      "type": "event"
    },
    {
      "inputs": [
        {
          "internalType": "uint256",
          "name": "_startGaugeId",
          "type": "uint256"
        },
        {
          "internalType": "uint256",
          "name": "_endGaugeId",
          "type": "uint256"
        }
      ],
      "name": "checkPointGaugesBulk",
      "outputs": [],
      "stateMutability": "nonpayable",
      "type": "function"
    },
    {
      "inputs": [],
      "name": "gaugeVotingAddress",
      "outputs": [
        {
          "internalType": "address",
          "name": "",
          "type": "address"
        }
      ],
      "stateMutability": "view",
      "type": "function"
    },
    {
      "inputs": [
        {
          "internalType": "uint256",
          "name": "_gaugeId",
          "type": "uint256"
        }
      ],
      "name": "getGaugeHashFromId",
      "outputs": [
        {
          "internalType": "bytes32",
          "name": "hash",
          "type": "bytes32"
        }
      ],
      "stateMutability": "view",
      "type": "function"
    },
    {
      "inputs": [
        {
          "internalType": "address",
          "name": "pairAddress",
          "type": "address"
        },
        {
          "internalType": "uint256",
          "name": "chainId",
          "type": "uint256"
        }
      ],
      "name": "getGaugeHashFromPairAndChain",
      "outputs": [
        {
          "internalType": "bytes32",
          "name": "hash",
          "type": "bytes32"
        }
      ],
      "stateMutability": "view",
      "type": "function"
    },
    {
      "inputs": [
        {
          "internalType": "bytes32",
          "name": "_hash",
          "type": "bytes32"
        }
      ],
      "name": "getGaugeInfoFull",
      "outputs": [
        {
          "internalType": "uint256",
          "name": "gaugeId",
          "type": "uint256"
        },
        {
          "internalType": "uint256",
          "name": "gaugeTypeId",
          "type": "uint256"
        },
        {
          "internalType": "uint256",
          "name": "pid",
          "type": "uint256"
        },
        {
          "internalType": "address",
          "name": "masterChef",
          "type": "address"
        },
        {
          "internalType": "uint256",
          "name": "chainId",
          "type": "uint256"
        },
        {
          "internalType": "address",
          "name": "pairAddress",
          "type": "address"
        },
        {
          "internalType": "uint256",
          "name": "boostMultiplier",
          "type": "uint256"
        },
        {
          "internalType": "uint256",
          "name": "maxVoteCap",
          "type": "uint256"
        }
      ],
      "stateMutability": "view",
      "type": "function"
    },
    {
      "inputs": [],
      "name": "owner",
      "outputs": [
        {
          "internalType": "address",
          "name": "",
          "type": "address"
        }
      ],
      "stateMutability": "view",
      "type": "function"
    },
    {
      "inputs": [],
      "name": "renounceOwnership",
      "outputs": [],
      "stateMutability": "nonpayable",
      "type": "function"
    },
    {
      "inputs": [
        {
          "internalType": "address",
          "name": "newOwner",
          "type": "address"
        }
      ],
      "name": "transferOwnership",
      "outputs": [],
      "stateMutability": "nonpayable",
      "type": "function"
    },
    {
      "inputs": [
        {
          "internalType": "address",
          "name": "_newAddress",
          "type": "address"
        }
      ],
      "name": "updateGaugeVotingAddress",
      "outputs": [],
      "stateMutability": "nonpayable",
      "type": "function"
    }
  ],
  "bytecode": "0x608060405234801561001057600080fd5b5061001a3361001f565b61006f565b600080546001600160a01b038381166001600160a01b0319831681178455604051919092169283917f8be0079c531659141344cd1fd0a4f28419497f9722a3daafe3b4186f6b6457e09190a35050565b6109aa8061007e6000396000f3fe608060405234801561001057600080fd5b50600436106100935760003560e01c80639734e68e116100665780639734e68e14610139578063abb5682f1461014c578063cabaecdd1461015f578063d4da2b1c14610180578063f2fde38b146101d557600080fd5b8063715018a614610098578063851967d7146100a25780638da5cb5b146100b557806396c0c6a7146100df575b600080fd5b6100a06101e8565b005b6100a06100b03660046107f4565b610227565b6000546001600160a01b03165b6040516001600160a01b0390911681526020015b60405180910390f35b6100f26100ed366004610818565b6102f3565b604080519889526020890197909752958701949094526001600160a01b03928316606087015260808601919091521660a084015260c083015260e0820152610100016100d6565b6001546100c2906001600160a01b031681565b6100a061015a366004610831565b610491565b61017261016d366004610818565b61062d565b6040519081526020016100d6565b61017261018e366004610853565b6040516bffffffffffffffffffffffff19606084901b1660208201526034810182905260009060540160405160208183030381529060405280519060200120905092915050565b6100a06101e33660046107f4565b6106f4565b6000546001600160a01b0316331461021b5760405162461bcd60e51b81526004016102129061087f565b60405180910390fd5b610225600061078f565b565b6000546001600160a01b031633146102515760405162461bcd60e51b81526004016102129061087f565b6001600160a01b0381166102a75760405162461bcd60e51b815260206004820152601b60248201527f616464726573732073686f756c64206e6f7420626520656d70747900000000006044820152606401610212565b600180546001600160a01b0319166001600160a01b03831690811790915560405133907f1582f7bc4869aa4d7e965fa35c5b05b5936463478b43fb3f8af06f0ade98c3ee90600090a350565b60008060008060008060008060018060009054906101000a90046001600160a01b03166001600160a01b0316634bc8ac048b6040518263ffffffff1660e01b815260040161034391815260200190565b602060405180830381865afa158015610360573d6000803e3d6000fd5b505050506040513d601f19601f8201168201806040525081019061038491906108b4565b61038e91906108e3565b60018054604051631af6581360e01b8152600481018d9052929a5090916001600160a01b0390911690631af6581390602401602060405180830381865afa1580156103dd573d6000803e3d6000fd5b505050506040513d601f19601f8201168201806040525081019061040191906108b4565b61040b91906108e3565b60015460405163b053918760e01b8152600481018b90529198506001600160a01b03169063b05391879060240160c060405180830381865afa158015610455573d6000803e3d6000fd5b505050506040513d601f19601f8201168201806040525081019061047991906108fc565b9c9e9b9d50939b929a91995097509195509350915050565b8115801561049d575080155b156105275760018060009054906101000a90046001600160a01b03166001600160a01b031663a64400826040518163ffffffff1660e01b8152600401602060405180830381865afa1580156104f6573d6000803e3d6000fd5b505050506040513d601f19601f8201168201806040525081019061051a91906108b4565b61052491906108e3565b90505b815b8181116106285760015460405163b053918760e01b81526004810183905260009182916001600160a01b039091169063b05391879060240160c060405180830381865afa15801561057e573d6000803e3d6000fd5b505050506040513d601f19601f820116820180604052508101906105a291906108fc565b505060015460405163471cc92760e01b81526001600160a01b0380841660048301526024820185905293975091955091909116925063471cc9279150604401600060405180830381600087803b1580156105fb57600080fd5b505af115801561060f573d6000803e3d6000fd5b50505050505080806106209061095b565b915050610529565b505050565b60015460405163b053918760e01b815260048101839052600091829182916001600160a01b03169063b05391879060240160c060405180830381865afa15801561067b573d6000803e3d6000fd5b505050506040513d601f19601f8201168201806040525081019061069f91906108fc565b50506040516bffffffffffffffffffffffff19606083901b16602082015260348101839052919550935060540191506106d59050565b6040516020818303038152906040528051906020012092505050919050565b6000546001600160a01b0316331461071e5760405162461bcd60e51b81526004016102129061087f565b6001600160a01b0381166107835760405162461bcd60e51b815260206004820152602660248201527f4f776e61626c653a206e6577206f776e657220697320746865207a65726f206160448201526564647265737360d01b6064820152608401610212565b61078c8161078f565b50565b600080546001600160a01b038381166001600160a01b0319831681178455604051919092169283917f8be0079c531659141344cd1fd0a4f28419497f9722a3daafe3b4186f6b6457e09190a35050565b6001600160a01b038116811461078c57600080fd5b60006020828403121561080657600080fd5b8135610811816107df565b9392505050565b60006020828403121561082a57600080fd5b5035919050565b6000806040838503121561084457600080fd5b50508035926020909101359150565b6000806040838503121561086657600080fd5b8235610871816107df565b946020939093013593505050565b6020808252818101527f4f776e61626c653a2063616c6c6572206973206e6f7420746865206f776e6572604082015260600190565b6000602082840312156108c657600080fd5b5051919050565b634e487b7160e01b600052601160045260246000fd5b818103818111156108f6576108f66108cd565b92915050565b60008060008060008060c0878903121561091557600080fd5b865195506020870151610927816107df565b60408801516060890151919650945061093f816107df565b809350506080870151915060a087015190509295509295509295565b60006001820161096d5761096d6108cd565b506001019056fea26469706673582212200b804df96e251f1b9446aa2a78c86942dd55f0bcd15e41bf4b890f19005b30ed64736f6c63430008110033",
  "linkReferences": {},
  "deployedLinkReferences": {}
}