{
  "_format": "hh-sol-artifact-1",
  "contractName": "MockERC1155Mintable",
  "sourceName": "contracts/utils/MockERC1155Mintable.sol",
  "abi": [
    {
      "inputs": [],
      "stateMutability": "nonpayable",
      "type": "constructor"
    },
    {
      "anonymous": false,
      "inputs": [
        {
          "indexed": true,
          "internalType": "address",
          "name": "account",
          "type": "address"
        },
        {
          "indexed": true,
          "internalType": "address",
          "name": "operator",
          "type": "address"
        },
        {
          "indexed": false,
          "internalType": "bool",
          "name": "approved",
          "type": "bool"
        }
      ],
      "name": "ApprovalForAll",
      "type": "event"
    },
    {
      "anonymous": false,
      "inputs": [
        {
          "indexed": true,
          "internalType": "address",
          "name": "operator",
          "type": "address"
        },
        {
          "indexed": true,
          "internalType": "address",
          "name": "from",
          "type": "address"
        },
        {
          "indexed": true,
          "internalType": "address",
          "name": "to",
          "type": "address"
        },
        {
          "indexed": false,
          "internalType": "uint256[]",
          "name": "ids",
          "type": "uint256[]"
        },
        {
          "indexed": false,
          "internalType": "uint256[]",
          "name": "values",
          "type": "uint256[]"
        }
      ],
      "name": "TransferBatch",
      "type": "event"
    },
    {
      "anonymous": false,
      "inputs": [
        {
          "indexed": true,
          "internalType": "address",
          "name": "operator",
          "type": "address"
        },
        {
          "indexed": true,
          "internalType": "address",
          "name": "from",
          "type": "address"
        },
        {
          "indexed": true,
          "internalType": "address",
          "name": "to",
          "type": "address"
        },
        {
          "indexed": false,
          "internalType": "uint256",
          "name": "id",
          "type": "uint256"
        },
        {
          "indexed": false,
          "internalType": "uint256",
          "name": "value",
          "type": "uint256"
        }
      ],
      "name": "TransferSingle",
      "type": "event"
    },
    {
      "anonymous": false,
      "inputs": [
        {
          "indexed": false,
          "internalType": "string",
          "name": "value",
          "type": "string"
        },
        {
          "indexed": true,
          "internalType": "uint256",
          "name": "id",
          "type": "uint256"
        }
      ],
      "name": "URI",
      "type": "event"
    },
    {
      "inputs": [
        {
          "internalType": "address",
          "name": "account",
          "type": "address"
        },
        {
          "internalType": "uint256",
          "name": "id",
          "type": "uint256"
        }
      ],
      "name": "balanceOf",
      "outputs": [
        {
          "internalType": "uint256",
          "name": "",
          "type": "uint256"
        }
      ],
      "stateMutability": "view",
      "type": "function"
    },
    {
      "inputs": [
        {
          "internalType": "address[]",
          "name": "accounts",
          "type": "address[]"
        },
        {
          "internalType": "uint256[]",
          "name": "ids",
          "type": "uint256[]"
        }
      ],
      "name": "balanceOfBatch",
      "outputs": [
        {
          "internalType": "uint256[]",
          "name": "",
          "type": "uint256[]"
        }
      ],
      "stateMutability": "view",
      "type": "function"
    },
    {
      "inputs": [
        {
          "internalType": "address",
          "name": "account",
          "type": "address"
        },
        {
          "internalType": "address",
          "name": "operator",
          "type": "address"
        }
      ],
      "name": "isApprovedForAll",
      "outputs": [
        {
          "internalType": "bool",
          "name": "",
          "type": "bool"
        }
      ],
      "stateMutability": "view",
      "type": "function"
    },
    {
      "inputs": [
        {
          "internalType": "address",
          "name": "to",
          "type": "address"
        },
        {
          "internalType": "uint256",
          "name": "tokenId",
          "type": "uint256"
        },
        {
          "internalType": "uint256",
          "name": "amount",
          "type": "uint256"
        }
      ],
      "name": "mint",
      "outputs": [],
      "stateMutability": "nonpayable",
      "type": "function"
    },
    {
      "inputs": [
        {
          "internalType": "address",
          "name": "from",
          "type": "address"
        },
        {
          "internalType": "address",
          "name": "to",
          "type": "address"
        },
        {
          "internalType": "uint256[]",
          "name": "ids",
          "type": "uint256[]"
        },
        {
          "internalType": "uint256[]",
          "name": "amounts",
          "type": "uint256[]"
        },
        {
          "internalType": "bytes",
          "name": "data",
          "type": "bytes"
        }
      ],
      "name": "safeBatchTransferFrom",
      "outputs": [],
      "stateMutability": "nonpayable",
      "type": "function"
    },
    {
      "inputs": [
        {
          "internalType": "address",
          "name": "from",
          "type": "address"
        },
        {
          "internalType": "address",
          "name": "to",
          "type": "address"
        },
        {
          "internalType": "uint256",
          "name": "id",
          "type": "uint256"
        },
        {
          "internalType": "uint256",
          "name": "amount",
          "type": "uint256"
        },
        {
          "internalType": "bytes",
          "name": "data",
          "type": "bytes"
        }
      ],
      "name": "safeTransferFrom",
      "outputs": [],
      "stateMutability": "nonpayable",
      "type": "function"
    },
    {
      "inputs": [
        {
          "internalType": "address",
          "name": "operator",
          "type": "address"
        },
        {
          "internalType": "bool",
          "name": "approved",
          "type": "bool"
        }
      ],
      "name": "setApprovalForAll",
      "outputs": [],
      "stateMutability": "nonpayable",
      "type": "function"
    },
    {
      "inputs": [
        {
          "internalType": "bytes4",
          "name": "interfaceId",
          "type": "bytes4"
        }
      ],
      "name": "supportsInterface",
      "outputs": [
        {
          "internalType": "bool",
          "name": "",
          "type": "bool"
        }
      ],
      "stateMutability": "view",
      "type": "function"
    },
    {
      "inputs": [
        {
          "internalType": "uint256",
          "name": "",
          "type": "uint256"
        }
      ],
      "name": "uri",
      "outputs": [
        {
          "internalType": "string",
          "name": "",
          "type": "string"
        }
      ],
      "stateMutability": "view",
      "type": "function"
    }
  ],
  "bytecode": "0x60806040523480156200001157600080fd5b506040805160208101909152600081526200002c8162000033565b506200012f565b8051620000489060029060208401906200004c565b5050565b8280546200005a90620000f2565b90600052602060002090601f0160209004810192826200007e5760008555620000c9565b82601f106200009957805160ff1916838001178555620000c9565b82800160010185558215620000c9579182015b82811115620000c9578251825591602001919060010190620000ac565b50620000d7929150620000db565b5090565b5b80821115620000d75760008155600101620000dc565b600181811c908216806200010757607f821691505b602082108114156200012957634e487b7160e01b600052602260045260246000fd5b50919050565b611d48806200013f6000396000f3fe608060405234801561001057600080fd5b50600436106100a25760003560e01c80632eb2c2d611610076578063a22cb4651161005b578063a22cb46514610158578063e985e9c51461016b578063f242432a146101b457600080fd5b80632eb2c2d6146101255780634e1273f41461013857600080fd5b8062fdd58e146100a757806301ffc9a7146100cd5780630e89341c146100f0578063156e29f614610110575b600080fd5b6100ba6100b5366004611780565b6101c7565b6040519081526020015b60405180910390f35b6100e06100db3660046118a6565b6102a4565b60405190151581526020016100c4565b6101036100fe3660046118e5565b610389565b6040516100c49190611a9c565b61012361011e3660046117a9565b61041d565b005b61012361013336600461163d565b61043d565b61014b6101463660046117db565b610506565b6040516100c49190611a5b565b610123610166366004611746565b6106fa565b6100e061017936600461160b565b73ffffffffffffffffffffffffffffffffffffffff918216600090815260016020908152604080832093909416825291909152205460ff1690565b6101236101c23660046116e3565b610837565b600073ffffffffffffffffffffffffffffffffffffffff8316610271576040517f08c379a000000000000000000000000000000000000000000000000000000000815260206004820152602b60248201527f455243313135353a2062616c616e636520717565727920666f7220746865207a60448201527f65726f206164647265737300000000000000000000000000000000000000000060648201526084015b60405180910390fd5b5060009081526020818152604080832073ffffffffffffffffffffffffffffffffffffffff949094168352929052205490565b60007fffffffff0000000000000000000000000000000000000000000000000000000082167fd9b67a2600000000000000000000000000000000000000000000000000000000148061033757507fffffffff0000000000000000000000000000000000000000000000000000000082167f0e89341c00000000000000000000000000000000000000000000000000000000145b8061038357507f01ffc9a7000000000000000000000000000000000000000000000000000000007fffffffff000000000000000000000000000000000000000000000000000000008316145b92915050565b60606002805461039890611aeb565b80601f01602080910402602001604051908101604052809291908181526020018280546103c490611aeb565b80156104115780601f106103e657610100808354040283529160200191610411565b820191906000526020600020905b8154815290600101906020018083116103f457829003601f168201915b50505050509050919050565b610438838383604051806020016040528060008152506108f9565b505050565b73ffffffffffffffffffffffffffffffffffffffff851633148061046657506104668533610179565b6104f2576040517f08c379a000000000000000000000000000000000000000000000000000000000815260206004820152603260248201527f455243313135353a207472616e736665722063616c6c6572206973206e6f742060448201527f6f776e6572206e6f7220617070726f76656400000000000000000000000000006064820152608401610268565b6104ff8585858585610a60565b5050505050565b60608151835114610599576040517f08c379a000000000000000000000000000000000000000000000000000000000815260206004820152602960248201527f455243313135353a206163636f756e747320616e6420696473206c656e67746860448201527f206d69736d6174636800000000000000000000000000000000000000000000006064820152608401610268565b6000835167ffffffffffffffff8111156105dc577f4e487b7100000000000000000000000000000000000000000000000000000000600052604160045260246000fd5b604051908082528060200260200182016040528015610605578160200160208202803683370190505b50905060005b84518110156106f25761069e858281518110610650577f4e487b7100000000000000000000000000000000000000000000000000000000600052603260045260246000fd5b6020026020010151858381518110610691577f4e487b7100000000000000000000000000000000000000000000000000000000600052603260045260246000fd5b60200260200101516101c7565b8282815181106106d7577f4e487b7100000000000000000000000000000000000000000000000000000000600052603260045260246000fd5b60209081029190910101526106eb81611b8a565b905061060b565b509392505050565b3373ffffffffffffffffffffffffffffffffffffffff831614156107a0576040517f08c379a000000000000000000000000000000000000000000000000000000000815260206004820152602960248201527f455243313135353a2073657474696e6720617070726f76616c2073746174757360448201527f20666f722073656c6600000000000000000000000000000000000000000000006064820152608401610268565b33600081815260016020908152604080832073ffffffffffffffffffffffffffffffffffffffff87168085529083529281902080547fffffffffffffffffffffffffffffffffffffffffffffffffffffffffffffff001686151590811790915590519081529192917f17307eab39ab6107e8899845ad3d59bd9653f200f220920489ca2b5937696c31910160405180910390a35050565b73ffffffffffffffffffffffffffffffffffffffff851633148061086057506108608533610179565b6108ec576040517f08c379a000000000000000000000000000000000000000000000000000000000815260206004820152602960248201527f455243313135353a2063616c6c6572206973206e6f74206f776e6572206e6f7260448201527f20617070726f76656400000000000000000000000000000000000000000000006064820152608401610268565b6104ff8585858585610de8565b73ffffffffffffffffffffffffffffffffffffffff841661099c576040517f08c379a000000000000000000000000000000000000000000000000000000000815260206004820152602160248201527f455243313135353a206d696e7420746f20746865207a65726f2061646472657360448201527f73000000000000000000000000000000000000000000000000000000000000006064820152608401610268565b336109b6816000876109ad88611019565b6104ff88611019565b60008481526020818152604080832073ffffffffffffffffffffffffffffffffffffffff89168452909152812080548592906109f3908490611ad3565b9091555050604080518581526020810185905273ffffffffffffffffffffffffffffffffffffffff80881692600092918516917fc3d58168c5ae7397731d063d5bbf3d657854427343f4c083240f7aacaa2d0f62910160405180910390a46104ff8160008787878761108b565b8151835114610af1576040517f08c379a000000000000000000000000000000000000000000000000000000000815260206004820152602860248201527f455243313135353a2069647320616e6420616d6f756e7473206c656e6774682060448201527f6d69736d617463680000000000000000000000000000000000000000000000006064820152608401610268565b73ffffffffffffffffffffffffffffffffffffffff8416610b94576040517f08c379a000000000000000000000000000000000000000000000000000000000815260206004820152602560248201527f455243313135353a207472616e7366657220746f20746865207a65726f20616460448201527f64726573730000000000000000000000000000000000000000000000000000006064820152608401610268565b3360005b8451811015610d53576000858281518110610bdc577f4e487b7100000000000000000000000000000000000000000000000000000000600052603260045260246000fd5b602002602001015190506000858381518110610c21577f4e487b7100000000000000000000000000000000000000000000000000000000600052603260045260246000fd5b6020908102919091018101516000848152808352604080822073ffffffffffffffffffffffffffffffffffffffff8e168352909352919091205490915081811015610cee576040517f08c379a000000000000000000000000000000000000000000000000000000000815260206004820152602a60248201527f455243313135353a20696e73756666696369656e742062616c616e636520666f60448201527f72207472616e73666572000000000000000000000000000000000000000000006064820152608401610268565b60008381526020818152604080832073ffffffffffffffffffffffffffffffffffffffff8e8116855292528083208585039055908b16825281208054849290610d38908490611ad3565b9250508190555050505080610d4c90611b8a565b9050610b98565b508473ffffffffffffffffffffffffffffffffffffffff168673ffffffffffffffffffffffffffffffffffffffff168273ffffffffffffffffffffffffffffffffffffffff167f4a39dc06d4c0dbc64b70af90fd698a233a518aa5d07e595d983b8c0526c8f7fb8787604051610dca929190611a6e565b60405180910390a4610de0818787878787611325565b505050505050565b73ffffffffffffffffffffffffffffffffffffffff8416610e8b576040517f08c379a000000000000000000000000000000000000000000000000000000000815260206004820152602560248201527f455243313135353a207472616e7366657220746f20746865207a65726f20616460448201527f64726573730000000000000000000000000000000000000000000000000000006064820152608401610268565b33610e9b8187876109ad88611019565b60008481526020818152604080832073ffffffffffffffffffffffffffffffffffffffff8a16845290915290205483811015610f59576040517f08c379a000000000000000000000000000000000000000000000000000000000815260206004820152602a60248201527f455243313135353a20696e73756666696369656e742062616c616e636520666f60448201527f72207472616e73666572000000000000000000000000000000000000000000006064820152608401610268565b60008581526020818152604080832073ffffffffffffffffffffffffffffffffffffffff8b8116855292528083208785039055908816825281208054869290610fa3908490611ad3565b9091555050604080518681526020810186905273ffffffffffffffffffffffffffffffffffffffff808916928a821692918616917fc3d58168c5ae7397731d063d5bbf3d657854427343f4c083240f7aacaa2d0f62910160405180910390a461101082888888888861108b565b50505050505050565b6040805160018082528183019092526060916000919060208083019080368337019050509050828160008151811061107a577f4e487b7100000000000000000000000000000000000000000000000000000000600052603260045260246000fd5b602090810291909101015292915050565b73ffffffffffffffffffffffffffffffffffffffff84163b15610de0576040517ff23a6e6100000000000000000000000000000000000000000000000000000000815273ffffffffffffffffffffffffffffffffffffffff85169063f23a6e61906111029089908990889088908890600401611a0b565b602060405180830381600087803b15801561111c57600080fd5b505af192505050801561116a575060408051601f3d9081017fffffffffffffffffffffffffffffffffffffffffffffffffffffffffffffffe0168201909252611167918101906118c9565b60015b61125457611176611c21565b806308c379a014156111ca575061118b611c39565b8061119657506111cc565b806040517f08c379a00000000000000000000000000000000000000000000000000000000081526004016102689190611a9c565b505b6040517f08c379a000000000000000000000000000000000000000000000000000000000815260206004820152603460248201527f455243313135353a207472616e7366657220746f206e6f6e204552433131353560448201527f526563656976657220696d706c656d656e7465720000000000000000000000006064820152608401610268565b7fffffffff0000000000000000000000000000000000000000000000000000000081167ff23a6e610000000000000000000000000000000000000000000000000000000014611010576040517f08c379a000000000000000000000000000000000000000000000000000000000815260206004820152602860248201527f455243313135353a204552433131353552656365697665722072656a6563746560448201527f6420746f6b656e730000000000000000000000000000000000000000000000006064820152608401610268565b73ffffffffffffffffffffffffffffffffffffffff84163b15610de0576040517fbc197c8100000000000000000000000000000000000000000000000000000000815273ffffffffffffffffffffffffffffffffffffffff85169063bc197c819061139c90899089908890889088906004016119a0565b602060405180830381600087803b1580156113b657600080fd5b505af1925050508015611404575060408051601f3d9081017fffffffffffffffffffffffffffffffffffffffffffffffffffffffffffffffe0168201909252611401918101906118c9565b60015b61141057611176611c21565b7fffffffff0000000000000000000000000000000000000000000000000000000081167fbc197c810000000000000000000000000000000000000000000000000000000014611010576040517f08c379a000000000000000000000000000000000000000000000000000000000815260206004820152602860248201527f455243313135353a204552433131353552656365697665722072656a6563746560448201527f6420746f6b656e730000000000000000000000000000000000000000000000006064820152608401610268565b803573ffffffffffffffffffffffffffffffffffffffff8116811461150557600080fd5b919050565b600082601f83011261151a578081fd5b8135602061152782611aaf565b6040516115348282611b3f565b8381528281019150858301600585901b87018401881015611553578586fd5b855b8581101561157157813584529284019290840190600101611555565b5090979650505050505050565b600082601f83011261158e578081fd5b813567ffffffffffffffff8111156115a8576115a8611bf2565b6040516115dd60207fffffffffffffffffffffffffffffffffffffffffffffffffffffffffffffffe0601f8501160182611b3f565b8181528460208386010111156115f1578283fd5b816020850160208301379081016020019190915292915050565b6000806040838503121561161d578182fd5b611626836114e1565b9150611634602084016114e1565b90509250929050565b600080600080600060a08688031215611654578081fd5b61165d866114e1565b945061166b602087016114e1565b9350604086013567ffffffffffffffff80821115611687578283fd5b61169389838a0161150a565b945060608801359150808211156116a8578283fd5b6116b489838a0161150a565b935060808801359150808211156116c9578283fd5b506116d68882890161157e565b9150509295509295909350565b600080600080600060a086880312156116fa578081fd5b611703866114e1565b9450611711602087016114e1565b93506040860135925060608601359150608086013567ffffffffffffffff81111561173a578182fd5b6116d68882890161157e565b60008060408385031215611758578182fd5b611761836114e1565b915060208301358015158114611775578182fd5b809150509250929050565b60008060408385031215611792578182fd5b61179b836114e1565b946020939093013593505050565b6000806000606084860312156117bd578283fd5b6117c6846114e1565b95602085013595506040909401359392505050565b600080604083850312156117ed578182fd5b823567ffffffffffffffff80821115611804578384fd5b818501915085601f830112611817578384fd5b8135602061182482611aaf565b6040516118318282611b3f565b8381528281019150858301600585901b870184018b1015611850578889fd5b8896505b8487101561187957611865816114e1565b835260019690960195918301918301611854565b509650508601359250508082111561188f578283fd5b5061189c8582860161150a565b9150509250929050565b6000602082840312156118b7578081fd5b81356118c281611ce1565b9392505050565b6000602082840312156118da578081fd5b81516118c281611ce1565b6000602082840312156118f6578081fd5b5035919050565b6000815180845260208085019450808401835b8381101561192c57815187529582019590820190600101611910565b509495945050505050565b60008151808452815b8181101561195c57602081850181015186830182015201611940565b8181111561196d5782602083870101525b50601f017fffffffffffffffffffffffffffffffffffffffffffffffffffffffffffffffe0169290920160200192915050565b600073ffffffffffffffffffffffffffffffffffffffff808816835280871660208401525060a060408301526119d960a08301866118fd565b82810360608401526119eb81866118fd565b905082810360808401526119ff8185611937565b98975050505050505050565b600073ffffffffffffffffffffffffffffffffffffffff808816835280871660208401525084604083015283606083015260a06080830152611a5060a0830184611937565b979650505050505050565b6020815260006118c260208301846118fd565b604081526000611a8160408301856118fd565b8281036020840152611a9381856118fd565b95945050505050565b6020815260006118c26020830184611937565b600067ffffffffffffffff821115611ac957611ac9611bf2565b5060051b60200190565b60008219821115611ae657611ae6611bc3565b500190565b600181811c90821680611aff57607f821691505b60208210811415611b39577f4e487b7100000000000000000000000000000000000000000000000000000000600052602260045260246000fd5b50919050565b7fffffffffffffffffffffffffffffffffffffffffffffffffffffffffffffffe0601f830116810181811067ffffffffffffffff82111715611b8357611b83611bf2565b6040525050565b60007fffffffffffffffffffffffffffffffffffffffffffffffffffffffffffffffff821415611bbc57611bbc611bc3565b5060010190565b7f4e487b7100000000000000000000000000000000000000000000000000000000600052601160045260246000fd5b7f4e487b7100000000000000000000000000000000000000000000000000000000600052604160045260246000fd5b600060033d1115611c3657600481823e5160e01c5b90565b600060443d1015611c475790565b6040517ffffffffffffffffffffffffffffffffffffffffffffffffffffffffffffffffc803d016004833e81513d67ffffffffffffffff8160248401118184111715611c9557505050505090565b8285019150815181811115611cad5750505050505090565b843d8701016020828501011115611cc75750505050505090565b611cd660208286010187611b3f565b509095945050505050565b7fffffffff0000000000000000000000000000000000000000000000000000000081168114611d0f57600080fd5b5056fea26469706673582212209ee41eea801f3c9498a820b31038d7a508b211f26aad91266bf042f8a1c3245f64736f6c63430008040033",
  "linkReferences": {},
  "deployedLinkReferences": {}
}