{
  "contracts/FarmBooster.sol": {
    "FarmBooster": {
      "abi": [
        {
          "inputs": [
            {
              "internalType": "address",
              "name": "_VECake",
              "type": "address"
            },
            {
              "internalType": "contract IMasterChefV3",
              "name": "_v3",
              "type": "address"
            },
            {
              "internalType": "uint256",
              "name": "_cA",
              "type": "uint256"
            },
            {
              "internalType": "uint256",
              "name": "_cB",
              "type": "uint256"
            }
          ],
          "stateMutability": "nonpayable",
          "type": "constructor"
        },
        {
          "anonymous": false,
          "inputs": [
            {
              "indexed": true,
              "internalType": "address",
              "name": "previousOwner",
              "type": "address"
            },
            {
              "indexed": true,
              "internalType": "address",
              "name": "newOwner",
              "type": "address"
            }
          ],
          "name": "OwnershipTransferred",
          "type": "event"
        },
        {
          "anonymous": false,
          "inputs": [
            {
              "indexed": false,
              "internalType": "uint256",
              "name": "pid",
              "type": "uint256"
            },
            {
              "indexed": false,
              "internalType": "bool",
              "name": "status",
              "type": "bool"
            }
          ],
          "name": "UpdateBoostFarms",
          "type": "event"
        },
        {
          "anonymous": false,
          "inputs": [
            {
              "indexed": false,
              "internalType": "uint256",
              "name": "oldCA",
              "type": "uint256"
            },
            {
              "indexed": false,
              "internalType": "uint256",
              "name": "newCA",
              "type": "uint256"
            }
          ],
          "name": "UpdateCA",
          "type": "event"
        },
        {
          "anonymous": false,
          "inputs": [
            {
              "indexed": false,
              "internalType": "uint256",
              "name": "oldCB",
              "type": "uint256"
            },
            {
              "indexed": false,
              "internalType": "uint256",
              "name": "newCB",
              "type": "uint256"
            }
          ],
          "name": "UpdateCB",
          "type": "event"
        },
        {
          "anonymous": false,
          "inputs": [
            {
              "indexed": false,
              "internalType": "uint256",
              "name": "pid",
              "type": "uint256"
            },
            {
              "indexed": false,
              "internalType": "uint256",
              "name": "oldCB",
              "type": "uint256"
            },
            {
              "indexed": false,
              "internalType": "uint256",
              "name": "newCB",
              "type": "uint256"
            }
          ],
          "name": "UpdateCBOverride",
          "type": "event"
        },
        {
          "anonymous": false,
          "inputs": [
            {
              "indexed": true,
              "internalType": "address",
              "name": "user",
              "type": "address"
            },
            {
              "indexed": true,
              "internalType": "uint256",
              "name": "pid",
              "type": "uint256"
            },
            {
              "indexed": true,
              "internalType": "uint256",
              "name": "tokenId",
              "type": "uint256"
            },
            {
              "indexed": false,
              "internalType": "uint256",
              "name": "oldMultiplier",
              "type": "uint256"
            },
            {
              "indexed": false,
              "internalType": "uint256",
              "name": "newMultiplier",
              "type": "uint256"
            }
          ],
          "name": "UpdatePoolBoostMultiplier",
          "type": "event"
        },
        {
          "anonymous": false,
          "inputs": [
            {
              "indexed": false,
              "internalType": "address",
              "name": "VECakeCaller",
              "type": "address"
            }
          ],
          "name": "UpdateVECakeCaller",
          "type": "event"
        },
        {
          "inputs": [],
          "name": "BOOST_PRECISION",
          "outputs": [
            {
              "internalType": "uint256",
              "name": "",
              "type": "uint256"
            }
          ],
          "stateMutability": "view",
          "type": "function"
        },
        {
          "inputs": [],
          "name": "CA_PRECISION",
          "outputs": [
            {
              "internalType": "uint256",
              "name": "",
              "type": "uint256"
            }
          ],
          "stateMutability": "view",
          "type": "function"
        },
        {
          "inputs": [],
          "name": "CB_PRECISION",
          "outputs": [
            {
              "internalType": "uint256",
              "name": "",
              "type": "uint256"
            }
          ],
          "stateMutability": "view",
          "type": "function"
        },
        {
          "inputs": [],
          "name": "MASTER_CHEF_V3",
          "outputs": [
            {
              "internalType": "contract IMasterChefV3",
              "name": "",
              "type": "address"
            }
          ],
          "stateMutability": "view",
          "type": "function"
        },
        {
          "inputs": [],
          "name": "MAX_BOOST_PRECISION",
          "outputs": [
            {
              "internalType": "uint256",
              "name": "",
              "type": "uint256"
            }
          ],
          "stateMutability": "view",
          "type": "function"
        },
        {
          "inputs": [],
          "name": "MAX_CA",
          "outputs": [
            {
              "internalType": "uint256",
              "name": "",
              "type": "uint256"
            }
          ],
          "stateMutability": "view",
          "type": "function"
        },
        {
          "inputs": [],
          "name": "MAX_CB",
          "outputs": [
            {
              "internalType": "uint256",
              "name": "",
              "type": "uint256"
            }
          ],
          "stateMutability": "view",
          "type": "function"
        },
        {
          "inputs": [],
          "name": "MIN_CA",
          "outputs": [
            {
              "internalType": "uint256",
              "name": "",
              "type": "uint256"
            }
          ],
          "stateMutability": "view",
          "type": "function"
        },
        {
          "inputs": [],
          "name": "MIN_CB",
          "outputs": [
            {
              "internalType": "uint256",
              "name": "",
              "type": "uint256"
            }
          ],
          "stateMutability": "view",
          "type": "function"
        },
        {
          "inputs": [],
          "name": "NonfungiblePositionManager",
          "outputs": [
            {
              "internalType": "contract INonfungiblePositionManager",
              "name": "",
              "type": "address"
            }
          ],
          "stateMutability": "view",
          "type": "function"
        },
        {
          "inputs": [],
          "name": "PancakeV3Factory",
          "outputs": [
            {
              "internalType": "contract IPancakeV3Factory",
              "name": "",
              "type": "address"
            }
          ],
          "stateMutability": "view",
          "type": "function"
        },
        {
          "inputs": [],
          "name": "VECake",
          "outputs": [
            {
              "internalType": "address",
              "name": "",
              "type": "address"
            }
          ],
          "stateMutability": "view",
          "type": "function"
        },
        {
          "inputs": [],
          "name": "VECakeCaller",
          "outputs": [
            {
              "internalType": "address",
              "name": "",
              "type": "address"
            }
          ],
          "stateMutability": "view",
          "type": "function"
        },
        {
          "inputs": [
            {
              "internalType": "address",
              "name": "_user",
              "type": "address"
            }
          ],
          "name": "activedPositions",
          "outputs": [
            {
              "internalType": "uint256[]",
              "name": "positions",
              "type": "uint256[]"
            }
          ],
          "stateMutability": "view",
          "type": "function"
        },
        {
          "inputs": [],
          "name": "cA",
          "outputs": [
            {
              "internalType": "uint256",
              "name": "",
              "type": "uint256"
            }
          ],
          "stateMutability": "view",
          "type": "function"
        },
        {
          "inputs": [],
          "name": "cB",
          "outputs": [
            {
              "internalType": "uint256",
              "name": "",
              "type": "uint256"
            }
          ],
          "stateMutability": "view",
          "type": "function"
        },
        {
          "inputs": [
            {
              "internalType": "uint256",
              "name": "",
              "type": "uint256"
            }
          ],
          "name": "cBOverride",
          "outputs": [
            {
              "internalType": "uint256",
              "name": "",
              "type": "uint256"
            }
          ],
          "stateMutability": "view",
          "type": "function"
        },
        {
          "inputs": [
            {
              "internalType": "address",
              "name": "_for",
              "type": "address"
            },
            {
              "internalType": "uint256",
              "name": "_amount",
              "type": "uint256"
            },
            {
              "internalType": "uint256",
              "name": "_unlockTime",
              "type": "uint256"
            },
            {
              "internalType": "int128",
              "name": "_prevLockedAmount",
              "type": "int128"
            },
            {
              "internalType": "uint256",
              "name": "_prevLockedEnd",
              "type": "uint256"
            },
            {
              "internalType": "uint256",
              "name": "_actionType",
              "type": "uint256"
            },
            {
              "internalType": "bool",
              "name": "_isCakePoolUser",
              "type": "bool"
            }
          ],
          "name": "depositFor",
          "outputs": [],
          "stateMutability": "nonpayable",
          "type": "function"
        },
        {
          "inputs": [
            {
              "internalType": "uint256",
              "name": "",
              "type": "uint256"
            }
          ],
          "name": "everBoosted",
          "outputs": [
            {
              "internalType": "bool",
              "name": "",
              "type": "bool"
            }
          ],
          "stateMutability": "view",
          "type": "function"
        },
        {
          "inputs": [
            {
              "internalType": "uint256",
              "name": "_tokenId",
              "type": "uint256"
            }
          ],
          "name": "getUserMultiplier",
          "outputs": [
            {
              "internalType": "uint256",
              "name": "",
              "type": "uint256"
            }
          ],
          "stateMutability": "view",
          "type": "function"
        },
        {
          "inputs": [
            {
              "internalType": "uint256",
              "name": "_tokenId",
              "type": "uint256"
            }
          ],
          "name": "isBoostedPool",
          "outputs": [
            {
              "internalType": "bool",
              "name": "",
              "type": "bool"
            },
            {
              "internalType": "uint256",
              "name": "",
              "type": "uint256"
            }
          ],
          "stateMutability": "view",
          "type": "function"
        },
        {
          "inputs": [],
          "name": "owner",
          "outputs": [
            {
              "internalType": "address",
              "name": "",
              "type": "address"
            }
          ],
          "stateMutability": "view",
          "type": "function"
        },
        {
          "inputs": [
            {
              "internalType": "address",
              "name": "_user",
              "type": "address"
            },
            {
              "internalType": "uint256",
              "name": "_tokenId",
              "type": "uint256"
            },
            {
              "internalType": "uint256",
              "name": "_pid",
              "type": "uint256"
            }
          ],
          "name": "removeBoostMultiplier",
          "outputs": [],
          "stateMutability": "nonpayable",
          "type": "function"
        },
        {
          "inputs": [],
          "name": "renounceOwnership",
          "outputs": [],
          "stateMutability": "nonpayable",
          "type": "function"
        },
        {
          "inputs": [
            {
              "components": [
                {
                  "internalType": "uint256",
                  "name": "pid",
                  "type": "uint256"
                },
                {
                  "internalType": "bool",
                  "name": "status",
                  "type": "bool"
                }
              ],
              "internalType": "struct FarmBooster.BoosterFarmConfig[]",
              "name": "_boosterFarms",
              "type": "tuple[]"
            }
          ],
          "name": "setBoosterFarms",
          "outputs": [],
          "stateMutability": "nonpayable",
          "type": "function"
        },
        {
          "inputs": [
            {
              "internalType": "uint256",
              "name": "_cA",
              "type": "uint256"
            }
          ],
          "name": "setCA",
          "outputs": [],
          "stateMutability": "nonpayable",
          "type": "function"
        },
        {
          "inputs": [
            {
              "internalType": "uint256",
              "name": "_cB",
              "type": "uint256"
            }
          ],
          "name": "setCB",
          "outputs": [],
          "stateMutability": "nonpayable",
          "type": "function"
        },
        {
          "inputs": [
            {
              "internalType": "uint256",
              "name": "_pid",
              "type": "uint256"
            },
            {
              "internalType": "uint256",
              "name": "_cB",
              "type": "uint256"
            }
          ],
          "name": "setCBOverride",
          "outputs": [],
          "stateMutability": "nonpayable",
          "type": "function"
        },
        {
          "inputs": [
            {
              "internalType": "address",
              "name": "_VECakeCaller",
              "type": "address"
            }
          ],
          "name": "setVECakeCaller",
          "outputs": [],
          "stateMutability": "nonpayable",
          "type": "function"
        },
        {
          "inputs": [
            {
              "internalType": "address",
              "name": "newOwner",
              "type": "address"
            }
          ],
          "name": "transferOwnership",
          "outputs": [],
          "stateMutability": "nonpayable",
          "type": "function"
        },
        {
          "inputs": [
            {
              "internalType": "address",
              "name": "_user",
              "type": "address"
            },
            {
              "internalType": "int128",
              "name": "_prevLockedAmount",
              "type": "int128"
            },
            {
              "internalType": "uint256",
              "name": "_prevLockedEnd",
              "type": "uint256"
            },
            {
              "internalType": "uint256",
              "name": "_withdrawAmount",
              "type": "uint256"
            }
          ],
          "name": "unlock",
          "outputs": [],
          "stateMutability": "nonpayable",
          "type": "function"
        },
        {
          "inputs": [
            {
              "internalType": "uint256",
              "name": "_tokenId",
              "type": "uint256"
            }
          ],
          "name": "updatePositionBoostMultiplier",
          "outputs": [
            {
              "internalType": "uint256",
              "name": "_multiplier",
              "type": "uint256"
            }
          ],
          "stateMutability": "nonpayable",
          "type": "function"
        },
        {
          "inputs": [
            {
              "internalType": "address",
              "name": "",
              "type": "address"
            }
          ],
          "name": "userInfo",
          "outputs": [
            {
              "internalType": "uint256",
              "name": "size",
              "type": "uint256"
            }
          ],
          "stateMutability": "view",
          "type": "function"
        },
        {
          "inputs": [
            {
              "internalType": "address",
              "name": "",
              "type": "address"
            },
            {
              "internalType": "uint256",
              "name": "",
              "type": "uint256"
            }
          ],
          "name": "userPoolTotalLiquidity",
          "outputs": [
            {
              "internalType": "uint256",
              "name": "",
              "type": "uint256"
            }
          ],
          "stateMutability": "view",
          "type": "function"
        },
        {
          "inputs": [
            {
              "internalType": "address",
              "name": "",
              "type": "address"
            },
            {
              "internalType": "uint256",
              "name": "",
              "type": "uint256"
            }
          ],
          "name": "userPositionLiquidity",
          "outputs": [
            {
              "internalType": "uint256",
              "name": "",
              "type": "uint256"
            }
          ],
          "stateMutability": "view",
          "type": "function"
        },
        {
          "inputs": [
            {
              "internalType": "uint256",
              "name": "",
              "type": "uint256"
            }
          ],
          "name": "whiteList",
          "outputs": [
            {
              "internalType": "bool",
              "name": "",
              "type": "bool"
            }
          ],
          "stateMutability": "view",
          "type": "function"
        }
      ],
      "evm": {
        "bytecode": {
          "linkReferences": {},
          "object": "6101006040523480156200001257600080fd5b5060405162002cbb38038062002cbb833981016040819052620000359162000227565b6200004033620001be565b6127108210158015620000565750620186a08211155b8015620000635750600081115b80156200007457506305f5e1008111155b620000b95760405162461bcd60e51b815260206004820152601160248201527024b73b30b634b2103830b930b6b2ba32b960791b604482015260640160405180910390fd5b6001600160a01b03808516608052831660a08190526004838155600583905560408051635a25139160e11b8152905163b44a2722928281019260209291908290030181865afa15801562000111573d6000803e3d6000fd5b505050506040513d601f19601f8201168201806040525081019062000137919062000274565b6001600160a01b031660c08190526040805163c45a015560e01b8152905163c45a0155916004808201926020929091908290030181865afa15801562000181573d6000803e3d6000fd5b505050506040513d601f19601f82011682018060405250810190620001a7919062000274565b6001600160a01b031660e052506200029b92505050565b600080546001600160a01b038381166001600160a01b0319831681178455604051919092169283917f8be0079c531659141344cd1fd0a4f28419497f9722a3daafe3b4186f6b6457e09190a35050565b6001600160a01b03811681146200022457600080fd5b50565b600080600080608085870312156200023e57600080fd5b84516200024b816200020e565b60208601519094506200025e816200020e565b6040860151606090960151949790965092505050565b6000602082840312156200028757600080fd5b815162000294816200020e565b9392505050565b60805160a05160c05160e05161298b62000330600039600081816104c30152610bed01526000818161059001528181610a330152610af501526000818161032d01528181610738015281816107c901528181610ca0015281816113ac01528181611c7001528181611e630152818161201e015261216101526000818161040401528181611a250152611b1a015261298b6000f3fe608060405234801561001057600080fd5b506004361061025c5760003560e01c80636ea1e3c011610145578063a817715b116100bd578063d6a526cf1161008c578063eb582d1311610071578063eb582d131461058b578063f2fde38b146105b2578063fe19a904146105c557600080fd5b8063d6a526cf14610558578063e1b2d8441461056b57600080fd5b8063a817715b14610530578063c459a9c214610539578063c61a66e014610530578063cc6db2da1461054c57600080fd5b806381057714116101145780638da5cb5b116100f95780638da5cb5b146105015780639c1ebe631461051f5780639cc1d7be1461052857600080fd5b806381057714146104f85780638abe3003146103a757600080fd5b80636ea1e3c0146104a3578063715018a6146104b65780637600f3f2146104be57806379453948146104e557600080fd5b80635c5aaa49116101d857806363613da9116101a757806369b021281161018c57806369b02128146104705780636cbb37dd1461047d5780636e85ee471461049057600080fd5b806363613da91461042657806369074d641461044657600080fd5b80635c5aaa49146103a75780635dd574db146103b157806361f0f689146103d457806362534e79146103ff57600080fd5b80634e9866281161022f578063506328fc11610214578063506328fc1461031557806352fb6531146103285780635c475d421461037457600080fd5b80634e986628146102ea5780634ffcbb391461030a57600080fd5b80631959a0021461026157806325f14873146102975780633a51327c146102ac57806344e7bf06146102d7575b600080fd5b61028461026f366004612263565b60096020526000908152604090206003015481565b6040519081526020015b60405180910390f35b6102aa6102a5366004612287565b6105d8565b005b6102846102ba3660046122a0565b600360209081526000928352604080842090915290825290205481565b6102846102e5366004612287565b61071e565b6102846102f8366004612287565b60066020526000908152604090205481565b6102846305f5e10081565b610284610323366004612287565b6109f9565b61034f7f000000000000000000000000000000000000000000000000000000000000000081565b60405173ffffffffffffffffffffffffffffffffffffffff909116815260200161028e565b610397610382366004612287565b60076020526000908152604090205460ff1681565b604051901515815260200161028e565b610284620186a081565b6103976103bf366004612287565b60086020526000908152604090205460ff1681565b6102846103e23660046122a0565b600260209081526000928352604080842090915290825290205481565b61034f7f000000000000000000000000000000000000000000000000000000000000000081565b610439610434366004612263565b610dbc565b60405161028e91906122cc565b610459610454366004612287565b610ea2565b60408051921515835260208301919091520161028e565b6102846501d1a94a200081565b6102aa61048b366004612287565b610ef6565b6102aa61049e366004612337565b611030565b6102aa6104b13660046123a3565b6110c3565b6102aa611277565b61034f7f000000000000000000000000000000000000000000000000000000000000000081565b6102aa6104f3366004612418565b611304565b61028460055481565b60005473ffffffffffffffffffffffffffffffffffffffff1661034f565b61028460045481565b610284600081565b61028461271081565b6102aa61054736600461245c565b611394565b61028464e8d4a5100081565b6102aa610566366004612263565b61149c565b60015461034f9073ffffffffffffffffffffffffffffffffffffffff1681565b61034f7f000000000000000000000000000000000000000000000000000000000000000081565b6102aa6105c0366004612263565b611596565b6102aa6105d3366004612491565b6116c6565b60005473ffffffffffffffffffffffffffffffffffffffff16331461065e576040517f08c379a000000000000000000000000000000000000000000000000000000000815260206004820181905260248201527f4f776e61626c653a2063616c6c6572206973206e6f7420746865206f776e657260448201526064015b60405180910390fd5b60008111801561067257506305f5e1008111155b6106d8576040517f08c379a000000000000000000000000000000000000000000000000000000000815260206004820152600a60248201527f496e76616c6964206342000000000000000000000000000000000000000000006044820152606401610655565b600580549082905560408051828152602081018490527fff6a4b972407d470846bd3a5979c60d68807653244cc8d096c4174a76486e71c91015b60405180910390a15050565b60003373ffffffffffffffffffffffffffffffffffffffff7f000000000000000000000000000000000000000000000000000000000000000016146107bf576040517f08c379a000000000000000000000000000000000000000000000000000000000815260206004820152601160248201527f4e6f74204d6173746572436865662056330000000000000000000000000000006044820152606401610655565b60008060008060007f000000000000000000000000000000000000000000000000000000000000000073ffffffffffffffffffffffffffffffffffffffff16633b1acf74886040518263ffffffff1660e01b815260040161082291815260200190565b61012060405180830381865afa158015610840573d6000803e3d6000fd5b505050506040513d601f19601f8201168201806040525081019061086491906124f0565b9850985098505050505094509450836fffffffffffffffffffffffffffffffff1660001480156108945750600081115b1561089e57600080fd5b60008281526008602052604090205464e8d4a51000965060ff16156109ef576108db838884886fffffffffffffffffffffffffffffffff16611827565b73ffffffffffffffffffffffffffffffffffffffff831660009081526009602090815260408083208a845280835281842054868552600790935292205460ff166109445760008981526001830160205260409020541561093f5761093f828a6118cc565b610991565b73ffffffffffffffffffffffffffffffffffffffff85166000908152600360209081526040808320878452909152812054610984918791879160016119af565b9750610991828a8a611bfd565b88848673ffffffffffffffffffffffffffffffffffffffff167f1e0e5eda2403f0a5efd54ab2b1ed4a66a026877e4255695d414a66acb88419e8848c6040516109e4929190918252602082015260400190565b60405180910390a450505b5050505050919050565b600080600080610a0885611c68565b506fffffffffffffffffffffffffffffffff92909216945092509050600181610d20576000806000807f000000000000000000000000000000000000000000000000000000000000000073ffffffffffffffffffffffffffffffffffffffff166399fbab888b6040518263ffffffff1660e01b8152600401610a8c91815260200190565b61018060405180830381865afa158015610aaa573d6000803e3d6000fd5b505050506040513d601f19601f82011682018060405250810190610ace9190612593565b50505050975050509550955095505050806fffffffffffffffffffffffffffffffff1697507f000000000000000000000000000000000000000000000000000000000000000073ffffffffffffffffffffffffffffffffffffffff16636352211e8b6040518263ffffffff1660e01b8152600401610b4e91815260200190565b602060405180830381865afa158015610b6b573d6000803e3d6000fd5b505050506040513d601f19601f82011682018060405250810190610b8f9190612674565b6040517f1698ee8200000000000000000000000000000000000000000000000000000000815273ffffffffffffffffffffffffffffffffffffffff8681166004830152858116602483015262ffffff851660448301529198506000917f00000000000000000000000000000000000000000000000000000000000000001690631698ee8290606401602060405180830381865afa158015610c34573d6000803e3d6000fd5b505050506040513d601f19601f82011682018060405250810190610c589190612674565b6040517f0743384d00000000000000000000000000000000000000000000000000000000815273ffffffffffffffffffffffffffffffffffffffff80831660048301529192507f000000000000000000000000000000000000000000000000000000000000000090911690630743384d90602401602060405180830381865afa158015610ce9573d6000803e3d6000fd5b505050506040513d601f19601f82011682018060405250810190610d0d9190612691565b96508615610d1a57600095505b50505050505b60008281526007602052604090205460ff16610d46575064e8d4a5100095945050505050565b73ffffffffffffffffffffffffffffffffffffffff831660008181526002602090815260408083208a84528252808320549383526003825280832086845290915281205490918691610d9891906126d9565b610da291906126f0565b9050610db184848388866119af565b979650505050505050565b73ffffffffffffffffffffffffffffffffffffffff81166000908152600960205260409020600281015460609190610df45750919050565b600281015467ffffffffffffffff811115610e1157610e11612708565b604051908082528060200260200182016040528015610e3a578160200160208202803683370190505b50915060005b6002820154811015610e9b57816002018181548110610e6157610e61612737565b9060005260206000200154838281518110610e7e57610e7e612737565b602090810291909101015280610e9381612766565b915050610e40565b5050919050565b600080600080610eb185611c68565b5073ffffffffffffffffffffffffffffffffffffffff919091166000908152600960209081526040808320998352600190990190529690962054151596945050505050565b60005473ffffffffffffffffffffffffffffffffffffffff163314610f77576040517f08c379a000000000000000000000000000000000000000000000000000000000815260206004820181905260248201527f4f776e61626c653a2063616c6c6572206973206e6f7420746865206f776e65726044820152606401610655565b6127108110158015610f8c5750620186a08111155b610ff2576040517f08c379a000000000000000000000000000000000000000000000000000000000815260206004820152600a60248201527f496e76616c6964206341000000000000000000000000000000000000000000006044820152606401610655565b600480549082905560408051828152602081018490527f948053d58d4dfed61c0843c01f010e1a4446c65f03d475567102cc64dfe0ecd49101610712565b60015473ffffffffffffffffffffffffffffffffffffffff1633146110b1576040517f08c379a000000000000000000000000000000000000000000000000000000000815260206004820152601160248201527f4e6f7420766563616b652063616c6c65720000000000000000000000000000006044820152606401610655565b6110ba87611d20565b50505050505050565b60005473ffffffffffffffffffffffffffffffffffffffff163314611144576040517f08c379a000000000000000000000000000000000000000000000000000000000815260206004820181905260248201527f4f776e61626c653a2063616c6c6572206973206e6f7420746865206f776e65726044820152606401610655565b60005b8181101561127257600083838381811061116357611163612737565b905060400201803603810190611179919061279f565b90508060200151801561119d5750805160009081526008602052604090205460ff16155b156111dc578051600090815260086020526040902080547fffffffffffffffffffffffffffffffffffffffffffffffffffffffffffffff001660011790555b60208181018051835160009081526007845260409081902080547fffffffffffffffffffffffffffffffffffffffffffffffffffffffffffffff0016921515929092179091558351915181519283521515928201929092527fbeef892af000af61e107ef5e9c764acbccd54157fd6c219d241750fb3eca3102910160405180910390a1508061126a81612766565b915050611147565b505050565b60005473ffffffffffffffffffffffffffffffffffffffff1633146112f8576040517f08c379a000000000000000000000000000000000000000000000000000000000815260206004820181905260248201527f4f776e61626c653a2063616c6c6572206973206e6f7420746865206f776e65726044820152606401610655565b6113026000611de7565b565b60015473ffffffffffffffffffffffffffffffffffffffff163314611385576040517f08c379a000000000000000000000000000000000000000000000000000000000815260206004820152601160248201527f4e6f7420766563616b652063616c6c65720000000000000000000000000000006044820152606401610655565b61138e84611d20565b50505050565b3373ffffffffffffffffffffffffffffffffffffffff7f00000000000000000000000000000000000000000000000000000000000000001614611433576040517f08c379a000000000000000000000000000000000000000000000000000000000815260206004820152601160248201527f4e6f74204d6173746572436865662056330000000000000000000000000000006044820152606401610655565b60008181526008602052604090205460ff1615611272576114578383836000611827565b73ffffffffffffffffffffffffffffffffffffffff8316600090815260096020908152604080832085845260018101909252909120541561138e5761138e81846118cc565b60005473ffffffffffffffffffffffffffffffffffffffff16331461151d576040517f08c379a000000000000000000000000000000000000000000000000000000000815260206004820181905260248201527f4f776e61626c653a2063616c6c6572206973206e6f7420746865206f776e65726044820152606401610655565b600180547fffffffffffffffffffffffff00000000000000000000000000000000000000001673ffffffffffffffffffffffffffffffffffffffff83169081179091556040519081527f74893ad32aa66290f59f1716275159e5945397884cb67b7a5a19c96473482e169060200160405180910390a150565b60005473ffffffffffffffffffffffffffffffffffffffff163314611617576040517f08c379a000000000000000000000000000000000000000000000000000000000815260206004820181905260248201527f4f776e61626c653a2063616c6c6572206973206e6f7420746865206f776e65726044820152606401610655565b73ffffffffffffffffffffffffffffffffffffffff81166116ba576040517f08c379a000000000000000000000000000000000000000000000000000000000815260206004820152602660248201527f4f776e61626c653a206e6577206f776e657220697320746865207a65726f206160448201527f64647265737300000000000000000000000000000000000000000000000000006064820152608401610655565b6116c381611de7565b50565b60005473ffffffffffffffffffffffffffffffffffffffff163314611747576040517f08c379a000000000000000000000000000000000000000000000000000000000815260206004820181905260248201527f4f776e61626c653a2063616c6c6572206973206e6f7420746865206f776e65726044820152606401610655565b60008111801561175b57506305f5e1008111155b80611764575080155b6117ca576040517f08c379a000000000000000000000000000000000000000000000000000000000815260206004820152600a60248201527f496e76616c6964206342000000000000000000000000000000000000000000006044820152606401610655565b600580546000848152600660209081526040918290208590559254815186815293840183905290830152907fa6a879d52f70ee909a019d4e93c2b17407cfe6a072da32219ad04ab25e15de429060600160405180910390a1505050565b73ffffffffffffffffffffffffffffffffffffffff84166000818152600260209081526040808320878452825280832054938352600382528083208684529091529020548291611876916126d9565b61188091906126f0565b73ffffffffffffffffffffffffffffffffffffffff9094166000818152600360209081526040808320958352948152848220969096559081526002855282812093815292909352902055565b6000818152600183016020526040902054806118e757505050565b600283018054600091906118fd906001906126d9565b8154811061190d5761190d612737565b906000526020600020015490508083146119645780600285016119316001856126d9565b8154811061194157611941612737565b600091825260208083209091019290925582815260018601909152604090208290555b60008381526020858152604080832083905560018701909152812055600284018054806119935761199361281a565b6001900381819060005260206000200160009055905550505050565b600080620186a0856004546119c49190612849565b6119ce9190612886565b9050806119e35764e8d4a51000915050611bf4565b60006119f0878686611e5c565b60008881526006602052604081205491925090611a0f57600554611a1f565b6000888152600660205260409020545b905060007f000000000000000000000000000000000000000000000000000000000000000073ffffffffffffffffffffffffffffffffffffffff166318160ddd6040518163ffffffff1660e01b8152600401602060405180830381865afa158015611a8e573d6000803e3d6000fd5b505050506040513d601f19601f82011682018060405250810190611ab29190612691565b905080611aca5764e8d4a51000945050505050611bf4565b6040517f70a0823100000000000000000000000000000000000000000000000000000000815273ffffffffffffffffffffffffffffffffffffffff8b8116600483015260009161271091849186917f000000000000000000000000000000000000000000000000000000000000000016906370a0823190602401602060405180830381865afa158015611b61573d6000803e3d6000fd5b505050506040513d601f19601f82011682018060405250810190611b859190612691565b611b8f9088612849565b611b999190612849565b611ba39190612886565b611bad9190612886565b90508464e8d4a51000611bc083836126f0565b8b1115611bd657611bd183886126f0565b611bd8565b8a5b611be29190612849565b611bec9190612886565b955050505050505b95945050505050565b6000828152600184016020908152604080832054918690529091208290558015611c275750505050565b6002840154611c379060016126f0565b6000848152600180870160209081526040832093909355600290960180549687018155815220909301919091555050565b6000806000807f000000000000000000000000000000000000000000000000000000000000000073ffffffffffffffffffffffffffffffffffffffff16633b1acf74866040518263ffffffff1660e01b8152600401611cc991815260200190565b61012060405180830381865afa158015611ce7573d6000803e3d6000fd5b505050506040513d601f19601f82011682018060405250810190611d0b91906124f0565b979d919c509a50959850949650505050505050565b73ffffffffffffffffffffffffffffffffffffffff81166000908152600960205260409020600281015480156112725760005b8181101561138e576000836002018281548110611d7257611d72612737565b90600052602060002001549050600080611d8b83611c68565b5092509250508173ffffffffffffffffffffffffffffffffffffffff168773ffffffffffffffffffffffffffffffffffffffff161415611dd157611dd186838386611fb3565b5050508080611ddf90612766565b915050611d53565b6000805473ffffffffffffffffffffffffffffffffffffffff8381167fffffffffffffffffffffffff0000000000000000000000000000000000000000831681178455604051919092169283917f8be0079c531659141344cd1fd0a4f28419497f9722a3daafe3b4186f6b6457e09190a35050565b60008060007f000000000000000000000000000000000000000000000000000000000000000073ffffffffffffffffffffffffffffffffffffffff16631526fe27876040518263ffffffff1660e01b8152600401611ebc91815260200190565b60e060405180830381865afa158015611ed9573d6000803e3d6000fd5b505050506040513d601f19601f82011682018060405250810190611efd91906128c1565b50955050505092505083611f1857611f1585826126f0565b90505b60008273ffffffffffffffffffffffffffffffffffffffff16631a6865026040518163ffffffff1660e01b8152600401602060405180830381865afa158015611f65573d6000803e3d6000fd5b505050506040513d601f19601f82011682018060405250810190611f89919061293a565b6fffffffffffffffffffffffffffffffff16905080821115611fa9578091505b5095945050505050565b60008281526007602052604090205460ff1661209f5760008181526020859052604090205464e8d4a510001015612090576040517f69746a1d0000000000000000000000000000000000000000000000000000000081526004810182905264e8d4a5100060248201527f000000000000000000000000000000000000000000000000000000000000000073ffffffffffffffffffffffffffffffffffffffff16906369746a1d90604401600060405180830381600087803b15801561207757600080fd5b505af115801561208b573d6000803e3d6000fd5b505050505b61209a84826118cc565b61138e565b60006120aa82611c68565b73ffffffffffffffffffffffffffffffffffffffff881660009081526003602090815260408083208a845290915281205491955093506120f2925087915086908460016119af565b905064e8d4a5100081101561210d575064e8d4a51000612124565b6501d1a94a200081111561212457506501d1a94a20005b8181146121d3576040517f69746a1d00000000000000000000000000000000000000000000000000000000815260048101849052602481018290527f000000000000000000000000000000000000000000000000000000000000000073ffffffffffffffffffffffffffffffffffffffff16906369746a1d90604401600060405180830381600087803b1580156121ba57600080fd5b505af11580156121ce573d6000803e3d6000fd5b505050505b6121de868483611bfd565b82848673ffffffffffffffffffffffffffffffffffffffff167f1e0e5eda2403f0a5efd54ab2b1ed4a66a026877e4255695d414a66acb88419e88585604051612231929190918252602082015260400190565b60405180910390a4505050505050565b73ffffffffffffffffffffffffffffffffffffffff811681146116c357600080fd5b60006020828403121561227557600080fd5b813561228081612241565b9392505050565b60006020828403121561229957600080fd5b5035919050565b600080604083850312156122b357600080fd5b82356122be81612241565b946020939093013593505050565b6020808252825182820181905260009190848201906040850190845b81811015612304578351835292840192918401916001016122e8565b50909695505050505050565b8035600f81900b811461232257600080fd5b919050565b8035801515811461232257600080fd5b600080600080600080600060e0888a03121561235257600080fd5b873561235d81612241565b9650602088013595506040880135945061237960608901612310565b93506080880135925060a0880135915061239560c08901612327565b905092959891949750929550565b600080602083850312156123b657600080fd5b823567ffffffffffffffff808211156123ce57600080fd5b818501915085601f8301126123e257600080fd5b8135818111156123f157600080fd5b8660208260061b850101111561240657600080fd5b60209290920196919550909350505050565b6000806000806080858703121561242e57600080fd5b843561243981612241565b935061244760208601612310565b93969395505050506040820135916060013590565b60008060006060848603121561247157600080fd5b833561247c81612241565b95602085013595506040909401359392505050565b600080604083850312156124a457600080fd5b50508035926020909101359150565b80516fffffffffffffffffffffffffffffffff8116811461232257600080fd5b8051600281900b811461232257600080fd5b805161232281612241565b60008060008060008060008060006101208a8c03121561250f57600080fd5b6125188a6124b3565b985061252660208b016124b3565b975061253460408b016124d3565b965061254260608b016124d3565b955060808a0151945060a08a0151935060c08a015161256081612241565b8093505060e08a015191506101008a015190509295985092959850929598565b805162ffffff8116811461232257600080fd5b6000806000806000806000806000806000806101808d8f0312156125b657600080fd5b8c516bffffffffffffffffffffffff811681146125d257600080fd5b9b506125e060208e016124e5565b9a506125ee60408e016124e5565b99506125fc60608e016124e5565b985061260a60808e01612580565b975061261860a08e016124d3565b965061262660c08e016124d3565b955061263460e08e016124b3565b94506101008d015193506101208d015192506126536101408e016124b3565b91506126626101608e016124b3565b90509295989b509295989b509295989b565b60006020828403121561268657600080fd5b815161228081612241565b6000602082840312156126a357600080fd5b5051919050565b7f4e487b7100000000000000000000000000000000000000000000000000000000600052601160045260246000fd5b6000828210156126eb576126eb6126aa565b500390565b60008219821115612703576127036126aa565b500190565b7f4e487b7100000000000000000000000000000000000000000000000000000000600052604160045260246000fd5b7f4e487b7100000000000000000000000000000000000000000000000000000000600052603260045260246000fd5b60007fffffffffffffffffffffffffffffffffffffffffffffffffffffffffffffffff821415612798576127986126aa565b5060010190565b6000604082840312156127b157600080fd5b6040516040810181811067ffffffffffffffff821117156127fb577f4e487b7100000000000000000000000000000000000000000000000000000000600052604160045260246000fd5b6040528235815261280e60208401612327565b60208201529392505050565b7f4e487b7100000000000000000000000000000000000000000000000000000000600052603160045260246000fd5b6000817fffffffffffffffffffffffffffffffffffffffffffffffffffffffffffffffff0483118215151615612881576128816126aa565b500290565b6000826128bc577f4e487b7100000000000000000000000000000000000000000000000000000000600052601260045260246000fd5b500490565b600080600080600080600060e0888a0312156128dc57600080fd5b8751965060208801516128ee81612241565b60408901519096506128ff81612241565b606089015190955061291081612241565b935061291e60808901612580565b925060a0880151915060c0880151905092959891949750929550565b60006020828403121561294c57600080fd5b612280826124b356fea26469706673582212204fda7068a62f16cf045ba04d3d9250663b9c47de3d3c4f25d2880bf021fdcfd364736f6c634300080a0033",
          "opcodes": "PUSH2 0x100 PUSH1 0x40 MSTORE CALLVALUE DUP1 ISZERO PUSH3 0x12 JUMPI PUSH1 0x0 DUP1 REVERT JUMPDEST POP PUSH1 0x40 MLOAD PUSH3 0x2CBB CODESIZE SUB DUP1 PUSH3 0x2CBB DUP4 CODECOPY DUP2 ADD PUSH1 0x40 DUP2 SWAP1 MSTORE PUSH3 0x35 SWAP2 PUSH3 0x227 JUMP JUMPDEST PUSH3 0x40 CALLER PUSH3 0x1BE JUMP JUMPDEST PUSH2 0x2710 DUP3 LT ISZERO DUP1 ISZERO PUSH3 0x56 JUMPI POP PUSH3 0x186A0 DUP3 GT ISZERO JUMPDEST DUP1 ISZERO PUSH3 0x63 JUMPI POP PUSH1 0x0 DUP2 GT JUMPDEST DUP1 ISZERO PUSH3 0x74 JUMPI POP PUSH4 0x5F5E100 DUP2 GT ISZERO JUMPDEST PUSH3 0xB9 JUMPI PUSH1 0x40 MLOAD PUSH3 0x461BCD PUSH1 0xE5 SHL DUP2 MSTORE PUSH1 0x20 PUSH1 0x4 DUP3 ADD MSTORE PUSH1 0x11 PUSH1 0x24 DUP3 ADD MSTORE PUSH17 0x24B73B30B634B2103830B930B6B2BA32B9 PUSH1 0x79 SHL PUSH1 0x44 DUP3 ADD MSTORE PUSH1 0x64 ADD PUSH1 0x40 MLOAD DUP1 SWAP2 SUB SWAP1 REVERT JUMPDEST PUSH1 0x1 PUSH1 0x1 PUSH1 0xA0 SHL SUB DUP1 DUP6 AND PUSH1 0x80 MSTORE DUP4 AND PUSH1 0xA0 DUP2 SWAP1 MSTORE PUSH1 0x4 DUP4 DUP2 SSTORE PUSH1 0x5 DUP4 SWAP1 SSTORE PUSH1 0x40 DUP1 MLOAD PUSH4 0x5A251391 PUSH1 0xE1 SHL DUP2 MSTORE SWAP1 MLOAD PUSH4 0xB44A2722 SWAP3 DUP3 DUP2 ADD SWAP3 PUSH1 0x20 SWAP3 SWAP2 SWAP1 DUP3 SWAP1 SUB ADD DUP2 DUP7 GAS STATICCALL ISZERO DUP1 ISZERO PUSH3 0x111 JUMPI RETURNDATASIZE PUSH1 0x0 DUP1 RETURNDATACOPY RETURNDATASIZE PUSH1 0x0 REVERT JUMPDEST POP POP POP POP PUSH1 0x40 MLOAD RETURNDATASIZE PUSH1 0x1F NOT PUSH1 0x1F DUP3 ADD AND DUP3 ADD DUP1 PUSH1 0x40 MSTORE POP DUP2 ADD SWAP1 PUSH3 0x137 SWAP2 SWAP1 PUSH3 0x274 JUMP JUMPDEST PUSH1 0x1 PUSH1 0x1 PUSH1 0xA0 SHL SUB AND PUSH1 0xC0 DUP2 SWAP1 MSTORE PUSH1 0x40 DUP1 MLOAD PUSH4 0xC45A0155 PUSH1 0xE0 SHL DUP2 MSTORE SWAP1 MLOAD PUSH4 0xC45A0155 SWAP2 PUSH1 0x4 DUP1 DUP3 ADD SWAP3 PUSH1 0x20 SWAP3 SWAP1 SWAP2 SWAP1 DUP3 SWAP1 SUB ADD DUP2 DUP7 GAS STATICCALL ISZERO DUP1 ISZERO PUSH3 0x181 JUMPI RETURNDATASIZE PUSH1 0x0 DUP1 RETURNDATACOPY RETURNDATASIZE PUSH1 0x0 REVERT JUMPDEST POP POP POP POP PUSH1 0x40 MLOAD RETURNDATASIZE PUSH1 0x1F NOT PUSH1 0x1F DUP3 ADD AND DUP3 ADD DUP1 PUSH1 0x40 MSTORE POP DUP2 ADD SWAP1 PUSH3 0x1A7 SWAP2 SWAP1 PUSH3 0x274 JUMP JUMPDEST PUSH1 0x1 PUSH1 0x1 PUSH1 0xA0 SHL SUB AND PUSH1 0xE0 MSTORE POP PUSH3 0x29B SWAP3 POP POP POP JUMP JUMPDEST PUSH1 0x0 DUP1 SLOAD PUSH1 0x1 PUSH1 0x1 PUSH1 0xA0 SHL SUB DUP4 DUP2 AND PUSH1 0x1 PUSH1 0x1 PUSH1 0xA0 SHL SUB NOT DUP4 AND DUP2 OR DUP5 SSTORE PUSH1 0x40 MLOAD SWAP2 SWAP1 SWAP3 AND SWAP3 DUP4 SWAP2 PUSH32 0x8BE0079C531659141344CD1FD0A4F28419497F9722A3DAAFE3B4186F6B6457E0 SWAP2 SWAP1 LOG3 POP POP JUMP JUMPDEST PUSH1 0x1 PUSH1 0x1 PUSH1 0xA0 SHL SUB DUP2 AND DUP2 EQ PUSH3 0x224 JUMPI PUSH1 0x0 DUP1 REVERT JUMPDEST POP JUMP JUMPDEST PUSH1 0x0 DUP1 PUSH1 0x0 DUP1 PUSH1 0x80 DUP6 DUP8 SUB SLT ISZERO PUSH3 0x23E JUMPI PUSH1 0x0 DUP1 REVERT JUMPDEST DUP5 MLOAD PUSH3 0x24B DUP2 PUSH3 0x20E JUMP JUMPDEST PUSH1 0x20 DUP7 ADD MLOAD SWAP1 SWAP5 POP PUSH3 0x25E DUP2 PUSH3 0x20E JUMP JUMPDEST PUSH1 0x40 DUP7 ADD MLOAD PUSH1 0x60 SWAP1 SWAP7 ADD MLOAD SWAP5 SWAP8 SWAP1 SWAP7 POP SWAP3 POP POP POP JUMP JUMPDEST PUSH1 0x0 PUSH1 0x20 DUP3 DUP5 SUB SLT ISZERO PUSH3 0x287 JUMPI PUSH1 0x0 DUP1 REVERT JUMPDEST DUP2 MLOAD PUSH3 0x294 DUP2 PUSH3 0x20E JUMP JUMPDEST SWAP4 SWAP3 POP POP POP JUMP JUMPDEST PUSH1 0x80 MLOAD PUSH1 0xA0 MLOAD PUSH1 0xC0 MLOAD PUSH1 0xE0 MLOAD PUSH2 0x298B PUSH3 0x330 PUSH1 0x0 CODECOPY PUSH1 0x0 DUP2 DUP2 PUSH2 0x4C3 ADD MSTORE PUSH2 0xBED ADD MSTORE PUSH1 0x0 DUP2 DUP2 PUSH2 0x590 ADD MSTORE DUP2 DUP2 PUSH2 0xA33 ADD MSTORE PUSH2 0xAF5 ADD MSTORE PUSH1 0x0 DUP2 DUP2 PUSH2 0x32D ADD MSTORE DUP2 DUP2 PUSH2 0x738 ADD MSTORE DUP2 DUP2 PUSH2 0x7C9 ADD MSTORE DUP2 DUP2 PUSH2 0xCA0 ADD MSTORE DUP2 DUP2 PUSH2 0x13AC ADD MSTORE DUP2 DUP2 PUSH2 0x1C70 ADD MSTORE DUP2 DUP2 PUSH2 0x1E63 ADD MSTORE DUP2 DUP2 PUSH2 0x201E ADD MSTORE PUSH2 0x2161 ADD MSTORE PUSH1 0x0 DUP2 DUP2 PUSH2 0x404 ADD MSTORE DUP2 DUP2 PUSH2 0x1A25 ADD MSTORE PUSH2 0x1B1A ADD MSTORE PUSH2 0x298B PUSH1 0x0 RETURN INVALID PUSH1 0x80 PUSH1 0x40 MSTORE CALLVALUE DUP1 ISZERO PUSH2 0x10 JUMPI PUSH1 0x0 DUP1 REVERT JUMPDEST POP PUSH1 0x4 CALLDATASIZE LT PUSH2 0x25C JUMPI PUSH1 0x0 CALLDATALOAD PUSH1 0xE0 SHR DUP1 PUSH4 0x6EA1E3C0 GT PUSH2 0x145 JUMPI DUP1 PUSH4 0xA817715B GT PUSH2 0xBD JUMPI DUP1 PUSH4 0xD6A526CF GT PUSH2 0x8C JUMPI DUP1 PUSH4 0xEB582D13 GT PUSH2 0x71 JUMPI DUP1 PUSH4 0xEB582D13 EQ PUSH2 0x58B JUMPI DUP1 PUSH4 0xF2FDE38B EQ PUSH2 0x5B2 JUMPI DUP1 PUSH4 0xFE19A904 EQ PUSH2 0x5C5 JUMPI PUSH1 0x0 DUP1 REVERT JUMPDEST DUP1 PUSH4 0xD6A526CF EQ PUSH2 0x558 JUMPI DUP1 PUSH4 0xE1B2D844 EQ PUSH2 0x56B JUMPI PUSH1 0x0 DUP1 REVERT JUMPDEST DUP1 PUSH4 0xA817715B EQ PUSH2 0x530 JUMPI DUP1 PUSH4 0xC459A9C2 EQ PUSH2 0x539 JUMPI DUP1 PUSH4 0xC61A66E0 EQ PUSH2 0x530 JUMPI DUP1 PUSH4 0xCC6DB2DA EQ PUSH2 0x54C JUMPI PUSH1 0x0 DUP1 REVERT JUMPDEST DUP1 PUSH4 0x81057714 GT PUSH2 0x114 JUMPI DUP1 PUSH4 0x8DA5CB5B GT PUSH2 0xF9 JUMPI DUP1 PUSH4 0x8DA5CB5B EQ PUSH2 0x501 JUMPI DUP1 PUSH4 0x9C1EBE63 EQ PUSH2 0x51F JUMPI DUP1 PUSH4 0x9CC1D7BE EQ PUSH2 0x528 JUMPI PUSH1 0x0 DUP1 REVERT JUMPDEST DUP1 PUSH4 0x81057714 EQ PUSH2 0x4F8 JUMPI DUP1 PUSH4 0x8ABE3003 EQ PUSH2 0x3A7 JUMPI PUSH1 0x0 DUP1 REVERT JUMPDEST DUP1 PUSH4 0x6EA1E3C0 EQ PUSH2 0x4A3 JUMPI DUP1 PUSH4 0x715018A6 EQ PUSH2 0x4B6 JUMPI DUP1 PUSH4 0x7600F3F2 EQ PUSH2 0x4BE JUMPI DUP1 PUSH4 0x79453948 EQ PUSH2 0x4E5 JUMPI PUSH1 0x0 DUP1 REVERT JUMPDEST DUP1 PUSH4 0x5C5AAA49 GT PUSH2 0x1D8 JUMPI DUP1 PUSH4 0x63613DA9 GT PUSH2 0x1A7 JUMPI DUP1 PUSH4 0x69B02128 GT PUSH2 0x18C JUMPI DUP1 PUSH4 0x69B02128 EQ PUSH2 0x470 JUMPI DUP1 PUSH4 0x6CBB37DD EQ PUSH2 0x47D JUMPI DUP1 PUSH4 0x6E85EE47 EQ PUSH2 0x490 JUMPI PUSH1 0x0 DUP1 REVERT JUMPDEST DUP1 PUSH4 0x63613DA9 EQ PUSH2 0x426 JUMPI DUP1 PUSH4 0x69074D64 EQ PUSH2 0x446 JUMPI PUSH1 0x0 DUP1 REVERT JUMPDEST DUP1 PUSH4 0x5C5AAA49 EQ PUSH2 0x3A7 JUMPI DUP1 PUSH4 0x5DD574DB EQ PUSH2 0x3B1 JUMPI DUP1 PUSH4 0x61F0F689 EQ PUSH2 0x3D4 JUMPI DUP1 PUSH4 0x62534E79 EQ PUSH2 0x3FF JUMPI PUSH1 0x0 DUP1 REVERT JUMPDEST DUP1 PUSH4 0x4E986628 GT PUSH2 0x22F JUMPI DUP1 PUSH4 0x506328FC GT PUSH2 0x214 JUMPI DUP1 PUSH4 0x506328FC EQ PUSH2 0x315 JUMPI DUP1 PUSH4 0x52FB6531 EQ PUSH2 0x328 JUMPI DUP1 PUSH4 0x5C475D42 EQ PUSH2 0x374 JUMPI PUSH1 0x0 DUP1 REVERT JUMPDEST DUP1 PUSH4 0x4E986628 EQ PUSH2 0x2EA JUMPI DUP1 PUSH4 0x4FFCBB39 EQ PUSH2 0x30A JUMPI PUSH1 0x0 DUP1 REVERT JUMPDEST DUP1 PUSH4 0x1959A002 EQ PUSH2 0x261 JUMPI DUP1 PUSH4 0x25F14873 EQ PUSH2 0x297 JUMPI DUP1 PUSH4 0x3A51327C EQ PUSH2 0x2AC JUMPI DUP1 PUSH4 0x44E7BF06 EQ PUSH2 0x2D7 JUMPI JUMPDEST PUSH1 0x0 DUP1 REVERT JUMPDEST PUSH2 0x284 PUSH2 0x26F CALLDATASIZE PUSH1 0x4 PUSH2 0x2263 JUMP JUMPDEST PUSH1 0x9 PUSH1 0x20 MSTORE PUSH1 0x0 SWAP1 DUP2 MSTORE PUSH1 0x40 SWAP1 KECCAK256 PUSH1 0x3 ADD SLOAD DUP2 JUMP JUMPDEST PUSH1 0x40 MLOAD SWAP1 DUP2 MSTORE PUSH1 0x20 ADD JUMPDEST PUSH1 0x40 MLOAD DUP1 SWAP2 SUB SWAP1 RETURN JUMPDEST PUSH2 0x2AA PUSH2 0x2A5 CALLDATASIZE PUSH1 0x4 PUSH2 0x2287 JUMP JUMPDEST PUSH2 0x5D8 JUMP JUMPDEST STOP JUMPDEST PUSH2 0x284 PUSH2 0x2BA CALLDATASIZE PUSH1 0x4 PUSH2 0x22A0 JUMP JUMPDEST PUSH1 0x3 PUSH1 0x20 SWAP1 DUP2 MSTORE PUSH1 0x0 SWAP3 DUP4 MSTORE PUSH1 0x40 DUP1 DUP5 KECCAK256 SWAP1 SWAP2 MSTORE SWAP1 DUP3 MSTORE SWAP1 KECCAK256 SLOAD DUP2 JUMP JUMPDEST PUSH2 0x284 PUSH2 0x2E5 CALLDATASIZE PUSH1 0x4 PUSH2 0x2287 JUMP JUMPDEST PUSH2 0x71E JUMP JUMPDEST PUSH2 0x284 PUSH2 0x2F8 CALLDATASIZE PUSH1 0x4 PUSH2 0x2287 JUMP JUMPDEST PUSH1 0x6 PUSH1 0x20 MSTORE PUSH1 0x0 SWAP1 DUP2 MSTORE PUSH1 0x40 SWAP1 KECCAK256 SLOAD DUP2 JUMP JUMPDEST PUSH2 0x284 PUSH4 0x5F5E100 DUP2 JUMP JUMPDEST PUSH2 0x284 PUSH2 0x323 CALLDATASIZE PUSH1 0x4 PUSH2 0x2287 JUMP JUMPDEST PUSH2 0x9F9 JUMP JUMPDEST PUSH2 0x34F PUSH32 0x0 DUP2 JUMP JUMPDEST PUSH1 0x40 MLOAD PUSH20 0xFFFFFFFFFFFFFFFFFFFFFFFFFFFFFFFFFFFFFFFF SWAP1 SWAP2 AND DUP2 MSTORE PUSH1 0x20 ADD PUSH2 0x28E JUMP JUMPDEST PUSH2 0x397 PUSH2 0x382 CALLDATASIZE PUSH1 0x4 PUSH2 0x2287 JUMP JUMPDEST PUSH1 0x7 PUSH1 0x20 MSTORE PUSH1 0x0 SWAP1 DUP2 MSTORE PUSH1 0x40 SWAP1 KECCAK256 SLOAD PUSH1 0xFF AND DUP2 JUMP JUMPDEST PUSH1 0x40 MLOAD SWAP1 ISZERO ISZERO DUP2 MSTORE PUSH1 0x20 ADD PUSH2 0x28E JUMP JUMPDEST PUSH2 0x284 PUSH3 0x186A0 DUP2 JUMP JUMPDEST PUSH2 0x397 PUSH2 0x3BF CALLDATASIZE PUSH1 0x4 PUSH2 0x2287 JUMP JUMPDEST PUSH1 0x8 PUSH1 0x20 MSTORE PUSH1 0x0 SWAP1 DUP2 MSTORE PUSH1 0x40 SWAP1 KECCAK256 SLOAD PUSH1 0xFF AND DUP2 JUMP JUMPDEST PUSH2 0x284 PUSH2 0x3E2 CALLDATASIZE PUSH1 0x4 PUSH2 0x22A0 JUMP JUMPDEST PUSH1 0x2 PUSH1 0x20 SWAP1 DUP2 MSTORE PUSH1 0x0 SWAP3 DUP4 MSTORE PUSH1 0x40 DUP1 DUP5 KECCAK256 SWAP1 SWAP2 MSTORE SWAP1 DUP3 MSTORE SWAP1 KECCAK256 SLOAD DUP2 JUMP JUMPDEST PUSH2 0x34F PUSH32 0x0 DUP2 JUMP JUMPDEST PUSH2 0x439 PUSH2 0x434 CALLDATASIZE PUSH1 0x4 PUSH2 0x2263 JUMP JUMPDEST PUSH2 0xDBC JUMP JUMPDEST PUSH1 0x40 MLOAD PUSH2 0x28E SWAP2 SWAP1 PUSH2 0x22CC JUMP JUMPDEST PUSH2 0x459 PUSH2 0x454 CALLDATASIZE PUSH1 0x4 PUSH2 0x2287 JUMP JUMPDEST PUSH2 0xEA2 JUMP JUMPDEST PUSH1 0x40 DUP1 MLOAD SWAP3 ISZERO ISZERO DUP4 MSTORE PUSH1 0x20 DUP4 ADD SWAP2 SWAP1 SWAP2 MSTORE ADD PUSH2 0x28E JUMP JUMPDEST PUSH2 0x284 PUSH6 0x1D1A94A2000 DUP2 JUMP JUMPDEST PUSH2 0x2AA PUSH2 0x48B CALLDATASIZE PUSH1 0x4 PUSH2 0x2287 JUMP JUMPDEST PUSH2 0xEF6 JUMP JUMPDEST PUSH2 0x2AA PUSH2 0x49E CALLDATASIZE PUSH1 0x4 PUSH2 0x2337 JUMP JUMPDEST PUSH2 0x1030 JUMP JUMPDEST PUSH2 0x2AA PUSH2 0x4B1 CALLDATASIZE PUSH1 0x4 PUSH2 0x23A3 JUMP JUMPDEST PUSH2 0x10C3 JUMP JUMPDEST PUSH2 0x2AA PUSH2 0x1277 JUMP JUMPDEST PUSH2 0x34F PUSH32 0x0 DUP2 JUMP JUMPDEST PUSH2 0x2AA PUSH2 0x4F3 CALLDATASIZE PUSH1 0x4 PUSH2 0x2418 JUMP JUMPDEST PUSH2 0x1304 JUMP JUMPDEST PUSH2 0x284 PUSH1 0x5 SLOAD DUP2 JUMP JUMPDEST PUSH1 0x0 SLOAD PUSH20 0xFFFFFFFFFFFFFFFFFFFFFFFFFFFFFFFFFFFFFFFF AND PUSH2 0x34F JUMP JUMPDEST PUSH2 0x284 PUSH1 0x4 SLOAD DUP2 JUMP JUMPDEST PUSH2 0x284 PUSH1 0x0 DUP2 JUMP JUMPDEST PUSH2 0x284 PUSH2 0x2710 DUP2 JUMP JUMPDEST PUSH2 0x2AA PUSH2 0x547 CALLDATASIZE PUSH1 0x4 PUSH2 0x245C JUMP JUMPDEST PUSH2 0x1394 JUMP JUMPDEST PUSH2 0x284 PUSH5 0xE8D4A51000 DUP2 JUMP JUMPDEST PUSH2 0x2AA PUSH2 0x566 CALLDATASIZE PUSH1 0x4 PUSH2 0x2263 JUMP JUMPDEST PUSH2 0x149C JUMP JUMPDEST PUSH1 0x1 SLOAD PUSH2 0x34F SWAP1 PUSH20 0xFFFFFFFFFFFFFFFFFFFFFFFFFFFFFFFFFFFFFFFF AND DUP2 JUMP JUMPDEST PUSH2 0x34F PUSH32 0x0 DUP2 JUMP JUMPDEST PUSH2 0x2AA PUSH2 0x5C0 CALLDATASIZE PUSH1 0x4 PUSH2 0x2263 JUMP JUMPDEST PUSH2 0x1596 JUMP JUMPDEST PUSH2 0x2AA PUSH2 0x5D3 CALLDATASIZE PUSH1 0x4 PUSH2 0x2491 JUMP JUMPDEST PUSH2 0x16C6 JUMP JUMPDEST PUSH1 0x0 SLOAD PUSH20 0xFFFFFFFFFFFFFFFFFFFFFFFFFFFFFFFFFFFFFFFF AND CALLER EQ PUSH2 0x65E JUMPI PUSH1 0x40 MLOAD PUSH32 0x8C379A000000000000000000000000000000000000000000000000000000000 DUP2 MSTORE PUSH1 0x20 PUSH1 0x4 DUP3 ADD DUP2 SWAP1 MSTORE PUSH1 0x24 DUP3 ADD MSTORE PUSH32 0x4F776E61626C653A2063616C6C6572206973206E6F7420746865206F776E6572 PUSH1 0x44 DUP3 ADD MSTORE PUSH1 0x64 ADD JUMPDEST PUSH1 0x40 MLOAD DUP1 SWAP2 SUB SWAP1 REVERT JUMPDEST PUSH1 0x0 DUP2 GT DUP1 ISZERO PUSH2 0x672 JUMPI POP PUSH4 0x5F5E100 DUP2 GT ISZERO JUMPDEST PUSH2 0x6D8 JUMPI PUSH1 0x40 MLOAD PUSH32 0x8C379A000000000000000000000000000000000000000000000000000000000 DUP2 MSTORE PUSH1 0x20 PUSH1 0x4 DUP3 ADD MSTORE PUSH1 0xA PUSH1 0x24 DUP3 ADD MSTORE PUSH32 0x496E76616C696420634200000000000000000000000000000000000000000000 PUSH1 0x44 DUP3 ADD MSTORE PUSH1 0x64 ADD PUSH2 0x655 JUMP JUMPDEST PUSH1 0x5 DUP1 SLOAD SWAP1 DUP3 SWAP1 SSTORE PUSH1 0x40 DUP1 MLOAD DUP3 DUP2 MSTORE PUSH1 0x20 DUP2 ADD DUP5 SWAP1 MSTORE PUSH32 0xFF6A4B972407D470846BD3A5979C60D68807653244CC8D096C4174A76486E71C SWAP2 ADD JUMPDEST PUSH1 0x40 MLOAD DUP1 SWAP2 SUB SWAP1 LOG1 POP POP JUMP JUMPDEST PUSH1 0x0 CALLER PUSH20 0xFFFFFFFFFFFFFFFFFFFFFFFFFFFFFFFFFFFFFFFF PUSH32 0x0 AND EQ PUSH2 0x7BF JUMPI PUSH1 0x40 MLOAD PUSH32 0x8C379A000000000000000000000000000000000000000000000000000000000 DUP2 MSTORE PUSH1 0x20 PUSH1 0x4 DUP3 ADD MSTORE PUSH1 0x11 PUSH1 0x24 DUP3 ADD MSTORE PUSH32 0x4E6F74204D617374657243686566205633000000000000000000000000000000 PUSH1 0x44 DUP3 ADD MSTORE PUSH1 0x64 ADD PUSH2 0x655 JUMP JUMPDEST PUSH1 0x0 DUP1 PUSH1 0x0 DUP1 PUSH1 0x0 PUSH32 0x0 PUSH20 0xFFFFFFFFFFFFFFFFFFFFFFFFFFFFFFFFFFFFFFFF AND PUSH4 0x3B1ACF74 DUP9 PUSH1 0x40 MLOAD DUP3 PUSH4 0xFFFFFFFF AND PUSH1 0xE0 SHL DUP2 MSTORE PUSH1 0x4 ADD PUSH2 0x822 SWAP2 DUP2 MSTORE PUSH1 0x20 ADD SWAP1 JUMP JUMPDEST PUSH2 0x120 PUSH1 0x40 MLOAD DUP1 DUP4 SUB DUP2 DUP7 GAS STATICCALL ISZERO DUP1 ISZERO PUSH2 0x840 JUMPI RETURNDATASIZE PUSH1 0x0 DUP1 RETURNDATACOPY RETURNDATASIZE PUSH1 0x0 REVERT JUMPDEST POP POP POP POP PUSH1 0x40 MLOAD RETURNDATASIZE PUSH1 0x1F NOT PUSH1 0x1F DUP3 ADD AND DUP3 ADD DUP1 PUSH1 0x40 MSTORE POP DUP2 ADD SWAP1 PUSH2 0x864 SWAP2 SWAP1 PUSH2 0x24F0 JUMP JUMPDEST SWAP9 POP SWAP9 POP SWAP9 POP POP POP POP POP SWAP5 POP SWAP5 POP DUP4 PUSH16 0xFFFFFFFFFFFFFFFFFFFFFFFFFFFFFFFF AND PUSH1 0x0 EQ DUP1 ISZERO PUSH2 0x894 JUMPI POP PUSH1 0x0 DUP2 GT JUMPDEST ISZERO PUSH2 0x89E JUMPI PUSH1 0x0 DUP1 REVERT JUMPDEST PUSH1 0x0 DUP3 DUP2 MSTORE PUSH1 0x8 PUSH1 0x20 MSTORE PUSH1 0x40 SWAP1 KECCAK256 SLOAD PUSH5 0xE8D4A51000 SWAP7 POP PUSH1 0xFF AND ISZERO PUSH2 0x9EF JUMPI PUSH2 0x8DB DUP4 DUP9 DUP5 DUP9 PUSH16 0xFFFFFFFFFFFFFFFFFFFFFFFFFFFFFFFF AND PUSH2 0x1827 JUMP JUMPDEST PUSH20 0xFFFFFFFFFFFFFFFFFFFFFFFFFFFFFFFFFFFFFFFF DUP4 AND PUSH1 0x0 SWAP1 DUP2 MSTORE PUSH1 0x9 PUSH1 0x20 SWAP1 DUP2 MSTORE PUSH1 0x40 DUP1 DUP4 KECCAK256 DUP11 DUP5 MSTORE DUP1 DUP4 MSTORE DUP2 DUP5 KECCAK256 SLOAD DUP7 DUP6 MSTORE PUSH1 0x7 SWAP1 SWAP4 MSTORE SWAP3 KECCAK256 SLOAD PUSH1 0xFF AND PUSH2 0x944 JUMPI PUSH1 0x0 DUP10 DUP2 MSTORE PUSH1 0x1 DUP4 ADD PUSH1 0x20 MSTORE PUSH1 0x40 SWAP1 KECCAK256 SLOAD ISZERO PUSH2 0x93F JUMPI PUSH2 0x93F DUP3 DUP11 PUSH2 0x18CC JUMP JUMPDEST PUSH2 0x991 JUMP JUMPDEST PUSH20 0xFFFFFFFFFFFFFFFFFFFFFFFFFFFFFFFFFFFFFFFF DUP6 AND PUSH1 0x0 SWAP1 DUP2 MSTORE PUSH1 0x3 PUSH1 0x20 SWAP1 DUP2 MSTORE PUSH1 0x40 DUP1 DUP4 KECCAK256 DUP8 DUP5 MSTORE SWAP1 SWAP2 MSTORE DUP2 KECCAK256 SLOAD PUSH2 0x984 SWAP2 DUP8 SWAP2 DUP8 SWAP2 PUSH1 0x1 PUSH2 0x19AF JUMP JUMPDEST SWAP8 POP PUSH2 0x991 DUP3 DUP11 DUP11 PUSH2 0x1BFD JUMP JUMPDEST DUP9 DUP5 DUP7 PUSH20 0xFFFFFFFFFFFFFFFFFFFFFFFFFFFFFFFFFFFFFFFF AND PUSH32 0x1E0E5EDA2403F0A5EFD54AB2B1ED4A66A026877E4255695D414A66ACB88419E8 DUP5 DUP13 PUSH1 0x40 MLOAD PUSH2 0x9E4 SWAP3 SWAP2 SWAP1 SWAP2 DUP3 MSTORE PUSH1 0x20 DUP3 ADD MSTORE PUSH1 0x40 ADD SWAP1 JUMP JUMPDEST PUSH1 0x40 MLOAD DUP1 SWAP2 SUB SWAP1 LOG4 POP POP JUMPDEST POP POP POP POP POP SWAP2 SWAP1 POP JUMP JUMPDEST PUSH1 0x0 DUP1 PUSH1 0x0 DUP1 PUSH2 0xA08 DUP6 PUSH2 0x1C68 JUMP JUMPDEST POP PUSH16 0xFFFFFFFFFFFFFFFFFFFFFFFFFFFFFFFF SWAP3 SWAP1 SWAP3 AND SWAP5 POP SWAP3 POP SWAP1 POP PUSH1 0x1 DUP2 PUSH2 0xD20 JUMPI PUSH1 0x0 DUP1 PUSH1 0x0 DUP1 PUSH32 0x0 PUSH20 0xFFFFFFFFFFFFFFFFFFFFFFFFFFFFFFFFFFFFFFFF AND PUSH4 0x99FBAB88 DUP12 PUSH1 0x40 MLOAD DUP3 PUSH4 0xFFFFFFFF AND PUSH1 0xE0 SHL DUP2 MSTORE PUSH1 0x4 ADD PUSH2 0xA8C SWAP2 DUP2 MSTORE PUSH1 0x20 ADD SWAP1 JUMP JUMPDEST PUSH2 0x180 PUSH1 0x40 MLOAD DUP1 DUP4 SUB DUP2 DUP7 GAS STATICCALL ISZERO DUP1 ISZERO PUSH2 0xAAA JUMPI RETURNDATASIZE PUSH1 0x0 DUP1 RETURNDATACOPY RETURNDATASIZE PUSH1 0x0 REVERT JUMPDEST POP POP POP POP PUSH1 0x40 MLOAD RETURNDATASIZE PUSH1 0x1F NOT PUSH1 0x1F DUP3 ADD AND DUP3 ADD DUP1 PUSH1 0x40 MSTORE POP DUP2 ADD SWAP1 PUSH2 0xACE SWAP2 SWAP1 PUSH2 0x2593 JUMP JUMPDEST POP POP POP POP SWAP8 POP POP POP SWAP6 POP SWAP6 POP SWAP6 POP POP POP DUP1 PUSH16 0xFFFFFFFFFFFFFFFFFFFFFFFFFFFFFFFF AND SWAP8 POP PUSH32 0x0 PUSH20 0xFFFFFFFFFFFFFFFFFFFFFFFFFFFFFFFFFFFFFFFF AND PUSH4 0x6352211E DUP12 PUSH1 0x40 MLOAD DUP3 PUSH4 0xFFFFFFFF AND PUSH1 0xE0 SHL DUP2 MSTORE PUSH1 0x4 ADD PUSH2 0xB4E SWAP2 DUP2 MSTORE PUSH1 0x20 ADD SWAP1 JUMP JUMPDEST PUSH1 0x20 PUSH1 0x40 MLOAD DUP1 DUP4 SUB DUP2 DUP7 GAS STATICCALL ISZERO DUP1 ISZERO PUSH2 0xB6B JUMPI RETURNDATASIZE PUSH1 0x0 DUP1 RETURNDATACOPY RETURNDATASIZE PUSH1 0x0 REVERT JUMPDEST POP POP POP POP PUSH1 0x40 MLOAD RETURNDATASIZE PUSH1 0x1F NOT PUSH1 0x1F DUP3 ADD AND DUP3 ADD DUP1 PUSH1 0x40 MSTORE POP DUP2 ADD SWAP1 PUSH2 0xB8F SWAP2 SWAP1 PUSH2 0x2674 JUMP JUMPDEST PUSH1 0x40 MLOAD PUSH32 0x1698EE8200000000000000000000000000000000000000000000000000000000 DUP2 MSTORE PUSH20 0xFFFFFFFFFFFFFFFFFFFFFFFFFFFFFFFFFFFFFFFF DUP7 DUP2 AND PUSH1 0x4 DUP4 ADD MSTORE DUP6 DUP2 AND PUSH1 0x24 DUP4 ADD MSTORE PUSH3 0xFFFFFF DUP6 AND PUSH1 0x44 DUP4 ADD MSTORE SWAP2 SWAP9 POP PUSH1 0x0 SWAP2 PUSH32 0x0 AND SWAP1 PUSH4 0x1698EE82 SWAP1 PUSH1 0x64 ADD PUSH1 0x20 PUSH1 0x40 MLOAD DUP1 DUP4 SUB DUP2 DUP7 GAS STATICCALL ISZERO DUP1 ISZERO PUSH2 0xC34 JUMPI RETURNDATASIZE PUSH1 0x0 DUP1 RETURNDATACOPY RETURNDATASIZE PUSH1 0x0 REVERT JUMPDEST POP POP POP POP PUSH1 0x40 MLOAD RETURNDATASIZE PUSH1 0x1F NOT PUSH1 0x1F DUP3 ADD AND DUP3 ADD DUP1 PUSH1 0x40 MSTORE POP DUP2 ADD SWAP1 PUSH2 0xC58 SWAP2 SWAP1 PUSH2 0x2674 JUMP JUMPDEST PUSH1 0x40 MLOAD PUSH32 0x743384D00000000000000000000000000000000000000000000000000000000 DUP2 MSTORE PUSH20 0xFFFFFFFFFFFFFFFFFFFFFFFFFFFFFFFFFFFFFFFF DUP1 DUP4 AND PUSH1 0x4 DUP4 ADD MSTORE SWAP2 SWAP3 POP PUSH32 0x0 SWAP1 SWAP2 AND SWAP1 PUSH4 0x743384D SWAP1 PUSH1 0x24 ADD PUSH1 0x20 PUSH1 0x40 MLOAD DUP1 DUP4 SUB DUP2 DUP7 GAS STATICCALL ISZERO DUP1 ISZERO PUSH2 0xCE9 JUMPI RETURNDATASIZE PUSH1 0x0 DUP1 RETURNDATACOPY RETURNDATASIZE PUSH1 0x0 REVERT JUMPDEST POP POP POP POP PUSH1 0x40 MLOAD RETURNDATASIZE PUSH1 0x1F NOT PUSH1 0x1F DUP3 ADD AND DUP3 ADD DUP1 PUSH1 0x40 MSTORE POP DUP2 ADD SWAP1 PUSH2 0xD0D SWAP2 SWAP1 PUSH2 0x2691 JUMP JUMPDEST SWAP7 POP DUP7 ISZERO PUSH2 0xD1A JUMPI PUSH1 0x0 SWAP6 POP JUMPDEST POP POP POP POP POP JUMPDEST PUSH1 0x0 DUP3 DUP2 MSTORE PUSH1 0x7 PUSH1 0x20 MSTORE PUSH1 0x40 SWAP1 KECCAK256 SLOAD PUSH1 0xFF AND PUSH2 0xD46 JUMPI POP PUSH5 0xE8D4A51000 SWAP6 SWAP5 POP POP POP POP POP JUMP JUMPDEST PUSH20 0xFFFFFFFFFFFFFFFFFFFFFFFFFFFFFFFFFFFFFFFF DUP4 AND PUSH1 0x0 DUP2 DUP2 MSTORE PUSH1 0x2 PUSH1 0x20 SWAP1 DUP2 MSTORE PUSH1 0x40 DUP1 DUP4 KECCAK256 DUP11 DUP5 MSTORE DUP3 MSTORE DUP1 DUP4 KECCAK256 SLOAD SWAP4 DUP4 MSTORE PUSH1 0x3 DUP3 MSTORE DUP1 DUP4 KECCAK256 DUP7 DUP5 MSTORE SWAP1 SWAP2 MSTORE DUP2 KECCAK256 SLOAD SWAP1 SWAP2 DUP7 SWAP2 PUSH2 0xD98 SWAP2 SWAP1 PUSH2 0x26D9 JUMP JUMPDEST PUSH2 0xDA2 SWAP2 SWAP1 PUSH2 0x26F0 JUMP JUMPDEST SWAP1 POP PUSH2 0xDB1 DUP5 DUP5 DUP4 DUP9 DUP7 PUSH2 0x19AF JUMP JUMPDEST SWAP8 SWAP7 POP POP POP POP POP POP POP JUMP JUMPDEST PUSH20 0xFFFFFFFFFFFFFFFFFFFFFFFFFFFFFFFFFFFFFFFF DUP2 AND PUSH1 0x0 SWAP1 DUP2 MSTORE PUSH1 0x9 PUSH1 0x20 MSTORE PUSH1 0x40 SWAP1 KECCAK256 PUSH1 0x2 DUP2 ADD SLOAD PUSH1 0x60 SWAP2 SWAP1 PUSH2 0xDF4 JUMPI POP SWAP2 SWAP1 POP JUMP JUMPDEST PUSH1 0x2 DUP2 ADD SLOAD PUSH8 0xFFFFFFFFFFFFFFFF DUP2 GT ISZERO PUSH2 0xE11 JUMPI PUSH2 0xE11 PUSH2 0x2708 JUMP JUMPDEST PUSH1 0x40 MLOAD SWAP1 DUP1 DUP3 MSTORE DUP1 PUSH1 0x20 MUL PUSH1 0x20 ADD DUP3 ADD PUSH1 0x40 MSTORE DUP1 ISZERO PUSH2 0xE3A JUMPI DUP2 PUSH1 0x20 ADD PUSH1 0x20 DUP3 MUL DUP1 CALLDATASIZE DUP4 CALLDATACOPY ADD SWAP1 POP JUMPDEST POP SWAP2 POP PUSH1 0x0 JUMPDEST PUSH1 0x2 DUP3 ADD SLOAD DUP2 LT ISZERO PUSH2 0xE9B JUMPI DUP2 PUSH1 0x2 ADD DUP2 DUP2 SLOAD DUP2 LT PUSH2 0xE61 JUMPI PUSH2 0xE61 PUSH2 0x2737 JUMP JUMPDEST SWAP1 PUSH1 0x0 MSTORE PUSH1 0x20 PUSH1 0x0 KECCAK256 ADD SLOAD DUP4 DUP3 DUP2 MLOAD DUP2 LT PUSH2 0xE7E JUMPI PUSH2 0xE7E PUSH2 0x2737 JUMP JUMPDEST PUSH1 0x20 SWAP1 DUP2 MUL SWAP2 SWAP1 SWAP2 ADD ADD MSTORE DUP1 PUSH2 0xE93 DUP2 PUSH2 0x2766 JUMP JUMPDEST SWAP2 POP POP PUSH2 0xE40 JUMP JUMPDEST POP POP SWAP2 SWAP1 POP JUMP JUMPDEST PUSH1 0x0 DUP1 PUSH1 0x0 DUP1 PUSH2 0xEB1 DUP6 PUSH2 0x1C68 JUMP JUMPDEST POP PUSH20 0xFFFFFFFFFFFFFFFFFFFFFFFFFFFFFFFFFFFFFFFF SWAP2 SWAP1 SWAP2 AND PUSH1 0x0 SWAP1 DUP2 MSTORE PUSH1 0x9 PUSH1 0x20 SWAP1 DUP2 MSTORE PUSH1 0x40 DUP1 DUP4 KECCAK256 SWAP10 DUP4 MSTORE PUSH1 0x1 SWAP1 SWAP10 ADD SWAP1 MSTORE SWAP7 SWAP1 SWAP7 KECCAK256 SLOAD ISZERO ISZERO SWAP7 SWAP5 POP POP POP POP POP JUMP JUMPDEST PUSH1 0x0 SLOAD PUSH20 0xFFFFFFFFFFFFFFFFFFFFFFFFFFFFFFFFFFFFFFFF AND CALLER EQ PUSH2 0xF77 JUMPI PUSH1 0x40 MLOAD PUSH32 0x8C379A000000000000000000000000000000000000000000000000000000000 DUP2 MSTORE PUSH1 0x20 PUSH1 0x4 DUP3 ADD DUP2 SWAP1 MSTORE PUSH1 0x24 DUP3 ADD MSTORE PUSH32 0x4F776E61626C653A2063616C6C6572206973206E6F7420746865206F776E6572 PUSH1 0x44 DUP3 ADD MSTORE PUSH1 0x64 ADD PUSH2 0x655 JUMP JUMPDEST PUSH2 0x2710 DUP2 LT ISZERO DUP1 ISZERO PUSH2 0xF8C JUMPI POP PUSH3 0x186A0 DUP2 GT ISZERO JUMPDEST PUSH2 0xFF2 JUMPI PUSH1 0x40 MLOAD PUSH32 0x8C379A000000000000000000000000000000000000000000000000000000000 DUP2 MSTORE PUSH1 0x20 PUSH1 0x4 DUP3 ADD MSTORE PUSH1 0xA PUSH1 0x24 DUP3 ADD MSTORE PUSH32 0x496E76616C696420634100000000000000000000000000000000000000000000 PUSH1 0x44 DUP3 ADD MSTORE PUSH1 0x64 ADD PUSH2 0x655 JUMP JUMPDEST PUSH1 0x4 DUP1 SLOAD SWAP1 DUP3 SWAP1 SSTORE PUSH1 0x40 DUP1 MLOAD DUP3 DUP2 MSTORE PUSH1 0x20 DUP2 ADD DUP5 SWAP1 MSTORE PUSH32 0x948053D58D4DFED61C0843C01F010E1A4446C65F03D475567102CC64DFE0ECD4 SWAP2 ADD PUSH2 0x712 JUMP JUMPDEST PUSH1 0x1 SLOAD PUSH20 0xFFFFFFFFFFFFFFFFFFFFFFFFFFFFFFFFFFFFFFFF AND CALLER EQ PUSH2 0x10B1 JUMPI PUSH1 0x40 MLOAD PUSH32 0x8C379A000000000000000000000000000000000000000000000000000000000 DUP2 MSTORE PUSH1 0x20 PUSH1 0x4 DUP3 ADD MSTORE PUSH1 0x11 PUSH1 0x24 DUP3 ADD MSTORE PUSH32 0x4E6F7420766563616B652063616C6C6572000000000000000000000000000000 PUSH1 0x44 DUP3 ADD MSTORE PUSH1 0x64 ADD PUSH2 0x655 JUMP JUMPDEST PUSH2 0x10BA DUP8 PUSH2 0x1D20 JUMP JUMPDEST POP POP POP POP POP POP POP JUMP JUMPDEST PUSH1 0x0 SLOAD PUSH20 0xFFFFFFFFFFFFFFFFFFFFFFFFFFFFFFFFFFFFFFFF AND CALLER EQ PUSH2 0x1144 JUMPI PUSH1 0x40 MLOAD PUSH32 0x8C379A000000000000000000000000000000000000000000000000000000000 DUP2 MSTORE PUSH1 0x20 PUSH1 0x4 DUP3 ADD DUP2 SWAP1 MSTORE PUSH1 0x24 DUP3 ADD MSTORE PUSH32 0x4F776E61626C653A2063616C6C6572206973206E6F7420746865206F776E6572 PUSH1 0x44 DUP3 ADD MSTORE PUSH1 0x64 ADD PUSH2 0x655 JUMP JUMPDEST PUSH1 0x0 JUMPDEST DUP2 DUP2 LT ISZERO PUSH2 0x1272 JUMPI PUSH1 0x0 DUP4 DUP4 DUP4 DUP2 DUP2 LT PUSH2 0x1163 JUMPI PUSH2 0x1163 PUSH2 0x2737 JUMP JUMPDEST SWAP1 POP PUSH1 0x40 MUL ADD DUP1 CALLDATASIZE SUB DUP2 ADD SWAP1 PUSH2 0x1179 SWAP2 SWAP1 PUSH2 0x279F JUMP JUMPDEST SWAP1 POP DUP1 PUSH1 0x20 ADD MLOAD DUP1 ISZERO PUSH2 0x119D JUMPI POP DUP1 MLOAD PUSH1 0x0 SWAP1 DUP2 MSTORE PUSH1 0x8 PUSH1 0x20 MSTORE PUSH1 0x40 SWAP1 KECCAK256 SLOAD PUSH1 0xFF AND ISZERO JUMPDEST ISZERO PUSH2 0x11DC JUMPI DUP1 MLOAD PUSH1 0x0 SWAP1 DUP2 MSTORE PUSH1 0x8 PUSH1 0x20 MSTORE PUSH1 0x40 SWAP1 KECCAK256 DUP1 SLOAD PUSH32 0xFFFFFFFFFFFFFFFFFFFFFFFFFFFFFFFFFFFFFFFFFFFFFFFFFFFFFFFFFFFFFF00 AND PUSH1 0x1 OR SWAP1 SSTORE JUMPDEST PUSH1 0x20 DUP2 DUP2 ADD DUP1 MLOAD DUP4 MLOAD PUSH1 0x0 SWAP1 DUP2 MSTORE PUSH1 0x7 DUP5 MSTORE PUSH1 0x40 SWAP1 DUP2 SWAP1 KECCAK256 DUP1 SLOAD PUSH32 0xFFFFFFFFFFFFFFFFFFFFFFFFFFFFFFFFFFFFFFFFFFFFFFFFFFFFFFFFFFFFFF00 AND SWAP3 ISZERO ISZERO SWAP3 SWAP1 SWAP3 OR SWAP1 SWAP2 SSTORE DUP4 MLOAD SWAP2 MLOAD DUP2 MLOAD SWAP3 DUP4 MSTORE ISZERO ISZERO SWAP3 DUP3 ADD SWAP3 SWAP1 SWAP3 MSTORE PUSH32 0xBEEF892AF000AF61E107EF5E9C764ACBCCD54157FD6C219D241750FB3ECA3102 SWAP2 ADD PUSH1 0x40 MLOAD DUP1 SWAP2 SUB SWAP1 LOG1 POP DUP1 PUSH2 0x126A DUP2 PUSH2 0x2766 JUMP JUMPDEST SWAP2 POP POP PUSH2 0x1147 JUMP JUMPDEST POP POP POP JUMP JUMPDEST PUSH1 0x0 SLOAD PUSH20 0xFFFFFFFFFFFFFFFFFFFFFFFFFFFFFFFFFFFFFFFF AND CALLER EQ PUSH2 0x12F8 JUMPI PUSH1 0x40 MLOAD PUSH32 0x8C379A000000000000000000000000000000000000000000000000000000000 DUP2 MSTORE PUSH1 0x20 PUSH1 0x4 DUP3 ADD DUP2 SWAP1 MSTORE PUSH1 0x24 DUP3 ADD MSTORE PUSH32 0x4F776E61626C653A2063616C6C6572206973206E6F7420746865206F776E6572 PUSH1 0x44 DUP3 ADD MSTORE PUSH1 0x64 ADD PUSH2 0x655 JUMP JUMPDEST PUSH2 0x1302 PUSH1 0x0 PUSH2 0x1DE7 JUMP JUMPDEST JUMP JUMPDEST PUSH1 0x1 SLOAD PUSH20 0xFFFFFFFFFFFFFFFFFFFFFFFFFFFFFFFFFFFFFFFF AND CALLER EQ PUSH2 0x1385 JUMPI PUSH1 0x40 MLOAD PUSH32 0x8C379A000000000000000000000000000000000000000000000000000000000 DUP2 MSTORE PUSH1 0x20 PUSH1 0x4 DUP3 ADD MSTORE PUSH1 0x11 PUSH1 0x24 DUP3 ADD MSTORE PUSH32 0x4E6F7420766563616B652063616C6C6572000000000000000000000000000000 PUSH1 0x44 DUP3 ADD MSTORE PUSH1 0x64 ADD PUSH2 0x655 JUMP JUMPDEST PUSH2 0x138E DUP5 PUSH2 0x1D20 JUMP JUMPDEST POP POP POP POP JUMP JUMPDEST CALLER PUSH20 0xFFFFFFFFFFFFFFFFFFFFFFFFFFFFFFFFFFFFFFFF PUSH32 0x0 AND EQ PUSH2 0x1433 JUMPI PUSH1 0x40 MLOAD PUSH32 0x8C379A000000000000000000000000000000000000000000000000000000000 DUP2 MSTORE PUSH1 0x20 PUSH1 0x4 DUP3 ADD MSTORE PUSH1 0x11 PUSH1 0x24 DUP3 ADD MSTORE PUSH32 0x4E6F74204D617374657243686566205633000000000000000000000000000000 PUSH1 0x44 DUP3 ADD MSTORE PUSH1 0x64 ADD PUSH2 0x655 JUMP JUMPDEST PUSH1 0x0 DUP2 DUP2 MSTORE PUSH1 0x8 PUSH1 0x20 MSTORE PUSH1 0x40 SWAP1 KECCAK256 SLOAD PUSH1 0xFF AND ISZERO PUSH2 0x1272 JUMPI PUSH2 0x1457 DUP4 DUP4 DUP4 PUSH1 0x0 PUSH2 0x1827 JUMP JUMPDEST PUSH20 0xFFFFFFFFFFFFFFFFFFFFFFFFFFFFFFFFFFFFFFFF DUP4 AND PUSH1 0x0 SWAP1 DUP2 MSTORE PUSH1 0x9 PUSH1 0x20 SWAP1 DUP2 MSTORE PUSH1 0x40 DUP1 DUP4 KECCAK256 DUP6 DUP5 MSTORE PUSH1 0x1 DUP2 ADD SWAP1 SWAP3 MSTORE SWAP1 SWAP2 KECCAK256 SLOAD ISZERO PUSH2 0x138E JUMPI PUSH2 0x138E DUP2 DUP5 PUSH2 0x18CC JUMP JUMPDEST PUSH1 0x0 SLOAD PUSH20 0xFFFFFFFFFFFFFFFFFFFFFFFFFFFFFFFFFFFFFFFF AND CALLER EQ PUSH2 0x151D JUMPI PUSH1 0x40 MLOAD PUSH32 0x8C379A000000000000000000000000000000000000000000000000000000000 DUP2 MSTORE PUSH1 0x20 PUSH1 0x4 DUP3 ADD DUP2 SWAP1 MSTORE PUSH1 0x24 DUP3 ADD MSTORE PUSH32 0x4F776E61626C653A2063616C6C6572206973206E6F7420746865206F776E6572 PUSH1 0x44 DUP3 ADD MSTORE PUSH1 0x64 ADD PUSH2 0x655 JUMP JUMPDEST PUSH1 0x1 DUP1 SLOAD PUSH32 0xFFFFFFFFFFFFFFFFFFFFFFFF0000000000000000000000000000000000000000 AND PUSH20 0xFFFFFFFFFFFFFFFFFFFFFFFFFFFFFFFFFFFFFFFF DUP4 AND SWAP1 DUP2 OR SWAP1 SWAP2 SSTORE PUSH1 0x40 MLOAD SWAP1 DUP2 MSTORE PUSH32 0x74893AD32AA66290F59F1716275159E5945397884CB67B7A5A19C96473482E16 SWAP1 PUSH1 0x20 ADD PUSH1 0x40 MLOAD DUP1 SWAP2 SUB SWAP1 LOG1 POP JUMP JUMPDEST PUSH1 0x0 SLOAD PUSH20 0xFFFFFFFFFFFFFFFFFFFFFFFFFFFFFFFFFFFFFFFF AND CALLER EQ PUSH2 0x1617 JUMPI PUSH1 0x40 MLOAD PUSH32 0x8C379A000000000000000000000000000000000000000000000000000000000 DUP2 MSTORE PUSH1 0x20 PUSH1 0x4 DUP3 ADD DUP2 SWAP1 MSTORE PUSH1 0x24 DUP3 ADD MSTORE PUSH32 0x4F776E61626C653A2063616C6C6572206973206E6F7420746865206F776E6572 PUSH1 0x44 DUP3 ADD MSTORE PUSH1 0x64 ADD PUSH2 0x655 JUMP JUMPDEST PUSH20 0xFFFFFFFFFFFFFFFFFFFFFFFFFFFFFFFFFFFFFFFF DUP2 AND PUSH2 0x16BA JUMPI PUSH1 0x40 MLOAD PUSH32 0x8C379A000000000000000000000000000000000000000000000000000000000 DUP2 MSTORE PUSH1 0x20 PUSH1 0x4 DUP3 ADD MSTORE PUSH1 0x26 PUSH1 0x24 DUP3 ADD MSTORE PUSH32 0x4F776E61626C653A206E6577206F776E657220697320746865207A65726F2061 PUSH1 0x44 DUP3 ADD MSTORE PUSH32 0x6464726573730000000000000000000000000000000000000000000000000000 PUSH1 0x64 DUP3 ADD MSTORE PUSH1 0x84 ADD PUSH2 0x655 JUMP JUMPDEST PUSH2 0x16C3 DUP2 PUSH2 0x1DE7 JUMP JUMPDEST POP JUMP JUMPDEST PUSH1 0x0 SLOAD PUSH20 0xFFFFFFFFFFFFFFFFFFFFFFFFFFFFFFFFFFFFFFFF AND CALLER EQ PUSH2 0x1747 JUMPI PUSH1 0x40 MLOAD PUSH32 0x8C379A000000000000000000000000000000000000000000000000000000000 DUP2 MSTORE PUSH1 0x20 PUSH1 0x4 DUP3 ADD DUP2 SWAP1 MSTORE PUSH1 0x24 DUP3 ADD MSTORE PUSH32 0x4F776E61626C653A2063616C6C6572206973206E6F7420746865206F776E6572 PUSH1 0x44 DUP3 ADD MSTORE PUSH1 0x64 ADD PUSH2 0x655 JUMP JUMPDEST PUSH1 0x0 DUP2 GT DUP1 ISZERO PUSH2 0x175B JUMPI POP PUSH4 0x5F5E100 DUP2 GT ISZERO JUMPDEST DUP1 PUSH2 0x1764 JUMPI POP DUP1 ISZERO JUMPDEST PUSH2 0x17CA JUMPI PUSH1 0x40 MLOAD PUSH32 0x8C379A000000000000000000000000000000000000000000000000000000000 DUP2 MSTORE PUSH1 0x20 PUSH1 0x4 DUP3 ADD MSTORE PUSH1 0xA PUSH1 0x24 DUP3 ADD MSTORE PUSH32 0x496E76616C696420634200000000000000000000000000000000000000000000 PUSH1 0x44 DUP3 ADD MSTORE PUSH1 0x64 ADD PUSH2 0x655 JUMP JUMPDEST PUSH1 0x5 DUP1 SLOAD PUSH1 0x0 DUP5 DUP2 MSTORE PUSH1 0x6 PUSH1 0x20 SWAP1 DUP2 MSTORE PUSH1 0x40 SWAP2 DUP3 SWAP1 KECCAK256 DUP6 SWAP1 SSTORE SWAP3 SLOAD DUP2 MLOAD DUP7 DUP2 MSTORE SWAP4 DUP5 ADD DUP4 SWAP1 MSTORE SWAP1 DUP4 ADD MSTORE SWAP1 PUSH32 0xA6A879D52F70EE909A019D4E93C2B17407CFE6A072DA32219AD04AB25E15DE42 SWAP1 PUSH1 0x60 ADD PUSH1 0x40 MLOAD DUP1 SWAP2 SUB SWAP1 LOG1 POP POP POP JUMP JUMPDEST PUSH20 0xFFFFFFFFFFFFFFFFFFFFFFFFFFFFFFFFFFFFFFFF DUP5 AND PUSH1 0x0 DUP2 DUP2 MSTORE PUSH1 0x2 PUSH1 0x20 SWAP1 DUP2 MSTORE PUSH1 0x40 DUP1 DUP4 KECCAK256 DUP8 DUP5 MSTORE DUP3 MSTORE DUP1 DUP4 KECCAK256 SLOAD SWAP4 DUP4 MSTORE PUSH1 0x3 DUP3 MSTORE DUP1 DUP4 KECCAK256 DUP7 DUP5 MSTORE SWAP1 SWAP2 MSTORE SWAP1 KECCAK256 SLOAD DUP3 SWAP2 PUSH2 0x1876 SWAP2 PUSH2 0x26D9 JUMP JUMPDEST PUSH2 0x1880 SWAP2 SWAP1 PUSH2 0x26F0 JUMP JUMPDEST PUSH20 0xFFFFFFFFFFFFFFFFFFFFFFFFFFFFFFFFFFFFFFFF SWAP1 SWAP5 AND PUSH1 0x0 DUP2 DUP2 MSTORE PUSH1 0x3 PUSH1 0x20 SWAP1 DUP2 MSTORE PUSH1 0x40 DUP1 DUP4 KECCAK256 SWAP6 DUP4 MSTORE SWAP5 DUP2 MSTORE DUP5 DUP3 KECCAK256 SWAP7 SWAP1 SWAP7 SSTORE SWAP1 DUP2 MSTORE PUSH1 0x2 DUP6 MSTORE DUP3 DUP2 KECCAK256 SWAP4 DUP2 MSTORE SWAP3 SWAP1 SWAP4 MSTORE SWAP1 KECCAK256 SSTORE JUMP JUMPDEST PUSH1 0x0 DUP2 DUP2 MSTORE PUSH1 0x1 DUP4 ADD PUSH1 0x20 MSTORE PUSH1 0x40 SWAP1 KECCAK256 SLOAD DUP1 PUSH2 0x18E7 JUMPI POP POP POP JUMP JUMPDEST PUSH1 0x2 DUP4 ADD DUP1 SLOAD PUSH1 0x0 SWAP2 SWAP1 PUSH2 0x18FD SWAP1 PUSH1 0x1 SWAP1 PUSH2 0x26D9 JUMP JUMPDEST DUP2 SLOAD DUP2 LT PUSH2 0x190D JUMPI PUSH2 0x190D PUSH2 0x2737 JUMP JUMPDEST SWAP1 PUSH1 0x0 MSTORE PUSH1 0x20 PUSH1 0x0 KECCAK256 ADD SLOAD SWAP1 POP DUP1 DUP4 EQ PUSH2 0x1964 JUMPI DUP1 PUSH1 0x2 DUP6 ADD PUSH2 0x1931 PUSH1 0x1 DUP6 PUSH2 0x26D9 JUMP JUMPDEST DUP2 SLOAD DUP2 LT PUSH2 0x1941 JUMPI PUSH2 0x1941 PUSH2 0x2737 JUMP JUMPDEST PUSH1 0x0 SWAP2 DUP3 MSTORE PUSH1 0x20 DUP1 DUP4 KECCAK256 SWAP1 SWAP2 ADD SWAP3 SWAP1 SWAP3 SSTORE DUP3 DUP2 MSTORE PUSH1 0x1 DUP7 ADD SWAP1 SWAP2 MSTORE PUSH1 0x40 SWAP1 KECCAK256 DUP3 SWAP1 SSTORE JUMPDEST PUSH1 0x0 DUP4 DUP2 MSTORE PUSH1 0x20 DUP6 DUP2 MSTORE PUSH1 0x40 DUP1 DUP4 KECCAK256 DUP4 SWAP1 SSTORE PUSH1 0x1 DUP8 ADD SWAP1 SWAP2 MSTORE DUP2 KECCAK256 SSTORE PUSH1 0x2 DUP5 ADD DUP1 SLOAD DUP1 PUSH2 0x1993 JUMPI PUSH2 0x1993 PUSH2 0x281A JUMP JUMPDEST PUSH1 0x1 SWAP1 SUB DUP2 DUP2 SWAP1 PUSH1 0x0 MSTORE PUSH1 0x20 PUSH1 0x0 KECCAK256 ADD PUSH1 0x0 SWAP1 SSTORE SWAP1 SSTORE POP POP POP POP JUMP JUMPDEST PUSH1 0x0 DUP1 PUSH3 0x186A0 DUP6 PUSH1 0x4 SLOAD PUSH2 0x19C4 SWAP2 SWAP1 PUSH2 0x2849 JUMP JUMPDEST PUSH2 0x19CE SWAP2 SWAP1 PUSH2 0x2886 JUMP JUMPDEST SWAP1 POP DUP1 PUSH2 0x19E3 JUMPI PUSH5 0xE8D4A51000 SWAP2 POP POP PUSH2 0x1BF4 JUMP JUMPDEST PUSH1 0x0 PUSH2 0x19F0 DUP8 DUP7 DUP7 PUSH2 0x1E5C JUMP JUMPDEST PUSH1 0x0 DUP9 DUP2 MSTORE PUSH1 0x6 PUSH1 0x20 MSTORE PUSH1 0x40 DUP2 KECCAK256 SLOAD SWAP2 SWAP3 POP SWAP1 PUSH2 0x1A0F JUMPI PUSH1 0x5 SLOAD PUSH2 0x1A1F JUMP JUMPDEST PUSH1 0x0 DUP9 DUP2 MSTORE PUSH1 0x6 PUSH1 0x20 MSTORE PUSH1 0x40 SWAP1 KECCAK256 SLOAD JUMPDEST SWAP1 POP PUSH1 0x0 PUSH32 0x0 PUSH20 0xFFFFFFFFFFFFFFFFFFFFFFFFFFFFFFFFFFFFFFFF AND PUSH4 0x18160DDD PUSH1 0x40 MLOAD DUP2 PUSH4 0xFFFFFFFF AND PUSH1 0xE0 SHL DUP2 MSTORE PUSH1 0x4 ADD PUSH1 0x20 PUSH1 0x40 MLOAD DUP1 DUP4 SUB DUP2 DUP7 GAS STATICCALL ISZERO DUP1 ISZERO PUSH2 0x1A8E JUMPI RETURNDATASIZE PUSH1 0x0 DUP1 RETURNDATACOPY RETURNDATASIZE PUSH1 0x0 REVERT JUMPDEST POP POP POP POP PUSH1 0x40 MLOAD RETURNDATASIZE PUSH1 0x1F NOT PUSH1 0x1F DUP3 ADD AND DUP3 ADD DUP1 PUSH1 0x40 MSTORE POP DUP2 ADD SWAP1 PUSH2 0x1AB2 SWAP2 SWAP1 PUSH2 0x2691 JUMP JUMPDEST SWAP1 POP DUP1 PUSH2 0x1ACA JUMPI PUSH5 0xE8D4A51000 SWAP5 POP POP POP POP POP PUSH2 0x1BF4 JUMP JUMPDEST PUSH1 0x40 MLOAD PUSH32 0x70A0823100000000000000000000000000000000000000000000000000000000 DUP2 MSTORE PUSH20 0xFFFFFFFFFFFFFFFFFFFFFFFFFFFFFFFFFFFFFFFF DUP12 DUP2 AND PUSH1 0x4 DUP4 ADD MSTORE PUSH1 0x0 SWAP2 PUSH2 0x2710 SWAP2 DUP5 SWAP2 DUP7 SWAP2 PUSH32 0x0 AND SWAP1 PUSH4 0x70A08231 SWAP1 PUSH1 0x24 ADD PUSH1 0x20 PUSH1 0x40 MLOAD DUP1 DUP4 SUB DUP2 DUP7 GAS STATICCALL ISZERO DUP1 ISZERO PUSH2 0x1B61 JUMPI RETURNDATASIZE PUSH1 0x0 DUP1 RETURNDATACOPY RETURNDATASIZE PUSH1 0x0 REVERT JUMPDEST POP POP POP POP PUSH1 0x40 MLOAD RETURNDATASIZE PUSH1 0x1F NOT PUSH1 0x1F DUP3 ADD AND DUP3 ADD DUP1 PUSH1 0x40 MSTORE POP DUP2 ADD SWAP1 PUSH2 0x1B85 SWAP2 SWAP1 PUSH2 0x2691 JUMP JUMPDEST PUSH2 0x1B8F SWAP1 DUP9 PUSH2 0x2849 JUMP JUMPDEST PUSH2 0x1B99 SWAP2 SWAP1 PUSH2 0x2849 JUMP JUMPDEST PUSH2 0x1BA3 SWAP2 SWAP1 PUSH2 0x2886 JUMP JUMPDEST PUSH2 0x1BAD SWAP2 SWAP1 PUSH2 0x2886 JUMP JUMPDEST SWAP1 POP DUP5 PUSH5 0xE8D4A51000 PUSH2 0x1BC0 DUP4 DUP4 PUSH2 0x26F0 JUMP JUMPDEST DUP12 GT ISZERO PUSH2 0x1BD6 JUMPI PUSH2 0x1BD1 DUP4 DUP9 PUSH2 0x26F0 JUMP JUMPDEST PUSH2 0x1BD8 JUMP JUMPDEST DUP11 JUMPDEST PUSH2 0x1BE2 SWAP2 SWAP1 PUSH2 0x2849 JUMP JUMPDEST PUSH2 0x1BEC SWAP2 SWAP1 PUSH2 0x2886 JUMP JUMPDEST SWAP6 POP POP POP POP POP POP JUMPDEST SWAP6 SWAP5 POP POP POP POP POP JUMP JUMPDEST PUSH1 0x0 DUP3 DUP2 MSTORE PUSH1 0x1 DUP5 ADD PUSH1 0x20 SWAP1 DUP2 MSTORE PUSH1 0x40 DUP1 DUP4 KECCAK256 SLOAD SWAP2 DUP7 SWAP1 MSTORE SWAP1 SWAP2 KECCAK256 DUP3 SWAP1 SSTORE DUP1 ISZERO PUSH2 0x1C27 JUMPI POP POP POP POP JUMP JUMPDEST PUSH1 0x2 DUP5 ADD SLOAD PUSH2 0x1C37 SWAP1 PUSH1 0x1 PUSH2 0x26F0 JUMP JUMPDEST PUSH1 0x0 DUP5 DUP2 MSTORE PUSH1 0x1 DUP1 DUP8 ADD PUSH1 0x20 SWAP1 DUP2 MSTORE PUSH1 0x40 DUP4 KECCAK256 SWAP4 SWAP1 SWAP4 SSTORE PUSH1 0x2 SWAP1 SWAP7 ADD DUP1 SLOAD SWAP7 DUP8 ADD DUP2 SSTORE DUP2 MSTORE KECCAK256 SWAP1 SWAP4 ADD SWAP2 SWAP1 SWAP2 SSTORE POP POP JUMP JUMPDEST PUSH1 0x0 DUP1 PUSH1 0x0 DUP1 PUSH32 0x0 PUSH20 0xFFFFFFFFFFFFFFFFFFFFFFFFFFFFFFFFFFFFFFFF AND PUSH4 0x3B1ACF74 DUP7 PUSH1 0x40 MLOAD DUP3 PUSH4 0xFFFFFFFF AND PUSH1 0xE0 SHL DUP2 MSTORE PUSH1 0x4 ADD PUSH2 0x1CC9 SWAP2 DUP2 MSTORE PUSH1 0x20 ADD SWAP1 JUMP JUMPDEST PUSH2 0x120 PUSH1 0x40 MLOAD DUP1 DUP4 SUB DUP2 DUP7 GAS STATICCALL ISZERO DUP1 ISZERO PUSH2 0x1CE7 JUMPI RETURNDATASIZE PUSH1 0x0 DUP1 RETURNDATACOPY RETURNDATASIZE PUSH1 0x0 REVERT JUMPDEST POP POP POP POP PUSH1 0x40 MLOAD RETURNDATASIZE PUSH1 0x1F NOT PUSH1 0x1F DUP3 ADD AND DUP3 ADD DUP1 PUSH1 0x40 MSTORE POP DUP2 ADD SWAP1 PUSH2 0x1D0B SWAP2 SWAP1 PUSH2 0x24F0 JUMP JUMPDEST SWAP8 SWAP14 SWAP2 SWAP13 POP SWAP11 POP SWAP6 SWAP9 POP SWAP5 SWAP7 POP POP POP POP POP POP POP JUMP JUMPDEST PUSH20 0xFFFFFFFFFFFFFFFFFFFFFFFFFFFFFFFFFFFFFFFF DUP2 AND PUSH1 0x0 SWAP1 DUP2 MSTORE PUSH1 0x9 PUSH1 0x20 MSTORE PUSH1 0x40 SWAP1 KECCAK256 PUSH1 0x2 DUP2 ADD SLOAD DUP1 ISZERO PUSH2 0x1272 JUMPI PUSH1 0x0 JUMPDEST DUP2 DUP2 LT ISZERO PUSH2 0x138E JUMPI PUSH1 0x0 DUP4 PUSH1 0x2 ADD DUP3 DUP2 SLOAD DUP2 LT PUSH2 0x1D72 JUMPI PUSH2 0x1D72 PUSH2 0x2737 JUMP JUMPDEST SWAP1 PUSH1 0x0 MSTORE PUSH1 0x20 PUSH1 0x0 KECCAK256 ADD SLOAD SWAP1 POP PUSH1 0x0 DUP1 PUSH2 0x1D8B DUP4 PUSH2 0x1C68 JUMP JUMPDEST POP SWAP3 POP SWAP3 POP POP DUP2 PUSH20 0xFFFFFFFFFFFFFFFFFFFFFFFFFFFFFFFFFFFFFFFF AND DUP8 PUSH20 0xFFFFFFFFFFFFFFFFFFFFFFFFFFFFFFFFFFFFFFFF AND EQ ISZERO PUSH2 0x1DD1 JUMPI PUSH2 0x1DD1 DUP7 DUP4 DUP4 DUP7 PUSH2 0x1FB3 JUMP JUMPDEST POP POP POP DUP1 DUP1 PUSH2 0x1DDF SWAP1 PUSH2 0x2766 JUMP JUMPDEST SWAP2 POP POP PUSH2 0x1D53 JUMP JUMPDEST PUSH1 0x0 DUP1 SLOAD PUSH20 0xFFFFFFFFFFFFFFFFFFFFFFFFFFFFFFFFFFFFFFFF DUP4 DUP2 AND PUSH32 0xFFFFFFFFFFFFFFFFFFFFFFFF0000000000000000000000000000000000000000 DUP4 AND DUP2 OR DUP5 SSTORE PUSH1 0x40 MLOAD SWAP2 SWAP1 SWAP3 AND SWAP3 DUP4 SWAP2 PUSH32 0x8BE0079C531659141344CD1FD0A4F28419497F9722A3DAAFE3B4186F6B6457E0 SWAP2 SWAP1 LOG3 POP POP JUMP JUMPDEST PUSH1 0x0 DUP1 PUSH1 0x0 PUSH32 0x0 PUSH20 0xFFFFFFFFFFFFFFFFFFFFFFFFFFFFFFFFFFFFFFFF AND PUSH4 0x1526FE27 DUP8 PUSH1 0x40 MLOAD DUP3 PUSH4 0xFFFFFFFF AND PUSH1 0xE0 SHL DUP2 MSTORE PUSH1 0x4 ADD PUSH2 0x1EBC SWAP2 DUP2 MSTORE PUSH1 0x20 ADD SWAP1 JUMP JUMPDEST PUSH1 0xE0 PUSH1 0x40 MLOAD DUP1 DUP4 SUB DUP2 DUP7 GAS STATICCALL ISZERO DUP1 ISZERO PUSH2 0x1ED9 JUMPI RETURNDATASIZE PUSH1 0x0 DUP1 RETURNDATACOPY RETURNDATASIZE PUSH1 0x0 REVERT JUMPDEST POP POP POP POP PUSH1 0x40 MLOAD RETURNDATASIZE PUSH1 0x1F NOT PUSH1 0x1F DUP3 ADD AND DUP3 ADD DUP1 PUSH1 0x40 MSTORE POP DUP2 ADD SWAP1 PUSH2 0x1EFD SWAP2 SWAP1 PUSH2 0x28C1 JUMP JUMPDEST POP SWAP6 POP POP POP POP SWAP3 POP POP DUP4 PUSH2 0x1F18 JUMPI PUSH2 0x1F15 DUP6 DUP3 PUSH2 0x26F0 JUMP JUMPDEST SWAP1 POP JUMPDEST PUSH1 0x0 DUP3 PUSH20 0xFFFFFFFFFFFFFFFFFFFFFFFFFFFFFFFFFFFFFFFF AND PUSH4 0x1A686502 PUSH1 0x40 MLOAD DUP2 PUSH4 0xFFFFFFFF AND PUSH1 0xE0 SHL DUP2 MSTORE PUSH1 0x4 ADD PUSH1 0x20 PUSH1 0x40 MLOAD DUP1 DUP4 SUB DUP2 DUP7 GAS STATICCALL ISZERO DUP1 ISZERO PUSH2 0x1F65 JUMPI RETURNDATASIZE PUSH1 0x0 DUP1 RETURNDATACOPY RETURNDATASIZE PUSH1 0x0 REVERT JUMPDEST POP POP POP POP PUSH1 0x40 MLOAD RETURNDATASIZE PUSH1 0x1F NOT PUSH1 0x1F DUP3 ADD AND DUP3 ADD DUP1 PUSH1 0x40 MSTORE POP DUP2 ADD SWAP1 PUSH2 0x1F89 SWAP2 SWAP1 PUSH2 0x293A JUMP JUMPDEST PUSH16 0xFFFFFFFFFFFFFFFFFFFFFFFFFFFFFFFF AND SWAP1 POP DUP1 DUP3 GT ISZERO PUSH2 0x1FA9 JUMPI DUP1 SWAP2 POP JUMPDEST POP SWAP6 SWAP5 POP POP POP POP POP JUMP JUMPDEST PUSH1 0x0 DUP3 DUP2 MSTORE PUSH1 0x7 PUSH1 0x20 MSTORE PUSH1 0x40 SWAP1 KECCAK256 SLOAD PUSH1 0xFF AND PUSH2 0x209F JUMPI PUSH1 0x0 DUP2 DUP2 MSTORE PUSH1 0x20 DUP6 SWAP1 MSTORE PUSH1 0x40 SWAP1 KECCAK256 SLOAD PUSH5 0xE8D4A51000 LT ISZERO PUSH2 0x2090 JUMPI PUSH1 0x40 MLOAD PUSH32 0x69746A1D00000000000000000000000000000000000000000000000000000000 DUP2 MSTORE PUSH1 0x4 DUP2 ADD DUP3 SWAP1 MSTORE PUSH5 0xE8D4A51000 PUSH1 0x24 DUP3 ADD MSTORE PUSH32 0x0 PUSH20 0xFFFFFFFFFFFFFFFFFFFFFFFFFFFFFFFFFFFFFFFF AND SWAP1 PUSH4 0x69746A1D SWAP1 PUSH1 0x44 ADD PUSH1 0x0 PUSH1 0x40 MLOAD DUP1 DUP4 SUB DUP2 PUSH1 0x0 DUP8 DUP1 EXTCODESIZE ISZERO DUP1 ISZERO PUSH2 0x2077 JUMPI PUSH1 0x0 DUP1 REVERT JUMPDEST POP GAS CALL ISZERO DUP1 ISZERO PUSH2 0x208B JUMPI RETURNDATASIZE PUSH1 0x0 DUP1 RETURNDATACOPY RETURNDATASIZE PUSH1 0x0 REVERT JUMPDEST POP POP POP POP JUMPDEST PUSH2 0x209A DUP5 DUP3 PUSH2 0x18CC JUMP JUMPDEST PUSH2 0x138E JUMP JUMPDEST PUSH1 0x0 PUSH2 0x20AA DUP3 PUSH2 0x1C68 JUMP JUMPDEST PUSH20 0xFFFFFFFFFFFFFFFFFFFFFFFFFFFFFFFFFFFFFFFF DUP9 AND PUSH1 0x0 SWAP1 DUP2 MSTORE PUSH1 0x3 PUSH1 0x20 SWAP1 DUP2 MSTORE PUSH1 0x40 DUP1 DUP4 KECCAK256 DUP11 DUP5 MSTORE SWAP1 SWAP2 MSTORE DUP2 KECCAK256 SLOAD SWAP2 SWAP6 POP SWAP4 POP PUSH2 0x20F2 SWAP3 POP DUP8 SWAP2 POP DUP7 SWAP1 DUP5 PUSH1 0x1 PUSH2 0x19AF JUMP JUMPDEST SWAP1 POP PUSH5 0xE8D4A51000 DUP2 LT ISZERO PUSH2 0x210D JUMPI POP PUSH5 0xE8D4A51000 PUSH2 0x2124 JUMP JUMPDEST PUSH6 0x1D1A94A2000 DUP2 GT ISZERO PUSH2 0x2124 JUMPI POP PUSH6 0x1D1A94A2000 JUMPDEST DUP2 DUP2 EQ PUSH2 0x21D3 JUMPI PUSH1 0x40 MLOAD PUSH32 0x69746A1D00000000000000000000000000000000000000000000000000000000 DUP2 MSTORE PUSH1 0x4 DUP2 ADD DUP5 SWAP1 MSTORE PUSH1 0x24 DUP2 ADD DUP3 SWAP1 MSTORE PUSH32 0x0 PUSH20 0xFFFFFFFFFFFFFFFFFFFFFFFFFFFFFFFFFFFFFFFF AND SWAP1 PUSH4 0x69746A1D SWAP1 PUSH1 0x44 ADD PUSH1 0x0 PUSH1 0x40 MLOAD DUP1 DUP4 SUB DUP2 PUSH1 0x0 DUP8 DUP1 EXTCODESIZE ISZERO DUP1 ISZERO PUSH2 0x21BA JUMPI PUSH1 0x0 DUP1 REVERT JUMPDEST POP GAS CALL ISZERO DUP1 ISZERO PUSH2 0x21CE JUMPI RETURNDATASIZE PUSH1 0x0 DUP1 RETURNDATACOPY RETURNDATASIZE PUSH1 0x0 REVERT JUMPDEST POP POP POP POP JUMPDEST PUSH2 0x21DE DUP7 DUP5 DUP4 PUSH2 0x1BFD JUMP JUMPDEST DUP3 DUP5 DUP7 PUSH20 0xFFFFFFFFFFFFFFFFFFFFFFFFFFFFFFFFFFFFFFFF AND PUSH32 0x1E0E5EDA2403F0A5EFD54AB2B1ED4A66A026877E4255695D414A66ACB88419E8 DUP6 DUP6 PUSH1 0x40 MLOAD PUSH2 0x2231 SWAP3 SWAP2 SWAP1 SWAP2 DUP3 MSTORE PUSH1 0x20 DUP3 ADD MSTORE PUSH1 0x40 ADD SWAP1 JUMP JUMPDEST PUSH1 0x40 MLOAD DUP1 SWAP2 SUB SWAP1 LOG4 POP POP POP POP POP POP JUMP JUMPDEST PUSH20 0xFFFFFFFFFFFFFFFFFFFFFFFFFFFFFFFFFFFFFFFF DUP2 AND DUP2 EQ PUSH2 0x16C3 JUMPI PUSH1 0x0 DUP1 REVERT JUMPDEST PUSH1 0x0 PUSH1 0x20 DUP3 DUP5 SUB SLT ISZERO PUSH2 0x2275 JUMPI PUSH1 0x0 DUP1 REVERT JUMPDEST DUP2 CALLDATALOAD PUSH2 0x2280 DUP2 PUSH2 0x2241 JUMP JUMPDEST SWAP4 SWAP3 POP POP POP JUMP JUMPDEST PUSH1 0x0 PUSH1 0x20 DUP3 DUP5 SUB SLT ISZERO PUSH2 0x2299 JUMPI PUSH1 0x0 DUP1 REVERT JUMPDEST POP CALLDATALOAD SWAP2 SWAP1 POP JUMP JUMPDEST PUSH1 0x0 DUP1 PUSH1 0x40 DUP4 DUP6 SUB SLT ISZERO PUSH2 0x22B3 JUMPI PUSH1 0x0 DUP1 REVERT JUMPDEST DUP3 CALLDATALOAD PUSH2 0x22BE DUP2 PUSH2 0x2241 JUMP JUMPDEST SWAP5 PUSH1 0x20 SWAP4 SWAP1 SWAP4 ADD CALLDATALOAD SWAP4 POP POP POP JUMP JUMPDEST PUSH1 0x20 DUP1 DUP3 MSTORE DUP3 MLOAD DUP3 DUP3 ADD DUP2 SWAP1 MSTORE PUSH1 0x0 SWAP2 SWAP1 DUP5 DUP3 ADD SWAP1 PUSH1 0x40 DUP6 ADD SWAP1 DUP5 JUMPDEST DUP2 DUP2 LT ISZERO PUSH2 0x2304 JUMPI DUP4 MLOAD DUP4 MSTORE SWAP3 DUP5 ADD SWAP3 SWAP2 DUP5 ADD SWAP2 PUSH1 0x1 ADD PUSH2 0x22E8 JUMP JUMPDEST POP SWAP1 SWAP7 SWAP6 POP POP POP POP POP POP JUMP JUMPDEST DUP1 CALLDATALOAD PUSH1 0xF DUP2 SWAP1 SIGNEXTEND DUP2 EQ PUSH2 0x2322 JUMPI PUSH1 0x0 DUP1 REVERT JUMPDEST SWAP2 SWAP1 POP JUMP JUMPDEST DUP1 CALLDATALOAD DUP1 ISZERO ISZERO DUP2 EQ PUSH2 0x2322 JUMPI PUSH1 0x0 DUP1 REVERT JUMPDEST PUSH1 0x0 DUP1 PUSH1 0x0 DUP1 PUSH1 0x0 DUP1 PUSH1 0x0 PUSH1 0xE0 DUP9 DUP11 SUB SLT ISZERO PUSH2 0x2352 JUMPI PUSH1 0x0 DUP1 REVERT JUMPDEST DUP8 CALLDATALOAD PUSH2 0x235D DUP2 PUSH2 0x2241 JUMP JUMPDEST SWAP7 POP PUSH1 0x20 DUP9 ADD CALLDATALOAD SWAP6 POP PUSH1 0x40 DUP9 ADD CALLDATALOAD SWAP5 POP PUSH2 0x2379 PUSH1 0x60 DUP10 ADD PUSH2 0x2310 JUMP JUMPDEST SWAP4 POP PUSH1 0x80 DUP9 ADD CALLDATALOAD SWAP3 POP PUSH1 0xA0 DUP9 ADD CALLDATALOAD SWAP2 POP PUSH2 0x2395 PUSH1 0xC0 DUP10 ADD PUSH2 0x2327 JUMP JUMPDEST SWAP1 POP SWAP3 SWAP6 SWAP9 SWAP2 SWAP5 SWAP8 POP SWAP3 SWAP6 POP JUMP JUMPDEST PUSH1 0x0 DUP1 PUSH1 0x20 DUP4 DUP6 SUB SLT ISZERO PUSH2 0x23B6 JUMPI PUSH1 0x0 DUP1 REVERT JUMPDEST DUP3 CALLDATALOAD PUSH8 0xFFFFFFFFFFFFFFFF DUP1 DUP3 GT ISZERO PUSH2 0x23CE JUMPI PUSH1 0x0 DUP1 REVERT JUMPDEST DUP2 DUP6 ADD SWAP2 POP DUP6 PUSH1 0x1F DUP4 ADD SLT PUSH2 0x23E2 JUMPI PUSH1 0x0 DUP1 REVERT JUMPDEST DUP2 CALLDATALOAD DUP2 DUP2 GT ISZERO PUSH2 0x23F1 JUMPI PUSH1 0x0 DUP1 REVERT JUMPDEST DUP7 PUSH1 0x20 DUP3 PUSH1 0x6 SHL DUP6 ADD ADD GT ISZERO PUSH2 0x2406 JUMPI PUSH1 0x0 DUP1 REVERT JUMPDEST PUSH1 0x20 SWAP3 SWAP1 SWAP3 ADD SWAP7 SWAP2 SWAP6 POP SWAP1 SWAP4 POP POP POP POP JUMP JUMPDEST PUSH1 0x0 DUP1 PUSH1 0x0 DUP1 PUSH1 0x80 DUP6 DUP8 SUB SLT ISZERO PUSH2 0x242E JUMPI PUSH1 0x0 DUP1 REVERT JUMPDEST DUP5 CALLDATALOAD PUSH2 0x2439 DUP2 PUSH2 0x2241 JUMP JUMPDEST SWAP4 POP PUSH2 0x2447 PUSH1 0x20 DUP7 ADD PUSH2 0x2310 JUMP JUMPDEST SWAP4 SWAP7 SWAP4 SWAP6 POP POP POP POP PUSH1 0x40 DUP3 ADD CALLDATALOAD SWAP2 PUSH1 0x60 ADD CALLDATALOAD SWAP1 JUMP JUMPDEST PUSH1 0x0 DUP1 PUSH1 0x0 PUSH1 0x60 DUP5 DUP7 SUB SLT ISZERO PUSH2 0x2471 JUMPI PUSH1 0x0 DUP1 REVERT JUMPDEST DUP4 CALLDATALOAD PUSH2 0x247C DUP2 PUSH2 0x2241 JUMP JUMPDEST SWAP6 PUSH1 0x20 DUP6 ADD CALLDATALOAD SWAP6 POP PUSH1 0x40 SWAP1 SWAP5 ADD CALLDATALOAD SWAP4 SWAP3 POP POP POP JUMP JUMPDEST PUSH1 0x0 DUP1 PUSH1 0x40 DUP4 DUP6 SUB SLT ISZERO PUSH2 0x24A4 JUMPI PUSH1 0x0 DUP1 REVERT JUMPDEST POP POP DUP1 CALLDATALOAD SWAP3 PUSH1 0x20 SWAP1 SWAP2 ADD CALLDATALOAD SWAP2 POP JUMP JUMPDEST DUP1 MLOAD PUSH16 0xFFFFFFFFFFFFFFFFFFFFFFFFFFFFFFFF DUP2 AND DUP2 EQ PUSH2 0x2322 JUMPI PUSH1 0x0 DUP1 REVERT JUMPDEST DUP1 MLOAD PUSH1 0x2 DUP2 SWAP1 SIGNEXTEND DUP2 EQ PUSH2 0x2322 JUMPI PUSH1 0x0 DUP1 REVERT JUMPDEST DUP1 MLOAD PUSH2 0x2322 DUP2 PUSH2 0x2241 JUMP JUMPDEST PUSH1 0x0 DUP1 PUSH1 0x0 DUP1 PUSH1 0x0 DUP1 PUSH1 0x0 DUP1 PUSH1 0x0 PUSH2 0x120 DUP11 DUP13 SUB SLT ISZERO PUSH2 0x250F JUMPI PUSH1 0x0 DUP1 REVERT JUMPDEST PUSH2 0x2518 DUP11 PUSH2 0x24B3 JUMP JUMPDEST SWAP9 POP PUSH2 0x2526 PUSH1 0x20 DUP12 ADD PUSH2 0x24B3 JUMP JUMPDEST SWAP8 POP PUSH2 0x2534 PUSH1 0x40 DUP12 ADD PUSH2 0x24D3 JUMP JUMPDEST SWAP7 POP PUSH2 0x2542 PUSH1 0x60 DUP12 ADD PUSH2 0x24D3 JUMP JUMPDEST SWAP6 POP PUSH1 0x80 DUP11 ADD MLOAD SWAP5 POP PUSH1 0xA0 DUP11 ADD MLOAD SWAP4 POP PUSH1 0xC0 DUP11 ADD MLOAD PUSH2 0x2560 DUP2 PUSH2 0x2241 JUMP JUMPDEST DUP1 SWAP4 POP POP PUSH1 0xE0 DUP11 ADD MLOAD SWAP2 POP PUSH2 0x100 DUP11 ADD MLOAD SWAP1 POP SWAP3 SWAP6 SWAP9 POP SWAP3 SWAP6 SWAP9 POP SWAP3 SWAP6 SWAP9 JUMP JUMPDEST DUP1 MLOAD PUSH3 0xFFFFFF DUP2 AND DUP2 EQ PUSH2 0x2322 JUMPI PUSH1 0x0 DUP1 REVERT JUMPDEST PUSH1 0x0 DUP1 PUSH1 0x0 DUP1 PUSH1 0x0 DUP1 PUSH1 0x0 DUP1 PUSH1 0x0 DUP1 PUSH1 0x0 DUP1 PUSH2 0x180 DUP14 DUP16 SUB SLT ISZERO PUSH2 0x25B6 JUMPI PUSH1 0x0 DUP1 REVERT JUMPDEST DUP13 MLOAD PUSH12 0xFFFFFFFFFFFFFFFFFFFFFFFF DUP2 AND DUP2 EQ PUSH2 0x25D2 JUMPI PUSH1 0x0 DUP1 REVERT JUMPDEST SWAP12 POP PUSH2 0x25E0 PUSH1 0x20 DUP15 ADD PUSH2 0x24E5 JUMP JUMPDEST SWAP11 POP PUSH2 0x25EE PUSH1 0x40 DUP15 ADD PUSH2 0x24E5 JUMP JUMPDEST SWAP10 POP PUSH2 0x25FC PUSH1 0x60 DUP15 ADD PUSH2 0x24E5 JUMP JUMPDEST SWAP9 POP PUSH2 0x260A PUSH1 0x80 DUP15 ADD PUSH2 0x2580 JUMP JUMPDEST SWAP8 POP PUSH2 0x2618 PUSH1 0xA0 DUP15 ADD PUSH2 0x24D3 JUMP JUMPDEST SWAP7 POP PUSH2 0x2626 PUSH1 0xC0 DUP15 ADD PUSH2 0x24D3 JUMP JUMPDEST SWAP6 POP PUSH2 0x2634 PUSH1 0xE0 DUP15 ADD PUSH2 0x24B3 JUMP JUMPDEST SWAP5 POP PUSH2 0x100 DUP14 ADD MLOAD SWAP4 POP PUSH2 0x120 DUP14 ADD MLOAD SWAP3 POP PUSH2 0x2653 PUSH2 0x140 DUP15 ADD PUSH2 0x24B3 JUMP JUMPDEST SWAP2 POP PUSH2 0x2662 PUSH2 0x160 DUP15 ADD PUSH2 0x24B3 JUMP JUMPDEST SWAP1 POP SWAP3 SWAP6 SWAP9 SWAP12 POP SWAP3 SWAP6 SWAP9 SWAP12 POP SWAP3 SWAP6 SWAP9 SWAP12 JUMP JUMPDEST PUSH1 0x0 PUSH1 0x20 DUP3 DUP5 SUB SLT ISZERO PUSH2 0x2686 JUMPI PUSH1 0x0 DUP1 REVERT JUMPDEST DUP2 MLOAD PUSH2 0x2280 DUP2 PUSH2 0x2241 JUMP JUMPDEST PUSH1 0x0 PUSH1 0x20 DUP3 DUP5 SUB SLT ISZERO PUSH2 0x26A3 JUMPI PUSH1 0x0 DUP1 REVERT JUMPDEST POP MLOAD SWAP2 SWAP1 POP JUMP JUMPDEST PUSH32 0x4E487B7100000000000000000000000000000000000000000000000000000000 PUSH1 0x0 MSTORE PUSH1 0x11 PUSH1 0x4 MSTORE PUSH1 0x24 PUSH1 0x0 REVERT JUMPDEST PUSH1 0x0 DUP3 DUP3 LT ISZERO PUSH2 0x26EB JUMPI PUSH2 0x26EB PUSH2 0x26AA JUMP JUMPDEST POP SUB SWAP1 JUMP JUMPDEST PUSH1 0x0 DUP3 NOT DUP3 GT ISZERO PUSH2 0x2703 JUMPI PUSH2 0x2703 PUSH2 0x26AA JUMP JUMPDEST POP ADD SWAP1 JUMP JUMPDEST PUSH32 0x4E487B7100000000000000000000000000000000000000000000000000000000 PUSH1 0x0 MSTORE PUSH1 0x41 PUSH1 0x4 MSTORE PUSH1 0x24 PUSH1 0x0 REVERT JUMPDEST PUSH32 0x4E487B7100000000000000000000000000000000000000000000000000000000 PUSH1 0x0 MSTORE PUSH1 0x32 PUSH1 0x4 MSTORE PUSH1 0x24 PUSH1 0x0 REVERT JUMPDEST PUSH1 0x0 PUSH32 0xFFFFFFFFFFFFFFFFFFFFFFFFFFFFFFFFFFFFFFFFFFFFFFFFFFFFFFFFFFFFFFFF DUP3 EQ ISZERO PUSH2 0x2798 JUMPI PUSH2 0x2798 PUSH2 0x26AA JUMP JUMPDEST POP PUSH1 0x1 ADD SWAP1 JUMP JUMPDEST PUSH1 0x0 PUSH1 0x40 DUP3 DUP5 SUB SLT ISZERO PUSH2 0x27B1 JUMPI PUSH1 0x0 DUP1 REVERT JUMPDEST PUSH1 0x40 MLOAD PUSH1 0x40 DUP2 ADD DUP2 DUP2 LT PUSH8 0xFFFFFFFFFFFFFFFF DUP3 GT OR ISZERO PUSH2 0x27FB JUMPI PUSH32 0x4E487B7100000000000000000000000000000000000000000000000000000000 PUSH1 0x0 MSTORE PUSH1 0x41 PUSH1 0x4 MSTORE PUSH1 0x24 PUSH1 0x0 REVERT JUMPDEST PUSH1 0x40 MSTORE DUP3 CALLDATALOAD DUP2 MSTORE PUSH2 0x280E PUSH1 0x20 DUP5 ADD PUSH2 0x2327 JUMP JUMPDEST PUSH1 0x20 DUP3 ADD MSTORE SWAP4 SWAP3 POP POP POP JUMP JUMPDEST PUSH32 0x4E487B7100000000000000000000000000000000000000000000000000000000 PUSH1 0x0 MSTORE PUSH1 0x31 PUSH1 0x4 MSTORE PUSH1 0x24 PUSH1 0x0 REVERT JUMPDEST PUSH1 0x0 DUP2 PUSH32 0xFFFFFFFFFFFFFFFFFFFFFFFFFFFFFFFFFFFFFFFFFFFFFFFFFFFFFFFFFFFFFFFF DIV DUP4 GT DUP3 ISZERO ISZERO AND ISZERO PUSH2 0x2881 JUMPI PUSH2 0x2881 PUSH2 0x26AA JUMP JUMPDEST POP MUL SWAP1 JUMP JUMPDEST PUSH1 0x0 DUP3 PUSH2 0x28BC JUMPI PUSH32 0x4E487B7100000000000000000000000000000000000000000000000000000000 PUSH1 0x0 MSTORE PUSH1 0x12 PUSH1 0x4 MSTORE PUSH1 0x24 PUSH1 0x0 REVERT JUMPDEST POP DIV SWAP1 JUMP JUMPDEST PUSH1 0x0 DUP1 PUSH1 0x0 DUP1 PUSH1 0x0 DUP1 PUSH1 0x0 PUSH1 0xE0 DUP9 DUP11 SUB SLT ISZERO PUSH2 0x28DC JUMPI PUSH1 0x0 DUP1 REVERT JUMPDEST DUP8 MLOAD SWAP7 POP PUSH1 0x20 DUP9 ADD MLOAD PUSH2 0x28EE DUP2 PUSH2 0x2241 JUMP JUMPDEST PUSH1 0x40 DUP10 ADD MLOAD SWAP1 SWAP7 POP PUSH2 0x28FF DUP2 PUSH2 0x2241 JUMP JUMPDEST PUSH1 0x60 DUP10 ADD MLOAD SWAP1 SWAP6 POP PUSH2 0x2910 DUP2 PUSH2 0x2241 JUMP JUMPDEST SWAP4 POP PUSH2 0x291E PUSH1 0x80 DUP10 ADD PUSH2 0x2580 JUMP JUMPDEST SWAP3 POP PUSH1 0xA0 DUP9 ADD MLOAD SWAP2 POP PUSH1 0xC0 DUP9 ADD MLOAD SWAP1 POP SWAP3 SWAP6 SWAP9 SWAP2 SWAP5 SWAP8 POP SWAP3 SWAP6 POP JUMP JUMPDEST PUSH1 0x0 PUSH1 0x20 DUP3 DUP5 SUB SLT ISZERO PUSH2 0x294C JUMPI PUSH1 0x0 DUP1 REVERT JUMPDEST PUSH2 0x2280 DUP3 PUSH2 0x24B3 JUMP INVALID LOG2 PUSH5 0x6970667358 0x22 SLT KECCAK256 0x4F 0xDA PUSH17 0x68A62F16CF045BA04D3D9250663B9C47DE RETURNDATASIZE EXTCODECOPY 0x4F 0x25 0xD2 DUP9 SIGNEXTEND CREATE 0x21 REVERT 0xCF 0xD3 PUSH5 0x736F6C6343 STOP ADDMOD EXP STOP CALLER "
        },
        "methodIdentifiers": {
          "BOOST_PRECISION()": "cc6db2da",
          "CA_PRECISION()": "5c5aaa49",
          "CB_PRECISION()": "a817715b",
          "MASTER_CHEF_V3()": "52fb6531",
          "MAX_BOOST_PRECISION()": "69b02128",
          "MAX_CA()": "8abe3003",
          "MAX_CB()": "4ffcbb39",
          "MIN_CA()": "c61a66e0",
          "MIN_CB()": "9cc1d7be",
          "NonfungiblePositionManager()": "eb582d13",
          "PancakeV3Factory()": "7600f3f2",
          "VECake()": "62534e79",
          "VECakeCaller()": "e1b2d844",
          "activedPositions(address)": "63613da9",
          "cA()": "9c1ebe63",
          "cB()": "81057714",
          "cBOverride(uint256)": "4e986628",
          "depositFor(address,uint256,uint256,int128,uint256,uint256,bool)": "6e85ee47",
          "everBoosted(uint256)": "5dd574db",
          "getUserMultiplier(uint256)": "506328fc",
          "isBoostedPool(uint256)": "69074d64",
          "owner()": "8da5cb5b",
          "removeBoostMultiplier(address,uint256,uint256)": "c459a9c2",
          "renounceOwnership()": "715018a6",
          "setBoosterFarms((uint256,bool)[])": "6ea1e3c0",
          "setCA(uint256)": "6cbb37dd",
          "setCB(uint256)": "25f14873",
          "setCBOverride(uint256,uint256)": "fe19a904",
          "setVECakeCaller(address)": "d6a526cf",
          "transferOwnership(address)": "f2fde38b",
          "unlock(address,int128,uint256,uint256)": "79453948",
          "updatePositionBoostMultiplier(uint256)": "44e7bf06",
          "userInfo(address)": "1959a002",
          "userPoolTotalLiquidity(address,uint256)": "3a51327c",
          "userPositionLiquidity(address,uint256)": "61f0f689",
          "whiteList(uint256)": "5c475d42"
        }
      }
    }
  }
}