{
  "_format": "hh-sol-artifact-1",
  "contractName": "WGOLD",
  "sourceName": "contracts/WGOLD.sol",
  "abi": [
    {
      "inputs": [
        {
          "internalType": "address",
          "name": "gold_",
          "type": "address"
        }
      ],
      "stateMutability": "nonpayable",
      "type": "constructor"
    },
    {
      "anonymous": false,
      "inputs": [
        {
          "indexed": true,
          "internalType": "address",
          "name": "account",
          "type": "address"
        },
        {
          "indexed": true,
          "internalType": "address",
          "name": "operator",
          "type": "address"
        },
        {
          "indexed": false,
          "internalType": "bool",
          "name": "approved",
          "type": "bool"
        }
      ],
      "name": "ApprovalForAll",
      "type": "event"
    },
    {
      "anonymous": false,
      "inputs": [
        {
          "indexed": true,
          "internalType": "address",
          "name": "operator",
          "type": "address"
        },
        {
          "indexed": true,
          "internalType": "address",
          "name": "from",
          "type": "address"
        },
        {
          "indexed": true,
          "internalType": "address",
          "name": "to",
          "type": "address"
        },
        {
          "indexed": false,
          "internalType": "uint256[]",
          "name": "ids",
          "type": "uint256[]"
        },
        {
          "indexed": false,
          "internalType": "uint256[]",
          "name": "values",
          "type": "uint256[]"
        }
      ],
      "name": "TransferBatch",
      "type": "event"
    },
    {
      "anonymous": false,
      "inputs": [
        {
          "indexed": true,
          "internalType": "address",
          "name": "operator",
          "type": "address"
        },
        {
          "indexed": true,
          "internalType": "address",
          "name": "from",
          "type": "address"
        },
        {
          "indexed": true,
          "internalType": "address",
          "name": "to",
          "type": "address"
        },
        {
          "indexed": false,
          "internalType": "uint256",
          "name": "id",
          "type": "uint256"
        },
        {
          "indexed": false,
          "internalType": "uint256",
          "name": "value",
          "type": "uint256"
        }
      ],
      "name": "TransferSingle",
      "type": "event"
    },
    {
      "anonymous": false,
      "inputs": [
        {
          "indexed": false,
          "internalType": "string",
          "name": "value",
          "type": "string"
        },
        {
          "indexed": true,
          "internalType": "uint256",
          "name": "id",
          "type": "uint256"
        }
      ],
      "name": "URI",
      "type": "event"
    },
    {
      "anonymous": false,
      "inputs": [
        {
          "indexed": true,
          "internalType": "address",
          "name": "account",
          "type": "address"
        },
        {
          "indexed": true,
          "internalType": "uint256",
          "name": "tokenId",
          "type": "uint256"
        },
        {
          "indexed": false,
          "internalType": "uint256",
          "name": "amount",
          "type": "uint256"
        }
      ],
      "name": "Unwrapped",
      "type": "event"
    },
    {
      "anonymous": false,
      "inputs": [
        {
          "indexed": true,
          "internalType": "address",
          "name": "account",
          "type": "address"
        },
        {
          "indexed": false,
          "internalType": "uint256[]",
          "name": "tokenIds",
          "type": "uint256[]"
        },
        {
          "indexed": false,
          "internalType": "uint256[]",
          "name": "amounts",
          "type": "uint256[]"
        }
      ],
      "name": "UnwrappedBatch",
      "type": "event"
    },
    {
      "anonymous": false,
      "inputs": [
        {
          "indexed": true,
          "internalType": "address",
          "name": "account",
          "type": "address"
        },
        {
          "indexed": true,
          "internalType": "uint256",
          "name": "tokenId",
          "type": "uint256"
        },
        {
          "indexed": false,
          "internalType": "uint256",
          "name": "amount",
          "type": "uint256"
        }
      ],
      "name": "Wrapped",
      "type": "event"
    },
    {
      "anonymous": false,
      "inputs": [
        {
          "indexed": true,
          "internalType": "address",
          "name": "account",
          "type": "address"
        },
        {
          "indexed": false,
          "internalType": "uint256[]",
          "name": "tokenIds",
          "type": "uint256[]"
        },
        {
          "indexed": false,
          "internalType": "uint256[]",
          "name": "amounts",
          "type": "uint256[]"
        }
      ],
      "name": "WrappedBatch",
      "type": "event"
    },
    {
      "inputs": [],
      "name": "PAXG_TOKEN_ID",
      "outputs": [
        {
          "internalType": "uint256",
          "name": "",
          "type": "uint256"
        }
      ],
      "stateMutability": "view",
      "type": "function"
    },
    {
      "inputs": [],
      "name": "XAUT_TOKEN_ID",
      "outputs": [
        {
          "internalType": "uint256",
          "name": "",
          "type": "uint256"
        }
      ],
      "stateMutability": "view",
      "type": "function"
    },
    {
      "inputs": [
        {
          "internalType": "uint256",
          "name": "tokenId",
          "type": "uint256"
        }
      ],
      "name": "backingById",
      "outputs": [
        {
          "internalType": "uint256",
          "name": "",
          "type": "uint256"
        }
      ],
      "stateMutability": "view",
      "type": "function"
    },
    {
      "inputs": [
        {
          "internalType": "address",
          "name": "account",
          "type": "address"
        },
        {
          "internalType": "uint256",
          "name": "id",
          "type": "uint256"
        }
      ],
      "name": "balanceOf",
      "outputs": [
        {
          "internalType": "uint256",
          "name": "",
          "type": "uint256"
        }
      ],
      "stateMutability": "view",
      "type": "function"
    },
    {
      "inputs": [
        {
          "internalType": "address[]",
          "name": "accounts",
          "type": "address[]"
        },
        {
          "internalType": "uint256[]",
          "name": "ids",
          "type": "uint256[]"
        }
      ],
      "name": "balanceOfBatch",
      "outputs": [
        {
          "internalType": "uint256[]",
          "name": "",
          "type": "uint256[]"
        }
      ],
      "stateMutability": "view",
      "type": "function"
    },
    {
      "inputs": [
        {
          "internalType": "address",
          "name": "account",
          "type": "address"
        },
        {
          "internalType": "address",
          "name": "operator",
          "type": "address"
        }
      ],
      "name": "isApprovedForAll",
      "outputs": [
        {
          "internalType": "bool",
          "name": "",
          "type": "bool"
        }
      ],
      "stateMutability": "view",
      "type": "function"
    },
    {
      "inputs": [
        {
          "internalType": "address",
          "name": "",
          "type": "address"
        },
        {
          "internalType": "address",
          "name": "",
          "type": "address"
        },
        {
          "internalType": "uint256[]",
          "name": "",
          "type": "uint256[]"
        },
        {
          "internalType": "uint256[]",
          "name": "",
          "type": "uint256[]"
        },
        {
          "internalType": "bytes",
          "name": "",
          "type": "bytes"
        }
      ],
      "name": "onERC1155BatchReceived",
      "outputs": [
        {
          "internalType": "bytes4",
          "name": "",
          "type": "bytes4"
        }
      ],
      "stateMutability": "nonpayable",
      "type": "function"
    },
    {
      "inputs": [
        {
          "internalType": "address",
          "name": "",
          "type": "address"
        },
        {
          "internalType": "address",
          "name": "",
          "type": "address"
        },
        {
          "internalType": "uint256",
          "name": "",
          "type": "uint256"
        },
        {
          "internalType": "uint256",
          "name": "",
          "type": "uint256"
        },
        {
          "internalType": "bytes",
          "name": "",
          "type": "bytes"
        }
      ],
      "name": "onERC1155Received",
      "outputs": [
        {
          "internalType": "bytes4",
          "name": "",
          "type": "bytes4"
        }
      ],
      "stateMutability": "nonpayable",
      "type": "function"
    },
    {
      "inputs": [],
      "name": "rawGold",
      "outputs": [
        {
          "internalType": "contract IERC1155",
          "name": "",
          "type": "address"
        }
      ],
      "stateMutability": "view",
      "type": "function"
    },
    {
      "inputs": [
        {
          "internalType": "address",
          "name": "from",
          "type": "address"
        },
        {
          "internalType": "address",
          "name": "to",
          "type": "address"
        },
        {
          "internalType": "uint256[]",
          "name": "ids",
          "type": "uint256[]"
        },
        {
          "internalType": "uint256[]",
          "name": "amounts",
          "type": "uint256[]"
        },
        {
          "internalType": "bytes",
          "name": "data",
          "type": "bytes"
        }
      ],
      "name": "safeBatchTransferFrom",
      "outputs": [],
      "stateMutability": "nonpayable",
      "type": "function"
    },
    {
      "inputs": [
        {
          "internalType": "address",
          "name": "from",
          "type": "address"
        },
        {
          "internalType": "address",
          "name": "to",
          "type": "address"
        },
        {
          "internalType": "uint256",
          "name": "id",
          "type": "uint256"
        },
        {
          "internalType": "uint256",
          "name": "amount",
          "type": "uint256"
        },
        {
          "internalType": "bytes",
          "name": "data",
          "type": "bytes"
        }
      ],
      "name": "safeTransferFrom",
      "outputs": [],
      "stateMutability": "nonpayable",
      "type": "function"
    },
    {
      "inputs": [
        {
          "internalType": "address",
          "name": "operator",
          "type": "address"
        },
        {
          "internalType": "bool",
          "name": "approved",
          "type": "bool"
        }
      ],
      "name": "setApprovalForAll",
      "outputs": [],
      "stateMutability": "nonpayable",
      "type": "function"
    },
    {
      "inputs": [
        {
          "internalType": "bytes4",
          "name": "interfaceId",
          "type": "bytes4"
        }
      ],
      "name": "supportsInterface",
      "outputs": [
        {
          "internalType": "bool",
          "name": "",
          "type": "bool"
        }
      ],
      "stateMutability": "view",
      "type": "function"
    },
    {
      "inputs": [],
      "name": "totalBacking",
      "outputs": [
        {
          "internalType": "uint256",
          "name": "",
          "type": "uint256"
        }
      ],
      "stateMutability": "view",
      "type": "function"
    },
    {
      "inputs": [
        {
          "internalType": "uint256",
          "name": "tokenId",
          "type": "uint256"
        },
        {
          "internalType": "uint256",
          "name": "amount",
          "type": "uint256"
        }
      ],
      "name": "unwrap",
      "outputs": [],
      "stateMutability": "nonpayable",
      "type": "function"
    },
    {
      "inputs": [
        {
          "internalType": "uint256[]",
          "name": "tokenIds",
          "type": "uint256[]"
        },
        {
          "internalType": "uint256[]",
          "name": "amounts",
          "type": "uint256[]"
        }
      ],
      "name": "unwrapBatch",
      "outputs": [],
      "stateMutability": "nonpayable",
      "type": "function"
    },
    {
      "inputs": [
        {
          "internalType": "uint256",
          "name": "",
          "type": "uint256"
        }
      ],
      "name": "uri",
      "outputs": [
        {
          "internalType": "string",
          "name": "",
          "type": "string"
        }
      ],
      "stateMutability": "view",
      "type": "function"
    },
    {
      "inputs": [
        {
          "internalType": "uint256",
          "name": "tokenId",
          "type": "uint256"
        },
        {
          "internalType": "uint256",
          "name": "amount",
          "type": "uint256"
        }
      ],
      "name": "wrap",
      "outputs": [],
      "stateMutability": "nonpayable",
      "type": "function"
    },
    {
      "inputs": [
        {
          "internalType": "uint256[]",
          "name": "tokenIds",
          "type": "uint256[]"
        },
        {
          "internalType": "uint256[]",
          "name": "amounts",
          "type": "uint256[]"
        }
      ],
      "name": "wrapBatch",
      "outputs": [],
      "stateMutability": "nonpayable",
      "type": "function"
    }
  ],
  "bytecode": "0x60a06040523480156200001157600080fd5b50604051620039b5380380620039b583398101604081905262000034916200017f565b6040805160208101909152600081526200004e81620000c0565b506001600160a01b038116620000aa5760405162461bcd60e51b815260206004820152601360248201527f57474f4c443a20696e76616c696420676f6c6400000000000000000000000000604482015260640160405180910390fd5b60601b6001600160601b031916608052620001ec565b8051620000d5906002906020840190620000d9565b5050565b828054620000e790620001af565b90600052602060002090601f0160209004810192826200010b576000855562000156565b82601f106200012657805160ff191683800117855562000156565b8280016001018555821562000156579182015b828111156200015657825182559160200191906001019062000139565b506200016492915062000168565b5090565b5b8082111562000164576000815560010162000169565b60006020828403121562000191578081fd5b81516001600160a01b0381168114620001a8578182fd5b9392505050565b600181811c90821680620001c457607f821691505b60208210811415620001e657634e487b7160e01b600052602260045260246000fd5b50919050565b60805160601c6137796200023c6000396000818161025f0152818161066e01528181610a9d01528181610f0a015281816112930152818161152b015281816115f001526116b201526137796000f3fe608060405234801561001057600080fd5b50600436106101505760003560e01c8063953a1ea7116100cd578063e86086fa11610081578063eb2cd25811610066578063eb2cd25814610373578063f23a6e611461037b578063f242432a146103b357600080fd5b8063e86086fa14610322578063e985e9c51461032a57600080fd5b8063a9967fe1116100b2578063a9967fe11461025a578063bc197c81146102a6578063c0f2b0f91461030f57600080fd5b8063953a1ea714610234578063a22cb4651461024757600080fd5b80632eb2c2d6116101245780634e1273f4116101095780634e1273f4146101f95780636e28667114610219578063917666c41461022c57600080fd5b80632eb2c2d6146101d357806330ce0e55146101e657600080fd5b8062fdd58e1461015557806301ffc9a71461017b5780630e89341c1461019e57806325ded586146101be575b600080fd5b610168610163366004613064565b6103c6565b6040519081526020015b60405180910390f35b61018e6101893660046131c1565b6104a3565b6040519015158152602001610172565b6101b16101ac366004613200565b6104b4565b60405161017291906134cd565b6101d16101cc366004613230565b610548565b005b6101d16101e1366004612f21565b610736565b6101d16101f4366004613158565b6107ff565b61020c61020736600461308d565b610be5565b604051610172919061348c565b6101d1610227366004613230565b610dd9565b610168600181565b6101d1610242366004613158565b610faf565b6101d161025536600461302a565b611350565b6102817f000000000000000000000000000000000000000000000000000000000000000081565b60405173ffffffffffffffffffffffffffffffffffffffff9091168152602001610172565b6102de6102b4366004612f21565b7fbc197c810000000000000000000000000000000000000000000000000000000095945050505050565b6040517fffffffff000000000000000000000000000000000000000000000000000000009091168152602001610172565b61016861031d366004613200565b611486565b610168600281565b61018e610338366004612eef565b73ffffffffffffffffffffffffffffffffffffffff918216600090815260016020908152604080832093909416825291909152205460ff1690565b6101686115b9565b6102de610389366004612fc7565b7ff23a6e610000000000000000000000000000000000000000000000000000000095945050505050565b6101d16103c1366004612fc7565b61174f565b600073ffffffffffffffffffffffffffffffffffffffff8316610470576040517f08c379a000000000000000000000000000000000000000000000000000000000815260206004820152602b60248201527f455243313135353a2062616c616e636520717565727920666f7220746865207a60448201527f65726f206164647265737300000000000000000000000000000000000000000060648201526084015b60405180910390fd5b5060009081526020818152604080832073ffffffffffffffffffffffffffffffffffffffff949094168352929052205490565b60006104ae82611811565b92915050565b6060600280546104c39061351c565b80601f01602080910402602001604051908101604052809291908181526020018280546104ef9061351c565b801561053c5780601f106105115761010080835404028352916020019161053c565b820191906000526020600020905b81548152906001019060200180831161051f57829003601f168201915b50505050509050919050565b61055182611867565b6105b7576040517f08c379a000000000000000000000000000000000000000000000000000000000815260206004820152601860248201527f57474f4c443a20756e737570706f7274656420746f6b656e00000000000000006044820152606401610467565b8061061e576040517f08c379a000000000000000000000000000000000000000000000000000000000815260206004820152601560248201527f57474f4c443a20696e76616c696420616d6f756e7400000000000000000000006044820152606401610467565b6040517ff242432a000000000000000000000000000000000000000000000000000000008152336004820152306024820152604481018390526064810182905260a06084820152600060a48201527f000000000000000000000000000000000000000000000000000000000000000073ffffffffffffffffffffffffffffffffffffffff169063f242432a9060c401600060405180830381600087803b1580156106c757600080fd5b505af11580156106db573d6000803e3d6000fd5b505050506106fa3383836040518060200160405280600081525061187a565b604051818152829033907f727200b48f3c812bfb404b578574e1c03694edb122d80fa6dcb352a9e4f8a938906020015b60405180910390a35050565b73ffffffffffffffffffffffffffffffffffffffff851633148061075f575061075f8533610338565b6107eb576040517f08c379a000000000000000000000000000000000000000000000000000000000815260206004820152603260248201527f455243313135353a207472616e736665722063616c6c6572206973206e6f742060448201527f6f776e6572206e6f7220617070726f76656400000000000000000000000000006064820152608401610467565b6107f885858585856119e1565b5050505050565b82818114610869576040517f08c379a000000000000000000000000000000000000000000000000000000000815260206004820152601660248201527f57474f4c443a206c656e677468206d69736d61746368000000000000000000006044820152606401610467565b806108d0576040517f08c379a000000000000000000000000000000000000000000000000000000000815260206004820152601260248201527f57474f4c443a20656d70747920626174636800000000000000000000000000006044820152606401610467565b60005b8181101561099957610923868683818110610917577f4e487b7100000000000000000000000000000000000000000000000000000000600052603260045260246000fd5b90506020020135611867565b610989576040517f08c379a000000000000000000000000000000000000000000000000000000000815260206004820152601860248201527f57474f4c443a20756e737570706f7274656420746f6b656e00000000000000006044820152606401610467565b610992816135bb565b90506108d3565b5060005b81811015610a5f578383828181106109de577f4e487b7100000000000000000000000000000000000000000000000000000000600052603260045260246000fd5b9050602002013560001415610a4f576040517f08c379a000000000000000000000000000000000000000000000000000000000815260206004820152601560248201527f57474f4c443a20696e76616c696420616d6f756e7400000000000000000000006044820152606401610467565b610a58816135bb565b905061099d565b506040517f2eb2c2d600000000000000000000000000000000000000000000000000000000815273ffffffffffffffffffffffffffffffffffffffff7f00000000000000000000000000000000000000000000000000000000000000001690632eb2c2d690610adc90339030908a908a908a908a90600401613341565b600060405180830381600087803b158015610af657600080fd5b505af1158015610b0a573d6000803e3d6000fd5b50505050610b8a3386868080602002602001604051908101604052809392919081815260200183836020028082843760009201919091525050604080516020808a02828101820190935289825290935089925088918291850190849080828437600092018290525060408051602081019091529081529250611d69915050565b3373ffffffffffffffffffffffffffffffffffffffff167f5399a57fa05cd1eef51c36061d49911928051557f2307546562d69af41ec2fa586868686604051610bd69493929190613465565b60405180910390a25050505050565b60608151835114610c78576040517f08c379a000000000000000000000000000000000000000000000000000000000815260206004820152602960248201527f455243313135353a206163636f756e747320616e6420696473206c656e67746860448201527f206d69736d6174636800000000000000000000000000000000000000000000006064820152608401610467565b6000835167ffffffffffffffff811115610cbb577f4e487b7100000000000000000000000000000000000000000000000000000000600052604160045260246000fd5b604051908082528060200260200182016040528015610ce4578160200160208202803683370190505b50905060005b8451811015610dd157610d7d858281518110610d2f577f4e487b7100000000000000000000000000000000000000000000000000000000600052603260045260246000fd5b6020026020010151858381518110610d70577f4e487b7100000000000000000000000000000000000000000000000000000000600052603260045260246000fd5b60200260200101516103c6565b828281518110610db6577f4e487b7100000000000000000000000000000000000000000000000000000000600052603260045260246000fd5b6020908102919091010152610dca816135bb565b9050610cea565b509392505050565b610de282611867565b610e48576040517f08c379a000000000000000000000000000000000000000000000000000000000815260206004820152601860248201527f57474f4c443a20756e737570706f7274656420746f6b656e00000000000000006044820152606401610467565b80610eaf576040517f08c379a000000000000000000000000000000000000000000000000000000000815260206004820152601560248201527f57474f4c443a20696e76616c696420616d6f756e7400000000000000000000006044820152606401610467565b610eba338383612030565b6040517ff242432a000000000000000000000000000000000000000000000000000000008152306004820152336024820152604481018390526064810182905260a06084820152600060a48201527f000000000000000000000000000000000000000000000000000000000000000073ffffffffffffffffffffffffffffffffffffffff169063f242432a9060c401600060405180830381600087803b158015610f6357600080fd5b505af1158015610f77573d6000803e3d6000fd5b50506040518381528492503391507ff64ae1cc3e0e07da9c895b3225439175cab5838aca24c4e74852704858c96a7b9060200161072a565b82818114611019576040517f08c379a000000000000000000000000000000000000000000000000000000000815260206004820152601660248201527f57474f4c443a206c656e677468206d69736d61746368000000000000000000006044820152606401610467565b80611080576040517f08c379a000000000000000000000000000000000000000000000000000000000815260206004820152601260248201527f57474f4c443a20656d70747920626174636800000000000000000000000000006044820152606401610467565b60005b818110156111e7576110c7868683818110610917577f4e487b7100000000000000000000000000000000000000000000000000000000600052603260045260246000fd5b61112d576040517f08c379a000000000000000000000000000000000000000000000000000000000815260206004820152601860248201527f57474f4c443a20756e737570706f7274656420746f6b656e00000000000000006044820152606401610467565b838382818110611166577f4e487b7100000000000000000000000000000000000000000000000000000000600052603260045260246000fd5b90506020020135600014156111d7576040517f08c379a000000000000000000000000000000000000000000000000000000000815260206004820152601560248201527f57474f4c443a20696e76616c696420616d6f756e7400000000000000000000006044820152606401610467565b6111e0816135bb565b9050611083565b506112563386868080602002602001604051908101604052809392919081815260200183836020028082843760009201919091525050604080516020808a0282810182019093528982529093508992508891829185019084908082843760009201919091525061223892505050565b6040517f2eb2c2d600000000000000000000000000000000000000000000000000000000815273ffffffffffffffffffffffffffffffffffffffff7f00000000000000000000000000000000000000000000000000000000000000001690632eb2c2d6906112d290309033908a908a908a908a90600401613341565b600060405180830381600087803b1580156112ec57600080fd5b505af1158015611300573d6000803e3d6000fd5b505050503373ffffffffffffffffffffffffffffffffffffffff167fffe24c84fcb788fbd78a9242f5632e98511c2af8ab38c2a6b3063e6f96870ce986868686604051610bd69493929190613465565b3373ffffffffffffffffffffffffffffffffffffffff831614156113f6576040517f08c379a000000000000000000000000000000000000000000000000000000000815260206004820152602960248201527f455243313135353a2073657474696e6720617070726f76616c2073746174757360448201527f20666f722073656c6600000000000000000000000000000000000000000000006064820152608401610467565b33600081815260016020908152604080832073ffffffffffffffffffffffffffffffffffffffff87168085529083529281902080547fffffffffffffffffffffffffffffffffffffffffffffffffffffffffffffff001686151590811790915590519081529192917f17307eab39ab6107e8899845ad3d59bd9653f200f220920489ca2b5937696c31910161072a565b600061149182611867565b6114f7576040517f08c379a000000000000000000000000000000000000000000000000000000000815260206004820152601860248201527f57474f4c443a20756e737570706f7274656420746f6b656e00000000000000006044820152606401610467565b6040517efdd58e000000000000000000000000000000000000000000000000000000008152306004820152602481018390527f000000000000000000000000000000000000000000000000000000000000000073ffffffffffffffffffffffffffffffffffffffff169062fdd58e9060440160206040518083038186803b15801561158157600080fd5b505afa158015611595573d6000803e3d6000fd5b505050506040513d601f19601f820116820180604052508101906104ae9190613218565b6040517efdd58e000000000000000000000000000000000000000000000000000000008152306004820152600260248201526000907f000000000000000000000000000000000000000000000000000000000000000073ffffffffffffffffffffffffffffffffffffffff169062fdd58e9060440160206040518083038186803b15801561164657600080fd5b505afa15801561165a573d6000803e3d6000fd5b505050506040513d601f19601f8201168201806040525081019061167e9190613218565b6040517efdd58e000000000000000000000000000000000000000000000000000000008152306004820152600160248201527f000000000000000000000000000000000000000000000000000000000000000073ffffffffffffffffffffffffffffffffffffffff169062fdd58e9060440160206040518083038186803b15801561170857600080fd5b505afa15801561171c573d6000803e3d6000fd5b505050506040513d601f19601f820116820180604052508101906117409190613218565b61174a9190613504565b905090565b73ffffffffffffffffffffffffffffffffffffffff851633148061177857506117788533610338565b611804576040517f08c379a000000000000000000000000000000000000000000000000000000000815260206004820152602960248201527f455243313135353a2063616c6c6572206973206e6f74206f776e6572206e6f7260448201527f20617070726f76656400000000000000000000000000000000000000000000006064820152608401610467565b6107f8858585858561259f565b60007fffffffff0000000000000000000000000000000000000000000000000000000082167f4e2312e00000000000000000000000000000000000000000000000000000000014806104ae57506104ae826127d0565b600060018214806104ae57505060021490565b73ffffffffffffffffffffffffffffffffffffffff841661191d576040517f08c379a000000000000000000000000000000000000000000000000000000000815260206004820152602160248201527f455243313135353a206d696e7420746f20746865207a65726f2061646472657360448201527f73000000000000000000000000000000000000000000000000000000000000006064820152608401610467565b336119378160008761192e886128b3565b6107f8886128b3565b60008481526020818152604080832073ffffffffffffffffffffffffffffffffffffffff8916845290915281208054859290611974908490613504565b9091555050604080518581526020810185905273ffffffffffffffffffffffffffffffffffffffff80881692600092918516917fc3d58168c5ae7397731d063d5bbf3d657854427343f4c083240f7aacaa2d0f62910160405180910390a46107f881600087878787612925565b8151835114611a72576040517f08c379a000000000000000000000000000000000000000000000000000000000815260206004820152602860248201527f455243313135353a2069647320616e6420616d6f756e7473206c656e6774682060448201527f6d69736d617463680000000000000000000000000000000000000000000000006064820152608401610467565b73ffffffffffffffffffffffffffffffffffffffff8416611b15576040517f08c379a000000000000000000000000000000000000000000000000000000000815260206004820152602560248201527f455243313135353a207472616e7366657220746f20746865207a65726f20616460448201527f64726573730000000000000000000000000000000000000000000000000000006064820152608401610467565b3360005b8451811015611cd4576000858281518110611b5d577f4e487b7100000000000000000000000000000000000000000000000000000000600052603260045260246000fd5b602002602001015190506000858381518110611ba2577f4e487b7100000000000000000000000000000000000000000000000000000000600052603260045260246000fd5b6020908102919091018101516000848152808352604080822073ffffffffffffffffffffffffffffffffffffffff8e168352909352919091205490915081811015611c6f576040517f08c379a000000000000000000000000000000000000000000000000000000000815260206004820152602a60248201527f455243313135353a20696e73756666696369656e742062616c616e636520666f60448201527f72207472616e73666572000000000000000000000000000000000000000000006064820152608401610467565b60008381526020818152604080832073ffffffffffffffffffffffffffffffffffffffff8e8116855292528083208585039055908b16825281208054849290611cb9908490613504565b9250508190555050505080611ccd906135bb565b9050611b19565b508473ffffffffffffffffffffffffffffffffffffffff168673ffffffffffffffffffffffffffffffffffffffff168273ffffffffffffffffffffffffffffffffffffffff167f4a39dc06d4c0dbc64b70af90fd698a233a518aa5d07e595d983b8c0526c8f7fb8787604051611d4b92919061349f565b60405180910390a4611d61818787878787612bbf565b505050505050565b73ffffffffffffffffffffffffffffffffffffffff8416611e0c576040517f08c379a000000000000000000000000000000000000000000000000000000000815260206004820152602160248201527f455243313135353a206d696e7420746f20746865207a65726f2061646472657360448201527f73000000000000000000000000000000000000000000000000000000000000006064820152608401610467565b8151835114611e9d576040517f08c379a000000000000000000000000000000000000000000000000000000000815260206004820152602860248201527f455243313135353a2069647320616e6420616d6f756e7473206c656e6774682060448201527f6d69736d617463680000000000000000000000000000000000000000000000006064820152608401610467565b3360005b8451811015611fa157838181518110611ee3577f4e487b7100000000000000000000000000000000000000000000000000000000600052603260045260246000fd5b6020026020010151600080878481518110611f27577f4e487b7100000000000000000000000000000000000000000000000000000000600052603260045260246000fd5b6020026020010151815260200190815260200160002060008873ffffffffffffffffffffffffffffffffffffffff1673ffffffffffffffffffffffffffffffffffffffff1681526020019081526020016000206000828254611f899190613504565b90915550819050611f99816135bb565b915050611ea1565b508473ffffffffffffffffffffffffffffffffffffffff16600073ffffffffffffffffffffffffffffffffffffffff168273ffffffffffffffffffffffffffffffffffffffff167f4a39dc06d4c0dbc64b70af90fd698a233a518aa5d07e595d983b8c0526c8f7fb878760405161201992919061349f565b60405180910390a46107f881600087878787612bbf565b73ffffffffffffffffffffffffffffffffffffffff83166120d3576040517f08c379a000000000000000000000000000000000000000000000000000000000815260206004820152602360248201527f455243313135353a206275726e2066726f6d20746865207a65726f206164647260448201527f65737300000000000000000000000000000000000000000000000000000000006064820152608401610467565b33612103818560006120e4876128b3565b6120ed876128b3565b5050604080516020810190915260009052505050565b60008381526020818152604080832073ffffffffffffffffffffffffffffffffffffffff88168452909152902054828110156121c0576040517f08c379a0000000000000000000000000000000000000000000000000000000008152602060048201526024808201527f455243313135353a206275726e20616d6f756e7420657863656564732062616c60448201527f616e6365000000000000000000000000000000000000000000000000000000006064820152608401610467565b60008481526020818152604080832073ffffffffffffffffffffffffffffffffffffffff898116808652918452828520888703905582518981529384018890529092908616917fc3d58168c5ae7397731d063d5bbf3d657854427343f4c083240f7aacaa2d0f62910160405180910390a45050505050565b73ffffffffffffffffffffffffffffffffffffffff83166122db576040517f08c379a000000000000000000000000000000000000000000000000000000000815260206004820152602360248201527f455243313135353a206275726e2066726f6d20746865207a65726f206164647260448201527f65737300000000000000000000000000000000000000000000000000000000006064820152608401610467565b805182511461236c576040517f08c379a000000000000000000000000000000000000000000000000000000000815260206004820152602860248201527f455243313135353a2069647320616e6420616d6f756e7473206c656e6774682060448201527f6d69736d617463680000000000000000000000000000000000000000000000006064820152608401610467565b604080516020810190915260009081905233905b83518110156125195760008482815181106123c4577f4e487b7100000000000000000000000000000000000000000000000000000000600052603260045260246000fd5b602002602001015190506000848381518110612409577f4e487b7100000000000000000000000000000000000000000000000000000000600052603260045260246000fd5b6020908102919091018101516000848152808352604080822073ffffffffffffffffffffffffffffffffffffffff8c1683529093529190912054909150818110156124d5576040517f08c379a0000000000000000000000000000000000000000000000000000000008152602060048201526024808201527f455243313135353a206275726e20616d6f756e7420657863656564732062616c60448201527f616e6365000000000000000000000000000000000000000000000000000000006064820152608401610467565b60009283526020838152604080852073ffffffffffffffffffffffffffffffffffffffff8b1686529091529092209103905580612511816135bb565b915050612380565b50600073ffffffffffffffffffffffffffffffffffffffff168473ffffffffffffffffffffffffffffffffffffffff168273ffffffffffffffffffffffffffffffffffffffff167f4a39dc06d4c0dbc64b70af90fd698a233a518aa5d07e595d983b8c0526c8f7fb868660405161259192919061349f565b60405180910390a450505050565b73ffffffffffffffffffffffffffffffffffffffff8416612642576040517f08c379a000000000000000000000000000000000000000000000000000000000815260206004820152602560248201527f455243313135353a207472616e7366657220746f20746865207a65726f20616460448201527f64726573730000000000000000000000000000000000000000000000000000006064820152608401610467565b3361265281878761192e886128b3565b60008481526020818152604080832073ffffffffffffffffffffffffffffffffffffffff8a16845290915290205483811015612710576040517f08c379a000000000000000000000000000000000000000000000000000000000815260206004820152602a60248201527f455243313135353a20696e73756666696369656e742062616c616e636520666f60448201527f72207472616e73666572000000000000000000000000000000000000000000006064820152608401610467565b60008581526020818152604080832073ffffffffffffffffffffffffffffffffffffffff8b811685529252808320878503905590881682528120805486929061275a908490613504565b9091555050604080518681526020810186905273ffffffffffffffffffffffffffffffffffffffff808916928a821692918616917fc3d58168c5ae7397731d063d5bbf3d657854427343f4c083240f7aacaa2d0f62910160405180910390a46127c7828888888888612925565b50505050505050565b60007fffffffff0000000000000000000000000000000000000000000000000000000082167fd9b67a2600000000000000000000000000000000000000000000000000000000148061286357507fffffffff0000000000000000000000000000000000000000000000000000000082167f0e89341c00000000000000000000000000000000000000000000000000000000145b806104ae57507f01ffc9a7000000000000000000000000000000000000000000000000000000007fffffffff000000000000000000000000000000000000000000000000000000008316146104ae565b60408051600180825281830190925260609160009190602080830190803683370190505090508281600081518110612914577f4e487b7100000000000000000000000000000000000000000000000000000000600052603260045260246000fd5b602090810291909101015292915050565b73ffffffffffffffffffffffffffffffffffffffff84163b15611d61576040517ff23a6e6100000000000000000000000000000000000000000000000000000000815273ffffffffffffffffffffffffffffffffffffffff85169063f23a6e619061299c9089908990889088908890600401613415565b602060405180830381600087803b1580156129b657600080fd5b505af1925050508015612a04575060408051601f3d9081017fffffffffffffffffffffffffffffffffffffffffffffffffffffffffffffffe0168201909252612a01918101906131e4565b60015b612aee57612a10613652565b806308c379a01415612a645750612a2561366a565b80612a305750612a66565b806040517f08c379a000000000000000000000000000000000000000000000000000000000815260040161046791906134cd565b505b6040517f08c379a000000000000000000000000000000000000000000000000000000000815260206004820152603460248201527f455243313135353a207472616e7366657220746f206e6f6e204552433131353560448201527f526563656976657220696d706c656d656e7465720000000000000000000000006064820152608401610467565b7fffffffff0000000000000000000000000000000000000000000000000000000081167ff23a6e6100000000000000000000000000000000000000000000000000000000146127c7576040517f08c379a000000000000000000000000000000000000000000000000000000000815260206004820152602860248201527f455243313135353a204552433131353552656365697665722072656a6563746560448201527f6420746f6b656e730000000000000000000000000000000000000000000000006064820152608401610467565b73ffffffffffffffffffffffffffffffffffffffff84163b15611d61576040517fbc197c8100000000000000000000000000000000000000000000000000000000815273ffffffffffffffffffffffffffffffffffffffff85169063bc197c8190612c3690899089908890889088906004016133aa565b602060405180830381600087803b158015612c5057600080fd5b505af1925050508015612c9e575060408051601f3d9081017fffffffffffffffffffffffffffffffffffffffffffffffffffffffffffffffe0168201909252612c9b918101906131e4565b60015b612caa57612a10613652565b7fffffffff0000000000000000000000000000000000000000000000000000000081167fbc197c8100000000000000000000000000000000000000000000000000000000146127c7576040517f08c379a000000000000000000000000000000000000000000000000000000000815260206004820152602860248201527f455243313135353a204552433131353552656365697665722072656a6563746560448201527f6420746f6b656e730000000000000000000000000000000000000000000000006064820152608401610467565b803573ffffffffffffffffffffffffffffffffffffffff81168114612d9f57600080fd5b919050565b60008083601f840112612db5578182fd5b50813567ffffffffffffffff811115612dcc578182fd5b6020830191508360208260051b8501011115612de757600080fd5b9250929050565b600082601f830112612dfe578081fd5b81356020612e0b826134e0565b604051612e188282613570565b8381528281019150858301600585901b87018401881015612e37578586fd5b855b85811015612e5557813584529284019290840190600101612e39565b5090979650505050505050565b600082601f830112612e72578081fd5b813567ffffffffffffffff811115612e8c57612e8c613623565b604051612ec160207fffffffffffffffffffffffffffffffffffffffffffffffffffffffffffffffe0601f8501160182613570565b818152846020838601011115612ed5578283fd5b816020850160208301379081016020019190915292915050565b60008060408385031215612f01578182fd5b612f0a83612d7b565b9150612f1860208401612d7b565b90509250929050565b600080600080600060a08688031215612f38578081fd5b612f4186612d7b565b9450612f4f60208701612d7b565b9350604086013567ffffffffffffffff80821115612f6b578283fd5b612f7789838a01612dee565b94506060880135915080821115612f8c578283fd5b612f9889838a01612dee565b93506080880135915080821115612fad578283fd5b50612fba88828901612e62565b9150509295509295909350565b600080600080600060a08688031215612fde578081fd5b612fe786612d7b565b9450612ff560208701612d7b565b93506040860135925060608601359150608086013567ffffffffffffffff81111561301e578182fd5b612fba88828901612e62565b6000806040838503121561303c578182fd5b61304583612d7b565b915060208301358015158114613059578182fd5b809150509250929050565b60008060408385031215613076578182fd5b61307f83612d7b565b946020939093013593505050565b6000806040838503121561309f578182fd5b823567ffffffffffffffff808211156130b6578384fd5b818501915085601f8301126130c9578384fd5b813560206130d6826134e0565b6040516130e38282613570565b8381528281019150858301600585901b870184018b1015613102578889fd5b8896505b8487101561312b5761311781612d7b565b835260019690960195918301918301613106565b5096505086013592505080821115613141578283fd5b5061314e85828601612dee565b9150509250929050565b6000806000806040858703121561316d578384fd5b843567ffffffffffffffff80821115613184578586fd5b61319088838901612da4565b909650945060208701359150808211156131a8578384fd5b506131b587828801612da4565b95989497509550505050565b6000602082840312156131d2578081fd5b81356131dd81613712565b9392505050565b6000602082840312156131f5578081fd5b81516131dd81613712565b600060208284031215613211578081fd5b5035919050565b600060208284031215613229578081fd5b5051919050565b60008060408385031215613242578182fd5b50508035926020909101359150565b81835260007f07ffffffffffffffffffffffffffffffffffffffffffffffffffffffffffffff831115613282578081fd5b8260051b80836020870137939093016020019283525090919050565b6000815180845260208085019450808401835b838110156132cd578151875295820195908201906001016132b1565b509495945050505050565b60008151808452815b818110156132fd576020818501810151868301820152016132e1565b8181111561330e5782602083870101525b50601f017fffffffffffffffffffffffffffffffffffffffffffffffffffffffffffffffe0169290920160200192915050565b600073ffffffffffffffffffffffffffffffffffffffff808916835280881660208401525060a0604083015261337b60a083018688613251565b828103606084015261338e818587613251565b8381036080909401939093525081526020019695505050505050565b600073ffffffffffffffffffffffffffffffffffffffff808816835280871660208401525060a060408301526133e360a083018661329e565b82810360608401526133f5818661329e565b9050828103608084015261340981856132d8565b98975050505050505050565b600073ffffffffffffffffffffffffffffffffffffffff808816835280871660208401525084604083015283606083015260a0608083015261345a60a08301846132d8565b979650505050505050565b604081526000613479604083018688613251565b828103602084015261345a818587613251565b6020815260006131dd602083018461329e565b6040815260006134b2604083018561329e565b82810360208401526134c4818561329e565b95945050505050565b6020815260006131dd60208301846132d8565b600067ffffffffffffffff8211156134fa576134fa613623565b5060051b60200190565b60008219821115613517576135176135f4565b500190565b600181811c9082168061353057607f821691505b6020821081141561356a577f4e487b7100000000000000000000000000000000000000000000000000000000600052602260045260246000fd5b50919050565b7fffffffffffffffffffffffffffffffffffffffffffffffffffffffffffffffe0601f830116810181811067ffffffffffffffff821117156135b4576135b4613623565b6040525050565b60007fffffffffffffffffffffffffffffffffffffffffffffffffffffffffffffffff8214156135ed576135ed6135f4565b5060010190565b7f4e487b7100000000000000000000000000000000000000000000000000000000600052601160045260246000fd5b7f4e487b7100000000000000000000000000000000000000000000000000000000600052604160045260246000fd5b600060033d111561366757600481823e5160e01c5b90565b600060443d10156136785790565b6040517ffffffffffffffffffffffffffffffffffffffffffffffffffffffffffffffffc803d016004833e81513d67ffffffffffffffff81602484011181841117156136c657505050505090565b82850191508151818111156136de5750505050505090565b843d87010160208285010111156136f85750505050505090565b61370760208286010187613570565b509095945050505050565b7fffffffff000000000000000000000000000000000000000000000000000000008116811461374057600080fd5b5056fea2646970667358221220bee2148145d795cf206bccdcfe43859ace7526ba3b2bf395992a0b3854f1b1a964736f6c63430008040033",
  "linkReferences": {},
  "deployedLinkReferences": {}
}